:02000004900466
:1000000000000220910604908506049045DD0490CE
:100010008506049085060490850604900000000083
:1000200000000000000000000000000085060490B1
:10003000850604900000000085060490C9DC049049
:100040008506049085060490850604908506049034
:100050008506049085060490850604908506049024
:10006000850604908506049085060490ADD804901A
:10007000B9D80490D5B90490C5D80490D1D80490CB
:10008000CDB4059095C30490850604908506049030
:1000900085060490850604908506049085060490E4
:1000A00085060490850604908506049085060490D4
:1000B00059A6059065A6059071A60590C9C3049040
:1000C00085060490D5C3049085060490A19E0590F2
:1000D000AD9E059001B305902DB3059061B30590D9
:1000E00085060490850604900000000085060490B3
:1000F0008506049085060490850604908506049084
:1001000085060490850604907DA60590B99E05900D
:1001100095B30590C9B305908506049085060490B3
:100120008506049085060490DD9E0590119F05903C
:1001300001B5059085060490850604908506049017
:1001400000000000000000000000000000000000AF
:10015000850604908506049085060490FDB30590FD
:10016000E1C3049085060490D9DC0490FDDC049082
:100170008506049021DD0490850604908506049090
:10018000850604908506049031B4059065B4059009
:10019000C59E0590D19E0590850604908506049025
:1001A00085060490850604908506049085060490D3
:1001B000ADD50490850604908506049085060490CC
:1001C00085060490850604907DB4049089B404905B
:1001D0008506049095B404908506049085060490E5
:1001E0008506049085060490850604908506049093
:1001F0008506049085060490850604908506049083
:100200008506049085060490850604908506049072
:100210008506049085060490850604908506049062
:100220008506049085060490850604900000000071
:100230008506049085060490000000008506049061
:100240008506049085060490850604908506049032
:100250008506049085060490850604908506049022
:100260008506049085060490850604908506049012
:10027000850604908506049099B40590000000005E
:100280008506049085060490850604900000000011
:08029000000000008506049047
:1002A00010B5054C237833B9044B13B10448AFF3B0
:1002B00000800123237010BD3006002400000000E0
:1002C000204D069008B5034B1BB103490348AFF31B
:1002D000008008BD0000000034060024204D069078
:1002E00001F0FF01102A2BDB10F0070F08D010F8E7
:1002F000013B013A8B422DD010F0070F42B3F6D1EB
:10030000F0B441EA012141EA014122F007047FF003
:1003100000070023F0E80256083C85EA010586EA5A
:10032000010685FA47F5A3FA87F586FA47F6A5FA96
:1003300087F68EB9EED1F0BC01F0FF0102F00702A2
:1003400032B110F8013B013A83EA010313B1F8D14D
:100350000020704701387047002D06BF354603382E
:10036000073815F0010F07D1013015F4807F02BF67
:10037000013015F4C03F0130F0BC0138704700BFB8
:1003800053B94AB9002908BF00281CBF4FF0FF31FC
:100390004FF0FF3000F074B9ADF1080C6DE904CEF8
:1003A00000F006F8DDF804E0DDE9022304B0704750
:1003B0002DE9F047089D04468E46002B4DD18A4218
:1003C000944669D9B2FA82F252B101FA02F3C2F14B
:1003D000200120FA01F10CFA02FC41EA030E9440DC
:1003E0004FEA1C48210CBEFBF8F61FFA8CF708FBFD
:1003F00016E341EA034306FB07F199420AD91CEBD5
:10040000030306F1FF3080F01F81994240F21C8106
:10041000023E63445B1AA4B2B3FBF8F008FB10334E
:1004200044EA034400FB07F7A7420AD91CEB040483
:1004300000F1FF3380F00A81A74240F20781644453
:10044000023840EA0640E41B00261DB1D4400023D8
:10045000C5E900433146BDE8F0878B4209D9002D3C
:1004600000F0EF800026C5E9000130463146BDE8C6
:10047000F087B3FA83F6002E4AD18B4202D3824230
:1004800000F2F980841A61EB030301209E46002DDF
:10049000E0D0C5E9004EDDE702B9FFDEB2FA82F234
:1004A000002A40F09280A1EB0C014FEA1C471FFA92
:1004B0008CFE0126200CB1FBF7F307FB131140EA79
:1004C00001410EFB03F0884208D91CEB010103F146
:1004D000FF3802D2884200F2CB804346091AA4B208
:1004E000B1FBF7F007FB101144EA01440EFB00FEDC
:1004F000A64508D91CEB040400F1FF3102D2A64541
:1005000000F2BB800846A4EB0E0440EA03409CE7DF
:10051000C6F12007B34022FA07FC4CEA030C20FA8C
:1005200007F401FA06F31C43F9404FEA1C4900FAAC
:1005300006F3B1FBF9F8200C1FFA8CFE09FB181129
:1005400040EA014108FB0EF0884202FA06F20BD99C
:100550001CEB010108F1FF3A80F08880884240F2EC
:100560008580A8F102086144091AA4B2B1FBF9F030
:1005700009FB101144EA014100FB0EFE8E4508D92B
:100580001CEB010100F1FF346CD28E456AD90238B0
:10059000614440EA0840A0FB0294A1EB0E01A14295
:1005A000C846A64656D353D05DB1B3EB080261EB03
:1005B0000E0101FA07F722FA06F3F1401F43C5E9DD
:1005C000007100263146BDE8F087C2F12003D84013
:1005D0000CFA02FC21FA03F3914001434FEA1C4755
:1005E0001FFA8CFEB3FBF7F007FB10360B0C43EA47
:1005F000064300FB0EF69E4204FA02F408D91CEBF7
:10060000030300F1FF382FD29E422DD902386344F4
:100610009B1B89B2B3FBF7F607FB163341EA034194
:1006200006FB0EF38B4208D91CEB010106F1FF38E3
:1006300016D28B4214D9023E6144C91A46EA0046DA
:1006400038E72E46284605E70646E3E61846F8E66C
:100650004B45A9D2B9EB020864EB0C0E0138A3E7B5
:100660004646EAE7204694E74046D1E7D0467BE796
:10067000023B614432E7304609E76444023842E70E
:10068000704700BF684620F007018D46FEE7000076
:100690000848094A0949121A08B51EF03BFB0848E8
:1006A000084A0021121A1EF05DFB1EF0FFFA00F04E
:1006B0004FF9FEE70000002430060024384E069073
:1006C00030060024249403242F4B4FF400719FED37
:1006D0002F7AD3ED057A2E4A67EE877A30B5FDEE94
:1006E000E77AADF5037D082502A817EE903A642B52
:1006F000A8BF642323EAE3731EF0B4FC254B26490C
:1007000004461B68254A032BC8BF0A46C0F5007182
:1007100002A800922044224A1EF0A4FC02AB04442A
:10072000204AC4F5007118191EF09CFC04441E4BAD
:1007300002A89FED1E7AC4F5007103EB85032044E7
:100740001B4AD3ED007A2B4667EE877AFDEEE77AF7
:10075000CDED007A1EF086FC0444B4F5F67F02DA93
:1007600001350C2DE3D102AB124AC4F50071181902
:100770001EF078FC02A910480AF0AAFD0F4B0022D7
:100780001A700DF5037D30BD400700240000C842FB
:10079000620306906C3303245D03069056030690B3
:1007A0006B0306907C0306906406002400007A44E4
:1007B00090030690950406908A040690A4F80224FB
:1007C000024B1B780BB1FFF77FBF7047A4F80224E0
:1007D000534B2DE9F04193F800802DED028B86B04C
:1007E000B8F1000F4FD04F4802F06BF9C0B14D483F
:1007F00002F069F900234C4A69464A48CDE90032C3
:100800000122CDE9022310238DF810305A238DF8F0
:10081000143002F02DF903220621424802F009F9B2
:1008200040480B2402F0CFF8404B054618800DF0ED
:10083000F9FA06463E4800F042FF07463D4AC4F139
:100840000B0352F824103C4A711A126891422CBFD3
:10085000002101212FB945FA03F313F0010F18BF4E
:100860004146364B142000FB04300BF03BFC013CAE
:10087000E4D26DB9324B9FED337AD3ED007A67EE57
:10088000877AC3ED007A06B0BDEC028BBDE8F0813B
:10089000DFED2D8A0024B0EE688A264645FA06F37D
:1008A000DB070AD5F1B21F4802F09AF807EE900A6A
:1008B0000134F8EEE77A78EEA78A01360C2EEDD1F6
:1008C0005CB307EE904AF8EEE77AC8EEA76A9FEDB0
:1008D0001F6A1B4B86EE867AD3ED006A9FED196A7C
:1008E000F7EE007A87FEC77A88FE077A27EE077A46
:1008F000F0EE005A77EE666AF0EEE66AA6EEE56A7A
:10090000F6EE006AC6FE866A77EEE67A93ED006A36
:1009100067EE877AE6EE867AB3E7DFED0B6AD6E715
:10092000080000249CF80224010801094C06002458
:1009300094060024F0060024A0040690ACF70224DC
:10094000500600243333733F0000000000001643BC
:1009500010B500F0ADFC0DF065FA044600F0ACFAFD
:1009600000F052FAFFF72CFF0DF05CFA001B042890
:1009700004D90DF057FA0446FFF72AFF01200DF0C5
:1009800059FAEBE7704770477047704738B505462E
:1009900000240121084809F0B7F93C200DF04AFA7B
:1009A00001340021044809F0AFF93C200DF042FA6F
:1009B000A542EED138BD00BF68F60224074B0146C0
:1009C00010B504461A68064801F0B0FDC4F10B04E6
:1009D0000DF028FA034B43F8240010BD6C330324B8
:1009E000A8F80224F0060024012A08BF01600020B4
:1009F00070470868FFF7E2BF012A08BF01600020C6
:100A000070470868FFF7DABF0B220270FF224270BE
:100A10000022C0E90122C2607047836810B5044615
:100A200013B1032201469847204610BD10B5044675
:100A30002C30FFF7F2FF606918B1E169091A1DF067
:100A4000CCF8204610BD000008B50B4809F020F98D
:100A50000021094809F01AFA24F0C4F9074B084AA2
:100A6000102105489A6009F033F9034809F02CF980
:100A7000044B83ED000A08BD68F6022400ED00E097
:100A8000000004900400002470B5ADF5846D0C24C2
:100A90000CAD2E462846FFF7B7FF05F11400FFF70F
:100AA000B3FF05F12800FFF7AFFF05F13C00FFF7AA
:100AB000ABFF013C05F15405ECD10F20954D09F039
:100AC000E9F8ADF800000099022230460AF0E8FC8F
:100AD000102009F0DFF8ADF804000199022221A8E6
:100AE0000AF0DEFC112009F0D5F8ADF808000299F3
:100AF000022236A80AF0D4FC122009F0CBF8ADF897
:100B00000C00039902224BA80AF0CAFC132009F03A
:100B1000C1F8ADF810000499022260A80AF0C0FCE8
:100B2000142009F0B7F8ADF814000599022275A851
:100B30000AF0B6FC152009F0ADF8ADF818000699DA
:100B400002228AA80AF0ACFC162009F0A3F8ADF83E
:100B50001C00079902229FA80AF0A2FC172009F0A6
:100B600099F8ADF8200008990222B4A80AF098FC80
:100B7000182009F08FF8ADF8240009990222C9A8BD
:100B80000AF08EFC192009F085F8ADF828000A99C2
:100B90000222DEA80AF084FC1C2009F07BF8ADF8E4
:100BA0002C000B99F3A802220AF07AFC04230C22F1
:100BB000314659480AF084FC57480AF089FE21461C
:100BC00055480AF09BFE2346224695ED000A014651
:100BD000DFED520A52480AF0ABFA01214E480AF002
:100BE0008DFE2346224695ED000A0146DFED4B0AB5
:100BF0004C480AF09DFA022147480AF07FFE23463E
:100C0000224695ED000A0146DFED440A46480AF007
:100C10008FFA032140480AF071FE2346224695EDE3
:100C2000000A0146DFED3D0A40480AF081FA04213E
:100C300039480AF063FE2346224695ED000A014634
:100C4000DFED360A3A480AF073FA052132480AF015
:100C500055FE2346224695ED000A0146DFED2F0A98
:100C600034480AF065FA06212B480AF047FE23466D
:100C7000224695ED000A0146DFED280A2E480AF0CB
:100C800057FA072124480AF039FE2346224695EDFB
:100C9000000A0146DFED210A28480AF049FA082136
:100CA0001D480AF02BFE2346224695ED000A014618
:100CB000DFED1A0A22480AF03BFA092116480AF029
:100CC0001DFE2346224695ED000A0146DFED130A7C
:100CD0001C480AF02DFA0A210F480AF00FFE23469D
:100CE000224695ED000A0146DFED0C0A16480AF08F
:100CF0001FFA0B2108480AF001FEDFED080A014641
:100D00002346224695ED000A10480AF011FA0DF527
:100D1000846D70BD0400002480F602246F12033B32
:100D2000D8F50224B0F5022420F60224FCF50224B2
:100D300088F7022448F602243CF7022460F70224D4
:100D4000200700241CF70224FCF60224DCF602240F
:100D50007FB500230F4A69460F48CDE900320122D2
:100D6000CDE9022310238DF810305A238DF814306A
:100D700001F07EFE38B9094B187009480AF0A8FA4C
:100D800007B05DF804FB03220621034801F051FE81
:100D9000F6E700BF010801099CF8022408000024BE
:100DA0009A03069070B58AB06846FFF72DFE0023BF
:100DB00001220393CDE90123114B04AA03F1180585
:100DC00016461868083353F8041C1446AB4203C493
:100DD0002246F6D10B4D002436F8143028466946D9
:100DE0000134ADF800300AF0C7FE284601210BF0AF
:100DF00079F90C2C05F11405EED10AB070BD00BFD5
:100E0000E4020690ACF7022408B50DF00BF841F2AD
:100E10008733984242D9224B9FED227A1B68224A9F
:100E20001B8807EE903AF8EE677AC7EE876AF6EE0F
:100E3000007AF4EEE76AF1EE10FA2DDD1B4B1B6829
:100E40001B8806EE903AF8EE666A86EE876AB4EE84
:100E5000E76AF1EE10FA1FDD154B1B681B8806EEE2
:100E6000903AF8EE666A86EE876AB4EEE76AF1EECB
:100E700010FA11DD138801339BB2B3F5FA7F1380AA
:100E80000CD30C480AF024FA64200CF0D3FF0320A2
:100E9000BDE808400CF0D0BF0023138008BD00BFA0
:100EA0002007002400FF7F47620600241CF702246D
:100EB000FCF60224D80306900B4808B501F06EFB3F
:100EC000014660B90CF0AEFF4FF47A71B0FBF1F35C
:100ED00003FB1100B0F5FA7F2CBF0021012103486C
:100EE000BDE8084008F010BFA8F8022468F6022404
:100EF0001FB5204BD3ED037A1F4B1A786ABB9FEDC9
:100F00001F7AF4EEC77AF1EE10FA2FDD01221A7083
:100F10001B4B1A7882F001021A701B78BBB1194B77
:100F2000194893ED000A00F0DDFB184B694616489E
:100F30000393174B029300F08FFB6846FFF76DFD9C
:100F40000221114805B05DF804EB00F0B3BB0E4878
:100F500005B05DF804EB00F05BBC9FED0E7AF4EE9B
:100F6000C77AF1EE10FA44BF00221A7005B05DF89E
:100F700004FB00BF20070024600600249A99993ED4
:100F8000EC0600240400002494060024F3090490D5
:100F9000E9090490CDCC4C3E2B48F6EE007A2B4B61
:100FA000D0ED036A1B68F4EEE76A591C284BF1EE9A
:100FB00010FA93ED037A274BF0B51A683CDD013245
:100FC0000A2AA8BF0A22B4EEE77A23481A60036807
:100FD000F1EE10FA34DD01330A2BA8BF0A23052AEB
:100FE00003601E48D4BF00250125052BD4BF002473
:100FF0000124052A0CDD027852B9194E32680132FB
:1010000092FBF1F701FB172232600126154A167098
:10101000052B154A0DDD13785BB9114E3368013B82
:101020000B4493FBF1F701FB1733012133600D4BA8
:10103000197005701470F0BD013A22EAE272C2E73D
:10104000013B23EAE373CAE71CF70224C0040690BD
:10105000FCF602245C0600245806002455060024F1
:101060006C330324703303245406002410B51B484A
:1010700000240AF08FF81A480AF08CF819480AF090
:1010800089F819480AF086F818480AF083F81848D1
:101090000AF080F817480AF07DF817480AF07AF845
:1010A00016480AF077F816480AF074F815480AF05E
:1010B00071F815480AF06EF8E1B214480AF028FCFD
:1010C000134B03EB840301340C2C83ED000AF3D1A2
:1010D000FFF762FFBDE81040FFF70ABFD8F5022412
:1010E000B0F5022420F60224FCF5022488F702243D
:1010F00048F602243CF7022460F70224200700246B
:101100001CF70224FCF60224DCF6022480F60224FA
:1011100064060024124BDA68124B1A60124B134A11
:10112000DB681360124AD168124A1160124AD16812
:10113000124A1160124AD168124A1160124AD168EB
:10114000124A1160124AD168124A1160124AD168DB
:10115000124A1160124A1360124A1360704700BFAE
:10116000D8F50224F8F50224B0F50224D0F50224C3
:1011700020F6022440F60224FCF502241CF6022488
:1011800088F70224A8F7022448F6022444F6022431
:101190003CF702245CF7022460F7022480F7022463
:1011A000D4F50224ACF5022470B58AB090ED021A91
:1011B000D0ED010A04466D4690ED000A0221684612
:1011C00001F092FC05AE0C340FCD0FC62E6805ADB4
:1011D0000FCD0FC426600AB070BD0000F8B52C4CCE
:1011E00000212C4B20462C4A2DED028B93ED008ADA
:1011F0002030F6EE008A84ED008A1DF0B3FD002257
:101200000123F5EE007AC4E9062304F5383303F52B
:10121000626703F6246603F62865204B87ED008A93
:1012200028EE278A38462B6086ED008AB7EE008AC2
:10123000FFF7BAFF97ED007ADFED197A384627EE0F
:10124000287AC7FE887AC7FEC77AC6ED007ADFED36
:10125000157AC8FE277AC5ED007AFFF7A5FFD4ED11
:10126000007AF5EEC07AF1EE10FA07D99FED0E7A0A
:1012700067EE877A88EE277A87FE488A0B4B84EDE3
:10128000038AC4ED048AA3606360BDEC028BF8BDE1
:101290005C0700240400002400EE0200F304353F44
:1012A00000004844CDCCCC3D0AD7A33C9A99993E46
:1012B00010B52DED028B92B04F4CFFF7C5FB01200E
:1012C000FFF764FB4D494E4800F0D6FC0220FFF7C3
:1012D0005DFBFFF7D9FB0320FFF758FBFFF738FD55
:1012E0000420FFF753FBFFF779FF0520FFF74EFBC4
:1012F000FFF758FD0620FFF749FB94ED008A0CF03C
:1013000091FFB3EE007A3F4B0122C7EE087A07EE59
:10131000100A1A7007203C4ADA60B8EE477A1A6160
:101320005A6127EE877AF7EE007AC7EE876A9FED5B
:10133000377A28EE078AC3ED016ADFED356A86EE5B
:10134000887A77EE277AC7EE276AC3ED066AFFF739
:101350001DFB94ED000A2F4800F0C4F90820FFF7A8
:1013600015FB2D4B02A92B4805932C4B049300F041
:1013700073F902A8FFF751FB0221264800F09AF901
:10138000002009F0B3FF0920FFF700FB24491B48A8
:1013900008F096FC0A20FFF7F9FA224809F098FFB6
:1013A000D4ED007A10230422FDEEE77A1E4902A84C
:1013B000CDED007A1DF08AFE02A809F089FF1B4BD3
:1013C0001B4902A81C6822461DF080FE02A809F0F5
:1013D0007FFF184B184A02A81849032CC8BF1A46A9
:1013E0001DF074FE02A809F073FF154809F070FFA4
:1013F00012B0BDEC028B10BD0400002468F602247C
:10140000A8F80224400700240000C07F0000803DAF
:10141000DB0FC94094060024030A0490F9090490E4
:10142000452804901D0406904D040690C0040690C3
:10143000710406901004069005040690840406903A
:101440008D04069038B5414C6FF0F413002504F17B
:10145000280065612562C4E90053C4E90233FFF73F
:10146000D3FA04F13C00FFF7CFFA04F15800FFF77C
:10147000CBFA2567364A204636490C241CF0A8FBD7
:101480003548334A3549056085801CF0A1FB294663
:10149000142233481DF066FC324A002332481146BC
:1014A000324D936041F8043BD3600B60284A3049C9
:1014B0001CF08EFB2F4800F0B3F8254A2E492D482A
:1014C0001CF086FB28461435FFF79EFA013CF9D143
:1014D0001F4A2A492A481CF07BFB1D4A27492948F4
:1014E0001CF076FB1A4A254927481CF071FB184A64
:1014F000224926481CF06CFB154A204924481CF060
:1015000067FB134A1D4923481CF062FB104A1B4924
:1015100021481CF05DFB0E4A184920481CF058FB7E
:101520000B4A16491E481CF053FB094A13491D4833
:101530001CF04EFB064A11491B481CF049FB044AAB
:101540000E491A48BDE838401CF042BB68F6022438
:1015500000000024870904909CF802248909049063
:1015600088F502249CF502245C070024ACF70224D1
:101570008B090490940600242D0A04908509049098
:10158000D8F50224B0F5022420F60224FCF502244A
:1015900088F7022448F602243CF7022460F702246C
:1015A000200700241CF70224FCF60224DCF60224A7
:1015B00070B50C1A2411002C034616DD1568066858
:1015C000AE4203D04668B54201D1043070BD866892
:1015D000B54201D10830F9E7C6681030B54202D1F2
:1015E00003F10C00F2E7013CE5E70C1A082C0ED0E1
:1015F0000C2C07D0042C03D11868126890420AD032
:101600000846E3E705681468A542DFD004331C6888
:101610001068844201D11846D8E70433ECE7000093
:1016200000220B49C0E90412002142630265816275
:1016300001644164074980F85420816410B54FF07B
:101640007E54C0E90622C0E90822C463C46410BD08
:101650007856341200803B4770B5002386B00446AC
:101660000E46049302AD8B6833B102222846984798
:10167000F3680593B36804936A4604F12C0395E874
:10168000030082E8030093E8030085E8030092E882
:101690000300049A83E80300636BA16B6263059AFD
:1016A00004930591A2631BB103222946284698475B
:1016B00006B070BD002380F8541003657047D0E970
:1016C0000520101A18BF01207047B7EE007AD0ED40
:1016D000007AC7EE276A90ED0F7AC6EE877AC0EDE2
:1016E000137A704710B5F0EE400A80ED120AB7EE9B
:1016F000000A04461CF04AFA00232046236463646F
:10170000BDE81040FFF7E1BFDFED087AB4EE670AED
:1017100010B5F1EE10FA044648BFB0EE670A1CF0AF
:1017200047FA2046BDE81040FFF7CFBFCDCCCC3DF7
:1017300007B5F0EE400A0190B3EE0E0A1CF0CCFAA9
:10174000019803B05DF804EBFFF7DEBF03690246C2
:1017500083EA433383EA534383EA431010617047BB
:1017600013B5D0E9051304468B4218D090F85420E5
:10177000012A16D1FFF7EAFFD4E905239B1A9B1033
:10178000B0FBF3F202FB1300636B43B1636901A981
:1017900053F8203004F12C000193A36B984702B05A
:1017A00010BD5B1A026D9B10B2FBF3F003FB10201F
:1017B00001322265E8E7D0E9053270B59A42044665
:1017C0000E4624D0436B13B30025B5421FD0F7EE6D
:1017D000006A94ED127AC6EE877A94ED117A77EE6C
:1017E000877A94ED107AF4EEC77AC4ED117AF1EEAF
:1017F00010FA0ADB2046FFF7B3FFD4ED107A94ED20
:10180000137A77EE877AC4ED107A0135DDE770BD83
:10181000D0E90532934218BF836100230365704706
:101820002DE9F84FD0E9008993466FF06043A9EBAA
:10183000080207468A46B3EBA20F4FEAA20402D180
:101840001E481CF0ECF9012C2246A1EB080538BF1C
:101850000122A4182ED27CB39C4228BF1C46A000B3
:101860001CF0CCF90646DBF80030002D735104DD86
:101870002A46414630461DF05BFAA9EB0A090435B9
:10188000B9F1000F354404DD4A46514628461DF0A3
:1018900041FA4D44B8F1000F05D0B9684046A1EBBC
:1018A00008011CF09AF906EB8404C7E90065BC60E6
:1018B000BDE8F88F1C46D2E72646D4E7A40406907C
:1018C0009142F7B504460E4639D081EA020500235D
:1018D0000193019A0B2A32DC012393402B429AB2E6
:1018E00010D0164201AAD4E9050114D0FFF760FE1A
:1018F000A169814206D1E369994206D0019A41F873
:10190000042BA161019B0133E2E701AA04F1140059
:10191000FFF786FFF6E7FFF74BFE81420AD0031D73
:101920008B42019F06D053F8042BBA42F8D040F8FE
:10193000042BF5E7A369834218BFA061E2E703B077
:10194000F0BD00F5405310B50446D3F8A40A10B119
:1019500010211CF042F9204610BD037813B1032B6F
:1019600004D070470122C36302707047B7EE007A5B
:10197000D0ED015A90ED026A0123D0ED0D7A76EE9A
:10198000076A0370A5EE867AF8EE677A67EEA57AA5
:1019900067EEA67AF0EE476A87EEA67AF8FE477AF7
:1019A000FCEEE77AC0ED0F7A70470378012B02D086
:1019B000022B14D07047D0ED0F7A90ED0B7AF8EE31
:1019C000677A90ED026A67EE877AB7EE007A77EE73
:1019D000676AA6EE267AC7EE876AC0ED016A002321
:1019E000C36303230370704703782BB10423037090
:1019F000436883620023C3637047000038B500F575
:101A00005B5204460346344919603449C3F848110F
:101A10003349C3F800123349C3F838123249C3F8C6
:101A2000BC123249C3F804143149C3F8481531498E
:101A3000C3F8C8153049C3F8A8163049C3F8CC1705
:101A40002F49C3F818192F49C3F8281B2E49C3F88A
:101A5000CC1B03F55B639342D5D104F5645204F5C6
:101A600060531032012100254FF07C50443303F8BD
:101A7000431C002103F8445C43F8401C43F83C0C31
:101A800043F8380C43F8085C43F8041C9342E9D14E
:101A900004F5405304F5645029461022C3F8A45AB3
:101AA0001430C3F8A85A83F8AC5AA3F8AE5A43F6D8
:101AB0001013E5501DF056F904F5685029464022F0
:101AC00024301DF04FF904F5695040222946243096
:101AD0001DF048F9204638BD94050690A8050690EB
:101AE000CC050690E0050690F405069008060690E1
:101AF0001C06069030060690580606906C06069066
:101B000080060690A8060690BC060690F8B500F57B
:101B1000645600F55D5500F5645400F560571036C5
:101B20003835143438462835FFF75EFF002300228D
:101B3000443706F8013BA64245F8282C05F81D3C21
:101B400005F81C3CEED1F8BD70B500F540550446D3
:101B5000D5F8A43A5BB910201CF050F80A4A4FF4AB
:101B60008023C5F8A40A4260C3600260836004F564
:101B70005B56204604F55B64D5F8A41A01F0F6FC28
:101B8000B442F6D170BD00BF000000C02DE9F041A5
:101B900000F5645700F55B5500F5645600F5605498
:101BA000143700F564531C35103601342433B8461D
:101BB0000022002104F10F00DFF8A4C0C5F8842042
:101BC00028356A6745F8281C85F8801006F8011B3F
:101BD00047F8042BC0F800C004F11300DFF884C0FC
:101BE000C0F800C004F11700DFF87CC0C0F800C0E6
:101BF00004F11B00DFF874C0C0F800C004F11F003E
:101C0000DFF86CC0C0F800C004F12300DFF864C046
:101C1000C0F800C0E01D026004F10B000260092260
:101C20000C48C4F833200C4A2170C4F8372004F162
:101C30002B02106004F12F0208484434106018464B
:101C400040221DF08FF84645034603F14003AFD113
:101C5000BDE8F081398EE33D046504007F036936F9
:101C60000080BB489999194100009646999999407E
:101C70000100C043AAAA2A3B00F5405310B5044610
:101C8000C3F8A81AFFF760FF2046BDE81040FFF731
:101C90007DBF000070B500F5685504460E46402231
:101CA0002435002128461DF05DF804F56953002114
:101CB0004022243318461DF055F8002E03461348E1
:101CC00014BF042101218901A1F582712A46B2ECD9
:101CD000017A145E9A4207EE904A00F10204F8EE8F
:101CE000E77A145F77EE877A42ED017A07EE904A41
:101CF000B8EEE77AD2ED0F7A77EE877AC2ED0F7AF7
:101D0000E5D140308842E1D170BD00BFFCFEFFFF4D
:101D10001368D2ED017A92ED027ACB61D36877EE47
:101D2000877A107E4B601369C1ED007A8B6053692E
:101D3000CB6000234B6228B1D2690A620B614B6110
:101D40008B6170474FF07C52F7E70000DFED7E6A51
:101D5000B7EE007A13B5C1ED006AC1ED016AC1EDBD
:101D6000026AC1ED036AC1ED046AC1ED056A002B88
:101D700040F0E180DFED754A92ED045AB4EEE40ADA
:101D8000F1EE10FA4CD5B2EE026AD2ED055A25EE0C
:101D9000866A26EE006AC6EE247A77EEA57AFCEE15
:101DA000E77ADFED6B5AB4EEE50AB8EE676AC2ED8A
:101DB0000D7AF1EE10FA87EE064A82ED0B4A42D513
:101DC00035EEC06ADFED635A36EE256AF6EE005A4C
:101DD00036EE656ADFED605A66EE255A25EE866AB4
:101DE00060EEA04AD2ED075A107882ED026A64EEE6
:101DF000A00AC2ED036AE0EE855AFCEEE55A15EE44
:101E0000903AC2ED0E5AF8EE655A87EE255A82EDE9
:101E10000C5A04281CD8DFE800F019375558780010
:101E200060EE007A9FED4D6AF6EE005A25EE066AE6
:101E300067EE807A65EE255A67EEA57AF4EE005AD1
:101E4000E6EE257AABE79FED406AC9E7C2ED016A8D
:101E5000D2ED017ACDED016AF5EEC07A8DED007A12
:101E6000F1EE10FA54BF043201AAD2ED007AF4EE7A
:101E7000C77AF1EE10FAC8BF6A461368CB61012336
:101E800081F8243002B010BDD36BB0EE475A17EE84
:101E9000900A05EE903A8342F8EE655A65EE845A50
:101EA00077EE654AA6EE245A85EE856A82ED016AD0
:101EB0003FD35378002B0CBF03230223137000235E
:101EC000D363C5E782ED017AC2E7D06B07EE900AD3
:101ED000F8EE677A67EE857A08B95468146437EECD
:101EE000676AD2ED105A984226EE256AF0EE475AFC
:101EF000E7EEA65AC6EE257AC2ED017A02D3002398
:101F00001370DDE70130D063A2E7D36BD2ED095A3D
:101F100007EE903AB8EE676AD2ED0A7AE6EE657A95
:101F2000C2ED017AD2ED087AB4EEE76AF1EE10FA6A
:101F3000E5DA0133C4E7002381ED077A81F8243024
:101F4000012381F823309DE700000000CDCCCC3D7B
:101F50009A99993E3333333F000000436F12033B9D
:101F60000BB913780BB900238B617047032908D88C
:101F700000EB81104022002100F5645024301CF059
:101F8000F1BE7047032973B504460D4627D84218A1
:101F900043F61013D35C13B3282343F2DC6203FB34
:101FA00001039E58072E0ADC442000FB014000F587
:101FB00060500190FFF718FD0198FFF7CEFC282133
:101FC0004FF07E52072E01FB054404F55D539A63E2
:101FD00003F13803C2BF012243F28373E25402B01B
:101FE00070BD00000B68072BCCBF012300232DE937
:101FF000F04F05460C462DED088B0BEE103A8BB0DA
:1020000000F3878091ED080ADFED547AB4EEE70A19
:10201000D1ED097A67EEA78AF1EE10FA68EEA78A89
:102020004ABFB6EE008A20EE008A20EE088A28EE2B
:10203000008AF3EE087A94ED047ABAEE089A05F570
:10204000645805F56459D4ED059A94ED06AA05F592
:102050005B56A7EE279AD4ED07AA08F1240809F1E8
:10206000140905F5605A0027D4F808B0BB4555DDC2
:10207000236806F1A00B02AA31460293284659F8BC
:10208000043BF0EE680AB0EE480A8DED049A039323
:10209000237BCDED059A8DF82030636ACDED06AA3D
:1020A00009938DED07AAFFF733FE1BEE103A524657
:1020B00059462846FFF74AFE237963B9237B53B973
:1020C00005F5645205F540532846103293F8AC3AB2
:1020D0003A44FFF745FF10234FF45B605A46314600
:1020E0000093434600FB075000F07EFF23794BB975
:1020F000237B3BB9F369072B04DD1FB905F55D535D
:1021000000229A630137283608F140080AF1440A90
:10211000AAE7DFED138AB0EE688A8AE75C46032CF3
:1021200005DC214628460134FFF720FFF7E705F5D7
:10213000405696F8AC3A5BB10024A34505DD214634
:1021400028460134FFF71EFFF7E7002386F8AC3A74
:102150000BB0BDEC088BBDE8F08F00BFCDCC4C3E82
:102160000000000038B50D460446FFF73BFF297913
:102170002046FFF78FFD2B7B43B104F5405400222E
:1021800004F5EF631A60002384F8833738BD2DE926
:10219000F04100F5645600F55D5500F5645400F516
:1021A0006057103638352434B04638464437FFF788
:1021B0001BFC00210023204606F8011B40222B6057
:1021C0004034E972283505F81C1C1CF0CBFD47454E
:1021D000EBD1BDE8F081000003292DE9F84F04465A
:1021E0000E462DED028B61D800F5605800F55D5567
:1021F00000273835C146BE420DD004F564534FF078
:10220000000A4046103303F807A0FFF7EDFB002358
:1022100085F80BA02B60013708F144082835042FFE
:10222000E9D104EB060B43F6101A9FED288A04F55A
:1022300040551BF80A70002F3CD00123484643F25A
:10224000837985F8103906F6446304EB83035A68F2
:1022500005F614131A60442202FB06F804EB080189
:1022600001F560511CF056FD282105F5EF6308F5D6
:10227000605001FB0646204406F55D57BA6B1A60B4
:1022800016F80930FA6B85F8833705F27C731A600B
:1022900043F28473F35C85F8843700250BF80A5009
:1022A000FFF7A2FB87ED0E8A06F80950BDEC028B02
:1022B000BDE8F88F484685F81079FFF795FB05F5DE
:1022C000EF6383ED008A85F88377EFE70000000075
:1022D000032970B4CCBF00250125032ACCBF0024FC
:1022E000012491421AD000F540530126A54283F8FB
:1022F000AC6A13D003290BDC032A09DD00F5645313
:102300000021103313F8012B2AB901310429F9D126
:1023100070BCFFF73CBF70BCFFF75EBF70BC70477E
:1023200000F54050B0F8AE0A704700F54050A0F8F4
:10233000AE1A704700F5645300201033884204DA67
:1023400013F8012B1AB10130F8E74FF0FF30704756
:1023500038B500F540534FF07E5503F6141203F5DF
:10236000EF6482ED000A012283F81029256011B183
:1023700083F8832738BD00F5605083F88317FFF793
:10238000ECFAF7E710B5DAB100F5645100F56452E4
:1023900000201431103298422ADA12F8014B64B14D
:1023A000D1ED007A9FED147A77EEC07AF0EEE77AFD
:1023B000F4EEC77AF1EE10FA19D401300431EAE7ED
:1023C00000F5405090F8103993B100F61410D0ED9C
:1023D000007A37EEC00ADFED087AB0EEC00AB4EE3C
:1023E000E70AF1EE10FA54BF4FF0FF30002010BDA5
:1023F0004FF0FF30FBE700BFCDCCCC3D2DE9F04FD7
:10240000072B85B004461F469DF83880D8BF4FF093
:102410000009DDF83CB0C8BF4FF00109DFF808A1A2
:102420000025CDE90112019A029B42FA05F6BAECA9
:10243000010A2B4116F0010603F0010332D033BB31
:10244000B8F1000F29D059462046FFF773FF411C11
:102450001DD000F644632218012104EB830383EDB1
:10246000010A43F61013D15428234FF07E5103FB89
:10247000004303F55D52916343F2837203F80290C7
:10248000442303FB004000F56050FFF766FA013576
:102490000C2DC8D105B0BDE8F08F49462046FFF7A6
:1024A00057FFF4E7002BF2D0B8F1000F1CD05B46C9
:1024B000012239462046FFF765FF421C0346E6D05D
:1024C0002118442043F61012039300FB03408E545E
:1024D00000F56050FFF769FA2820039B43F28372EE
:1024E00000FB03439E54D2E704F5405696F810399A
:1024F000002BCCD006F614139FED0A7AD3ED007AA8
:1025000077EEC07AF0EEE77AF4EEC77AF1EE10FAE1
:10251000BDD504F5605086F81089FFF746FA86F8B5
:102520008387B4E7CDCCCC3DC40406900B29F0B52D
:10253000044689B016462CD8174B00F540550127A4
:10254000009603EB810105F614128DF818700B68E4
:1025500000F55B5113606A460193002385F81079FA
:1025600002934FF07C530393049305930793FFF773
:10257000CFFB05F5EF634FF07E52072E1A6085F80A
:10258000837706DC002304F5605085F80138FFF7F7
:10259000E4F909B0F0BD00BFC404069000F5645230
:1025A00000F564531032143312F8010B08B99A4243
:1025B000FAD1704710B5054C2046FFF71FFA2046A8
:1025C000034A0449BDE810401BF002BBA8F80224EE
:1025D000000000244319049008B5FEF747FDFEF7FC
:1025E00099FD104B1B782BB10F4B104893ED000A4F
:1025F000FFF79EF80E4BB6EE007AD3ED007A0D4B46
:1026000067EE877A93ED006AF0EE676AE6EE076A96
:10261000C3ED006A084BD3ED006AE6EE877AC3ED9E
:10262000007A08BDEC060024F8F502249406002484
:10263000500600245CF70224ACF502242DE9F04397
:102640009846274B164685B01B6804460D46DFF8B2
:10265000A090032B0360CCBF00220122042B0A7040
:10266000B4BF0423012333601E4B1B7803F0FF0724
:102670004BB999F8003033B11B48FFF747FA394698
:102680001948FFF752FE88F80070DFF86880164896
:10269000B8F8001089F8007089B203919FB1FFF774
:1026A0003FFE039902461148FFF70AF910210F482F
:1026B000FFF781F8B8F800100B4889B205B0BDE803
:1026C000F043FFF732BEFFF72BFE33680246039953
:1026D00001932B78044800932368FFF78FFEE9E706
:1026E0006C330324EC060024A8F80224940600248A
:1026F0005C3303244C06002400B58DB08DF80C30FB
:10270000114B00901B688DF80410694604930F4B21
:102710000F481B68029205930E4B1B6806930E4BE5
:102720001B6807930D4B1B6808930D4B1B6809939F
:102730000C4B1B680A930C4B1B680B93FFF712FDA5
:102740000DB05DF804FB00BF80F7022444F60224BC
:10275000A8F802245CF70224A8F702241CF602243D
:1027600040F60224D4F502245006002438B580B186
:10277000D1ED007A9FED1C7AF0EEE77A1B4BD3ED9A
:10278000006A67EE877A9FED1A7AE6EE877AC3EDE4
:10279000007A184C184D2378BFF35B8F13F0010FAC
:1027A00015D120461BF01BFA88B1144B20469FED33
:1027B000147AD3ED007A67EE877AB0EE087A67EE86
:1027C000877AFCEEE77AC5ED007A1BF014FA0D4A21
:1027D0002968136801338B42136004D3002313600C
:1027E0000122094B1A7038BD0AD7233C84F7022412
:1027F000A4707D3F5833032468330324040000246D
:102800000000803D64330324A4F8022438B5054653
:102810000C4600F0C1F9094BB7EE000A2946D3ED8A
:10282000007A2246064830EE670A00F0D7F92946BA
:102830002046BDE83840FFF799BF00BFD4F5022419
:10284000CC3203242DE9F043394C85B00D461646B1
:10285000237823B9374808F03BFD01232370364C19
:102860000BF0E2FA354FA060FFF7B6FE3B7883B17C
:10287000DFF8D090DFF8D080D9F80020D8F8001029
:102880002F48FFF725FDD9F80030C8F800300023A5
:102890003B700DF1070303AA0DF1060102A8FFF733
:1028A000CDFE9DF80730039A9DF806100298FFF7B9
:1028B00023FF31462846FFF7A9FF0BF0B5FAA368BE
:1028C00094ED017AC31A07EE903A2378F8EE677A0E
:1028D00067EE877A53B10023C4ED057AC4ED037A1D
:1028E000C4ED047A237005B0BDE8F08394ED047A5A
:1028F000D4ED066AF4EEC77A94ED037A94ED056A96
:10290000F1EE10FAF4EEC77AB7EE007AC8BFC4ED64
:10291000047AF1EE10FA37EE667A48BFC4ED037A16
:1029200027EE067AA7EEA67A84ED057ADBE700BFEC
:102930005D330324F404069040070024703303241D
:10294000A8F802246C3303246033032410B5002359
:1029500086B00A4664218DF8173001230446CDE97C
:1029600001310DF117010091017909F0FFFD637943
:10297000002818BF43F001039DF81700637106B0EB
:1029800010BD0C2903D81E31C9B2FFF7DFBF0020EC
:10299000704710B50A4686B0022364210446CDE98B
:1029A000013105AB00930123017909F0DFFD637963
:1029B000002818BF43F001030CBFBDF8140000202D
:1029C000637106B010BD0021FFF7E3BF0C2905D8E5
:1029D0000231490001F0FE01FFF7DBBF0020704724
:1029E0000B2970B506460D460AD8FFF7EFFF0446DF
:1029F00029463046FFF7C5FFA4EB800000B270BD4A
:102A00000020FCE710B586B0012304468DF81420A1
:102A10006422CDE9013205AA00920A46017909F043
:102A2000CBFD6379002818BF43F00103637106B042
:102A300010BDF8B541240F4616465E21002205461A
:102A4000FFF7E0FF21463A462846FFF7DBFF611C0F
:102A500002343246C9B22846E4B2FFF7D3FF592CFC
:102A6000F0D128468F225E21BDE8F840FFF7CABFAB
:102A700038B50B7D044600255B00037109F0B6FCF8
:102A80006322802120466571FFF7BCFF01200BF017
:102A9000D1F95D212046FFF759FF242803D00123F7
:102AA0002846637138BD042208212046FFF7C1FF84
:102AB00020468F225E21FFF7A5FF607980F001009C
:102AC000F0E74079704700234371704738B5054CF3
:102AD000256825B904201BF091F805602060206866
:102AE00038BD00BF7433032438B52DED028BB7EE2B
:102AF000008ADFED287AF0EE418A0D4660EEA70AE3
:102B00000446C8EE007A20EEA70A1BF079FAC0EE60
:102B1000286A012D60EE007A36EE887A37EE277A41
:102B200088EE076A37EEC87A38EE668A37EE077A9B
:102B300038EE278A27EE067A28EE068A0CD0022D78
:102B40001CD067EE867A77EEA76AC4ED007AC4EDF2
:102B5000027AC4ED016A09E0F8EE007A84ED006AB9
:102B600084ED026A66EE277AC4ED017A84ED048A68
:102B7000204684ED037ABDEC028B38BD66EE866A92
:102B800000236360C4ED006AF1EE666AC4ED026A78
:102B9000ECE700BFDB0F49400A4A9FED0B7AD2ED0C
:102BA000007A0A4B67EE877A094A9FED0A7AD2EDDE
:102BB000006AC3ED047ADFED087AE6EE877AC3EDAA
:102BC000027A7047ACF5022448E17A3F5C070024A2
:102BD000F8F50224A4707D3F0AD7233CF7EE007A73
:102BE0005F4BF0B5002577EEC05A80FE670ADFED37
:102BF0005D7AAC4687FE800AD3E90646944580F0AC
:102C0000AB804FEA5C059FED587AD3ED036A4BF633
:102C10007F3600EB85054BF6803ED5ED007A67EEFA
:102C2000877A9FED527A87EE875AD3ED017A93ED3A
:102C3000027A37EE677AE6EE877A93ED007AC3ED93
:102C4000017A67EE877ABDEEE77A17EE105AF8EE52
:102C5000C76AB54277EEE67A28BF35462E46651933
:102C6000C3ED057AB5FBFEF70EFB1757013503EBF5
:102C7000870797ED087AB5FBFEF70EFB175503EBB8
:102C80008505D5ED086A3A4D76EEC76A95ED016A7D
:102C9000A6EEA77AD5ED006AD5ED057AE6EE877A3D
:102CA000D5ED076AE7EE066A95ED036AE6EE676A18
:102CB00095ED026AC5ED056AD5ED046A66EEE76A30
:102CC000E7EE066AB8EE087AF4EEC77AC5ED076A51
:102CD000F1EE10FA3AD4B0EE087AF4EEC77AF1EEDB
:102CE00010FA36DCB3EE0B7AB2EE026AF0EE476A07
:102CF00027EE866AE7EEA76AA6EE277A66EEA76A4F
:102D0000C6EE877AD3ED046A03EB840504F53B44F1
:102D10000CF1020C08317F34B0EE457AA6EEA77AAA
:102D200065EEA77AE0EE057A85ED087A4BF68035F8
:102D30009FED107AB4FBF5F767EE877A05FB174431
:102D4000012541ED027A41ED017A57E7FFEE007A65
:102D5000D8E7F7EE007AD5E70DB1C3E90646F0BD36
:102D60005C070024000000000000003833333340CB
:102D700088F502243333333FDFED0E7A0E4A30EE0E
:102D8000270AFDEEC07AB8EEE77A17EE901A30EE19
:102D9000470ABEEECC0A10EE103A02EB8302074B54
:102DA00003EB810392ED000AD3ED007A20EE270AAF
:102DB000704700BF00000043043C069008400690A6
:102DC00090ED007AF7EE006A30EE470A27EE076AC8
:102DD00076EEC77AB5EEC00A26EE066A67EEA77AE7
:102DE000F1EE10FAD4BF76EEC65ADFED110A76EE98
:102DF000E76AD8BFE5EE810ADFED0E5AE6EEA17A6A
:102E0000A0EE807A80ED007A80ED017A9FED0A7A5B
:102E1000A6EE257A9FED096AA1EE867A80ED027A08
:102E200027EEA17A67EE217AC0ED037A704700BFE2
:102E30009A99193F9A99993EA69B443B0AD7233DFC
:102E4000064A00238260064A4360C2608361054AE5
:102E500043614FF07C5302610360704722BA003D2A
:102E60000AD7233CCAAA7F3FB5EEC00A70B5F1EE7F
:102E700010FA049C34D5F1EE405A26461546013E20
:102E8000B7EE000AB6F1FF3F2AD0D5ED007A90EDFB
:102E9000007A65EEA77A9FED4E6A9FED4E5AF0EEEE
:102EA000E76A76EEC76AF5EEC06AF1EE10FA36FE12
:102EB000056AA6EE867AB4EEC07A80ED007AF1EE6D
:102EC00010FA88BFC0EE076A9FED437A98BFF0EE14
:102ED000406A67EEA67A67EE877AE5EC017ACEE77C
:102EE000DFED3E7A059D20EE270A6D0000295ED1B8
:102EF00090ED016A07EE904AF0EE045AB0EE467A81
:102F0000F8EE677AC0ED035A90EE207AC7EE273AC2
:102F10009FED337ADFED337A21EE077AE1EE077A1F
:102F2000B7EE007A21EE271AF0EE477A80ED021A0A
:102F3000E1EE257AE1EE017AC7EE274AC0ED044AB8
:102F4000013C31D3D0ED056A36EE236AB2EC015A6A
:102F500025EEE67AD0ED067AA5EE067AA1EE667A3F
:102F600037EE677A27EE247AE1EE076AE1EE267AF9
:102F7000B0EE664AA1EE074AB0EE677AA1EE267A75
:102F800080ED054A80ED067AB0EE677A95EE067A16
:102F9000E1EE877AFDEEE77A17EE901A013101F340
:102FA0000F0119802B44CBE780ED016A70BD013C15
:102FB000FCD3F2EC017A60EE277AFDEEE77A17EEA9
:102FC000901A013101F30F0119802B44EFE700BF84
:102FD000CDCC4C3DACC5A737CDCC4C3F00FEFFC699
:102FE000D7573941DB0F49402DE9F04F04461546CC
:102FF00090690E46D4F8702C04F6344A94F8309C4C
:103000002DED088B8FB09FEDE1BAF7EE008ADFED72
:10301000E0AA0293D4F86C3C02EB8301073303F07F
:1030200007030860591DC4F86C3C063301F0070122
:1030300003F0070302EB810102EB8303D1ED007A79
:1030400093ED007A04F6284337EE677AE7EE0B7AC1
:10305000B9F1000F40F00982F4EEEA7AF1EE10FACD
:103060000BDD012295F8241084F8302C09B984F87E
:10307000482C2A68CAED008A1A6095F823200AB9FC
:103080002A681A60D4F8EC1CB6EE009AD3ED006AF8
:103090004A1ED4F8203C07EE902AB8EEE77AD6ED27
:1030A000077AF8EEE77AE6EE877A07EE103AF5EE61
:1030B000006AB8EEC77AF4EEC77ABDEE007AF1EE98
:1030C00010FA37FE267A77EE877A77EE897AFDEE68
:1030D000E77A17EE907A002FC0F2D281B942D8BFBA
:1030E000174604EB8703C4F8207CD3F8AC8CD4F8E3
:1030F000243CBB4204F67443039309D0D8F8003053
:1031000040465B689847039B83ED009AC4F8247C93
:1031100094F8303C0BB189F0010304F62C42D5ED54
:10312000017A95F8239092ED008AC2ED007A37EE8D
:10313000888A28EE098AB9F1000F00F0A381DFED3B
:10314000957AB0EE009A96ED080A8DF8203020EEC0
:10315000270AFFF711FEDFED906AB0EE685ADAED4C
:10316000007A20EE26AA9FED8D7A95F82430AAEEFB
:10317000495AF1EE4A9A25EE275AD5ED077A27EEFD
:10318000877AF0EEE77A8AED005A77EEAA7AC7EEF0
:1031900027AADFED837A95ED037AF5EEC0AAF1EE6A
:1031A00010FA48BFDFED79AA002B47FEAA7ACDEDD1
:1031B0000D7AD6ED017A77EE877AF5EEC07AF1EEE8
:1031C00010FA40F161818DED0CBA072F40F0658156
:1031D000F1EE087A9DED0C6AB0EE497AA6EE677AB8
:1031E000B5EEC07AF1EE10FA00F15A81B4EE687AC9
:1031F000F7EE007AF1EE10FA37FE877A96ED046A60
:1032000027EE057A9FED644AF0EEC65AD6ED007AB5
:10321000DFED643A95F8203078EE277A75EEE65ABD
:10322000D5ED024AF4EE665AF1EE10FA48BFF0EE20
:10323000445A66EE255A65EEA35A4BB9B9F1000F10
:1032400000F0318167EE054A9FED576A64EE864AC9
:10325000E5EEA47A9FED556AF4EEC67AF1EE10FA27
:1032600000F124819FED526AF4EE467AF1EE10FAF5
:1032700076FE277AD6ED055A9FED476AF0EEE54ACD
:1032800095F82130CDED097A95ED044A74EEE64AC1
:10329000D6ED027AF4EE664AF1EE10FA48BFF0EE8F
:1032A000464A65EEA45A65EEA35A2BB9B9F1000F50
:1032B0009FED364A04FE054AE5EE847AF5EEC07AC3
:1032C000F1EE10FA00F1F580F4EE687AB7EE006ADC
:1032D000F1EE10FA76FE277A96ED066A95F822301E
:1032E000F0EEC65ACDED0A7A95ED055AD6ED037A81
:1032F00075EEE65AF4EE665ADFED276AF1EE10FA43
:1033000048BFF0EE665A26EE256A26EE236A2BB9F0
:10331000B9F1000F9FED1D5A05FE075AE6EE057A3A
:10332000F5EEC07AF1EE10FA00F1C680F4EE687A9C
:10333000B7EE007AF1EE10FA77FE277A98F80C30A3
:103340000DF11F0204F54F6904F5556A8DF81F3021
:1033500008A9D8F8003040460192209ACDED0B7AAA
:1033600000924A469F685346B8479DF81FB004F63E
:103370003847BBF1000F4ED195F8243043BB95F888
:103380002320002A00F0E18022E000BF00000000BE
:103390009A99993E0000C0C2CDCC4C3D6666A63FCE
:1033A000CDCC4C3F6666863F000040420000EEC236
:1033B0000000F042000090C20AD7A33BCDCCCC3D28
:1033C000000000C30000FE42519696390000000044
:1033D000B2EE088AD6ED091A5FED0A7A96ED087A00
:1033E00021EE880A0593CDED041AA7EE270AFFF710
:1033F000C3FCB0EE691A5FED107A059BA0EE271AA8
:10340000DDED041A002B5AD0F0EE4A0A3846B0EE31
:103410006A0AFFF7D5FC0225209B4A4659460093CD
:103420000195029BD7ED031A97ED021AD7ED010A19
:1034300098ED010A0398FFF717FD209B019552466E
:1034400000935946029B04F54960D7ED031A2B44BB
:1034500097ED021AD7ED010A98ED020AFFF704FD75
:103460000FB0BDEC088BBDE8F08F1FED2C7AF4EEA9
:10347000C77AF1EE10FA44BF002284F8302CFCE544
:1034800000272EE602235AE6F4EEE87AF1EE10FA6F
:1034900078FEA77ACDED0C7A97E6B7EE007AADE626
:1034A0001FED367AAAE6F7EE004AD1E6F0EE467A4C
:1034B000E0E65FED3A7A0FE75FED3C7A3EE7B2EE89
:1034C000020ADDED097A37EEC00A5FED437AB4EE09
:1034D000E70AF1EE10FA2BD45FED467AB4EE670AF4
:1034E000F1EE10FA37FE800A94F8483CEBB18DED0E
:1034F000051ACDED041AFFF73FFC5FED4D7ADDEDC7
:10350000041A20EE270A9DED051A60EE087A97ED61
:10351000000AA7EE890AB4EEE80AF1EE10FA0ADB17
:103520000023C7ED008A84F8483C1FED580A04E0E8
:10353000B0EE670AD8E787ED000AF0EE4A0A38468F
:103540004FF0000BFFF73CFC65E74FF0010B62E723
:10355000036C0F2B08DC40F8231001330A7381ED54
:10356000010AC1ED020A036470470000F8B5DFEDFF
:10357000640A00F6AC4600250446B0EE600A0F4629
:103580002A4600F62831C0F8EC5C3046FFF7E0FF31
:10359000DFED5C0A9FED5C0A2A4604F6CC3130462A
:1035A000FFF7D6FFDFED570A2A4604F50071B0EEAB
:1035B000600A3046FFF7CCFFDFED520A9FED520A5A
:1035C0002A4604F50E713046FFF7C2FFDFED4C0AC4
:1035D0002A462146B0EE600A3046FFF7B9FFF7EE03
:1035E000000AB8EE080A2A4604F618113046FFF71A
:1035F000AFFFFFEE000A2A4604F5A9613046B0EE9F
:10360000600AFFF7A5FFF7EE000AB8EE000A2A46A7
:1036100004F5B9613046FFF79BFFBFEE000ADFED0E
:10362000380A012204F2CC713046FFF791FFBFEE59
:10363000000ADFED330A012204F204413046FFF7AD
:1036400087FFDFED2F0A012204F5A471B0EE600AB6
:103650003046FFF77DFFDFED2A0A012204F5D56130
:10366000B0EE600A3046FFF773FFDFED250A012256
:1036700004F52F71B0EE600A3046FFF769FFD4F809
:10368000EC3C9D420BDA7B68394656F8040B013559
:103690003B60FB68BB6003681B689847EFE74FF02F
:1036A000FF330025002604F67440C4F8243C04F6D9
:1036B0002843C4F8206C1D60FFF7C2FB04F5496085
:1036C000FFF7BEFB04F634434FF07E5204F64C4045
:1036D0001D6004F6384331465A604FF07C521D603D
:1036E0009A602022DD6004F62C4384F8306C1D6063
:1036F000C4F8700C1BF036FBC4F86C6CF8BD00BF4E
:10370000CDCC4C3F9A99193F3333333F704710B5B6
:10371000044690220021B8301BF024FB04F118036A
:10372000C03400221846002143F8082C43F8042C2A
:1037300030221BF017FB034638339C42F1D110BDF9
:1037400060EE200AFDEEE07A17EE903AF8EEE77AA6
:1037500000EB830070EEE70A90ED000A90ED017A2D
:1037600037EE407AA7EE200A7047FDEEC07AF8EEF9
:10377000E77A30EE670A60EE200AFDEEE07A17EE97
:10378000903AF8EEE77A00EB830070EEE70A90EDEE
:10379000000A90ED017A37EE407AA7EE200A7047D2
:1037A000F8B52DED088BB7EE008ADFED369AB6EE50
:1037B000009A0E46F0EE60AA1446C8EE207A1F4624
:1037C000002571EE086AB0EE41AAB0EE69BA77EE54
:1037D000C87A87EEA67A07EE903AF8EE677A77EE27
:1037E000C87A29EE479A77EE877AA7EE809ABD428B
:1037F00032D007EE905ADFED240A2448F8EEE77A3B
:1038000077EEC97AF0EEE77A67EEAA7A38EE677A51
:10381000B0EEC70A30EE070A60EE008AB5EE000A85
:10382000AAEE270AFFF7A1FF54F8252030EE080A78
:10383000013506EB820220EE280AD2ED007AB0EEC6
:10384000677A20EE000A90EE007AE7EE0B7A79EEC6
:10385000A79AC2ED007ACAE788EE297A224604EBDD
:103860008505AA420AD052F8043B06EB8303D3ED48
:10387000007A67EE877AC3ED007AF2E7BDEC088B39
:10388000F8BD00BF6F12833A000080440028069004
:10389000F0B52DED048BF6EE008A07EE903A90ED30
:1038A000018AA5B0B8EE677A0446B4EE680A6D46A0
:1038B00017461E4608302B46F1EE10FA4FF0000274
:1038C00028FE800A70EE487AC7EE879A01321860A7
:1038D000B1EC016A0C3307EE902AF8EEE77AF6EEC7
:1038E000006AB7EE009A67EE807AF0EE005AF4EEC6
:1038F000687AF1EE10FA66FEA77AF0EE496A0C2AB1
:10390000E7EEE56AF0EC017A43ED027AD6EE267A2C
:10391000C7EE876A43ED016AD8D1013E38D338EE4D
:10392000298AD4ED007ADFED220A224878EE277A40
:10393000F4EEC97AF1EE10FAA8BF77EEC97AC4EDB9
:10394000007A94ED000AFFF7FBFE30EE000AB7EEB6
:10395000006A2B460022DFED186A60EE287A93EDAC
:10396000017A0132D3ED025A0C330C2A37EE257A54
:10397000E7EE276A03ED027AB1EE467AB0EE676AA7
:10398000A0EE277AF0EE477AE9D1E7EC016AC4E7C6
:103990000C2384ED018AD5F88420013BD5F88810EA
:1039A000A5F10C051160F6D125B0BDEC048BF0BD7E
:1039B000000080440028069000000000B6EE007A67
:1039C00007EE903AF0B5B4EE470A0446F8EE676A9F
:1039D00017461E460830F1EE10FA4FF00D022DED9D
:1039E000068B10ED018A27FE000AA5B070EE487A1A
:1039F0006D46C7EEA6AA2B4607EE902A1860F1EC9A
:103A0000015A01320C33F8EEE77AB6EE006AF7EEAF
:103A1000009A67EE807AB0EE005AF4EE477AF1EE43
:103A200010FA66FE277AB0EE696A192AA7EEC56A0F
:103A3000F0EC017A43ED027AD5EE867A87EEA66A3B
:103A400003ED016AD8D1013E50D338EE2A8AD4ED75
:103A5000007ADFED2E0A2E4878EE277AF4EEE97A26
:103A6000F1EE10FAA8BF77EEE97AC4ED007A94ED92
:103A700000AAB0EE4A0AFFF763FEF2EE087A70EE93
:103A8000008ADFED220AB5EE000A2148AAEE270AD5
:103A9000FFF76BFEB0EE409AB2EE0A0ADFED1B0AAA
:103AA0001B482AEE000AFFF760FE2B4600229FED1E
:103AB000197AD3ED017A0132D3ED026A0C330C2A64
:103AC00077EEA67AA7EE807A43ED027AF1EE497A94
:103AD000B0EE409AE8EE807AB0EE670AE9D1F7ECF2
:103AE000017A77EE877A47ED017AACE70C2384ED13
:103AF000018AD5F88420013BD5F88810A5F10C0582
:103B00001160F6D125B0BDEC068BF0BD00008044FD
:103B10000028069000000000B2EE027AD1ED017A92
:103B2000F0B577EEC77A9FED4A7A044615461E46F1
:103B3000F4EEC77A2DED028BF1EE10FA85B00C9FF2
:103B400000F182809FED437AF4EE477AF1EE10FAAD
:103B500077FE277A9FED407AB3EE001A3F4A77EE60
:103B6000877ADFED3F0AD1ED028ABDEEE77AB0EE4B
:103B7000680AF8EEC76A17EE100A9FED3A7A77EEF8
:103B8000E67AD1ED046A26EE811AFEEECC7A21EEB9
:103B9000261A17EE903A02EB8302334B8DED031A8F
:103BA00003EB800392ED008A2046304AD3ED007A81
:103BB000182328EE278ADFED2E7A28EE278AF7EEE3
:103BC000007AE6EEC77A91ED037A04F1B80101912B
:103BD00067EE877A9FED277A27EE877A27EE277A96
:103BE000E7EE270ACDED020AFFF7DAFDB0EE480A4C
:103BF0003B462A46019904F11000FFF749FEB0EE5A
:103C0000480A3B462A4604F1E80104F14800FFF760
:103C1000D5FE04F58C71B0EE680A9DED031ADDED5A
:103C2000020A20460823144A0191FFF7B9FDB0EEBD
:103C3000480A3B463246019904F18000FFF728FE0E
:103C400005B0BDEC028BF0BDF0EE477A82E700BF15
:103C5000000000C30000FE4200000043043C069048
:103C60000AD7233C9A99193F084006902C050690E4
:103C70005196963952B8FE3F0C05069070470000E9
:103C8000A0EE810A254BB6EE007AF7EE006AF1EE5F
:103C9000005AFDEEC07AF8EEE77A70EE677AF4EE3D
:103CA000C77ABFEE007AF1EE10FA54BF36EEE76A3B
:103CB000B0EE676AA6EE257A37EE076AB0EEC77AED
:103CC00037EE267A76EEC16A86EE070AB6EE087AF5
:103CD00077EE877ABDEEE77AB8EEC77A77EEC77AE5
:103CE0009FED0F7A67EE877ABDEEE77A17EE102A1E
:103CF00006EE102A03EB8201B8EEC66A91ED007A57
:103D000077EEC67A91ED016A36EE476AA7EE867ABB
:103D100037EE407AA6EE870A704700BF002806906B
:103D200000008044F8EE087AB4EEE70AF1EE10FAEB
:103D300017D4F0EE087AB4EEE70AF1EE10FA13DCCD
:103D4000F3EE0B7AF2EE026AB0EE677A60EE266A64
:103D5000A0EE007AE0EE267A20EE077A87EE270AB8
:103D60007047BFEE000A7047B7EE000A70470000C8
:103D7000044B0360044B4360044B836000230361E6
:103D8000C360704722BA003D0AD7233CCAAA7F3FCE
:103D900070B50025002604468561C561056245624F
:103DA0008562C56205634563C0E904663830FFF784
:103DB000DFFF04F18C00E56425656565E565256632
:103DC000A5656566A5662567E566C4F88050E56764
:103DD000C4F88450C4F88850C4E92A66FFF7C8FFC5
:103DE000094BC4F8A050C4F88C304FF07C53C4F891
:103DF000A450C4F89030054BC4F8B050C4F89430C7
:103E0000C4F8B45070BD00BF61C0AD3E013F473F34
:103E10002DE9F0412DED0E8BB0EE40AA9FEDBF0ACB
:103E2000DFEDBF7AF0EE41CA21EE800A0446C7EE0C
:103E3000A09A0D4690461E46DFEDBADA149FB0EE0A
:103E400060CAF0EE61AAF0EE428AB0EE629AFEF726
:103E500093FFDFEDB57AB7EE00BA20EE278A9FED2B
:103E6000B30A2CEE800AFEF787FFF1EE007AB5EE7A
:103E7000001A6CEE277A7CEE81CA67EE80BA6CEE8F
:103E8000ADCAF4EE4BBAF1EE10FA7BFE2BBAB8F1E4
:103E9000000F0ED0B1EE0C7A4FF49073F0EE087A6A
:103EA0003022C4E90023EAEE077A0023E361C4ED7F
:103EB000037A94ED09DA07EE907AB0EE4D7AF8EED7
:103EC000677A9AEE8A7A87EE27EA013FC0F01F816F
:103ED0002268002A00F0BD80013AD4ED037A226006
:103EE0000AB977EECB7AD4ED04AA002D9FED907A33
:103EF000C4ED027A47FE877A77EEEA6A9FED8D7A03
:103F00009FED8D6AE6EE87AADFED8C6AC4ED04AA08
:103F100077EEEAAAE7EEA6AAF5EEC0AAF1EE10FA4D
:103F200009DA7AEEAAAA6AEE866AF0EEEAAA7AEED0
:103F30008B7AC6EEA7AA6268002A00F09180013A47
:103F4000DFED7F6ADFED7A7A002A626046FEA77AAB
:103F5000F7EE006AC4ED067A002DDFED757AD4ED38
:103F6000075A46FEA76AD4ED057A76EEE76AE6EED2
:103F7000877AF2EE046ABFEE007AA5EEA67AC4ED67
:103F8000057AB5EEC07AF1EE10FA09DA37EE077A63
:103F900067EE065AB0EEC77A77EE0B6A85EEA67A20
:103FA000DFED686A67EEA66AF0EE4B7A37EE067AC6
:103FB000E6EEA87A27EE2D7AE7EE097A67EE8C7A9C
:103FC000F5EEC07AF1EE10FA55D49FED5F7AF4EE7B
:103FD000477AF1EE10FA77FE277A002D4ED0B6EE32
:103FE000007ADFED5A0A3DEE0EDA5948F4EE477AD0
:103FF000F1EE10FA67FE277A94ED0F7A77EE877A62
:10400000F4EECB7AF1EE10FAA8BF77EECB7AC4EDDE
:104010000F7AD4ED0FEAB0EE6E0AFFF791FBDFEDF9
:104020004B0A2DEE00AA4B48B0EE6E0AFFF788FB54
:104030002DEE000A84ED070AACEEAAAAD4ED087AA8
:104040003AEE67AAEAEE2B7AC4ED087AE6EC017A3A
:104050003BE7D4ED027A9FED407A67EE877A42E73C
:10406000D4ED067ADFED3D6A67EEA67ADFED306AC1
:10407000C4ED067A70E7DFED2E7AAEE7DFED386A41
:10408000B0EE4B6A9FED377A67EEA66A94ED065A5A
:10409000A7EE886ADFED345A94ED0DAAA7EEA67A52
:1040A000F0EE4B6A67EE877A8BEE067AC4ED0A7AF9
:1040B000E7EE276A84ED0B7A27EE4A7AE7EEA76AE5
:1040C0008BEE266AF0EE6A6AE5EE656AA6EEA97ADC
:1040D000D4ED0E6A84ED0C6AAAEE677A37EE667A42
:1040E00027EE067AA7EE27AAB0EE4A6AA7EE276A5D
:1040F000B0EE667AAAEE277A84ED0D6AF0EE476A92
:1041000084ED077AEAEE276AC4ED0E6A94E784ED3F
:1041100009DABDEC0E8BBDE8F08100BF0000A042C3
:104120006F12833A0AD7A33D0080BB440000D842F7
:10413000000000005555553E3333333F5839343D68
:10414000CDCC4CBF9A99D93FCDCCCC3E0000804419
:1041500000280690002C06905555653FB1E47F3F3E
:10416000D7573941DB0F4940CDCC4C3E074A084870
:104170001168084B00FB013307EE903A1360B8EE6C
:10418000670ADFED057A20EE270A70472400002435
:104190000D6619005FF36E3C0000802F2DE9F041A1
:1041A0002DED108B82B090ED00FAF7EE00EA9FED56
:1041B000DCBA189DB2EE007A23EE033A044607EE0D
:1041C000905AB1EE00DA21EEA1EA0F46F8EE67CA86
:1041D000904670EECF7A1E46B0EE40CA9FEDD10AEF
:1041E000B0EE609AC7EEACBAF0EE6E7A2EEE400AF0
:1041F000F0EE6EDAE0EEC77A9FEDCB7AF0EE419A00
:10420000F0EE62AA29EE0D9AF4EE4B7AF1EE10FA76
:1042100048BFF0EE4B7A67EE828AF0EE6E7AE3EEFC
:104220000D7A67EE877A9FEDC17A67EE877A8EEE18
:10423000A7AAFEF7A1FDDFEDBE7AE0EE67DA9FEDFB
:10424000BD0A29EE800AFEF797FD29EE008AB4EE3A
:104250006E8AF1EE10FA3EEECAAA3EFE888AB8F1E6
:10426000000F0FD09FEDB47A3022DFEDB47A3E23F9
:10427000C4ED03EAECEE077AC4E91423C4ED077A2F
:10428000C4ED057AD4ED09FAF0EE6F7ADEEE0C7A21
:1042900087EEACEA002D00F03981FFF767FFD4ED1F
:1042A000020ADFEDA77A9FEDA5CAF6EE006A9FED40
:1042B000A5DAB0EE089AF0EE00CA30EE660A30EEEB
:1042C000600AE0EE270AC4ED020A97B33FEE2BFA2C
:1042D000D4ED017AB0EE681A7FEE8EFA7FEE277A7F
:1042E000F4EEEE7AF1EE10FAA8BF77EEEE7AC4EDB6
:1042F000017A94ED010AFFF7C3FC30EE4DDA2DEEA2
:104300002FDA2DEE099AB0EECDDA7DEE2CCAC9EE89
:104310002C7AEFEE8C7A7BEE677A94ED0A7A013D87
:1043200077EEC77AA7EE887A84ED0A7AA6EC017A4E
:10433000B0E7636D94ED047A002B00F0B280013B8E
:1043400063654FF07A536360236D002B00F0CF80DC
:10435000013B2365D4ED067AB0EE681AD4ED056A08
:104360009FED795A76EEE76A94ED010AE6EE857ADA
:10437000D4ED076AC4ED067AD4ED087A76EEE76AE2
:10438000E6EE857AD4ED036A76EEC76AC4ED087A64
:10439000F0EE477AE6EE857AC4ED047AFFF770FC1A
:1043A000236DF7EE007A9FED5E7A002BB6EE006A81
:1043B0008DED010A07FE877AD4ED0B7A37EE677A26
:1043C000B5EEC07AF1EE10FA36FE055AE7EE057A40
:1043D00094ED0C7A9FED5D6A94ED0D5A77EEC75A15
:1043E000C4ED0B7AA5EE867A94ED106AD4ED0E5AE0
:1043F00077EEC77A84ED0C7A94ED117AE5EEC67A01
:10440000D4ED0F5AE6EE457A77EEC77A67EEA57AD5
:10441000A5EE276AA5EE067AF0EE465AE5EE275A93
:10442000F0EE477A8DED007AE5EE067AC4ED105A8B
:10443000C4ED117AFFF79AFED4ED127A9FED447A1B
:1044400030EE670ADDED016A9FED426A36EECDDAA5
:10445000DDED005AE0EE077A94ED137AD4ED086AA8
:1044600037EEC75AC4ED127AA5EE067A94ED066AC5
:104470002DEE06DA2DEE099AB0EECDDA84ED137A40
:1044800077EEC77A7DEE2CCA37EEA57AC9EE2C7A84
:1044900026EEC77AE6EE0C7A7BEE677AE7EE297AAB
:1044A0003BE7D4ED037AB0EE0C6A3FEE2BFA67EEF1
:1044B0008A7A2AEE866AC4ED037AF0EE6E7AE6EE28
:1044C000077A67EE8F7AF4EE667AF1EE10FA76FEEE
:1044D000A77AD4ED016A77EEA67AF4EEEE7AF1EEE1
:1044E00010FAA8BF77EEEE7AC4ED017A2CE7D4ED8E
:1044F000056AD4ED077A66EEAD6AC4ED056ADFEDB4
:10450000166A67EEA67AC4ED077A23E7C4ED09FAC6
:1045100084ED00FA02B0BDEC108BBDE8F08100BF65
:1045200000000000000070426F12033C00803B4717
:104530008988883A0000D8423333333F9A99993EAC
:104540006F12033B9A99193FCDCCCC3D0AD7233D3E
:10455000CDCC4C3D0AD7A33BEFEE7E3F60EE007A18
:10456000B3EE087A70B52DED048B27EEA78A1546B9
:1045700004460E4628EE008A28EE078AB6EE007A38
:10458000A0EE478A28EE278AF0EE007AA0EE078A8E
:104590009FED1C7A77EEC07A67EE807A78EE476AF4
:1045A000A6EEA77AB0EE470AFFF7BCFBF7EE006A6B
:1045B00007EE905AD4ED008AB8EE677AC6EE807A9C
:1045C00038EE688AC8EE079A94ED018A77EEC87AC9
:1045D00087EE879A013D0ED396ED000A78EEA98A00
:1045E00038EE098A28EE800AFFF79CFB20EE080AC5
:1045F000A6EC010AEEE784ED018AC4ED008ABDEC69
:10460000048B70BDC3F5A83EF2EE027A91ED010A6B
:104610002DE9F04730EE670ADFED607A05460C467B
:1046200016461F46B4EEE70A2DED028BF1EE10FAA6
:1046300088B0DDF8488000F1A480DFED597AB4EE4F
:10464000670AF1EE10FA37FE800AFEF795FBDFED00
:10465000557A94ED047AB7EE008A60EE270A0023BB
:10466000F1EE007AD4ED031A8DED068AF0EE006AC1
:10467000F0EE488A079367EE277A94ED021A3346E4
:1046800094ED050A05F11000CDED030AF4EEC87AA9
:10469000F1EE10FA38FE272A77EEC87AF4EEC87ADF
:1046A000CDED057AF1EE10FACCBF06AA05AAD2ED3F
:1046B000007AF5EEC07AFFEE007AF1EE10FAE7EE3E
:1046C000267AB3EE007A48BF07AAE0EEC78AD2ED99
:1046D000002A2278F5EEC07ACDF80080C2F34009B6
:1046E00002F0020A02F00102F1EE10FA4946F5EE7C
:1046F000C08A48BFDFED2C7AF1EE10FA48BFDFED3B
:104700002A8A67EEA88AFFF783FBB6EE000A4246C4
:1047100005F1B0003146A8EE800AFFF71FFF2278AE
:1047200005F1580094ED050A02F0010294ED021A19
:10473000D4ED031A94ED043ADDED030ABAF1000F4B
:1047400022D0B0EE432A33EE033A3B46F7EE002A7E
:104750004946CDF80080B4EEC83AF1EE10FA72FE88
:10476000832A33EE483AB5EEC03AF1EE10FA48BF6C
:104770009FED0D3AFFF712FD08B0BDEC028BBDE8CE
:10478000F087B0EE670A60E7F5EE007A9FED072A42
:1047900061EEA77AA1EEE72AD5E700BF000000C3CB
:1047A0000000FE425196963900000000CDCCCC3E70
:1047B0000023C0E904338361034BC3610362002318
:1047C00043628362C36270475196963A7047000015
:1047D000F2EE027A30EE670ADFED197AB4EEE70AFC
:1047E000F1EE10FA28D4DFED177AB4EE670AF1EE95
:1047F00010FA37FE800ADFED147A144A30EE270AE9
:10480000FDEEC07AB8EEE77A17EE901A30EE470A5E
:10481000BEEECC0A10EE103A02EB83020C4B03EB17
:104820008103D2ED007A93ED000A67EE807A9FED66
:10483000090A27EE800A7047B0EE670ADBE700BF7F
:10484000000000C30000FE4200000043043C06904C
:104850000840069051969639F1EE007ADFED106A25
:1048600030EE270ADFED0F7A20EE270ABCEEC00AF1
:1048700010EE103A01EBC3010B4B8A0D03EB8200E3
:104880008B0290ED000A07EE903A90ED017AF8EE77
:10489000677A37EE407A67EEA67AA7EE270A704766
:1048A0000000802F0000004E00280690CB430D4AE8
:1048B000D0ED007A01F0030103F0030302EB810164
:1048C00002EB830393ED007AE7EE007A91ED007A34
:1048D000C0ED007AD0ED017AE7EE007AC0ED017A02
:1048E000704700BFB4050690F3EE087A9FED9D7AFD
:1048F0002DE9F04F2DED108B91ED019A90461F465A
:10490000994B39EE679AD1ED047A0D4687B067EE80
:10491000877A0446209E9FED95BABDEEE77A17EEA2
:10492000102AB8EEC77A03EB820177EEC77AD1ED91
:10493000008A91ED017A37EE687AE7EE878A79EEA0
:10494000288AB0EE680AFFF743FFB5EEC00AF1EE21
:1049500010FA00F1EE80F6EE007AB4EE670AF1EE9E
:1049600010FA37FE808AB7EE00CADFED817A9FED3C
:10497000817A78EEE78AF0EE4C7AE8EEC77AF5EEC7
:10498000C07AF1EE10FA00F1D780F4EE4C7AF1EE35
:1049900010FA7CFE277AB0EE490A67EEA78AFFF785
:1049A00017FFD5ED026A07EE906A94ED099A234647
:1049B00036EEA67A95ED036AF8EE677AD4ED08AA8A
:1049C00094ED07AA27EE267A53F8342FF0EE496AC1
:1049D0008DED01BA38EE6A8A029330EE4A0A234618
:1049E000D7EE286A0092BFEE007A53F8302FC8EE57
:1049F00027EA94ED0A8A03928DED04BA059386EEB8
:104A0000A7FAF0EE006A80EE27EAA6EE267A37EEE5
:104A1000487AC7EE27FA002E00F09180DFED567A33
:104A2000002538EE2F8A3AEE0EAA7AEEAEAAB5EE3F
:104A3000C08A6AEE27CA39EE0F9AF1EE10FAFCEE40
:104A4000ECCA2AEEA7DA4CBFF6EE009ADFED479AE1
:104A50001CEE903A48BF68EE299A4FEA530A48BFC5
:104A600069EE889AF0EE4C7AD4ED0B8AB5EEC08AE6
:104A70006369F5EE00DA1CEE902AE8EEA97A20468A
:104A8000F1EE10FACCBF28EE2D0A9FED380A6DEE3C
:104A9000277AC8BF20EE080AFCEEE77A28EE800AE3
:104AA00017EE901A1944236902EB030BA3696161A5
:104AB0000AEB0309C4F810B0C4F81890FFF7CCFE55
:104AC0005946204620EE090AFFF7C6FEF0EE40BA2E
:104AD00020EE090A4946204620EE2D0AFFF7BCFECB
:104AE0003BEEE87ADFED257AF0EE40DA2946B0EECB
:104AF0006B0AE7EE278A6846C4ED0B8AFFF7D6FEFD
:104B000029460135B0EE6D0A03A8FFF7CFFE042D4C
:104B1000A8D1009B013E019A48F8043B0092039BF8
:104B2000049A8DED01BA03928DED04BA47F8043B67
:104B300071E7B0EE4B8A16E7DFED0C7A2BE7039AAC
:104B4000059B1A60009A029B1A6084ED0A8A84ED24
:104B5000099AC4ED08AA84ED07AA07B0BDEC108B32
:104B6000BDE8F08F00000043EC1D0690000000003F
:104B700000009042CDCCCC3C0000804FCDCC4C3DD1
:104B80007047000000230F490F4A036143618361AE
:104B9000C361036243628362C362036343638363EB
:104BA000C363036443648364C364036543658365CB
:104BB000C365036643668166C266036741678267B1
:104BC000C367704722BA003D2033783FF0EE087A81
:104BD000F6EE085A21EE271A08B5FDEEC17A2DED42
:104BE000068B17EE903AF8EEE77AF7EE008AF0EED1
:104BF000609A31EE671AB0EE619AB5EE00AA38EE0F
:104C0000C11A93BB61EE017AB0EE687A27EE811A81
:104C1000F2EE0E7AA1EE277A60EE077AF4EE687A69
:104C2000F1EE10FA68FEA77A77EEA57AB0EE670A81
:104C3000DFED2A0A2A48FEF798FDB0EE408ADFED44
:104C4000270AB0EE690A264838EE288AFEF78DFD5D
:104C500039EE000A28EE0A8A28EE008A39EE280A80
:104C600088EE000ABDEC068B08BD012BB6EE006A8B
:104C70001ED1DFED1C7ADFED1C6A61EE277A67EE4C
:104C8000817AE1EE276AB4EEE60AF1EE10FA5BBF34
:104C900070EE667A78EEE66A86EE267A27EE860A67
:104CA00056BFC0EE267A67EE007A77EE867ABBE7CB
:104CB00038EEC11A61EE017A27EE811AF2EE0D7A12
:104CC000A1EE276AF0EE4A7AE0EE067AF4EE657A13
:104CD000F1EE10FA65FEA77AA8E700BF0000804455
:104CE00000280690EE7CFF3E6F12833A08B52DED4A
:104CF0000A8BF5EE00BA3F48F0EE607ADFED3E0A2F
:104D0000B6EE00BAF0EE40AAB0EE6B0AB0EE429AF0
:104D1000B0EE41CAA7EE8B0AF0EE618AFEF725FDE0
:104D2000DFED367AB7EE008AB4EEE79A30EE080A85
:104D3000F1EE10FA60EE0B9A32D5F7EE087AB0EE8B
:104D40006BAAA9EE27AAB0EE489A3AEE0C0ADFED5C
:104D50002A0A2848FEF709FDF4EECB8AB0EE40AAF5
:104D6000F1EE10FA3AD5F4EECBAADFED230A78EE95
:104D7000A88A20483AEEAB0AF1EE10FAA8BF69EE15
:104D8000A89AFEF7F2FC30EE480AA8EE808A39EEC7
:104D90000AAA9AEE299A29EE080ABDEC0A8B08BDE8
:104DA000DFED177AB6EE087A9FED16AA79EE677AEC
:104DB000A7EEC7AADFED147AB4EEE79AF1EE10FA87
:104DC00009D5B0EE4A0ADFED0C0A0A48FEF7CDFC21
:104DD000B1EE409AB9E79FED0D9AB6E7B0EE6A0AD8
:104DE000DFED050A0348A8EE8B0AFEF7BEFCB0EE25
:104DF000408ACCE70028069000008044FA7EAA3E54
:104E0000C3F5A83E3BDF3F3FFA7E2A3F6F12833A4D
:104E1000F4EE007A70B5B4EE670A04460E46154605
:104E2000F1EE10FA2DED0E8B27FE800AF5EE007ADA
:104E300090ED039AD0ED048AF4EE670AD0ED059A5E
:104E400090ED06DA30EE490A31EE691A90ED02EA89
:104E5000F1EE10FA71EECD1A67FEA00A07EE902A65
:104E600070EEE80AF8EE677AC0EE27AAC0EEA7BA9D
:104E700081EE27CA81EEA7BA013D6DD3D4ED007A49
:104E800039EE2A9AD4ED010AB7EE000A9FED398A6D
:104E900078EEAB8A79EE277A3BEE0DAA7CEE29CA32
:104EA000F4EEC07AC4ED007AF1EE10FA48DB77EE4A
:104EB000C07AB0EE691AF0EE4D1AC7EE89DAC4ED89
:104EC000007A70EE6DEAEEEE8B1AAEEE8C1AEEEE14
:104ED000A80AFFF77BFEF0EE480AF0EE409AF0EEEB
:104EE0004A1AB0EE480AB0EE6C1AFFF76FFEF6EE03
:104EF000007A30EE690A6DEEA77A67EEAD7A6DEE54
:104F0000A8DAA0EE27EAFEEE007AC4ED01DA6EEE32
:104F1000A77A67EEAE7AA7EE808AD4ED010AF0EEAA
:104F20004A1A94ED000AB0EE6C1AFFF74FFEF0EE4D
:104F30006C9AA6EC01EAB0EE4ADA38EE00EA9BE79A
:104F400078EEA00AF4EEC00AF1EE10FAA8BF70EEF7
:104F5000C00AC4ED010AE0E784ED02EA84ED06DA56
:104F6000C4ED059AC4ED048A84ED039ABDEC0E8B62
:104F700070BD00BF00000000F4EE007A70B5B4EE22
:104F8000670A04460E461546F1EE10FA2DED108B19
:104F900027FE800AF5EE007A90ED04EA84B090EDE9
:104FA00005FAF4EE670A90ED069AD0ED079A30EE16
:104FB0004E0A31EE491AD0ED03FAF1EE10FA71EE15
:104FC000E91A67FEA00A07EE902A70EECF0AF8EE03
:104FD000677AC0EE27BAC0EEA7CA81EE27DA81EE63
:104FE000A7CA013DC0F0A98094ED018A3EEE2BEAEC
:104FF00094ED007AF7EE00EA94ED021A3FEE2CFAF7
:10500000DFED558A7EEE0E7A3EEE077A7CEE29AA17
:1050100037EE888A3DEE09BA84ED007AB4EEEE8A66
:1050200084ED018AF1EE10FA7BDB38EE6E8A8DEDAD
:10503000017AB4EEEE7AF6EE006A88EE27AA84EDE5
:10504000018ACDED036AF1EE10FAF0EE491AB0EEE6
:10505000692AB5BFF0EE667AF0EE687AB0EE660ABD
:10506000B0EE6E0AF7EE000ACDED027A7EEECADAF5
:10507000ADEE8C2AEDEE8D1AADEE8F1AFFF736FEEF
:10508000DDED027A9FED341AB0EE409AB0EE6A2A56
:10509000B0EE670AF0EE4B1AF0EE410AFFF726FE7B
:1050A000DDED036A30EE490A9DED017A6AEE267A5B
:1050B000B4EEEE7A67EE8A7AF1EE10FA2AEE0FAAD3
:1050C000E0EE27FAFEEE007A84ED02AA6DEEA77AF2
:1050D00067EEAD7AE7EE808A03DD28EE268A84ED5E
:1050E000008AD4ED007AB0EE6A2A94ED021AF0EE4E
:1050F0004B1AF4EEEE7AD4ED010AB0EE4B9AF0EED4
:105100006A9AF1EE10FAA4BF77EEEE7AC4ED007A57
:1051100094ED000AFFF7EAFDE6EC01FA78EE80FA7A
:105120005FE73FEE011AB4EEEE1AF1EE10FAA8BFF7
:1051300031EE6E1A84ED021AD3E7C4ED03FAC4ED22
:10514000079A84ED069A84ED05FA84ED04EA04B02A
:10515000BDEC108B70BD00BF000000002DE9F041D8
:105160002DED088B91ED019AB3EE08BA82B00F468F
:10517000B0EE490A044616461D46FFF729FBF0EE3D
:10518000408AB0EE4B0A97ED027ADFED657AF7EED2
:10519000009ADDF84080A7EE270AFFF719FBB0EE72
:1051A000408ABBEE080AD7ED04AADFED5E7AAAEECC
:1051B000A70AFDF7E1FDF6EE007AF0EE001A97ED92
:1051C000037A9FED591AB0EE40AAF4EEE7AA3146F1
:1051D00037EE417A4246F0EE480A04F11000F1EE53
:1051E00010FAB0EE680A4ABFF0EE697ADFED4F7A46
:1051F000EAEEE17A71EEE71A61EEA71AF0EE697A4B
:10520000CDED011AE8EECB7AF5EEC07AF1EE10FAA8
:1052100048BFDFED467AA7EE271A8DED001AFFF79B
:10522000F7FD68EE0A0A9FED428A42462946B0EE33
:10523000680ADDED011A9DED001A04F12C00FFF75C
:10524000E7FD68EE887A9FED3B7A32469FED3A8A19
:105250002B4627EE877A4FEA880602EB8801A7EEF5
:10526000878A27EE888A78EE297A84ED1A8A89EE71
:10527000A7AA84ED1BAA914218D0B3EC017AD2ED13
:10528000007AD4ED1C6A77EE877A94ED1A7A94ED61
:105290001B6AE7EE876AE6EEC67A27EE277AA6EE65
:1052A000867A84ED1C7AE2EC017AE4E7B0EE490AF2
:1052B00097ED027ADFED217A2E44A7EE270AFFF759
:1052C00087FA4246F0EE400A2946B0EE680AD7ED6A
:1052D000041A97ED031A04F14800FFF74DFE84ED20
:1052E0001D8A84ED1EAAB54214D095ED007AD4ED46
:1052F0001D7AD4ED1F6A94ED1E6AE7EE276AA6EECA
:10530000C67A67EE877AE6EE867AC4ED1F7AA5EC58
:10531000017AE8E702B0BDEC088BBDE8F08100BF80
:105320000000A84200004042C3F5A83E0000000073
:105330009A99993ED7573941DB0F49400000C04246
:10534000704700009FED913AB4EEC30AF0B5F1EE5C
:1053500010FA059C00F18E80F5EE007AB4EE670A33
:10536000F1EE10FA37FE800AF0EEC07AB6EE007A5F
:1053700077EEA77AF4EEC77AF1EE10FA0ADCF7EED0
:10538000006A76EEE77AF4EEC77AF1EE10FA58BFCB
:10539000F0EE477A06EE104AD0ED056AD0ED015ADC
:1053A0002546F8EE463A90ED066A30EE660A0E465D
:1053B00077EEC67A80EE232AC7EEA31A013D5CD3AE
:1053C000D0ED007A76EE826A90F810C036EE216A4F
:1053D0009FED6F5AF7EE004A76EEA77AB4EEE76AD1
:1053E000C0ED007AF1EE10FA94BF01270027BC450A
:1053F00010D077EEC62A077482EEA64A64EE072A1A
:10540000E4EE225A34EEC44AFEEE002A64EE222A6A
:10541000A4EE225AF4EEE47AF1EE10FA13DB77EE02
:10542000E47A0027077487EEA64AC0ED007A64EE9E
:10543000077A74EEC44AE4EE675AFEEE007A64EE30
:10544000A77AA4EEE75AD0ED007AF7EE004AB0EE64
:10545000004AB4EEE76ADFED4E7AF1EE10FA77FE1D
:10546000A47AFFEE004AE5EE844A75EE275AE6EC90
:10547000014AA3E7B0EE430A76E7F4EEC30AC0EDB3
:10548000015A80ED066AC0ED056AF1EE10FA51D4BA
:10549000F5EE007AF4EE670AF1EE10FA77FEA00A54
:1054A000F0EEE07A77EEA77AF4EEC77AF1EE10FA32
:1054B0000CDCF7EE006A76EEE77AF6EE006AF4EEC0
:1054C000C77AF1EE10FA58BFF0EE667AD0ED0C6AAA
:1054D0002546D0ED0D4A164670EEE60AD0ED085A84
:1054E00077EEE47AC0EEA32A87EEA33A013D39D3E2
:1054F000D0ED077A76EEA26A9FED255AB7EE006AE4
:1055000074EE834A76EEA77AF4EEC67AF1EE10FADC
:1055100013DAC0ED077AF0EE457AB0EE004A90ED6E
:10552000075ABFEE006AA5EE846A77EE855AA6ECAC
:10553000016ADBE7DFED150AB2E777EEC67A87EEA0
:10554000A64AC0ED077A64EE077A36EE446AE4EEC6
:10555000675ABEEE004AF0EE457A26EE044AE6EEC1
:10556000447ADAE7C0ED085AC0ED0D4AC0ED0C6A86
:10557000013C0AD3F1EC016AB2EC017AF3EC017A56
:10558000E6EE877A43ED017AF2E7F0BDBD37863566
:105590000000000070B50026044618220D46066182
:1055A00000214661203040F8086C40F8046C19F086
:1055B000D9FB04F13800FEF7DBFB04F14C00FEF7E9
:1055C000D7FB234604F1A80126666666A666E66652
:1055D0004FF07E504FF07C525E671C33D86501203F
:1055E0005A6583F8640015481E669866DA66994223
:1055F000EED104F58C70FEF7BBFB04F59670FEF758
:10560000B7FBAB685F2B85BF2A68603B002202F1C5
:10561000600188BFAB60AB6888BF29605F2BC4F8AE
:10562000402185BF2A68603B002202F1600184BFEF
:10563000AB602960C4F8442170BD00BF6F12833A8B
:1056400060EE007ADFED156A9FED157AA7EEA67A77
:10565000DFED146AE7EE876A9FED137AA7EEA67A6C
:10566000DFED126AE7EE876A9FED117AA7EEA67A60
:1056700020EE070AB7EE007A80ED000AC7EE206A36
:10568000F0EE477AE6EE807AC0ED016AE0EE007A4D
:10569000C7EE276AC0ED026A704700BF23FE2E45A1
:1056A00090ECAC428F34214365482342A95D2541EB
:1056B000DB0F4940D0ED036A90ED047A013B1CD327
:1056C00090ED016AF1EC017AD0ED025AE6EE667ACD
:1056D00090ED006AE6EE667A77EEC77A67EEA57A15
:1056E000E6EE276AF0EE665AE6EE276AA6EE257A1F
:1056F000E2EC015AA6EE257AE0E7C0ED036A80ED00
:10570000047A7047D0ED036A90ED047A013B1CD314
:1057100090ED016AF1EC017AD0ED025AE6EE667A7C
:1057200090ED006AE6EE667A77EEC77A67EEA57AC4
:10573000E6EE276AE2EC017AF0EE665AE6EE276AB8
:10574000A6EE257AA6EE257AE0E7C0ED036A80EDA5
:10575000047A70472DE9F04F2DED0A8BB7EE009AD1
:10576000A1B0F0EE40AA9FEDD00AF1EE618A0446A6
:1057700021EEC00A1746B0EE49BA0D91B0EE60CAEC
:10578000B0EE418AB0EE61AAF0EE429AFDF7F4FA6B
:10579000DFEDC67AF0EE49BAA0EE67BA9FEDC40A13
:1057A00028EE800AFDF7E8FADFEDC27ADDE935651B
:1057B000E0EE67BA9FB1F6EE006A39EE4A6AF7EE9C
:1057C000087AE6EE267ADFEDBC6AB0EE677ADFEDA6
:1057D000BB7AEAEEA67A67EE277AC4ED007ADFF8A4
:1057E00000C30EAF7CEE0C6ABCE80F000FC79CE84C
:1057F00003000EAA14AB87E803000627F2EC017A37
:105800009FEDAF7A66EEA77AF4EE477AF1EE10FAE2
:1058100067FE277A9FEDAB7A013F67EE877AFCEE51
:10582000E77AE3EC017AE9D104F110030DF1680C99
:1058300004F1280E0B931868083353F8041C6246D1
:10584000734503C29446F6D11A9BAB46169903934F
:10585000149B189A04931B9BDDF80C900893159BDE
:10586000089800931C9B079602931D9B0A93179B15
:10587000DDF828A005931E9B01931F9B0C93199B99
:10588000DDF830800693009B03EB000E029B03EBD8
:10589000010C019B9818002309930BF1FF3B069B19
:1058A000BBF1FF3F9844049B9944059B9A441FD049
:1058B0004FEADA73BFEE007ADFED836A03EBD97348
:1058C00003EBD87303EBDE7303EBDC738C4403EB65
:1058D000D073104407EE903A079BF8EEE77AA7EEF4
:1058E000A67AA3EC017A0793009B9E440123D3E799
:1058F0000C9B069800FB0539DDE9033000FB053CF5
:105900000A9B059800FB053E029B009801FB0531B0
:10591000089B00FB0538019B02FB0532099B2BB15C
:10592000CDE91AC8CDE91C1ECDE91E290DF1680C80
:105930000B9B0DF1800E6246083303CA724543F893
:10594000080C43F8041C9446F5D19FED600A28EE3C
:10595000000AFDF711FADFED5E7A60EE278AF5EEB8
:10596000C08AF1EE10FA4CD4DFED5A7AF4EE678A71
:10597000F1EE10FA77FEA88AF1EE087A04F1280019
:10598000F0EE080AB0EE680A0090E8EE270AFFF78A
:1059900057FE2B46324631460098B3EE008AFFF799
:1059A00089FE69EEA99A79EE697AA7EE888A28EECF
:1059B0000C8AB5EEC08AF1EE10FA25D4F6EE007A24
:1059C000B4EE678AF1EE10FA37FE888AB046B14627
:1059D000AF4229D0D4ED017A78EE277AF4EEC97A75
:1059E000F1EE10FA13DAC4ED017AD9ED007A01373D
:1059F00094ED027A37EE677AE7EE297AE9EC017ADC
:105A0000E6E7DFED358AB7E79FED338ADEE777EE2D
:105A1000C97AC4ED017AFEF7A9FBF6EE007A30EE02
:105A2000670A84ED020AE0E794ED038A07EE905AD4
:105A300006EB8503B0EE487AF8EEE77A9AEE2A7A1A
:105A4000C7EE275A43454DD0D4ED007AB6EE007A22
:105A50000D9AF4EEC77AF1EE10FA3BFE2B7A67EE60
:105A6000877AC4ED007AD8ED006A1AB135EE888ADB
:105A7000F0EE487AF5EEC06A9FED186AB2EE047A4D
:105A8000F1EE10FA37FE067A66EE876AB0EEE66A45
:105A900036EE096A86EE867A37EE097A67EE277A5D
:105AA000E8EC017ACEE700BF0000A842A69B443B89
:105AB000000010420AD7233B3333333F9A99993E73
:105AC000EE7CFF3E0000804FC3F5A83E00009042F0
:105AD000CDCC4C3BABAAAA3E00000000CDCCCC3DC7
