:02000004900466
:100000000000022091060490850604907DDF049094
:100010008506049085060490850604900000000083
:1000200000000000000000000000000085060490B1
:1000300085060490000000008506049001DF04900E
:100040008506049085060490850604908506049034
:100050008506049085060490850604908506049024
:10006000850604908506049085060490E5DA0490E0
:10007000F1DA04900DBC0490FDDA049009DB0490E1
:1000800005B70590CDC504908506049085060490BB
:1000900085060490850604908506049085060490E4
:1000A00085060490850604908506049085060490D4
:1000B00091A805909DA80590A9A8059001C6049057
:1000C000850604900DC6049085060490D9A005907D
:1000D000E5A0059039B5059065B5059099B50590F1
:1000E00085060490850604900000000085060490B3
:1000F0008506049085060490850604908506049084
:100100008506049085060490B5A80590F1A0059099
:10011000CDB5059001B6059085060490850604903E
:10012000850604908506049015A1059049A10590C7
:1001300039B70590850604908506049085060490DD
:1001400000000000000000000000000000000000AF
:1001500085060490850604908506049035B60590C2
:1001600019C604908506049011DF049035DF0490D1
:100170008506049059DF0490850604908506049056
:10018000850604908506049069B605909DB6059095
:10019000FDA0059009A105908506049085060490B0
:1001A00085060490850604908506049085060490D3
:1001B000E5D7049085060490850604908506049092
:1001C0008506049085060490B5B60490C1B60490E7
:1001D00085060490CDB604908506049085060490AB
:1001E0008506049085060490850604908506049093
:1001F0008506049085060490850604908506049083
:100200008506049085060490850604908506049072
:100210008506049085060490850604908506049062
:100220008506049085060490850604900000000071
:100230008506049085060490000000008506049061
:100240008506049085060490850604908506049032
:100250008506049085060490850604908506049022
:100260008506049085060490850604908506049012
:100270008506049085060490D1B605900000000024
:100280008506049085060490850604900000000011
:08029000000000008506049047
:1002A00010B5054C237833B9044B13B10448AFF3B0
:1002B00000800123237010BD3006002400000000E0
:1002C000604F069008B5034B1BB103490348AFF3D9
:1002D000008008BD0000000034060024604F069036
:1002E00001F0FF01102A2BDB10F0070F08D010F8E7
:1002F000013B013A8B422DD010F0070F42B3F6D1EB
:10030000F0B441EA012141EA014122F007047FF003
:1003100000070023F0E80256083C85EA010586EA5A
:10032000010685FA47F5A3FA87F586FA47F6A5FA96
:1003300087F68EB9EED1F0BC01F0FF0102F00702A2
:1003400032B110F8013B013A83EA010313B1F8D14D
:100350000020704701387047002D06BF354603382E
:10036000073815F0010F07D1013015F4807F02BF67
:10037000013015F4C03F0130F0BC0138704700BFB8
:1003800053B94AB9002908BF00281CBF4FF0FF31FC
:100390004FF0FF3000F074B9ADF1080C6DE904CEF8
:1003A00000F006F8DDF804E0DDE9022304B0704750
:1003B0002DE9F047089D04468E46002B4DD18A4218
:1003C000944669D9B2FA82F252B101FA02F3C2F14B
:1003D000200120FA01F10CFA02FC41EA030E9440DC
:1003E0004FEA1C48210CBEFBF8F61FFA8CF708FBFD
:1003F00016E341EA034306FB07F199420AD91CEBD5
:10040000030306F1FF3080F01F81994240F21C8106
:10041000023E63445B1AA4B2B3FBF8F008FB10334E
:1004200044EA034400FB07F7A7420AD91CEB040483
:1004300000F1FF3380F00A81A74240F20781644453
:10044000023840EA0640E41B00261DB1D4400023D8
:10045000C5E900433146BDE8F0878B4209D9002D3C
:1004600000F0EF800026C5E9000130463146BDE8C6
:10047000F087B3FA83F6002E4AD18B4202D3824230
:1004800000F2F980841A61EB030301209E46002DDF
:10049000E0D0C5E9004EDDE702B9FFDEB2FA82F234
:1004A000002A40F09280A1EB0C014FEA1C471FFA92
:1004B0008CFE0126200CB1FBF7F307FB131140EA79
:1004C00001410EFB03F0884208D91CEB010103F146
:1004D000FF3802D2884200F2CB804346091AA4B208
:1004E000B1FBF7F007FB101144EA01440EFB00FEDC
:1004F000A64508D91CEB040400F1FF3102D2A64541
:1005000000F2BB800846A4EB0E0440EA03409CE7DF
:10051000C6F12007B34022FA07FC4CEA030C20FA8C
:1005200007F401FA06F31C43F9404FEA1C4900FAAC
:1005300006F3B1FBF9F8200C1FFA8CFE09FB181129
:1005400040EA014108FB0EF0884202FA06F20BD99C
:100550001CEB010108F1FF3A80F08880884240F2EC
:100560008580A8F102086144091AA4B2B1FBF9F030
:1005700009FB101144EA014100FB0EFE8E4508D92B
:100580001CEB010100F1FF346CD28E456AD90238B0
:10059000614440EA0840A0FB0294A1EB0E01A14295
:1005A000C846A64656D353D05DB1B3EB080261EB03
:1005B0000E0101FA07F722FA06F3F1401F43C5E9DD
:1005C000007100263146BDE8F087C2F12003D84013
:1005D0000CFA02FC21FA03F3914001434FEA1C4755
:1005E0001FFA8CFEB3FBF7F007FB10360B0C43EA47
:1005F000064300FB0EF69E4204FA02F408D91CEBF7
:10060000030300F1FF382FD29E422DD902386344F4
:100610009B1B89B2B3FBF7F607FB163341EA034194
:1006200006FB0EF38B4208D91CEB010106F1FF38E3
:1006300016D28B4214D9023E6144C91A46EA0046DA
:1006400038E72E46284605E70646E3E61846F8E66C
:100650004B45A9D2B9EB020864EB0C0E0138A3E7B5
:100660004646EAE7204694E74046D1E7D0467BE796
:10067000023B614432E7304609E76444023842E70E
:10068000704700BF684620F007018D46FEE7000076
:100690000848094A0949121A08B51EF057FC0848CB
:1006A000084A0021121A1EF079FC1EF01BFC00F013
:1006B0005DF9FEE700000024300600247850069023
:1006C00030060024AC960324364A4FF40071DFED67
:1006D000366A92ED057A27EE267A30B5FDEEC77AB6
:1006E000ADF5037D082502A817EE903AD2ED047A05
:1006F00067EEA67A642BA8BF6423FDEEE77A23EAAF
:10070000E37317EE902A642AA8BF642222EAE272F9
:100710000092264A1EF0C2FD254B264904461B685E
:10072000254A032BC8BF0A46C0F5007102A80092F3
:100730002044224A1EF0B2FD02AB0444204AC4F514
:10074000007118191EF0AAFD04441E4B02A89FED6B
:100750001E7AC4F5007103EB850320441B4AD3EDD8
:10076000007A2B4667EE877AFDEEE77ACDED007AC8
:100770001EF094FD0444B4F5F67F02DA01350C2D29
:10078000E3D102AB124AC4F5007118191EF086FDC0
:1007900002A910480AF0B8FE0F4B00221A700DF59E
:1007A000037D30BD400700240000C8429A05069032
:1007B000F4350324950506908E050690A70506904E
:1007C000B80506906406002400007A44CC05069023
:1007D000D1060690C6060690A4F80224024B1B78A8
:1007E0000BB1FFF771BF7047A4F80224534B2DE9FA
:1007F000F04193F800802DED028B86B0B8F1000F28
:100800004FD04F4802F006FAC0B14D4802F004FA4A
:1008100000234C4A69464A48CDE900320122CDE91D
:10082000022310238DF810305A238DF8143002F073
:100830007DF903220621424802F059F940480B2471
:1008400002F01FF9404B054618800DF007FC0646E4
:100850003E4800F05EFF07463D4AC4F10B0352F8E4
:1008600024103C4A711A126891422CBF00210121C8
:100870002FB945FA03F313F0010F18BF4146364B69
:10088000142000FB04300BF049FD013CE4D26DB9AB
:10089000324B9FED337AD3ED007A67EE877AC3ED62
:1008A000007A06B0BDEC028BBDE8F081DFED2D8A49
:1008B0000024B0EE688A264645FA06F3DB070AD51F
:1008C000F1B21F4802F0EAF807EE900A0134F8EEA0
:1008D000E77A78EEA78A01360C2EEDD15CB307EEED
:1008E000904AF8EEE77AC8EEA76A9FED1F6A1B4BA5
:1008F00086EE867AD3ED006A9FED196AF7EE007AEC
:1009000087FEC77A88FE077A27EE077AF0EE005A4C
:1009100077EE666AF0EEE66AA6EEE56AF6EE006A43
:10092000C6FE866A77EEE67A93ED006A67EE877A0E
:10093000E6EE867AB3E7DFED0B6AD6E7080000241F
:100940009CF80224010801094C06002494060024A6
:10095000F0060024DC060690ACF7022450060024C2
:100960003333733F000000000000164310B500F061
:10097000C7FC0DF073FB044600F0B0FA00F056FA25
:10098000FFF72CFF0DF06AFB001B042804D90DF0C3
:1009900065FB0446FFF72AFF01200DF067FBEBE73C
:1009A000704770477047704738B5054600240121ED
:1009B000084809F071FA3C200DF058FB0134002181
:1009C000044809F069FA3C200DF050FBA542EED135
:1009D00038BD00BF68F60224074B014610B5044637
:1009E0001A68064801F0F6FDC4F10B040DF036FB61
:1009F000034B43F8240010BDF4350324A8F8022467
:100A0000F0060024012A08BF016000207047086832
:100A1000FFF7E2BF012A08BF0160002070470868A5
:100A2000FFF7DABF0B220270FF2242700022C0E9FA
:100A30000122C2607047836810B5044613B10322D7
:100A400001469847204610BD10B504462C30FFF7EC
:100A5000F2FF606918B1E169091A1DF0DAF9204660
:100A600010BD000008B50D4809F0BEF900210B4883
:100A700009F0D4FA0221094809F0D2F924F0D2FA97
:100A8000074B084A202105489A6009F0E9F9034814
:100A900009F0E2F9044B83ED000A08BD68F6022470
:100AA00000ED00E0000004900400002470B5ADF5F6
:100AB000846D0C240CAD2E462846FFF7B3FF05F1DC
:100AC0001400FFF7AFFF05F12800FFF7ABFF05F1BA
:100AD0003C00FFF7A7FF013C05F15405ECD10F20C6
:100AE000954D09F083F9ADF80000009902223046D7
:100AF0000AF0F2FD102009F079F9ADF8040001992F
:100B0000022221A80AF0E8FD112009F06FF9ADF8E2
:100B100008000299022236A80AF0DEFD122009F030
:100B200065F9ADF80C00039902224BA80AF0D4FD38
:100B3000132009F05BF9ADF810000499022260A8B7
:100B40000AF0CAFD142009F051F9ADF81400059916
:100B5000022275A80AF0C0FD152009F047F9ADF88A
:100B60001800069902228AA80AF0B6FD162009F09C
:100B70003DF9ADF81C00079902229FA80AF0ACFDD0
:100B8000172009F033F9ADF8200008990222B4A823
:100B90000AF0A2FD182009F029F9ADF824000999FE
:100BA0000222C9A80AF098FD192009F01FF9ADF832
:100BB00028000A990222DEA80AF08EFD1C2009F006
:100BC00015F9ADF82C000B99F3A802220AF084FD68
:100BD00004230C22314659480AF08EFD57480AF08A
:100BE00093FF214655480AF0A5FF2346224695ED7E
:100BF000000A0146DFED520A52480AF0B5FB012116
:100C00004E480AF097FF2346224695ED000A01461A
:100C1000DFED4B0A4C480AF0A7FB022147480AF0D7
:100C200089FF2346224695ED000A0146DFED440A7E
:100C300046480AF099FB032140480AF07BFF23460F
:100C4000224695ED000A0146DFED3D0A40480AF0D4
:100C50008BFB042139480AF06DFF2346224695EDAF
:100C6000000A0146DFED360A3A480AF07DFB05210D
:100C700032480AF05FFF2346224695ED000A0146FE
:100C8000DFED2F0A34480AF06FFB06212B480AF0EB
:100C900051FF2346224695ED000A0146DFED280A62
:100CA0002E480AF061FB072124480AF043FF23463F
:100CB000224695ED000A0146DFED210A28480AF098
:100CC00053FB08211D480AF035FF2346224695EDC7
:100CD000000A0146DFED1A0A22480AF045FB092105
:100CE00016480AF027FF2346224695ED000A0146E2
:100CF000DFED130A1C480AF037FB0A210F480AF0FF
:100D000019FF2346224695ED000A0146DFED0C0A45
:100D100016480AF029FB0B2108480AF00BFFDFED0B
:100D2000080A01462346224695ED000A10480AF0BB
:100D30001BFB0DF5846D70BD0400002480F60224B9
:100D40006F12033BD8F50224B0F5022420F60224EA
:100D5000FCF5022488F7022448F602243CF702241A
:100D600060F70224200700241CF70224FCF602246A
:100D7000DCF602247FB500230F4A69460F48CDE90F
:100D800000320122CDE9022310238DF810305A23BE
:100D90008DF8143001F0CAFE38B9094B18700948B3
:100DA0000AF0B2FB07B05DF804FB032206210348FA
:100DB00001F09DFEF6E700BF010801099CF802243E
:100DC00008000024D605069070B58AB06846FFF783
:100DD00029FE002301220393CDE90123114B04AA2C
:100DE00003F1180516461868083353F8041C144616
:100DF000AB4203C42246F6D10B4D002436F8143022
:100E0000284669460134ADF800300AF0D1FF284683
:100E100001210BF083FA0C2C05F11405EED10AB078
:100E200070BD00BF1C050690ACF7022408B50DF09C
:100E300015F941F28733984242D9224B9FED227A2D
:100E40001B68224A1B8807EE903AF8EE677AC7EED5
:100E5000876AF6EE007AF4EEE76AF1EE10FA2DDD1D
:100E60001B4B1B681B8806EE903AF8EE666A86EE0E
:100E7000876AB4EEE76AF1EE10FA1FDD154B1B68C6
:100E80001B8806EE903AF8EE666A86EE876AB4EE44
:100E9000E76AF1EE10FA11DD138801339BB2B3F566
:100EA000FA7F13800CD30C480AF02EFB64200DF05F
:100EB000DDF80320BDE808400DF0DAB80023138008
:100EC00008BD00BF2007002400FF7F476206002402
:100ED0001CF70224FCF60224140606900B4808B501
:100EE00001F0B2FB014660B90DF0B8F84FF47A7129
:100EF000B0FBF1F303FB1100B0F5FA7F2CBF00212A
:100F000001210348BDE8084008F0C6BFA8F8022444
:100F100068F602241FB5204BD3ED037A1F4B1A78D5
:100F20006ABB9FED1F7AF4EEC77AF1EE10FA2FDD5F
:100F300001221A701B4B1A7882F001021A701B787A
:100F4000BBB1194B194893ED000A00F0F5FB184BA3
:100F5000694616480393174B029300F0A7FB6846B7
:100F6000FFF769FD0221114805B05DF804EB00F0C0
:100F7000CBBB0E4805B05DF804EB00F073BC9FEDF1
:100F80000E7AF4EEC77AF1EE10FA44BF00221A701E
:100F900005B05DF804FB00BF2007002460060024B4
:100FA0009A99993EEC06002404000024940600243B
:100FB0000F0A0490050A0490CDCC4C3E2B48F6EE67
:100FC000007A2B4BD0ED036A1B68F4EEE76A591CDC
:100FD000284BF1EE10FA93ED037A274BF0B51A681F
:100FE0003CDD01320A2AA8BF0A22B4EEE77A234880
:100FF0001A600368F1EE10FA34DD01330A2BA8BF42
:101000000A23052A03601E48D4BF00250125052BAD
:10101000D4BF00240124052A0CDD027852B9194EF0
:101020003268013292FBF1F701FB17223260012690
:10103000154A1670052B154A0DDD13785BB9114E54
:101040003368013B0B4493FBF1F701FB173301219C
:1010500033600D4B197005701470F0BD013A22EA2F
:10106000E272C2E7013B23EAE373CAE71CF70224FA
:10107000FC060690FCF602245C06002458060024B8
:1010800055060024F4350324F835032454060024BF
:1010900010B51B4800240AF099F91A480AF096F98D
:1010A00019480AF093F919480AF090F918480AF01B
:1010B0008DF918480AF08AF917480AF087F9174895
:1010C0000AF084F916480AF081F916480AF07EF908
:1010D00015480AF07BF915480AF078F9E1B214488E
:1010E0000AF032FD134B03EB840301340C2C83ED27
:1010F000000AF3D1FFF762FFBDE81040FFF70ABF17
:10110000D8F50224B0F5022420F60224FCF50224CE
:1011100088F7022448F602243CF7022460F70224F0
:10112000200700241CF70224FCF60224DCF602242B
:1011300080F60224640600241C4BB6EE007ADA68BE
:101140001B4B1A601B4BD3ED036A1B4BC3ED006AAC
:101150001A4BDA681A4B1A601A4BDA681A4B1A6083
:101160001A4BDA681A4B1A601A4BDA681A4B1A6073
:101170001A4B93ED036A1A4BDA681A4B1A601A4B32
:101180001A4AC3ED006A1A4BD3ED007A67EE877AEC
:10119000E6EE077AC2ED007AD3ED007A154B67EEE2
:1011A000877AE6EE877AC3ED007A7047D8F5022495
:1011B000F8F50224B0F50224D0F5022420F602242A
:1011C00040F60224FCF502241CF6022488F70224CF
:1011D000A8F7022448F6022444F602243CF702242D
:1011E00060F7022480F70224D4F502245CF702247D
:1011F00050060024ACF5022470B58AB090ED021AB6
:10120000D0ED010A04466D4690ED000A02216846C1
:1012100001F014FD05AE0C340FCD0FC62E6805ADE0
:101220000FCD0FC426600AB070BD0000F8B52C4C7D
:1012300000212C4B20462C4A2DED028B93ED008A89
:101240002030F6EE008A84ED008A1DF0A7FE002211
:101250000123F5EE007AC4E9062304F5383303F5DB
:10126000626703F6246603F62865204B87ED008A43
:1012700028EE278A38462B6086ED008AB7EE008A72
:10128000FFF7BAFF97ED007ADFED197A384627EEBF
:10129000287AC7FE887AC7FEC77AC6ED007ADFEDE6
:1012A000157AC8FE277AC5ED007AFFF7A5FFD4EDC1
:1012B000007AF5EEC07AF1EE10FA07D99FED0E7ABA
:1012C00067EE877A88EE277A87FE488A0B4B84ED93
:1012D000038AC4ED048AA3606360BDEC028BF8BD91
:1012E0005C0700240400002400EE0200F304353FF4
:1012F00000004844CDCCCC3D0AD7A33C9A99993EF6
:1013000010B52DED028B92B04F4CFFF7ABFB0120D7
:10131000FFF74AFB4D494E4800F00AFD0220FFF757
:1013200043FBFFF7C3FB0320FFF73EFBFFF722FD64
:101330000420FFF739FBFFF779FF0520FFF734FBA7
:10134000FFF742FD0620FFF72FFB94ED008A0DF01A
:1013500085F89FED407A404B0122C7EE087A07EEF0
:10136000100A1A7007203D4ADA60B8EE477A1A610F
:101370005A6127EE877AF7EE007AC7EE876A9FED0B
:10138000387A28EE078AC3ED016ADFED366A86EE09
:10139000887A77EE277AC7EE276AC3ED066AFFF7E9
:1013A00003FB94ED000A304800F0C6F90820FFF76F
:1013B000FBFA2E4B02A92C4805932D4B049300F009
:1013C00075F902A8FFF737FB0221274800F09CF9C6
:1013D00000200AF0A7F80920FFF7E6FA25491B4884
:1013E00008F01AFD0A20FFF7DFFA23480AF08CF80C
:1013F000D4ED007A20230422FDEEE77A1F4902A8EB
:10140000CDED007A1DF07EFF02A80AF07DF81C4B9E
:101410001C4902A81C6822461DF074FF02A80AF0AD
:1014200073F8194B194A02A81949032CC8BF1A4668
:101430001DF068FF02A80AF067F816480AF064F881
:1014400012B0BDEC028B10BD0400002468F602242B
:10145000A8F8022400000042400700240000C07FDA
:101460000000003DDB0FC940940600241F0A0490D1
:10147000150A0490F12804905906069089060690F2
:10148000FC060690AD0606904C06069041060690B6
:10149000C0060690C906069038B5414C6FF0F413AB
:1014A000002504F1280065612562C4E90053C4E900
:1014B0000233FFF7B7FA04F13C00FFF7B3FA04F187
:1014C0005800FFF7AFFA2567364A204636490C2404
:1014D0001CF09AFC3548334A3549056085801CF07C
:1014E00093FC2946142233481DF058FD324A00234C
:1014F00032481146324D936041F8043BD3600B6093
:10150000284A30491CF080FC2F4800F0B3F8254AE7
:101510002E492D481CF078FC28461435FFF782FA36
:10152000013CF9D11F4A2A492A481CF06DFC1D4A8A
:10153000274929481CF068FC1A4A254927481CF00D
:1015400063FC184A224926481CF05EFC154A2049D3
:1015500024481CF059FC134A1D4923481CF054FC34
:10156000104A1B4921481CF04FFC0E4A18492048DC
:101570001CF04AFC0B4A16491E481CF045FC094A5F
:1015800013491D481CF040FC064A11491B481CF039
:101590003BFC044A0E491A48BDE838401CF034BCF4
:1015A00068F6022400000024A30904909CF8022499
:1015B000A509049088F502249CF502245C07002408
:1015C000ACF70224A709049094060024490A049069
:1015D000A1090490D8F50224B0F5022420F60224D3
:1015E000FCF5022488F7022448F602243CF7022482
:1015F00060F70224200700241CF70224FCF60224D2
:10160000DCF6022470B50C1A2411002C034616DDFA
:1016100015680668AE4203D04668B54201D1043071
:1016200070BD8668B54201D10830F9E7C668103050
:10163000B54202D103F10C00F2E7013CE5E70C1AD8
:10164000082C0ED00C2C07D0042C03D1186812687B
:1016500090420AD00846E3E705681468A542DFD047
:1016600004331C681068844201D11846D8E704335B
:10167000ECE7000000220B49C0E90412002142639C
:101680000265816201644164074980F854208164E5
:1016900010B54FF07E54C0E90622C0E90822C463A9
:1016A000C46410BD7856341200803B4770B50023E7
:1016B00086B004460E46049302AD8B6833B1022215
:1016C00028469847F3680593B36804936A4604F183
:1016D0002C0395E8030082E8030093E8030085E803
:1016E000030092E80300049A83E80300636BA16B94
:1016F0006263059A04930591A2631BB103222946F4
:101700002846984706B070BD002380F85410036542
:101710007047D0E90520101A18BF01207047B7EEB6
:10172000007AD0ED007AC7EE276A90ED0F7AC6EE08
:10173000877AC0ED137A704710B5F0EE400A80ED5D
:10174000120AB7EE000A04461CF03CFB00232046B8
:1017500023646364BDE81040FFF7E1BFDFED087A62
:10176000B4EE670A10B5F1EE10FA044648BFB0EEC9
:10177000670A1CF039FB2046BDE81040FFF7CFBFD9
:10178000CDCCCC3D07B5F0EE400A0190B3EE0E0A89
:101790001CF0BEFB019803B05DF804EBFFF7DEBF61
:1017A0000369024683EA433383EA534383EA4310DF
:1017B0001061704713B5D0E9051304468B4218D069
:1017C00090F85420012A16D1FFF7EAFFD4E9052347
:1017D0009B1A9B10B0FBF3F202FB1300636B43B147
:1017E000636901A953F8203004F12C000193A36B25
:1017F000984702B010BD5B1A026D9B10B2FBF3F06C
:1018000003FB102001322265E8E7D0E9053270B50C
:101810009A4204460E4624D0436B13B30025B542CA
:101820001FD0F7EE006A94ED127AC6EE877A94ED37
:10183000117A77EE877A94ED107AF4EEC77AC4EDD8
:10184000117AF1EE10FA0ADB2046FFF7B3FFD4ED70
:10185000107A94ED137A77EE877AC4ED107A013519
:10186000DDE770BDD0E90532934218BF83610023E4
:10187000036570472DE9F84FD0E9008993466FF072
:101880006043A9EB080207468A46B3EBA20F4FEA72
:10189000A20402D11E481CF0DEFA012C2246A1EB64
:1018A000080538BF0122A4182ED27CB39C4228BF61
:1018B0001C46A0001CF0BEFA0646DBF80030002DE6
:1018C000735104DD2A46414630461DF04DFBA9EB1D
:1018D0000A090435B9F1000F354404DD4A46514682
:1018E00028461DF033FB4D44B8F1000F05D0B96810
:1018F0004046A1EB08011CF08CFA06EB8404C7E912
:101900000065BC60BDE8F88F1C46D2E72646D4E7E8
:10191000E00606909142F7B504460E4639D081EABA
:10192000020500230193019A0B2A32DC0123934024
:101930002B429AB210D0164201AAD4E9050114D064
:10194000FFF760FEA169814206D1E369994206D0A2
:10195000019A41F8042BA161019B0133E2E701AA3E
:1019600004F11400FFF786FFF6E7FFF74BFE814214
:101970000AD0031D8B42019F06D053F8042BBA42B4
:10198000F8D040F8042BF5E7A369834218BFA061A3
:10199000E2E703B0F0BD00F5405310B50446D3F8BC
:1019A000240D10B110211CF034FA204610BD03782C
:1019B00013B1032B04D070470122C3630270704738
:1019C000B7EE007AD0ED015A90ED026A0123D0ED16
:1019D0000D7A76EE076A0370A5EE867AF8EE677ADE
:1019E00067EEA57A67EEA67AF0EE476A87EEA67AEA
:1019F000F8FE477AFCEEE77AC0ED0F7A704703787D
:101A0000012B02D0022B14D07047D0ED0F7A90ED4D
:101A10000B7AF8EE677A90ED026A67EE877AB7EE96
:101A2000007A77EE676AA6EE267AC7EE876AC0ED7F
:101A3000016A0023C36303230370704703782BB14B
:101A400004230370436883620023C363704700006C
:101A500038B500F55F5204460346344919603449ED
:101A6000C3F848113349C3F800123349C3F8381298
:101A70003249C3F8BC123249C3F804143149C3F8DF
:101A800048153149C3F8C8153049C3F8A81630497C
:101A9000C3F8CC172F49C3F818192F49C3F8281BCE
:101AA0002E49C3F8CC1B03F55F639342D5D104F5EF
:101AB000685204F564531032012100254FF07C5028
:101AC000443303F8431C002103F8445C43F8401CF2
:101AD00043F83C0C43F8380C43F8085C43F8041C0A
:101AE0009342E9D104F5405304F568502946102289
:101AF000C3F8245D1430C3F8285D83F82C5DA3F887
:101B00002E5D43F61023E5501DF048FA04F57050A1
:101B10002946802224301DF041FA04F572508022BB
:101B2000294624301DF03AFA204638BDD0070690E9
:101B3000E4070690080806901C08069030080690F6
:101B400044080690580806906C0806909408069081
:101B5000A8080690BC080690E4080690F8080690CD
:101B6000F8B500F5685600F5615500F5685400F5C4
:101B7000645710363835143438462835FFF75EFF81
:101B800000230022443706F8013BA64245F8282CE2
:101B900005F81D3C05F81C3CEED1F8BD70B500F50C
:101BA00040550446D5F8243D5BB910201CF042F99D
:101BB0000A4A4FF48023C5F8240D4260C3600260D6
:101BC000836004F55F56204604F55F64D5F8241D54
:101BD00001F084FDB442F6D170BD00BF000000C02A
:101BE0004D4B2DE9F0412DED0C8BB2EE00AAD3ED5B
:101BF000007ADFED4A9AB6EE088A9FED49BA00F501
:101C0000685727EE8AAADFED47AA27EE8BBADFEDE9
:101C100046BA67EEAAAA9FED459A6AEE298A00F5B0
:101C20005F552AEE088A00F5685627EE899A143720
:101C300068EEA98A00F56454BCEEC88A00F56853C2
:101C400067EEABBA1C35FCEEE88A1036B8EE488A6F
:101C50000134F7EE007A2433F8EE688AB84638EE9D
:101C60002A8A87EE89DA78EE8B8ABCEEC88AFCEE87
:101C7000E88AB8EE687AC7EE87CAB8EE487A87EE87
:101C800087CA002104F10F02C5ED219A1846296088
:101C90002835C5ED1D9A85F8801006F8011BE7EC84
:101CA000019A82ED00AA04F1130282ED00BA04F158
:101CB0001702C2ED00BA04F11B02C2ED00AA04F142
:101CC0001F0282ED009A04F1230282ED00DAE21D88
:101CD000C2ED009A04F10B02C2ED009A18EE902AB0
:101CE0002170C4F8332018EE102AC4F8372004F10C
:101CF0002B02C2ED00CA04F12F02443482ED00CA67
:101D000080221DF04BF94645034603F18003B8D10C
:101D1000BDEC0C8BBDE8F081040000240000000045
:101D200017B7513917B7D138CDCCCC3E6F12033C21
:101D300000F5405310B50446C3F8281DFFF72EFFE9
:101D40002046BDE81040FFF74BBF000070B500F51E
:101D5000705504460E4680222435002128461DF089
:101D60001DF904F5725300218022243318461DF01A
:101D700015F9002E0346134814BF04210121C9019F
:101D8000A1F501712A46B2EC017A145E9A4207EE7F
:101D9000904A00F10204F8EEE77A145F77EE877A52
:101DA00042ED017A07EE904AB8EEE77AD2ED1F7A5B
:101DB00077EE877AC2ED1F7AE5D180308842E1D193
:101DC00070BD00BFFCFDFFFF1368D2ED017A92EDFC
:101DD000027ACB61D36877EE877A4B601369C1EDE5
:101DE000007A8B605369D269CB6000230A624B6230
:101DF0000B614B618B617047DFED7E6AB7EE007A55
:101E000013B5C1ED006AC1ED016AC1ED026AC1ED11
:101E1000036AC1ED046AC1ED056A002B40F0E18060
:101E2000DFED754A92ED045AB4EEE40AF1EE10FAD1
:101E30004CD5B2EE026AD2ED055A25EE866A26EE40
:101E4000006AC6EE247A77EEA57AFCEEE77ADFED3B
:101E50006B5AB4EEE50AB8EE676AC2ED0D7AF1EEA0
:101E600010FA87EE064A82ED0B4A42D535EEC06A7B
:101E7000DFED635A36EE256AF6EE005A36EE656AF5
:101E8000DFED605A66EE255A25EE866A60EEA04ABE
:101E9000D2ED075A107882ED026A64EEA00AC2ED14
:101EA000036AE0EE855AFCEEE55A15EE903AC2ED73
:101EB0000E5AF8EE655A87EE255A82ED0C5A042820
:101EC0001CD8DFE800F019375558780060EE007A2A
:101ED0009FED4D6AF6EE005A25EE066A67EE807AAF
:101EE00065EE255A67EEA57AF4EE005AE6EE257AFD
:101EF000ABE79FED406AC9E7C2ED016AD2ED017A16
:101F0000CDED016AF5EEC07A8DED007AF1EE10FAB2
:101F100054BF043201AAD2ED007AF4EEC77AF1EE92
:101F200010FAC8BF6A461368CB61012381F82430D8
:101F300002B010BDD36BB0EE475A17EE900A05EE13
:101F4000903A8342F8EE655A65EE845A77EE654A18
:101F5000A6EE245A85EE856A82ED016A3FD3537856
:101F6000002B0CBF0323022313700023D363C5E7A8
:101F700082ED017AC2E7D06B07EE900AF8EE677A3D
:101F800067EE857A08B95468146437EE676AD2ED53
:101F9000105A984226EE256AF0EE475AE7EEA65A06
:101FA000C6EE257AC2ED017A02D300231370DDE775
:101FB0000130D063A2E7D36BD2ED095A07EE903A15
:101FC000B8EE676AD2ED0A7AE6EE657AC2ED017A7A
:101FD000D2ED087AB4EEE76AF1EE10FAE5DA0133F1
:101FE000C4E7002381ED077A81F82430012381F8CA
:101FF00023309DE700000000CDCCCC3D9A99993E5E
:102000003333333F000000436F12033B0BB91378A7
:102010000BB900238B617047032908D800EBC1106E
:102020008022002100F5685024301CF0B7BF7047B3
:10203000032973B504460D4627D8421843F61023EA
:10204000D35C13B3282343F2DC7203FB01039E58D5
:10205000072E0ADC442000FB014000F5645001908B
:10206000FFF7ECFC0198FFF7A2FC28214FF07E520D
:10207000072E01FB054404F561539A6303F138030D
:10208000C2BF012243F68303E25402B070BD0000D8
:102090000B68072BCCBF012300232DE9F04F054629
:1020A0000C462DED088B0BEE103A8BB000F38680BA
:1020B00091ED080ADFED537AB4EEE70AD1ED097A23
:1020C00067EEA78AF1EE10FA68EEA78A4ABFB6EE6D
:1020D000008A20EE008A20EE088A28EE008AF3EEBD
:1020E000087A94ED047ABAEE089A05F5685805F571
:1020F0006859D4ED059A94ED06AA05F55F56A7EE4A
:10210000279AD4ED07AA08F1240809F1140905F566
:10211000645A0027D4F808B0BB4554DD236806F1A3
:10212000A00B02AA31460293284659F8043BF0EE70
:10213000680AB0EE480A8DED049A0393237BCDED37
:10214000059A8DF82030CDED06AA8DED07AACDEDCC
:10215000098AFFF739FE1BEE103A52465946FFF73F
:102160004BFE237963B9237B53B905F5685205F516
:1021700040532846103293F82C3D3A44FFF746FF6F
:1021800020234FF45F605A4631460093434600FBDC
:10219000075000F0D3FF23794BB9237B3BB9F36998
:1021A000072B04DD1FB905F5615300229A6301373F
:1021B000283608F180080AF1440AABE7DFED128AFD
:1021C000B0EE688A8BE75C46032C05DC2146284686
:1021D0000134FFF721FFF7E705F5405696F82C3D4F
:1021E0005BB10024A34505DD214628460134FFF7F5
:1021F0001FFFF7E7002386F82C3D0BB0BDEC088BE2
:10220000BDE8F08FCDCC4C3E0000000038B50D4647
:102210000446FFF73DFF29792046FFF797FD2B7B0A
:1022200043B104F54054002204F678031A600023F9
:1022300084F8833838BD2DE9F04100F5685600F583
:10224000615500F5685400F564571036383524346C
:10225000B04638464437FFF7F1FB00210023204603
:1022600006F8011B80222B608034E972283505F8BE
:102270001C1C1CF093FE4745EBD1BDE8F08100002B
:1022800003292DE9F84F04460E462DED028B61D847
:1022900000F5645800F5615500273835C146BE4247
:1022A0000DD004F568534FF0000A4046103303F890
:1022B00007A0FFF7C3FB002385F80BA02B600137B5
:1022C00008F144082835042FE9D104EB060B43F646
:1022D000102A9FED288A04F540551BF80A70002F3C
:1022E0003CD00123484643F6830985F8103A06F6A8
:1022F000846304EB83035A6805F614231A604422AE
:1023000002FB06F804EB080101F564511CF01EFE07
:10231000282105F6780308F5645001FB06462044A1
:1023200006F56157BA6B1A6016F80930FA6B85F832
:10233000833805F67C031A6043F68403F35C85F862
:10234000843800250BF80A50FFF778FB87ED0E8ADA
:1023500006F80950BDEC028BBDE8F88F484685F8B9
:10236000107AFFF76BFB05F6780383ED008A85F89A
:102370008378EFE700000000032970B4CCBF00258C
:102380000125032ACCBF0024012491421AD000F574
:1023900040530126A54283F82C6D13D003290BDC92
:1023A000032A09DD00F568530021103313F8012BCF
:1023B0002AB901310429F9D170BCFFF73CBF70BCC8
:1023C000FFF75EBF70BC704700F54050B0F82E0DAF
:1023D000704700F54050A0F82E1D704700F5685377
:1023E00000201033884204DA13F8012B1AB10130AF
:1023F000F8E74FF0FF30704738B500F540534FF025
:102400007E5503F6142203F6780482ED000A0122B9
:1024100083F8102A256011B183F8832838BD00F5B0
:10242000645083F88318FFF7C2FAF7E710B5DAB102
:1024300000F5685100F568520020143110329842BE
:102440002ADA12F8014B64B1D1ED007A9FED147ACB
:1024500077EEC07AF0EEE77AF4EEC77AF1EE10FA92
:1024600019D401300431EAE700F5405090F8103AF1
:1024700093B100F61420D0ED007A37EEC00ADFEDFC
:10248000087AB0EEC00AB4EEE70AF1EE10FA54BFD3
:102490004FF0FF30002010BD4FF0FF30FBE700BFD2
:1024A000CDCCCC3D2DE9F04F072B85B004461F461F
:1024B0009DF83880D8BF4FF00009DDF83CB0C8BFA8
:1024C0004FF00109DFF808A10025CDE90112019ABA
:1024D000029B42FA05F6BAEC010A2B4116F00106FE
:1024E00003F0010332D033BBB8F1000F29D05946B5
:1024F0002046FFF773FF411C1DD000F684632218AD
:10250000012104EB830383ED010A43F61023D15428
:1025100028234FF07E5103FB004303F56152916382
:1025200043F6830203F80290442303FB004000F5C6
:102530006450FFF73CFA01350C2DC8D105B0BDE859
:10254000F08F49462046FFF757FFF4E7002BF2D003
:10255000B8F1000F1CD05B46012239462046FFF738
:1025600065FF421C0346E6D02118442043F61022A2
:10257000039300FB03408E5400F56450FFF73FFACD
:102580002820039B43F6830200FB03439E54D2E7BB
:1025900004F5405696F8103A002BCCD006F61423DA
:1025A0009FED0A7AD3ED007A77EEC07AF0EEE77A03
:1025B000F4EEC77AF1EE10FABDD504F5645086F852
:1025C000108AFFF71CFA86F88388B4E7CDCCCC3D9F
:1025D000000706900B29F0B5164689B02ED8184B87
:1025E00000F540550127009603EB810105F6142202
:1025F0008DF818700B6800F55F5113606A460193FF
:10260000002385F8107A02934FF07C5303930493D0
:1026100005930C4B1B680793FFF7D6FB05F6780371
:102620004FF07E52072E1A6085F8837806DC00236F
:1026300000F5645085F80139FFF7B9F909B0F0BD2C
:102640000007069040F6022400F5685200F5685332
:102650001032143312F8010B08B99A42FAD17047BC
:1026600010B5054C2046FFF7F3F92046034A04490C
:10267000BDE810401BF0C8BBA8F8022400000024ED
:102680009719049008B5FEF703FDFEF755FD104BB2
:102690001B782BB10F4B104893ED000AFFF772F82F
:1026A0000E4BB6EE007AD3ED007A0D4B67EE877ACB
:1026B00093ED006AF0EE676AE6EE076AC3ED006A22
:1026C000084BD3ED006AE6EE877AC3ED007A08BDC9
:1026D000EC060024F8F50224940600245006002499
:1026E0005CF70224ACF502242DE9F0439846274B11
:1026F000164685B01B6804460D46DFF8A090032BF4
:102700000360CCBF00220122042B0A70B4BF042353
:10271000012333601E4B1B7803F0FF074BB999F878
:10272000003033B11B48FFF71BFA39461948FFF751
:1027300050FE88F80070DFF868801648B8F800107E
:1027400089F8007089B203919FB1FFF73DFE0399AC
:1027500002461148FFF7DEF820210F48FFF755F831
:10276000B8F800100B4889B205B0BDE8F043FFF798
:1027700030BEFFF729FE33680246039901932B7898
:10278000044800932368FFF78DFEE9E7F43503243E
:10279000EC060024A8F8022494060024DC35032467
:1027A0004C06002400B58DB08DF80C30114B009014
:1027B0001B688DF80410694604930F4B0F481B6883
:1027C000029205930E4B1B6806930E4B1B680793F2
:1027D0000D4B1B6808930D4B1B6809930C4B1B6832
:1027E0000A930C4B1B680B93FFF710FD0DB05DF8BF
:1027F00004FB00BF80F7022444F60224A8F8022458
:102800005CF70224A8F702241CF6022440F60224F6
:10281000D4F502245006002438B580B1D1ED007AF9
:102820009FED1C7AF0EEE77A1B4BD3ED006A67EE62
:10283000877A9FED1A7AE6EE877AC3ED007A184C14
:10284000184D2378BFF35B8F13F0010F15D120468D
:102850001BF0E1FA88B1144B20469FED147AD3EDBA
:10286000007A67EE877AB0EE087A67EE877AFCEE38
:10287000E77AC5ED007A1BF0DAFA0D4A2968136889
:1028800001338B42136004D3002313600122094BF0
:102890001A7038BD0AD7233C84F70224A4707D3F08
:1028A000D8350324F0350324040000240000003D43
:1028B000EC350324A4F8022438B505460C4600F094
:1028C00015FA094BB7EE000A2946D3ED007A2246E5
:1028D000064830EE670A00F02BFA29462046BDE88C
:1028E0003840FFF799BF00BFD4F50224CC3403244D
:1028F0002DE9F0433C4C85B00D461646237823B9AC
:102900003A4808F001FE012323700BF0A7FB384B77
:102910001A68824202D01860FFF7B4FE354F0BF000
:102920009FFB354C3B78A06083B1DFF8D490DFF893
:10293000D480D9F80020D8F800103048FFF71CFDEB
:10294000D9F80030C8F8003000233B700DF10703C0
:1029500003AA0DF1060102A8FFF7C6FE9DF8073095
:10296000039A9DF806100298FFF71CFF314628468F
:10297000FFF7A2FF0BF074FBA36894ED017AC31A72
:1029800007EE903A2378F8EE677A67EE877A53B1CC
:102990000023C4ED057AC4ED037AC4ED047A2370F4
:1029A00005B0BDE8F08394ED047AD4ED066AF4EE48
:1029B000C77A94ED037A94ED056AF1EE10FAF4EE1D
:1029C000C77AB7EE007AC8BFC4ED047AF1EE10FA08
:1029D00037EE667A48BFC4ED037A27EE067AA7EE93
:1029E000A67A84ED057ADBE7E43503243007069008
:1029F000E0350324F835032440070024A8F8022416
:102A0000F4350324E835032410B5002386B00A46C4
:102A100064218DF8173001230446CDE901310DF111
:102A200017010091017909F0BDFE6379002818BFF4
:102A300043F001039DF81700637106B010BD0C2927
:102A400003D81E31C9B2FFF7DFBF0020704710B5B1
:102A50000A4686B0022364210446CDE9013105AB64
:102A600000930123017909F09DFE6379002818BFC6
:102A700043F001030CBFBDF814000020637106B0E1
:102A800010BD0021FFF7E3BF0C2905D80231490032
:102A900001F0FE01FFF7DBBF002070470B2970B586
:102AA00006460D460AD8FFF7EFFF04462946304692
:102AB000FFF7C5FFC4EB800000B270BD0020FCE74B
:102AC00010B586B0012304468DF814206422CDE9A8
:102AD000013205AA00920A46017909F089FE63795C
:102AE000002818BF43F00103637106B010BDF8B5AC
:102AF00041240F4616465E2100220546FFF7E0FFFF
:102B000021463A462846FFF7DBFF611C0234324675
:102B1000C9B22846E4B2FFF7D3FF592CF0D12846BA
:102B20008F225E21BDE8F840FFF7CABF38B50B7DA4
:102B3000044600255B00037109F074FD63228021C7
:102B400020466571FFF7BCFF01200BF08FFA5D2175
:102B50002046FFF759FF242803D00123284663713C
:102B600038BD2A465E212046FFF7AAFF042208212D
:102B70002046FFF7BCFF01222B212046FFF7A0FFD4
:102B800003222C212046FFF79BFF10222D212046F7
:102B9000FFF796FF20222E212046FFF791FF01220A
:102BA0002F212046FFF78CFF032230212046FFF71C
:102BB00087FF102231212046FFF782FF2022322199
:102BC0002046FFF77DFF012233212046FFF778FFE3
:102BD000052234212046FFF773FF2A46352120467F
:102BE000FFF76EFF22225B212046FFF769FF3F229D
:102BF0005C212046FFF764FF2A465D212046FFF74F
:102C00005FFF20468F225E21FFF75AFF607980F038
:102C10000100A5E740797047002343717047000029
:102C200038B5054C256825B904201BF003F905606B
:102C30002060206838BD00BFFC35032438B52DED79
:102C4000028BB7EE008ADFED287AF0EE418A0D465E
:102C500060EEA70A0446C8EE007A20EEA70A1BF031
:102C6000EBFAC0EE286A012D60EE007A36EE887A23
:102C700037EE277A88EE076A37EEC87A38EE668A2A
:102C800037EE077A38EE278A27EE067A28EE068A8C
:102C90000CD0022D1CD067EE867A77EEA76AC4EDC1
:102CA000007AC4ED027AC4ED016A09E0F8EE007A18
:102CB00084ED006A84ED026A66EE277AC4ED017A3B
:102CC00084ED048A204684ED037ABDEC028B38BD86
:102CD00066EE866A00236360C4ED006AF1EE666A00
:102CE000C4ED026AECE700BFDB0F49400A4A9FEDE2
:102CF0000B7AD2ED007A0A4B67EE877A094A9FED8C
:102D00000A7AD2ED006AC3ED047ADFED087AE6EEC6
:102D1000877AC3ED027A7047ACF5022448E17A3F26
:102D20005C070024F8F50224A4707D3F0AD7233CF9
:102D3000F7EE007A5F4BF0B5002577EEC05A80FEC3
:102D4000670ADFED5D7AAC4687FE800AD3E9064666
:102D5000944580F0AB804FEA5C059FED587AD3ED47
:102D6000036A4BF67F3600EB85054BF6803ED5EDCA
:102D7000007A67EE877A9FED527A87EE875AD3ED15
:102D8000017A93ED027A37EE677AE6EE877A93ED71
:102D9000007AC3ED017A67EE877ABDEEE77A17EE27
:102DA000105AF8EEC76AB54277EEE67A28BF354684
:102DB0002E466519C3ED057AB5FBFEF70EFB1757D6
:102DC000013503EB870797ED087AB5FBFEF70EFB9D
:102DD000175503EB8505D5ED086A3A4D76EEC76ABF
:102DE00095ED016AA6EEA77AD5ED006AD5ED057AD4
:102DF000E6EE877AD5ED076AE7EE066A95ED036A97
:102E0000E6EE676A95ED026AC5ED056AD5ED046ADE
:102E100066EEE76AE7EE066AB8EE087AF4EEC77A7D
:102E2000C5ED076AF1EE10FA3AD4B0EE087AF4EE86
:102E3000C77AF1EE10FA36DCB3EE0B7AB2EE026A24
:102E4000F0EE476A27EE866AE7EEA76AA6EE277AD3
:102E500066EEA76AC6EE877AD3ED046A03EB8405B3
:102E600004F53B440CF1020C08317F34B0EE457A96
:102E7000A6EEA77A65EEA77AE0EE057A85ED087AE8
:102E80004BF680359FED107AB4FBF5F767EE877A45
:102E900005FB1744012541ED027A41ED017A57E720
:102EA000FFEE007AD8E7F7EE007AD5E70DB1C3E977
:102EB0000646F0BD5C07002400000000000000385A
:102EC0003333334088F502243333333FDFED0E7A5A
:102ED0000E4A30EE270AFDEEC07AB8EEE77A17EE1A
:102EE000901A30EE470ABEEECC0A10EE103A02EB12
:102EF0008302074B03EB810392ED000AD3ED007AC6
:102F000020EE270A704700BF00000043403E0690B5
:102F10004442069090ED007AF7EE006A30EE470AE0
:102F200027EE076A76EEC77AB5EEC00A26EE066A85
:102F300067EEA77AF1EE10FAD4BF76EEC65ADFED4F
:102F4000110A76EEE76AD8BFE5EE810ADFED0E5A88
:102F5000E6EEA17AA0EE807A80ED007A80ED017A2B
:102F60009FED0A7AA6EE257A9FED096AA1EE867A90
:102F700080ED027A27EEA17A67EE217AC0ED037A1E
:102F8000704700BF9A99193F9A99993EA69B443B76
:102F90000AD7233D064A00238260064A4360C26086
:102FA0008361054A43614FF07C53026103607047BF
:102FB00022BA003D0AD7233CCAAA7F3FB5EEC00A19
:102FC00070B5F1EE10FA049C34D5F1EE405A264665
:102FD0001546013EB7EE000AB6F1FF3F2AD0D5ED07
:102FE000007A90ED007A65EEA77A9FED4E6A9FED2C
:102FF0004E5AF0EEE76A76EEC76AF5EEC06AF1EE79
:1030000010FA36FE056AA6EE867AB4EEC07A80ED36
:10301000007AF1EE10FA88BFC0EE076A9FED437A9E
:1030200098BFF0EE406A67EEA67A67EE877AE5EC25
:10303000017ACEE7DFED3E7A059D20EE270A6D008E
:1030400000295ED190ED016A07EE904AF0EE045A35
:10305000B0EE467AF8EE677AC0ED035A90EE207A29
:10306000C7EE273A9FED337ADFED337A21EE077A08
:10307000E1EE077AB7EE007A21EE271AF0EE477AF2
:1030800080ED021AE1EE257AE1EE017AC7EE274AD9
:10309000C0ED044A013C31D3D0ED056A36EE236A17
:1030A000B2EC015A25EEE67AD0ED067AA5EE067A64
:1030B000A1EE667A37EE677A27EE247AE1EE076AA8
:1030C000E1EE267AB0EE664AA1EE074AB0EE677AE4
:1030D000A1EE267A80ED054A80ED067AB0EE677A99
:1030E00095EE067AE1EE877AFDEEE77A17EE901A12
:1030F000013101F30F0119802B44CBE780ED016A08
:1031000070BD013CFCD3F2EC017A60EE277AFDEE53
:10311000E77A17EE901A013101F30F0119802B4461
:10312000EFE700BFCDCC4C3DACC5A737CDCC4C3F75
:1031300000FEFFC6D7573941DB0F49402DE9F04F5C
:103140000446154690690E46D4F8702C04F6344AAD
:1031500094F8309C2DED0A8B8FB09FEDE3CAF7EE0B
:10316000008ADFEDD1BA0293D4F86C3C02EB830104
:10317000073303F007030860591DC4F86C3C06339D
:1031800001F0070103F0070302EB810102EB830367
:10319000D1ED007A93ED007A04F6284337EE677A92
:1031A000E7EE0C7AB9F1000F40F01782F4EEEB7AFB
:1031B000F1EE10FA0BDD012295F8241084F8302C82
:1031C00009B984F8482C2A68CAED008A1A6095F873
:1031D00023200AB92A681A60D4F8EC1CB6EE009ACB
:1031E000D3ED006A4A1ED4F8203C07EE902AB8EED0
:1031F000E77AD6ED077AF8EEE77AE6EE877A07EE19
:10320000103AF5EE006AB8EEC77AF4EEC77ABDEE72
:10321000007AF1EE10FA37FE267A77EE877A77EEAB
:10322000897AFDEEE77A17EE907A002FC0F2E081FE
:10323000B942D8BF174604EB8703C4F8207CD3F803
:10324000AC8CD4F8243CBB4204F67443039309D0FD
:10325000D8F8003040465B689847039B83ED009A9E
:10326000C4F8247C94F8303C0BB189F0010304F6D7
:103270002C42D5ED017A95F8239092ED008AC2EDAB
:10328000007A37EE888A28EE098AB9F1000F00F03B
:10329000B181DDED227AB0EE009A96ED080AF8EEE3
:1032A000679ADFED827A8DF8203020EE270ADFED75
:1032B00080AAFFF70BFEDFED7F7AB0EE685A9FED34
:1032C0007E7A69EEA77A95F8243087EEAABADAED0D
:1032D000007A2BEE00BAABEE495AB1EE4BAA25EEBE
:1032E000275AD5ED077A27EE877AF0EEE77A8AED4E
:1032F000005A77EEAB7AC7EE27BADFED707A95ED1C
:10330000037AF5EEC0BAF1EE10FA48BFDFED76BAF7
:10331000002B47FEAB7ACDED0D7AD6ED017A77EE34
:10332000877AF5EEC07AF1EE10FA40F165818DED05
:103330000CCA072F40F06981F1EE087ADDED0C6AC6
:10334000B0EE497AA6EEE77AB5EEC07AF1EE10FA61
:1033500000F15E81B4EE687AF7EE007AF1EE10FAD1
:1033600037FE877A96ED046A67EE056A9FED547A18
:10337000F0EEC65AD6ED007ADFED523A95F82030DD
:1033800078EE277A75EEC75AD5ED024AF4EE475A21
:10339000F1EE10FA48BFF0EE475A66EE255A65EE98
:1033A000A35A4BB9B9F1000F00F0358166EE854A9A
:1033B0009FED456A64EE864AE5EEA47A9FED436A86
:1033C000F4EEC67AF1EE10FA00F128819FED406A22
:1033D000F4EE467AF1EE10FA76FE277AD6ED055A2B
:1033E0009FED376AF0EEE54A95F82130CDED097A88
:1033F00095ED044A74EEC74AD6ED027AF4EE474AD8
:10340000F1EE10FA48BFF0EE464A65EEA45A65EEBA
:10341000A35A2BB9B9F1000F9FED334A04FE054AB8
:10342000E5EE847AF5EEC07AF1EE10FA00F1F9805B
:10343000F4EE687AB7EE006AF1EE10FA76FE277ABB
:1034400096ED066A95F82230F0EEC65ACDED0A7A6E
:1034500095ED055AD6ED037A75EEC75AF4EE475A44
:103460009FED177AF1EE10FA48BFF0EE475A26EEBC
:10347000256A26EE236A2BB9B9F1000F9FED1A5A7F
:1034800005FE265AE6EE057AF5EEC07AF1EE10FA60
:1034900000F1CA80F4EE687AB7EE007AF1EE10FA25
:1034A00077FE277A22E000BF9A99993E0000C0C2B9
:1034B0000000FA46000048436666A63FCDCC4C3F6C
:1034C000CDCC4C3D6666863F000040420000EEC217
:1034D0000000F042000090C2CDCCCC3D000000C303
:1034E0000000FE42519696390000000098F80C301A
:1034F0000DF11F0204F54F6904F5576A8DF81F306E
:1035000008A9D8F8003040460192229ACDED0B7AF6
:1035100000924A469F685346B8479DF81FB004F68C
:103520003847BBF1000F2ED195F8243023B995F818
:103530002320002A00F0C180B2EE080AD6ED091A55
:1035400096ED087A5FED1D7A21EE800A0593CDEDA8
:10355000041AA7EE270AFFF7B9FCF3EE047AB0EEDF
:103560004A1A059BDDED041A69EEA77A87EEAA7A5E
:10357000A7EE001A002B5AD0F0EE4B0A3846B0EEF8
:103580006B0AFFF7C7FC0225229B4A465946009367
:103590000195029BD7ED031A97ED021AD7ED010AA8
:1035A00098ED010A0398FFF709FD229B0195524609
:1035B00000935946029B04F54960D7ED031A2B444A
:1035C00097ED021AD7ED010A98ED020AFFF7F6FC13
:1035D0000FB0BDEC0A8BBDE8F08F1FED417AF4EE21
:1035E000C77AF1EE10FA44BF002284F8302CEEE5E1
:1035F000002720E602234CE6F4EEE87AF1EE10FA1A
:1036000078FEA77ACDED0C7A93E6B7EE007AA9E6BC
:103610001FED4B7AA6E6F7EE004ACDE6F0EE467ACD
:10362000DCE65FED4F7A0BE75FED517A5EE7B2EED5
:10363000020ADDED097A37EEC00A5FED587AB4EE82
:10364000E70AF1EE10FA2BD45FED5B7AB4EE670A6D
:10365000F1EE10FA37FE800A94F8483CEBB18DED9C
:10366000051ACDED041AFFF731FC5FED627ADDED4E
:10367000041A20EE270A9DED051A60EE299A97EDAF
:10368000000AA9EE890AB4EEE80AF1EE10FA0ADBA4
:103690000023C7ED008A84F8483C1FED6D0A04E062
:1036A000B0EE670AD8E787ED000AF0EE4B0A38461D
:1036B0004FF0000BFFF72EFC65E74FF0010B62E7C0
:1036C000036C0F2B08DC40F8231001330A7381EDE3
:1036D000010AC1ED020A036470470000F8B5DFED8E
:1036E000640A00F6AC4600250446B0EE600A0F46B8
:1036F0002A4600F62831C0F8EC5C3046FFF7E0FFC0
:10370000DFED5C0A9FED5C0A2A4604F6CC313046B8
:10371000FFF7D6FFDFED570A2A4604F50071B0EE39
:10372000600A3046FFF7CCFFDFED520A9FED520AE8
:103730002A4604F50E713046FFF7C2FFDFED4C0A52
:103740002A462146B0EE600A3046FFF7B9FFF7EE91
:10375000000AB8EE080A2A4604F618113046FFF7A8
:10376000AFFFFFEE000A2A4604F5A9613046B0EE2D
:10377000600AFFF7A5FFF7EE000AB8EE000A2A4636
:1037800004F5B9613046FFF79BFFBFEE000ADFED9D
:10379000380A012204F2CC713046FFF791FFBFEEE8
:1037A000000ADFED330A012204F204413046FFF73C
:1037B00087FFDFED2F0A012204F5A471B0EE600A45
:1037C0003046FFF77DFFDFED2A0A012204F5D561BF
:1037D000B0EE600A3046FFF773FFDFED250A0122E5
:1037E00004F52F71B0EE600A3046FFF769FFD4F898
:1037F000EC3C9D420BDA7B68394656F8040B0135E8
:103800003B60FB68BB6003681B689847EFE74FF0BD
:10381000FF330025002604F67440C4F8243C04F667
:103820002843C4F8206C1D60FFF7B4FB04F5496021
:10383000FFF7B0FB04F634434FF07E5204F64C40E1
:103840001D6004F6384331465A604FF07C521D60CB
:103850009A602022DD6004F62C4384F8306C1D60F1
:10386000C4F8700C1BF09AFBC4F86C6CF8BD00BF78
:10387000CDCC4C3F9A99193F3333333F704710B545
:10388000044690220021B8301BF088FB04F1180395
:10389000C03400221846002143F8082C43F8042CB9
:1038A00030221BF07BFB034638339C42F1D110BD24
:1038B00060EE200AFDEEE07A17EE903AF8EEE77A35
:1038C00000EB830070EEE70A90ED000A90ED017ABC
:1038D00037EE407AA7EE200A7047FDEEC07AF8EE88
:1038E000E77A30EE670A60EE200AFDEEE07A17EE26
:1038F000903AF8EEE77A00EB830070EEE70A90ED7D
:10390000000A90ED017A37EE407AA7EE200A704760
:10391000F8B52DED088BB7EE008ADFED369AB6EEDE
:10392000009A0E46F0EE60AA1446C8EE207A1F46B2
:10393000002571EE086AB0EE41AAB0EE69BA77EEE2
:10394000C87A87EEA67A07EE903AF8EE677A77EEB5
:10395000C87A29EE479A77EE877AA7EE809ABD4219
:1039600032D007EE905ADFED240A2448F8EEE77AC9
:1039700077EEC97AF0EEE77A67EEAA7A38EE677AE0
:10398000B0EEC70A30EE070A60EE008AB5EE000A14
:10399000AAEE270AFFF7A1FF54F8252030EE080A07
:1039A000013506EB820220EE280AD2ED007AB0EE55
:1039B000677A20EE000A90EE007AE7EE0B7A79EE55
:1039C000A79AC2ED007ACAE788EE297A224604EB6C
:1039D0008505AA420AD052F8043B06EB8303D3EDD7
:1039E000007A67EE877AC3ED007AF2E7BDEC088BC8
:1039F000F8BD00BF6F12833A000080443C2A069055
:103A0000F0B52DED048BF6EE008A07EE903A90EDBE
:103A1000018AA5B0B8EE677A0446B4EE680A6D462E
:103A200017461E4608302B46F1EE10FA4FF0000202
:103A300028FE800A70EE487AC7EE879A0132186035
:103A4000B1EC016A0C3307EE902AF8EEE77AF6EE55
:103A5000006AB7EE009A67EE807AF0EE005AF4EE54
:103A6000687AF1EE10FA66FEA77AF0EE496A0C2A3F
:103A7000E7EEE56AF0EC017A43ED027AD6EE267ABB
:103A8000C7EE876A43ED016AD8D1013E38D338EEDC
:103A9000298AD4ED007ADFED220A224878EE277ACF
:103AA000F4EEC97AF1EE10FAA8BF77EEC97AC4ED48
:103AB000007A94ED000AFFF7FBFE30EE000AB7EE45
:103AC000006A2B460022DFED186A60EE287A93ED3B
:103AD000017A0132D3ED025A0C330C2A37EE257AE3
:103AE000E7EE276A03ED027AB1EE467AB0EE676A36
:103AF000A0EE277AF0EE477AE9D1E7EC016AC4E755
:103B00000C2384ED018AD5F88420013BD5F8881078
:103B1000A5F10C051160F6D125B0BDEC048BF0BD0C
:103B2000000080443C2A069000000000B6EE007AB7
:103B300007EE903AF0B5B4EE470A0446F8EE676A2D
:103B400017461E460830F1EE10FA4FF00D022DED2B
:103B5000068B10ED018A27FE000AA5B070EE487AA8
:103B60006D46C7EEA6AA2B4607EE902A1860F1EC28
:103B7000015A01320C33F8EEE77AB6EE006AF7EE3E
:103B8000009A67EE807AB0EE005AF4EE477AF1EED2
:103B900010FA66FE277AB0EE696A192AA7EEC56A9E
:103BA000F0EC017A43ED027AD5EE867A87EEA66ACA
:103BB00003ED016AD8D1013E50D338EE2A8AD4ED04
:103BC000007ADFED2E0A2E4878EE277AF4EEE97AB5
:103BD000F1EE10FAA8BF77EEE97AC4ED007A94ED21
:103BE00000AAB0EE4A0AFFF763FEF2EE087A70EE22
:103BF000008ADFED220AB5EE000A2148AAEE270A64
:103C0000FFF76BFEB0EE409AB2EE0A0ADFED1B0A38
:103C10001B482AEE000AFFF760FE2B4600229FEDAC
:103C2000197AD3ED017A0132D3ED026A0C330C2AF2
:103C300077EEA67AA7EE807A43ED027AF1EE497A22
:103C4000B0EE409AE8EE807AB0EE670AE9D1F7EC80
:103C5000017A77EE877A47ED017AACE70C2384EDA1
:103C6000018AD5F88420013BD5F88810A5F10C0510
:103C70001160F6D125B0BDEC068BF0BD000080448C
:103C80003C2A069000000000B2EE027AD1ED017AE3
:103C9000F0B577EEC77A9FED4A7A044615461E4680
:103CA000F4EEC77A2DED028BF1EE10FA85B00C9F81
:103CB00000F182809FED437AF4EE477AF1EE10FA3C
:103CC00077FE277A9FED407AB3EE001A3F4A77EEEF
:103CD000877ADFED3F0AD1ED028ABDEEE77AB0EEDA
:103CE000680AF8EEC76A17EE100A9FED3A7A77EE87
:103CF000E67AD1ED046A26EE811AFEEECC7A21EE48
:103D0000261A17EE903A02EB8302334B8DED031A1D
:103D100003EB800392ED008A2046304AD3ED007A0F
:103D2000182328EE278ADFED2E7A28EE278AF7EE71
:103D3000007AE6EEC77A91ED037A04F1B8010191B9
:103D400067EE877A9FED277A27EE877A27EE277A24
:103D5000E7EE270ACDED020AFFF7DAFDB0EE480ADA
:103D60003B462A46019904F11000FFF749FEB0EEE8
:103D7000480A3B462A4604F1E80104F14800FFF7EF
:103D8000D5FE04F58C71B0EE680A9DED031ADDEDE9
:103D9000020A20460823144A0191FFF7B9FDB0EE4C
:103DA000480A3B463246019904F18000FFF728FE9D
:103DB00005B0BDEC028BF0BDF0EE477A82E700BFA4
:103DC000000000C30000FE4200000043403E069099
:103DD0000AD7233C9A99193F4442069068070690F7
:103DE0005196963952B8FE3F48070690704700003A
:103DF000A0EE810A254BB6EE007AF7EE006AF1EEEE
:103E0000005AFDEEC07AF8EEE77A70EE677AF4EECB
:103E1000C77ABFEE007AF1EE10FA54BF36EEE76AC9
:103E2000B0EE676AA6EE257A37EE076AB0EEC77A7B
:103E300037EE267A76EEC16A86EE070AB6EE087A83
:103E400077EE877ABDEEE77AB8EEC77A77EEC77A73
:103E50009FED0F7A67EE877ABDEEE77A17EE102AAC
:103E600006EE102A03EB8201B8EEC66A91ED007AE5
:103E700077EEC67A91ED016A36EE476AA7EE867A4A
:103E800037EE407AA6EE870A704700BF3C2A0690BC
:103E900000008044F8EE087AB4EEE70AF1EE10FA7A
:103EA00017D4F0EE087AB4EEE70AF1EE10FA13DC5C
:103EB000F3EE0B7AF2EE026AB0EE677A60EE266AF3
:103EC000A0EE007AE0EE267A20EE077A87EE270A47
:103ED0007047BFEE000A7047B7EE000A7047000057
:103EE000044B0360044B4360044B83600023036175
:103EF000C360704722BA003D0AD7233CCAAA7F3F5D
:103F000070B50025002604468561C56105624562DD
:103F10008562C56205634563C0E904663830FFF712
:103F2000DFFF04F18C00E56425656565E5652566C0
:103F3000A5656566A5662567E566C4F88050E567F2
:103F4000C4F88450C4F88850C4E92A66FFF7C8FF53
:103F5000094BC4F8A050C4F88C304FF07C53C4F81F
:103F6000A450C4F89030054BC4F8B050C4F8943055
:103F7000C4F8B45070BD00BF6BDD083FC1D3243F0F
:103F80002DE9F0412DED0E8BB0EE40AA9FEDBE0A5B
:103F9000DFEDBE7AF0EE41CA21EE800A0446C7EE9C
:103FA000A09A0D4690461E46DFEDB9DA149FB0EE9A
:103FB00060CAF0EE61AAF0EE428AB0EE629AFEF7B5
:103FC00085FFDFEDB47AB7EE00BA20EE278A9FEDC9
:103FD000B20A2CEE800AFEF779FFF1EE007AB5EE18
:103FE000001A6CEE277A7CEE81CA67EE80BA6CEE1E
:103FF000ADCAF4EE4BBAF1EE10FA7BFE2BBAB8F173
:10400000000F0DD0B1EE0C7AC023F0EE087A20221A
:10401000C4E90023EAEE077A0023E361C4ED037AE2
:1040200094ED09DA07EE907AB0EE4D7AF8EE677A01
:104030009AEE8A7A87EE27EA013FC0F01F81226854
:10404000002A00F0BD80013AD4ED037A22600AB95B
:1040500077EECB7AD4ED04AA002D9FED907AC4EDD3
:10406000027A47FE877AB5EE047A77EEEA6A9FED28
:104070008C6AE6EE87AADFED8B6AC4ED04AA77EEC0
:10408000EAAAE7EEA6AAF5EEC0AAF1EE10FA09DA5E
:104090007AEEAAAA6AEE866AF0EEEAAA7AEE8B7A3D
:1040A000C6EEA7AA6268002A00F09180013ADFED0F
:1040B0007E6ADFED7A7A002A626046FEA77AF7EE22
:1040C000006AC4ED067A002DDFED747AD4ED075A4C
:1040D00046FEA76AD4ED057A76EEE76AE6EE877AC1
:1040E000F2EE046ABFEE007AA5EEA67AC4ED057A78
:1040F000B5EEC07AF1EE10FA09DA37EE077A67EE1C
:10410000065AB0EEC77A77EE0B6A85EEA67ADFED37
:10411000676A67EEA66AF0EE4B7A37EE067AE6EE4D
:10412000A87A27EE2D7AE7EE097A67EE8C7AF5EE1B
:10413000C07AF1EE10FA55D49FED5D7AF4EE477A2D
:10414000F1EE10FA77FE277A002D4ED0B6EE007A07
:10415000DFED580A3DEE0EDA5748F4EE477AF1EEFD
:1041600010FA67FE277A94ED0F7A77EE877AF4EEED
:10417000CB7AF1EE10FAA8BF77EECB7AC4ED0F7AC6
:10418000D4ED0FEAB0EE6E0AFFF792FBDFED490ABD
:104190002DEE00AA4948B0EE6E0AFFF789FB2DEE1E
:1041A000000A84ED070AACEEAAAAD4ED087A3AEE2A
:1041B00067AAEAEE2B7AC4ED087AE6EC017A3BE7CF
:1041C000B6EE0B7AD4ED027A67EE877A42E7D4ED49
:1041D000067ADFED3B6A67EEA67ADFED306AC4ED62
:1041E000067A70E7DFED2D7AAEE7DFED366AB0EEE6
:1041F0004B6A9FED357A67EEA66A94ED065AA7EEF4
:10420000886ADFED325A94ED0DAAA7EEA67AF0EE99
:104210004B6A67EE877A8BEE067AC4ED0A7AE7EE90
:10422000276A84ED0B7A27EE4A7AE7EEA76A8BEECF
:10423000266AF0EE6A6AE5EE656AA6EEA97AD4ED22
:104240000E6A84ED0C6AAAEE677A37EE667A27EE7C
:10425000067AA7EE27AAB0EE4A6AA7EE276AB0EE62
:10426000667AAAEE277A84ED0D6AF0EE476A84ED4D
:10427000077AEAEE276AC4ED0E6A94E784ED09DA5C
:10428000BDEC0E8BBDE8F0810000A0426F12833AB6
:104290000AD7A33D0080BB440000D84200000000C4
:1042A0003333333F5839343DCDCC4CBF9A99D93F45
:1042B000CDCCCC3E000080443C2A06903C2E06909B
:1042C0000AD77F3FD7573941DB0F4940CDCC4C3E11
:1042D000074A08481168084B00FB013307EE903A83
:1042E0001360B8EE670ADFED057A20EE270A704703
:1042F000240000240D6619005FF36E3C0000802F3F
:104300002DE9F0412DED108B82B090ED00FAF7EE23
:1043100000EA9FEDDCBA189DB2EE007A23EE033A74
:10432000044607EE905AB1EE00DA21EEA1EA0F46FC
:10433000F8EE67CA904670EECF7A1E46B0EE40CADD
:104340009FEDD10AB0EE609AC7EEACBAF0EE6E7A8D
:104350002EEE400AF0EE6EDAE0EEC77A9FEDCB7AF1
:10436000F0EE419AF0EE62AA29EE0D9AF4EE4B7A45
:10437000F1EE10FA48BFF0EE4B7A67EE828AF0EE6B
:104380006E7AE3EE0D7A67EE877A9FEDC17A67EE7B
:10439000877A8EEEA7AAFEF799FDDFEDBE7AE0EEF2
:1043A00067DA9FEDBD0A29EE800AFEF78FFD29EE40
:1043B000008AB4EE6E8AF1EE10FA3EEECAAA3EFE14
:1043C000888AB8F1000F0FD09FEDB47A2022DFED7C
:1043D000B47A2923C4ED03EAECEE077AC4E9142386
:1043E000C4ED077AC4ED057AD4ED09FAF0EE6F7AE0
:1043F000DEEE0C7A87EEACEA002D00F03981FFF793
:1044000067FFD4ED020ADFEDA77A9FEDA5CAF6EEAD
:10441000006A9FEDA5DAB0EE089AF0EE00CA30EE21
:10442000660A30EE600AE0EE270AC4ED020A97B38E
:104430003FEE2BFAD4ED017AB0EE681A7FEE8EFAD9
:104440007FEE277AF4EEEE7AF1EE10FAA8BF77EE5F
:10445000EE7AC4ED017A94ED010AFFF7C9FC30EE63
:104460004DDA2DEE2FDA2DEE099AB0EECDDA7DEE93
:104470002CCAC9EE2C7AEFEE8C7A7BEE677A94ED3B
:104480000A7A013D77EEC77AA7EE887A84ED0A7A38
:10449000A6EC017AB0E7636D94ED047A002B00F08E
:1044A000B280013B63654FF07A536360236D002B4C
:1044B00000F0CF80013B2365D4ED067AB0EE681A98
:1044C000D4ED056A9FED795A76EEE76A94ED010A1C
:1044D000E6EE857AD4ED076AC4ED067AD4ED087A63
:1044E00076EEE76AE6EE857AD4ED036A76EEC76A81
:1044F000C4ED087AF0EE477AE6EE857AC4ED047AE8
:10450000FFF776FC236DF7EE007A9FED5E7A002BC5
:10451000B6EE006A8DED010A07FE877AD4ED0B7ABC
:1045200037EE677AB5EEC07AF1EE10FA36FE055A2C
:10453000E7EE057A94ED0C7A9FED5D6A94ED0D5AE5
:1045400077EEC75AC4ED0B7AA5EE867A94ED106A21
:10455000D4ED0E5A77EEC77A84ED0C7A94ED117A89
:10456000E5EEC67AD4ED0F5AE6EE457A77EEC77AD5
:1045700067EEA57AA5EE276AA5EE067AF0EE465A12
:10458000E5EE275AF0EE477A8DED007AE5EE067AF1
:10459000C4ED105AC4ED117AFFF79AFED4ED127AE9
:1045A0009FED447A30EE670ADDED016A9FED426AC5
:1045B00036EECDDADDED005AE0EE077A94ED137AAF
:1045C000D4ED086A37EEC75AC4ED127AA5EE067A22
:1045D00094ED066A2DEE06DA2DEE099AB0EECDDAEC
:1045E00084ED137A77EEC77A7DEE2CCA37EEA57A82
:1045F000C9EE2C7A26EEC77AE6EE0C7A7BEE677A65
:10460000E7EE297A3BE7D4ED037AB0EE0C6A3FEE91
:104610002BFA67EE8A7A2AEE866AC4ED037AF0EE08
:104620006E7AE6EE077A67EE8F7AF4EE667AF1EE4E
:1046300010FA76FEA77AD4ED016A77EEA67AF4EE48
:10464000EE7AF1EE10FAA8BF77EEEE7AC4ED017AB9
:104650002CE7D4ED056AD4ED077A66EEAD6AC4EDB9
:10466000056ADFED166A67EEA67AC4ED077A23E7DE
:10467000C4ED09FA84ED00FA02B0BDEC108BBDE880
:10468000F08100BF00000000000070426F12033C88
:104690000000FA46CDCCCC3A0000D8423333333F49
:1046A0009A99993E6F12033B9A99193FCDCCCC3D14
:1046B0000AD7233DCDCC4C3D0AD7A33B66667E3F4F
:1046C00060EE007AB3EE087A70B52DED048B27EE1C
:1046D000A78A154604460E4628EE008A28EE078A69
:1046E000B6EE007AA0EE478A28EE278AF0EE007A2E
:1046F000A0EE078A9FED1C7A77EEC07A67EE807A8B
:1047000078EE476AA6EEA77AB0EE470AFFF7C2FB3B
:10471000F7EE006A07EE905AD4ED008AB8EE677A99
:10472000C6EE807A38EE688AC8EE079A94ED018A60
:1047300077EEC87A87EE879A013D0ED396ED000A90
:1047400078EEA98A38EE098A28EE800AFFF7A2FBE4
:1047500020EE080AA6EC010AEEE784ED018AC4ED1A
:10476000008ABDEC048B70BDC3F5A83EF2EE027A60
:1047700091ED010A2DE9F04730EE670ADFED607A2E
:1047800005460C4616461F46B4EEE70A2DED028B91
:10479000F1EE10FA88B0DDF8488000F1A480DFED7A
:1047A000597AB4EE670AF1EE10FA37FE800AFEF786
:1047B0008DFBDFED557A94ED047AB7EE008A60EE5A
:1047C000270A0023F1EE007AD4ED031A8DED068A54
:1047D000F0EE006AF0EE488A079367EE277A94EDD0
:1047E000021A334694ED050A05F11000CDED030AD7
:1047F000F4EEC87AF1EE10FA38FE272A77EEC87A7E
:10480000F4EEC87ACDED057AF1EE10FACCBF06AA27
:1048100005AAD2ED007AF5EEC07AFFEE007AF1EE4D
:1048200010FAE7EE267AB3EE007A48BF07AAE0EE68
:10483000C78AD2ED002A2278F5EEC07ACDF8008042
:10484000C2F3400902F0020A02F00102F1EE10FA8E
:104850004946F5EEC08A48BFDFED2C7AF1EE10FA3A
:1048600048BFDFED2A8A67EEA88AFFF789FBB6EE1C
:10487000000A424605F1B0003146A8EE800AFFF773
:104880001FFF227805F1580094ED050A02F001029D
:1048900094ED021AD4ED031A94ED043ADDED030A07
:1048A000BAF1000F22D0B0EE432A33EE033A3B4672
:1048B000F7EE002A4946CDF80080B4EEC83AF1EE92
:1048C00010FA72FE832A33EE483AB5EEC03AF1EEA2
:1048D00010FA48BF9FED0D3AFFF712FD08B0BDEC8E
:1048E000028BBDE8F087B0EE670A60E7F5EE007A6C
:1048F0009FED072A61EEA77AA1EEE72AD5E700BF70
:10490000000000C30000FE425196963900000000EE
:10491000CDCCCC3E0023C0E904338361034BC3619B
:104920000362002343628362C36270475196963AE2
:1049300070470000F2EE027A30EE670ADFED197A76
:10494000B4EEE70AF1EE10FA28D4DFED177AB4EEF0
:10495000670AF1EE10FA37FE800ADFED147A144A86
:1049600030EE270AFDEEC07AB8EEE77A17EE901A1D
:1049700030EE470ABEEECC0A10EE103A02EB83028C
:104980000C4B03EB8103D2ED007A93ED000A67EE46
:10499000807A9FED090A27EE800A7047B0EE670A19
:1049A000DBE700BF000000C30000FE420000004340
:1049B000403E06904442069051969639F1EE007AB8
:1049C000DFED106A30EE270ADFED0F7A20EE270ABE
:1049D000BCEEC00A10EE103A01EBC3010B4B8A0D7E
:1049E00003EB82008B0290ED000A07EE903A90ED07
:1049F000017AF8EE677A37EE407A67EEA67AA7EE8C
:104A0000270A70470000802F0000004E3C2A0690C5
:104A1000CB430D4AD0ED007A01F0030103F003030C
:104A200002EB810102EB830393ED007AE7EE007A5B
:104A300091ED007AC0ED007AD0ED017AE7EE007AD0
:104A4000C0ED017A704700BFF0070690F3EE087AD8
:104A50009FED9D7A2DE9F04F2DED108B91ED019A90
:104A600090461F46994B39EE679AD1ED047A0D4670
:104A700087B067EE877A0446209E9FED95BABDEE1B
:104A8000E77A17EE102AB8EEC77A03EB820177EEC9
:104A9000C77AD1ED008A91ED017A37EE687AE7EEB8
:104AA000878A79EE288AB0EE680AFFF743FFB5EEF1
:104AB000C00AF1EE10FA00F1EE80F6EE007AB4EEE4
:104AC000670AF1EE10FA37FE808AB7EE00CADFED12
:104AD000817A9FED817A78EEE78AF0EE4C7AE8EE03
:104AE000C77AF5EEC07AF1EE10FA00F1D780F4EE55
:104AF0004C7AF1EE10FA7CFE277AB0EE490A67EEA6
:104B0000A78AFFF717FFD5ED026A07EE906A94EDCA
:104B1000099A234636EEA67A95ED036AF8EE677A8F
:104B2000D4ED08AA94ED07AA27EE267A53F8342F7D
:104B3000F0EE496A8DED01BA38EE6A8A029330EEE2
:104B40004A0A2346D7EE286A0092BFEE007A53F84D
:104B5000302FC8EE27EA94ED0A8A03928DED04BA4D
:104B6000059386EEA7FAF0EE006A80EE27EAA6EE3D
:104B7000267A37EE487AC7EE27FA002E00F09180A9
:104B8000DFED567A002538EE2F8A3AEE0EAA7AEE3D
:104B9000AEAAB5EEC08A6AEE27CA39EE0F9AF1EED8
:104BA00010FAFCEEECCA2AEEA7DA4CBFF6EE009A39
:104BB000DFED479A1CEE903A48BF68EE299A4FEA1B
:104BC000530A48BF69EE889AF0EE4C7AD4ED0B8A0E
:104BD000B5EEC08A6369F5EE00DA1CEE902AE8EEC5
:104BE000A97A2046F1EE10FACCBF28EE2D0A9FEDEF
:104BF000380A6DEE277AC8BF20EE080AFCEEE77A85
:104C000028EE800A17EE901A1944236902EB030B71
:104C1000A36961610AEB0309C4F810B0C4F81890E5
:104C2000FFF7CCFE5946204620EE090AFFF7C6FEE4
:104C3000F0EE40BA20EE090A4946204620EE2D0A41
:104C4000FFF7BCFE3BEEE87ADFED257AF0EE40DAC6
:104C50002946B0EE6B0AE7EE278A6846C4ED0B8A58
:104C6000FFF7D6FE29460135B0EE6D0A03A8FFF71F
:104C7000CFFE042DA8D1009B013E019A48F8043BC9
:104C80000092039B049A8DED01BA03928DED04BA54
:104C900047F8043B71E7B0EE4B8A16E7DFED0C7A7C
:104CA0002BE7039A059B1A60009A029B1A6084ED19
:104CB0000A8A84ED099AC4ED08AA84ED07AA07B010
:104CC000BDEC108BBDE8F08F00000043282006905B
:104CD0000000000000009042CDCCCC3C0000804F92
:104CE000CDCC4C3D7047000000230F490F4A0361B3
:104CF00043618361C361036243628362C36203638E
:104D000043638363C363036443648364C36403656D
:104D100043658365C365036643668166C266036750
:104D200041678267C367704722BA003D2033783FEE
:104D3000F0EE087AF6EE085A21EE271A08B5FDEED5
:104D4000C17A2DED068B17EE903AF8EEE77AF7EE82
:104D5000008AF0EE609A31EE671AB0EE619AB5EE15
:104D600000AA38EEC11A93BB61EE017AB0EE687A00
:104D700027EE811AF2EE0E7AA1EE277A60EE077A1C
:104D8000F4EE687AF1EE10FA68FEA77A77EEA57A6B
:104D9000B0EE670ADFED2A0A2A48FEF79EFDB0EE64
:104DA000408ADFED270AB0EE690A264838EE288AE5
:104DB000FEF793FD39EE000A28EE0A8A28EE008AF3
:104DC00039EE280A88EE000ABDEC068B08BD012BDF
:104DD000B6EE006A1ED1DFED1C7ADFED1C6A61EED3
:104DE000277A67EE817AE1EE276AB4EEE60AF1EE01
:104DF00010FA5BBF70EE667A78EEE66A86EE267A87
:104E000027EE860A56BFC0EE267A67EE007A77EE66
:104E1000867ABBE738EEC11A61EE017A27EE811A75
:104E2000F2EE0D7AA1EE276AF0EE4A7AE0EE067A0B
:104E3000F4EE657AF1EE10FA65FEA77AA8E700BFF6
:104E4000000080443C2A0690EE7CFF3E6F12833ABD
:104E500008B52DED0A8BF5EE00BA3F48F0EE607A0A
:104E6000DFED3E0AB6EE00BAF0EE40AAB0EE6B0AF5
:104E7000B0EE429AB0EE41CAA7EE8B0AF0EE618A1C
:104E8000FEF72BFDDFED367AB7EE008AB4EEE79A37
:104E900030EE080AF1EE10FA60EE0B9A32D5F7EE1A
:104EA000087AB0EE6BAAA9EE27AAB0EE489A3AEEBD
:104EB0000C0ADFED2A0A2848FEF70FFDF4EECB8A34
:104EC000B0EE40AAF1EE10FA3AD5F4EECBAADFED3F
:104ED000230A78EEA88A20483AEEAB0AF1EE10FADF
:104EE000A8BF69EEA89AFEF7F8FC30EE480AA8EED3
:104EF000808A39EE0AAA9AEE299A29EE080ABDECB0
:104F00000A8B08BDDFED177AB6EE087A9FED16AA78
:104F100079EE677AA7EEC7AADFED147AB4EEE79AC6
:104F2000F1EE10FA09D5B0EE4A0ADFED0C0A0A4894
:104F3000FEF7D3FCB1EE409AB9E79FED0D9AB6E7C4
:104F4000B0EE6A0ADFED050A0348A8EE8B0AFEF709
:104F5000C4FCB0EE408ACCE73C2A069000008044B6
:104F6000FA7EAA3EC3F5A83E3BDF3F3FFA7E2A3FCA
:104F70006F12833AF4EE007A70B5B4EE670A044615
:104F80000E461546F1EE10FA2DED0E8B27FE800A27
:104F9000F5EE007A90ED039AD0ED048AF4EE670AFC
:104FA000D0ED059A90ED06DA30EE490A31EE691A35
:104FB00090ED02EAF1EE10FA71EECD1A67FEA00A4A
:104FC00007EE902A70EEE80AF8EE677AC0EE27AA9C
:104FD000C0EEA7BA81EE27CA81EEA7BA013D6DD314
:104FE000D4ED007A39EE2A9AD4ED010AB7EE000A20
:104FF0009FED398A78EEAB8A79EE277A3BEE0DAADF
:105000007CEE29CAF4EEC07AC4ED007AF1EE10FA13
:1050100048DB77EEC07AB0EE691AF0EE4D1AC7EEB3
:1050200089DAC4ED007A70EE6DEAEEEE8B1AAEEE20
:105030008C1AEEEEA80AFFF77BFEF0EE480AF0EEBF
:10504000409AF0EE4A1AB0EE480AB0EE6C1AFFF73A
:105050006FFEF6EE007A30EE690A6DEEA77A67EE23
:10506000AD7A6DEEA8DAA0EE27EAFEEE007AC4ED86
:1050700001DA6EEEA77A67EEAE7AA7EE808AD4EDFB
:10508000010AF0EE4A1A94ED000AB0EE6C1AFFF72E
:105090004FFEF0EE6C9AA6EC01EAB0EE4ADA38EE7A
:1050A00000EA9BE778EEA00AF4EEC00AF1EE10FAEF
:1050B000A8BF70EEC00AC4ED010AE0E784ED02EA81
:1050C00084ED06DAC4ED059AC4ED048A84ED039AF2
:1050D000BDEC0E8B70BD00BF00000000F4EE007A46
:1050E00070B5B4EE670A04460E461546F1EE10FAA6
:1050F0002DED108B27FE800AF5EE007A90ED04EA84
:1051000084B090ED05FAF4EE670A90ED069AD0EDC2
:10511000079A30EE4E0A31EE491AD0ED03FAF1EE5D
:1051200010FA71EEE91A67FEA00A07EE902A70EEF7
:10513000CF0AF8EE677AC0EE27BAC0EEA7CA81EEB2
:1051400027DA81EEA7CA013DC0F0A98094ED018A5B
:105150003EEE2BEA94ED007AF7EE00EA94ED021AA7
:105160003FEE2CFADFED558A7EEE0E7A3EEE077AA0
:105170007CEE29AA37EE888A3DEE09BA84ED007AE2
:10518000B4EEEE8A84ED018AF1EE10FA7BDB38EEA4
:105190006E8A8DED017AB4EEEE7AF6EE006A88EE54
:1051A00027AA84ED018ACDED036AF1EE10FAF0EE44
:1051B000491AB0EE692AB5BFF0EE667AF0EE687A69
:1051C000B0EE660AB0EE6E0AF7EE000ACDED027A96
:1051D0007EEECADAADEE8C2AEDEE8D1AADEE8F1AA8
:1051E000FFF736FEDDED027A9FED341AB0EE409AFD
:1051F000B0EE6A2AB0EE670AF0EE4B1AF0EE410A02
:10520000FFF726FEDDED036A30EE490A9DED017AD7
:105210006AEE267AB4EEEE7A67EE8A7AF1EE10FA4A
:105220002AEE0FAAE0EE27FAFEEE007A84ED02AA3B
:105230006DEEA77A67EEAD7AE7EE808A03DD28EEA1
:10524000268A84ED008AD4ED007AB0EE6A2A94EDC5
:10525000021AF0EE4B1AF4EEEE7AD4ED010AB0EE3B
:105260004B9AF0EE6A9AF1EE10FAA4BF77EEEE7A5E
:10527000C4ED007A94ED000AFFF7EAFDE6EC01FACE
:1052800078EE80FA5FE73FEE011AB4EEEE1AF1EE27
:1052900010FAA8BF31EE6E1A84ED021AD3E7C4EDFE
:1052A00003FAC4ED079A84ED069A84ED05FA84EDBD
:1052B00004EA04B0BDEC108B70BD00BF000000001C
:1052C0002DE9F0412DED088B91ED019AB3EE08BA6E
:1052D00082B00F46B0EE490A044616461D46FFF757
:1052E00029FBF0EE408AB0EE4B0A97ED027ADFED33
:1052F000657AF7EE009ADDF84080A7EE270AFFF7FF
:1053000019FBB0EE408ABBEE080AD7ED04AADFED28
:105310005E7AAAEEA70AFDF7D9FDF6EE007AF0EE66
:10532000001A97ED037A9FED591AB0EE40AAF4EEF9
:10533000E7AA314637EE417A4246F0EE480A04F1D8
:105340001000F1EE10FAB0EE680A4ABFF0EE697A8A
:10535000DFED4F7AEAEEE17A71EEE71A61EEA71A15
:10536000F0EE697ACDED011AE8EECB7AF5EEC07A6F
:10537000F1EE10FA48BFDFED467AA7EE271A8DED61
:10538000001AFFF7F7FD68EE0A0A9FED428A4246CF
:105390002946B0EE680ADDED011A9DED001A04F110
:1053A0002C00FFF7E7FD68EE887A9FED3B7A3246E6
:1053B0009FED3A8A2B4627EE877A4FEA880602EB62
:1053C0008801A7EE878A27EE888A78EE297A84ED0D
:1053D0001A8A89EEA7AA84ED1BAA914218D0B3ECD1
:1053E000017AD2ED007AD4ED1C6A77EE877A94EDDB
:1053F0001A7A94ED1B6AE7EE876AE6EEC67A27EE24
:10540000277AA6EE867A84ED1C7AE2EC017AE4E74C
:10541000B0EE490A97ED027ADFED217A2E44A7EE2D
:10542000270AFFF787FA4246F0EE400A2946B0EE17
:10543000680AD7ED041A97ED031A04F14800FFF744
:105440004DFE84ED1D8A84ED1EAAB54214D095ED63
:10545000007AD4ED1D7AD4ED1F6A94ED1E6AE7EE52
:10546000276AA6EEC67A67EE877AE6EE867AC4EDFC
:105470001F7AA5EC017AE8E702B0BDEC088BBDE825
:10548000F08100BF0000A84200004042C3F5A83EE2
:10549000000000009A99993ED7573941DB0F4940E7
:1054A0000000C042704700009FED913AB4EEC30A7D
:1054B000F0B5F1EE10FA059C00F18E80F5EE007A61
:1054C000B4EE670AF1EE10FA37FE800AF0EEC07A09
:1054D000B6EE007A77EEA77AF4EEC77AF1EE10FA1C
:1054E0000ADCF7EE006A76EEE77AF4EEC77AF1EEC0
:1054F00010FA58BFF0EE477A06EE104AD0ED056A72
:10550000D0ED015A2546F8EE463A90ED066A30EEA7
:10551000660A0E4677EEC67A80EE232AC7EEA31AF5
:10552000013D5CD3D0ED007A76EE826A90F810C02F
:1055300036EE216A9FED6F5AF7EE004A76EEA77AB3
:10554000B4EEE76AC0ED007AF1EE10FA94BF0127DD
:105550000027BC4510D077EEC62A077482EEA64A13
:1055600064EE072AE4EE225A34EEC44AFEEE002A24
:1055700064EE222AA4EE225AF4EEE47AF1EE10FA56
:1055800013DB77EEE47A0027077487EEA64AC0EDB6
:10559000007A64EE077A74EEC44AE4EE675AFEEECF
:1055A000007A64EEA77AA4EEE75AD0ED007AF7EE1F
:1055B000004AB0EE004AB4EEE76ADFED4E7AF1EE53
:1055C00010FA77FEA47AFFEE004AE5EE844A75EE03
:1055D000275AE6EC014AA3E7B0EE430A76E7F4EE79
:1055E000C30AC0ED015A80ED066AC0ED056AF1EE0E
:1055F00010FA51D4F5EE007AF4EE670AF1EE10FAE3
:1056000077FEA00AF0EEE07A77EEA77AF4EEC77A9A
:10561000F1EE10FA0CDCF7EE006A76EEE77AF6EEC1
:10562000006AF4EEC77AF1EE10FA58BFF0EE667A2F
:10563000D0ED0C6A2546D0ED0D4A164670EEE60A0E
:10564000D0ED085A77EEE47AC0EEA32A87EEA33AAB
:10565000013D39D3D0ED077A76EEA26A9FED255A47
:10566000B7EE006A74EE834A76EEA77AF4EEC67A55
:10567000F1EE10FA13DAC0ED077AF0EE457AB0EEEB
:10568000004A90ED075ABFEE006AA5EE846A77EEF5
:10569000855AA6EC016ADBE7DFED150AB2E777EE83
:1056A000C67A87EEA64AC0ED077A64EE077A36EE30
:1056B000446AE4EE675ABEEE004AF0EE457A26EE02
:1056C000044AE6EE447ADAE7C0ED085AC0ED0D4A26
:1056D000C0ED0C6A013C0AD3F1EC016AB2EC017A2C
:1056E000F3EC017AE6EE877A43ED017AF2E7F0BD5A
:1056F000BD3786350000000070B50026044618222C
:105700000D46066100214661203040F8086C40F8E3
:10571000046C19F043FC04F13800FEF7E1FB04F1DE
:105720004C00FEF7DDFB234604F1A8012666666601
:10573000A666E6664FF07E504FF07C525E671C33E3
:10574000D86501205A6583F8640015481E6698667E
:10575000DA669942EED104F58C70FEF7C1FB04F5D0
:105760009670FEF7BDFBAB687F2B85BF2A68803B38
:10577000002202F1800188BFAB60AB6888BF29605E
:105780007F2BC4F8402185BF2A68803B002202F1AC
:10579000800184BFAB602960C4F8442170BD00BFA4
:1057A0006F12833A60EE007ADFED156A9FED157A8D
:1057B000A7EEA67ADFED146AE7EE876A9FED137A0B
:1057C000A7EEA67ADFED126AE7EE876A9FED117AFF
:1057D000A7EEA67A20EE070AB7EE007A80ED000A5F
:1057E000C7EE206AF0EE477AE6EE807AC0ED016AF5
:1057F000E0EE007AC7EE276AC0ED026A704700BF8C
:1058000023FE2E4590ECAC428F3421436548234261
:10581000A95D2541DB0F4940D0ED036A90ED047A84
:10582000013B1CD390ED016AF1EC017AD0ED025AF4
:10583000E6EE667A90ED006AE6EE667A77EEC77A73
:1058400067EEA57AE6EE276AF0EE665AE6EE276A7C
:10585000A6EE257AE2EC015AA6EE257AE0E7C0ED45
:10586000036A80ED047A7047D0ED036A90ED047A04
:10587000013B1CD390ED016AF1EC017AD0ED025AA4
:10588000E6EE667A90ED006AE6EE667A77EEC77A23
:1058900067EEA57AE6EE276AE2EC017AF0EE665A48
:1058A000E6EE276AA6EE257AA6EE257AE0E7C0EDB9
:1058B000036A80ED047A70472DE9F04F2DED0A8BD5
:1058C000B7EE009AA1B0F0EE40AA9FEDD00AF1EE3B
:1058D000618A044621EEC00A1746B0EE49BA0D911E
:1058E000B0EE60CAB0EE418AB0EE61AAF0EE429A24
:1058F000FDF7ECFADFEDC67AF0EE49BAA0EE67BA32
:105900009FEDC40A28EE800AFDF7E0FADFEDC27AC7
:10591000DDE93565E0EE67BA9FB1F6EE006A39EE73
:105920004A6AF7EE087AE6EE267ADFEDBC6AB0EE58
:10593000677ADFEDBB7AEAEEA67A67EE277AC4EDE6
:10594000007ADFF8FCC20EAF7CEE0C6ABCE80F00F8
:105950000FC79CE803000EAA14AB87E803000627D4
:10596000F2EC017A9FEDAF7A66EEA77AF4EE477A11
:10597000F1EE10FA67FE277A9FEDAB7A013F67EEF2
:10598000877AFCEEE77AE3EC017AE9D104F11003BF
:105990000DF1680C04F1280E0B931868083353F8C6
:1059A000041C6246734503C29446F6D11A9BAB466B
:1059B00016990393149B189A04931B9BDDF80C9083
:1059C0000893159B089800931C9B079602931D9BB8
:1059D0000A93179BDDF828A005931E9B01931F9B3C
:1059E0000C93199BDDF830800693009B03EB000EAF
:1059F000029B03EB010C019B9818002309930BF108
:105A0000FF3B069BBBF1FF3F9844049B9944059BD9
:105A10009A441FD04FEADA73BFEE007ADFED836A53
:105A200003EBD97303EBD87303EBDE7303EBDC7387
:105A30008C4403EBD073104407EE903A079BF8EECA
:105A4000E77AA7EEA67AA3EC017A0793009B9E441F
:105A50000123D3E70C9B069800FB0539DDE90330F1
:105A600000FB053C0A9B059800FB053E029B009845
:105A700001FB0531089B00FB0538019B02FB053249
:105A8000099B2BB1CDE91AC8CDE91C1ECDE91E2911
:105A90000DF1680C0B9B0DF1800E6246083303CAB2
:105AA000724543F8080C43F8041C9446F5D19FED69
:105AB000600A28EE000AFDF709FADFED5E7A60EE73
:105AC000278AF5EEC08AF1EE10FA4CD4F6EE007A91
:105AD000F4EE678AF1EE10FA77FEA88AF1EE087A02
