:02000004900466
:10000000000002209106049085060490B5DA049061
:100010008506049085060490850604900000000083
:1000200000000000000000000000000085060490B1
:1000300085060490000000008506049039DA0490DB
:100040008506049085060490850604908506049034
:100050008506049085060490850604908506049024
:100060008506049085060490850604901DD60490AC
:1000700029D6049049B7049035D6049041D604900F
:100080003DB2059009C10490850604908506049050
:1000900085060490850604908506049085060490E4
:1000A00085060490850604908506049085060490D4
:1000B000C9A30590D5A30590E1A305903DC1049087
:1000C0008506049049C1049085060490119C059012
:1000D0001D9C059071B005909DB00590D1B0059024
:1000E00085060490850604900000000085060490B3
:1000F0008506049085060490850604908506049084
:100100008506049085060490EDA30590299C059032
:1001100005B1059039B105908506049085060490D7
:1001200085060490850604904D9C0590819C059061
:1001300071B20590850604908506049085060490AA
:1001400000000000000000000000000000000000AF
:100150008506049085060490850604906DB105908F
:1001600055C104908506049049DA04906DDA049034
:100170008506049091DA0490850604908506049023
:100180008506049085060490A1B10590D5B105902F
:10019000359C0590419C0590850604908506049049
:1001A00085060490850604908506049085060490D3
:1001B0001DD304908506049085060490850604905E
:1001C0008506049085060490F1B10490FDB1049079
:1001D0008506049009B20490850604908506049073
:1001E0008506049085060490850604908506049093
:1001F0008506049085060490850604908506049083
:100200008506049085060490850604908506049072
:100210008506049085060490850604908506049062
:100220008506049085060490850604900000000071
:100230008506049085060490000000008506049061
:100240008506049085060490850604908506049032
:100250008506049085060490850604908506049022
:100260008506049085060490850604908506049012
:10027000850604908506049009B2059000000000F0
:100280008506049085060490850604900000000011
:08029000000000008506049047
:1002A00010B5054C237833B9044B13B10448AFF3B0
:1002B00000800123237010BD3006002400000000E0
:1002C000E433069008B5034B1BB103490348AFF371
:1002D000008008BD0000000034060024E4330690CE
:1002E00001F0FF01102A2BDB10F0070F08D010F8E7
:1002F000013B013A8B422DD010F0070F42B3F6D1EB
:10030000F0B441EA012141EA014122F007047FF003
:1003100000070023F0E80256083C85EA010586EA5A
:10032000010685FA47F5A3FA87F586FA47F6A5FA96
:1003300087F68EB9EED1F0BC01F0FF0102F00702A2
:1003400032B110F8013B013A83EA010313B1F8D14D
:100350000020704701387047002D06BF354603382E
:10036000073815F0010F07D1013015F4807F02BF67
:10037000013015F4C03F0130F0BC0138704700BFB8
:1003800053B94AB9002908BF00281CBF4FF0FF31FC
:100390004FF0FF3000F074B9ADF1080C6DE904CEF8
:1003A00000F006F8DDF804E0DDE9022304B0704750
:1003B0002DE9F047089D04468E46002B4DD18A4218
:1003C000944669D9B2FA82F252B101FA02F3C2F14B
:1003D000200120FA01F10CFA02FC41EA030E9440DC
:1003E0004FEA1C48210CBEFBF8F61FFA8CF708FBFD
:1003F00016E341EA034306FB07F199420AD91CEBD5
:10040000030306F1FF3080F01F81994240F21C8106
:10041000023E63445B1AA4B2B3FBF8F008FB10334E
:1004200044EA034400FB07F7A7420AD91CEB040483
:1004300000F1FF3380F00A81A74240F20781644453
:10044000023840EA0640E41B00261DB1D4400023D8
:10045000C5E900433146BDE8F0878B4209D9002D3C
:1004600000F0EF800026C5E9000130463146BDE8C6
:10047000F087B3FA83F6002E4AD18B4202D3824230
:1004800000F2F980841A61EB030301209E46002DDF
:10049000E0D0C5E9004EDDE702B9FFDEB2FA82F234
:1004A000002A40F09280A1EB0C014FEA1C471FFA92
:1004B0008CFE0126200CB1FBF7F307FB131140EA79
:1004C00001410EFB03F0884208D91CEB010103F146
:1004D000FF3802D2884200F2CB804346091AA4B208
:1004E000B1FBF7F007FB101144EA01440EFB00FEDC
:1004F000A64508D91CEB040400F1FF3102D2A64541
:1005000000F2BB800846A4EB0E0440EA03409CE7DF
:10051000C6F12007B34022FA07FC4CEA030C20FA8C
:1005200007F401FA06F31C43F9404FEA1C4900FAAC
:1005300006F3B1FBF9F8200C1FFA8CFE09FB181129
:1005400040EA014108FB0EF0884202FA06F20BD99C
:100550001CEB010108F1FF3A80F08880884240F2EC
:100560008580A8F102086144091AA4B2B1FBF9F030
:1005700009FB101144EA014100FB0EFE8E4508D92B
:100580001CEB010100F1FF346CD28E456AD90238B0
:10059000614440EA0840A0FB0294A1EB0E01A14295
:1005A000C846A64656D353D05DB1B3EB080261EB03
:1005B0000E0101FA07F722FA06F3F1401F43C5E9DD
:1005C000007100263146BDE8F087C2F12003D84013
:1005D0000CFA02FC21FA03F3914001434FEA1C4755
:1005E0001FFA8CFEB3FBF7F007FB10360B0C43EA47
:1005F000064300FB0EF69E4204FA02F408D91CEBF7
:10060000030300F1FF382FD29E422DD902386344F4
:100610009B1B89B2B3FBF7F607FB163341EA034194
:1006200006FB0EF38B4208D91CEB010106F1FF38E3
:1006300016D28B4214D9023E6144C91A46EA0046DA
:1006400038E72E46284605E70646E3E61846F8E66C
:100650004B45A9D2B9EB020864EB0C0E0138A3E7B5
:100660004646EAE7204694E74046D1E7D0467BE796
:10067000023B614432E7304609E76444023842E70E
:10068000704700BF684620F007018D46FEE7000076
:100690000848094A0949121A08B51DF0C7F908485F
:1006A000084A0021121A1DF0E9F91DF08BF900F03B
:1006B0005DF9FEE70000002430060024FC340690BB
:1006C000300600242CA80024364A4FF40071DFEDD8
:1006D000366A92ED057A27EE267A30B5FDEEC77AB6
:1006E000ADF5037D082502A817EE903AD2ED047A05
:1006F00067EEA67A642BA8BF6423FDEEE77A23EAAF
:10070000E37317EE902A642AA8BF642222EAE272F9
:100710000092264A1DF032FB254B264904461B68F1
:10072000254A032BC8BF0A46C0F5007102A80092F3
:100730002044224A1DF022FB02AB0444204AC4F5A7
:10074000007118191DF01AFB04441E4B02A89FEDFE
:100750001E7AC4F5007103EB850320441B4AD3EDD8
:10076000007A2B4667EE877AFDEEE77ACDED007AC8
:100770001DF004FB0444B4F5F67F02DA01350C2DBC
:10078000E3D102AB124AC4F5007118191DF0F6FA54
:1007900002A910480AF056FC0F4B00221A700DF502
:1007A000037D30BD400700240000C8427AF0059068
:1007B0007447002475F005906EF0059087F0059061
:1007C00098F005906406002400007A44ACF005908F
:1007D00084F1059079F10590280A0024024B1B78DA
:1007E0000BB1FFF771BF7047280A0024534B2DE966
:1007F000F04193F800802DED028B86B0B8F1000F28
:100800004FD04F4802F0F4F8C0B14D4802F0F2F872
:1008100000234C4A69464A48CDE900320122CDE91D
:10082000022310238DF810305A238DF8143002F073
:100830006BF803220621424802F047F840480B2497
:1008400002F00DF8404B054618800DF0A3F906465E
:100850003E4800F088FE07463D4AC4F10B0352F8BB
:1008600024103C4A711A126891422CBF00210121C8
:100870002FB945FA03F313F0010F18BF4146364B69
:10088000142000FB04300BF0E7FA013CE4D26DB910
:10089000324B9FED337AD3ED007A67EE877AC3ED62
:1008A000007A06B0BDEC028BBDE8F081DFED2D8A49
:1008B0000024B0EE688A264645FA06F3DB070AD51F
:1008C000F1B21F4801F0D8FF07EE900A0134F8EEAC
:1008D000E77A78EEA78A01360C2EEDD15CB307EEED
:1008E000904AF8EEE77AC8EEA76A9FED1F6A1B4BA5
:1008F00086EE867AD3ED006A9FED196AF7EE007AEC
:1009000087FEC77A88FE077A27EE077AF0EE005A4C
:1009100077EE666AF0EEE66AA6EEE56AF6EE006A43
:10092000C6FE866A77EEE67A93ED006A67EE877A0E
:10093000E6EE867AB3E7DFED0B6AD6E7080000241F
:10094000200A0024010801094C0600249406002412
:10095000F0060024BCF10590300900245006002464
:100960003333733F000000000000164310B500F061
:100970004DFA0DF00FF9044600F068FB00F00EFB95
:10098000FFF72CFF0DF006F9001B042804D90DF029
:1009900001F90446FFF72AFF01200DF003F9EBE708
:1009A000704770477047000038B5054600240121A4
:1009B000084809F00FF83C200DF0F4F8013400214C
:1009C000044809F007F83C200DF0ECF8A542EED100
:1009D00038BD00BFEC070024074B014610B50446A4
:1009E0001A68064801F0FEFCC4F10B040DF0D2F8C1
:1009F000034B43F8240010BD744700242C0A002444
:100A0000F0060024012A08BF016000207047086832
:100A1000FFF7E2BF012A08BF0160002070470868A5
:100A2000FFF7DABF0B220270FF2242700022C0E9FA
:100A30000122C2607047836810B5044613B10322D7
:100A400001469847204610BD10B504462C30FFF7EC
:100A5000F2FF606918B1E169091A1CF066FF2046CF
:100A600010BD000008B50D4808F05CFF00210B48E0
:100A700009F072F80221094808F070FF22F014FD15
:100A8000074B084A202105489A6008F087FF034871
:100A900008F080FF044B83ED000A08BDEC0700243A
:100AA00000ED00E0000004900400002470B5ADF5F6
:100AB000846D0C240CAD2E462846FFF7B3FF05F1DC
:100AC0001400FFF7AFFF05F12800FFF7ABFF05F1BA
:100AD0003C00FFF7A7FF013C05F15405ECD10F20C6
:100AE0008E4D08F021FFADF800000099022230463B
:100AF0000AF090FB102008F017FFADF804000199F0
:100B0000022221A80AF086FB112008F00DFFADF8A3
:100B100008000299022236A80AF07CFB122008F095
:100B200003FFADF80C00039902224BA80AF072FBF8
:100B3000132008F0F9FEADF810000499022260A815
:100B40000AF068FB142008F0EFFEADF814000599D8
:100B5000022275A80AF05EFB152008F0E5FEADF84C
:100B60001800069902228AA80AF054FB162008F001
:100B7000DBFEADF81C00079902229FA80AF04AFB91
:100B8000172008F0D1FEADF8200008990222B4A881
:100B90000AF040FB182008F0C7FEADF824000999C0
:100BA0000222C9A80AF036FB192008F0BDFEADF8F4
:100BB00028000A990222DEA80AF02CFB1C2008F06B
:100BC000B3FEADF82C000B99F3A802220AF022FB29
:100BD00004230C22314652480AF02CFB50480AF0FC
:100BE00031FD21464E480AF043FD2346224695ED4D
:100BF000000A0146DFED4B0A4B480AF053F9022187
:100C000047480AF035FD2346224695ED000A014685
:100C1000DFED440A45480AF045F9032140480AF04F
:100C200027FD2346224695ED000A0146DFED3D0AE9
:100C30003F480AF037F9042139480AF019FD2346E4
:100C4000224695ED000A0146DFED360A39480AF0E2
:100C500029F9052132480AF00BFD2346224695ED7D
:100C6000000A0146DFED2F0A33480AF01BF906217E
:100C70002B480AF0FDFC2346224695ED000A01466A
:100C8000DFED280A2D480AF00DF9072124480AF063
:100C9000EFFC2346224695ED000A0146DFED210ACE
:100CA00027480AF0FFF808211D480AF0E1FC234616
:100CB000224695ED000A0146DFED1A0A21480AF0A6
:100CC000F1F8092116480AF0D3FC2346224695ED97
:100CD000000A0146DFED130A1B480AF0E3F80A2177
:100CE0000F480AF0C5FC2346224695ED000A01464E
:100CF000DFED0C0A15480AF0D5F80B2108480AF078
:100D0000B7FCDFED080A01462346224695ED000AAE
:100D10000F480AF0C7F80DF5846D70BD040000247B
:100D2000040800246F12033B5C070024A40700247E
:100D3000800700240C090024CC070024C0080024EC
:100D4000E408002420070024A008002480080024D0
:100D5000600800247FB500230F4A69460F48CDE99B
:100D600000320122CDE9022310238DF810305A23DE
:100D70008DF8143001F0C8FD38B9094B18700948D6
:100D80000AF060F907B05DF804FB0322062103486E
:100D900001F09BFDF6E700BF01080109200A0024CD
:100DA00008000024B6F0059070B58AB06846FFF7D9
:100DB00039FE002301220393CDE90123114B04AA3C
:100DC00003F1180516461868083353F8041C144636
:100DD000AB4203C42246F6D10B4D002436F8143042
:100DE000284669460134ADF800300AF07FFD2846F8
:100DF00001210BF031F80C2C05F11405EED10AB0ED
:100E000070BD00BFFCEF05903009002410B52DED3A
:100E1000028B92B04D4CFFF725FE0120FFF7C4FD79
:100E20004B494C4800F08CFE0220FFF7BDFDFFF758
:100E30003DFE0320FFF7B8FDFFF78CFF0420FFF70E
:100E4000B3FDFFF7B1FF0620FFF7AEFD94ED008A7A
:100E50000DF0A0F89FED407A404B0122C7EE087AD2
:100E600007EE100A1A7007203D4ADA60B8EE477A9A
:100E70001A615A6127EE877AF7EE007AC7EE876A21
:100E80009FED387A28EE078AC3ED016ADFED366AF6
:100E900086EE887A77EE277AC7EE276AC3ED066A70
:100EA000FFF782FD94ED000A304800F06FFB082048
:100EB000FFF77AFD2E4B02A92C4805932D4B049386
:100EC00000F01EFB02A8FFF7B6FD0221274800F044
:100ED00045FB00200AF0C4F80920FFF765FD26490C
:100EE0001B4808F037FD0A20FFF75EFD23480AF093
:100EF000A9F8D4ED007A20230422FDEEE77A2049F8
:100F000002A8CDED007A1CF06DFF02A80AF09AF855
:100F10001C4B1D4902A81C6822461CF063FF02A856
:100F20000AF090F8194B1A4A02A81A49032CC8BFB4
:100F30001A461CF057FF02A80AF084F816480AF077
:100F400081F812B0BDEC028B10BD00BF040000247C
:100F5000EC0700242C0A0024000000424007002473
:100F60000000C07F0000003DDB0FC9409406002454
:100F70001F0A0490150A0490E52604900CF10590D0
:100F80003CF10590DCF1059060F10590FFF00590D3
:100F9000F4F0059073F105907CF1059008B50CF024
:100FA000F9FD41F28733984242D9224B9FED227AD4
:100FB0001B68224A1B8807EE903AF8EE677AC7EE64
:100FC000876AF6EE007AF4EEE76AF1EE10FA2DDDAC
:100FD0001B4B1B681B8806EE903AF8EE666A86EE9D
:100FE000876AB4EEE76AF1EE10FA1FDD154B1B6855
:100FF0001B8806EE903AF8EE666A86EE876AB4EED3
:10100000E76AF1EE10FA11DD138801339BB2B3F5F4
:10101000FA7F13800CD30C480AF014F864200CF00B
:10102000C1FD0320BDE808400CF0BEBD00231380C5
:1010300008BD00BF2007002400FF7F476206002490
:10104000A0080024800800248DF105900B4808B505
:1010500001F002FA014660B90CF09CFD4FF47A7180
:10106000B0FBF1F303FB1100B0F5FA7F2CBF0021B8
:1010700001210348BDE8084008F0ACBC2C0A00245C
:10108000EC0700241FB5204BD3ED037A1F4B1A78D1
:101090006ABB9FED1F7AF4EEC77AF1EE10FA2FDDEE
:1010A00001221A701B4B1A7882F001021A701B7809
:1010B000BBB1194B194893ED000A00F067FA184BC1
:1010C000694616480393174B029300F019FA6846D5
:1010D000FFF7B1FC0221114805B05DF804EB00F008
:1010E0003DBA0E4805B05DF804EB00F0C3BA9FEDC1
:1010F0000E7AF4EEC77AF1EE10FA44BF00221A70AD
:1011000005B05DF804FB00BF200700246006002442
:101110009A99993EEC0600240400002494060024C9
:101120000F0A0490050A0490CDCC4C3E2B48F6EEF5
:10113000007A2B4BD0ED036A1B68F4EEE76A591C6A
:10114000284BF1EE10FA93ED037A274BF0B51A68AD
:101150003CDD01320A2AA8BF0A22B4EEE77A23480E
:101160001A600368F1EE10FA34DD01330A2BA8BFD0
:101170000A23052A03601E48D4BF00250125052B3C
:10118000D4BF00240124052A0CDD027852B9194E7F
:101190003268013292FBF1F701FB1722326001261F
:1011A000154A1670052B154A0DDD13785BB9114EE3
:1011B0003368013B0B4493FBF1F701FB173301212B
:1011C00033600D4B197005701470F0BD013A22EABE
:1011D000E272C2E7013B23EAE373CAE7A0080024F6
:1011E000DCF10590800800245C06002458060024E9
:1011F0005506002474470024784700245406002430
:1012000010B51A48002409F07FFE194809F07CFE49
:10121000184809F079FE184809F076FE174809F0D9
:1012200073FE174809F070FE164809F06DFE164867
:1012300009F06AFE154809F067FE154809F064FEDA
:10124000144809F061FEE1B213480AF01BFA134B8F
:1012500003EB840301340C2C83ED000AF3D1FFF778
:1012600065FFBDE81040FFF70DBF00BF5C0700241D
:10127000A4070024800700240C090024CC070024C4
:10128000C0080024E408002420070024A00800244B
:101290008008002460080024040800246406002458
:1012A000134BB6EE007ADA68124B1A60124BDA680A
:1012B000124B1A60124BDA68124B1A60124BDA6842
:1012C000124B1A60124BDA68124B1A60124BD3EDB4
:1012D000036A124BDA68124B1A60124BD3ED007A94
:1012E000114B67EE877AE6EE877AC3ED007A704796
:1012F0005C0700247C070024A4070024C407002402
:1013000080070024A00700240C0900242C090024D5
:10131000CC070024C8070024C0080024E4080024E7
:101320000409002450060024E008002438B5364C97
:101330006FF0F413002504F1280065612562C4E90B
:101340000053C4E90233FFF76DFB04F13C00FFF7E3
:1013500069FB04F15800FFF765FB25672B4A20461F
:101360002B490C241CF0DCFA2A48284A2A4905603B
:1013700085801CF0D5FA294D294800F0A5F8234AAC
:10138000284927481CF0CCFA28461435FFF74AFBB9
:10139000013CF9D11D4A244924481CF0C1FA1B4ADA
:1013A000214923481CF0BCFA184A1F4921481CF067
:1013B000B7FA164A1C4920481CF0B2FA134A1A49D7
:1013C0001E481CF0ADFA114A17491D481CF0A8FA36
:1013D0000E4A15491B481CF0A3FA0C4A12491A4838
:1013E0001CF09EFA094A104918481CF099FA074A5D
:1013F0000D4917481CF094FA044A0B491548BDE8FA
:1014000038401CF08DBA00BFEC0700240000002417
:10141000A3090490200A0024A5090490300900249F
:1014200094060024490A0490A10904905C07002452
:10143000A4070024800700240C090024CC07002402
:10144000C0080024E408002420070024A008002489
:10145000800800246008002470B50C1A2411002CA8
:10146000034616DD15680668AE4203D04668B542ED
:1014700001D1043070BD8668B54201D10830F9E76A
:10148000C6681030B54202D103F10C00F2E7013C0E
:10149000E5E70C1A082C0ED00C2C07D0042C03D135
:1014A0001868126890420AD00846E3E70568146895
:1014B000A542DFD004331C681068844201D118466D
:1014C000D8E70433ECE7000000220B49C0E904121E
:1014D000002142630265816201644164074980F82A
:1014E0005420816410B54FF07E54C0E90622C0E953
:1014F0000822C463C46410BD7856341200803B4790
:1015000070B5002386B004460E46049302AD8B6886
:1015100033B1022228469847F3680593B3680493D1
:101520006A4604F12C0395E8030082E8030093E87F
:10153000030085E8030092E80300049A83E80300AF
:10154000636BA16B6263059A04930591A2631BB15F
:10155000032229462846984706B070BD002380F82C
:10156000541003657047D0E90520101A18BF0120F8
:101570007047B7EE007AD0ED007AC7EE276A90ED9B
:101580000F7AC6EE877AC0ED137A704710B5F0EE89
:10159000400A80ED120AB7EE000A04461CF0AEF9CC
:1015A0000023204623646364BDE81040FFF7E1BFD9
:1015B0000369024683EA433383EA534383EA4310D1
:1015C0001061704713B5D0E9051304468B4218D05B
:1015D00090F85420012A16D1FFF7EAFFD4E9052339
:1015E0009B1A9B10B0FBF3F202FB1300636B43B139
:1015F000636901A953F8203004F12C000193A36B17
:10160000984702B010BD5B1A026D9B10B2FBF3F05D
:1016100003FB102001322265E8E7D0E9053270B5FE
:101620009A4204460E4624D0436B13B30025B542BC
:101630001FD0F7EE006A94ED127AC6EE877A94ED29
:10164000117A77EE877A94ED107AF4EEC77AC4EDCA
:10165000117AF1EE10FA0ADB2046FFF7B3FFD4ED62
:10166000107A94ED137A77EE877AC4ED107A01350B
:10167000DDE770BDD0E90532934218BF83610023D6
:10168000036570472DE9F84FD0E9008993466FF064
:101690006043A9EB080207468A46B3EBA20F4FEA64
:1016A000A20402D11E481CF062F9012C2246A1EBD3
:1016B000080538BF0122A4182ED27CB39C4228BF53
:1016C0001C46A0001CF042F90646DBF80030002D55
:1016D000735104DD2A46414630461CF0B5F9A9EBAA
:1016E0000A090435B9F1000F354404DD4A46514674
:1016F00028461CF09BF94D44B8F1000F05D0B9689D
:101700004046A1EB08011CF010F906EB8404C7E980
:101710000065BC60BDE8F88F1C46D2E72646D4E7DA
:10172000C0F105909142F7B504460E4639D081EAE2
:10173000020500230193019A0B2A32DC0123934016
:101740002B429AB210D0164201AAD4E9050114D056
:10175000FFF782FEA169814206D1E369994206D072
:10176000019A41F8042BA161019B0133E2E701AA30
:1017700004F11400FFF786FFF6E7FFF76DFE8142E4
:101780000AD0031D8B42019F06D053F8042BBA42A6
:10179000F8D040F8042BF5E7A369834218BFA06195
:1017A000E2E703B0F0BD00F5405310B50446D3F8AE
:1017B000240D10B110211CF0B8F8204610BD03789C
:1017C00013B1032B04D070470122C363027070472A
:1017D000B7EE007AD0ED015A90ED026A0123D0ED08
:1017E0000D7A76EE076A0370A5EE867AF8EE677AD0
:1017F00067EEA57A67EEA67AF0EE476A87EEA67ADC
:10180000F8FE477AFCEEE77AC0ED0F7A704703786E
:10181000012B02D0022B14D07047D0ED0F7A90ED3F
:101820000B7AF8EE677A90ED026A67EE877AB7EE88
:10183000007A77EE676AA6EE267AC7EE876AC0ED71
:10184000016A0023C36303230370704703782BB13D
:1018500004230370436883620023C363704700005E
:1018600038B500F55F5204460346344919603449DF
:10187000C3F848113349C3F800123349C3F838128A
:101880003249C3F8BC123249C3F804143149C3F8D1
:1018900048153149C3F8C8153049C3F8A81630496E
:1018A000C3F8CC172F49C3F818192F49C3F8281BC0
:1018B0002E49C3F8CC1B03F55F639342D5D104F5E1
:1018C000685204F564531032012100254FF07C501A
:1018D000443303F8431C002103F8445C43F8401CE4
:1018E00043F83C0C43F8380C43F8085C43F8041CFC
:1018F0009342E9D104F5405304F56850294610227B
:10190000C3F8245D1430C3F8285D83F82C5DA3F878
:101910002E5D43F61023E5501CF0B0F804F570502E
:101920002946802224301CF0A9F804F57250802248
:10193000294624301CF0A2F8204638BD98F20590C4
:10194000ACF20590D0F20590E4F20590F8F2059023
:101950000CF3059020F3059034F305905CF30590AB
:1019600070F3059084F30590ACF30590C0F30590F7
:10197000F8B500F5685600F5615500F5685400F5B6
:10198000645710363835143438462835FFF75EFF73
:1019900000230022443706F8013BA64245F8282CD4
:1019A00005F81D3C05F81C3CEED1F8BD70B500F5FE
:1019B00040550446D5F8243D5BB910201BF0C6FF06
:1019C0000A4A4FF48023C5F8240D4260C3600260C8
:1019D000836004F55F56204604F55F64D5F8241D46
:1019E00001F01AFCB442F6D170BD00BF000000C087
:1019F0004D4B2DE9F0412DED0C8BB2EE00AAD3ED4D
:101A0000007ADFED4A9AB6EE088A9FED49BA00F5F2
:101A1000685727EE8AAADFED47AA27EE8BBADFEDDB
:101A200046BA67EEAAAA9FED459A6AEE298A00F5A2
:101A30005F552AEE088A00F5685627EE899A143712
:101A400068EEA98A00F56454BCEEC88A00F56853B4
:101A500067EEABBA1C35FCEEE88A1036B8EE488A61
:101A60000134F7EE007A2433F8EE688AB84638EE8F
:101A70002A8A87EE89DA78EE8B8ABCEEC88AFCEE79
:101A8000E88AB8EE687AC7EE87CAB8EE487A87EE79
:101A900087CA002104F10F02C5ED219A184629607A
:101AA0002835C5ED1D9A85F8801006F8011BE7EC76
:101AB000019A82ED00AA04F1130282ED00BA04F14A
:101AC0001702C2ED00BA04F11B02C2ED00AA04F134
:101AD0001F0282ED009A04F1230282ED00DAE21D7A
:101AE000C2ED009A04F10B02C2ED009A18EE902AA2
:101AF0002170C4F8332018EE102AC4F8372004F1FE
:101B00002B02C2ED00CA04F12F02443482ED00CA58
:101B100080221BF0B3FF4645034603F18003B8D192
:101B2000BDEC0C8BBDE8F081040000240000000037
:101B300017B7513917B7D138CDCCCC3E6F12033C13
:101B400000F5405310B50446C3F8281DFFF72EFFDB
:101B50002046BDE81040FFF74BBF000070B500F510
:101B6000705504460E4680222435002128461BF07D
:101B700085FF04F5725300218022243318461BF0A0
:101B80007DFF002E0346134814BF04210121C90123
:101B9000A1F501712A46B2EC017A145E9A4207EE71
:101BA000904A00F10204F8EEE77A145F77EE877A44
:101BB00042ED017A07EE904AB8EEE77AD2ED1F7A4D
:101BC00077EE877AC2ED1F7AE5D180308842E1D185
:101BD00070BD00BFFCFDFFFF1368D2ED017A92EDEE
:101BE000027ACB61D36877EE877A4B601369C1EDD7
:101BF000007A8B605369D269CB6000230A624B6222
:101C00000B614B618B617047DFED7E6AB7EE007A46
:101C100013B5C1ED006AC1ED016AC1ED026AC1ED03
:101C2000036AC1ED046AC1ED056A002B40F0E18052
:101C3000DFED754A92ED045AB4EEE40AF1EE10FAC3
:101C40004CD5B2EE026AD2ED055A25EE866A26EE32
:101C5000006AC6EE247A77EEA57AFCEEE77ADFED2D
:101C60006B5AB4EEE50AB8EE676AC2ED0D7AF1EE92
:101C700010FA87EE064A82ED0B4A42D535EEC06A6D
:101C8000DFED635A36EE256AF6EE005A36EE656AE7
:101C9000DFED605A66EE255A25EE866A60EEA04AB0
:101CA000D2ED075A107882ED026A64EEA00AC2ED06
:101CB000036AE0EE855AFCEEE55A15EE903AC2ED65
:101CC0000E5AF8EE655A87EE255A82ED0C5A042812
:101CD0001CD8DFE800F019375558780060EE007A1C
:101CE0009FED4D6AF6EE005A25EE066A67EE807AA1
:101CF00065EE255A67EEA57AF4EE005AE6EE257AEF
:101D0000ABE79FED406AC9E7C2ED016AD2ED017A07
:101D1000CDED016AF5EEC07A8DED007AF1EE10FAA4
:101D200054BF043201AAD2ED007AF4EEC77AF1EE84
:101D300010FAC8BF6A461368CB61012381F82430CA
:101D400002B010BDD36BB0EE475A17EE900A05EE05
:101D5000903A8342F8EE655A65EE845A77EE654A0A
:101D6000A6EE245A85EE856A82ED016A3FD3537848
:101D7000002B0CBF0323022313700023D363C5E79A
:101D800082ED017AC2E7D06B07EE900AF8EE677A2F
:101D900067EE857A08B95468146437EE676AD2ED45
:101DA000105A984226EE256AF0EE475AE7EEA65AF8
:101DB000C6EE257AC2ED017A02D300231370DDE767
:101DC0000130D063A2E7D36BD2ED095A07EE903A07
:101DD000B8EE676AD2ED0A7AE6EE657AC2ED017A6C
:101DE000D2ED087AB4EEE76AF1EE10FAE5DA0133E3
:101DF000C4E7002381ED077A81F82430012381F8BC
:101E000023309DE700000000CDCCCC3D9A99993E4F
:101E10003333333F000000436F12033B0BB9137899
:101E20000BB900238B617047032908D800EBC11060
:101E30008022002100F5685024301BF01FBE70473F
:101E4000032973B504460D4627D8421843F61023DC
:101E5000D35C13B3282343F2DC7203FB01039E58C7
:101E6000072E0ADC442000FB014000F5645001907D
:101E7000FFF7ECFC0198FFF7A2FC28214FF07E52FF
:101E8000072E01FB054404F561539A6303F13803FF
:101E9000C2BF012243F68303E25402B070BD0000CA
:101EA0000B68072BCCBF012300232DE9F04F05461B
:101EB0000C462DED088B0BEE103A8BB000F38680AC
:101EC00091ED080ADFED537AB4EEE70AD1ED097A15
:101ED00067EEA78AF1EE10FA68EEA78A4ABFB6EE5F
:101EE000008A20EE008A20EE088A28EE008AF3EEAF
:101EF000087A94ED047ABAEE089A05F5685805F563
:101F00006859D4ED059A94ED06AA05F55F56A7EE3B
:101F1000279AD4ED07AA08F1240809F1140905F558
:101F2000645A0027D4F808B0BB4554DD236806F195
:101F3000A00B02AA31460293284659F8043BF0EE62
:101F4000680AB0EE480A8DED049A0393237BCDED29
:101F5000059A8DF82030CDED06AA8DED07AACDEDBE
:101F6000098AFFF739FE1BEE103A52465946FFF731
:101F70004BFE237963B9237B53B905F5685205F508
:101F800040532846103293F82C3D3A44FFF746FF61
:101F900020234FF45F605A4631460093434600FBCE
:101FA000075000F071FE23794BB9237B3BB9F369ED
:101FB000072B04DD1FB905F5615300229A63013731
:101FC000283608F180080AF1440AABE7DFED128AEF
:101FD000B0EE688A8BE75C46032C05DC2146284678
:101FE0000134FFF721FFF7E705F5405696F82C3D41
:101FF0005BB10024A34505DD214628460134FFF7E7
:102000001FFFF7E7002386F82C3D0BB0BDEC088BD3
:10201000BDE8F08FCDCC4C3E0000000038B50D4639
:102020000446FFF73DFF29792046FFF797FD2B7BFC
:1020300043B104F54054002204F678031A600023EB
:1020400084F8833838BD2DE9F04100F5685600F575
:10205000615500F5685400F564571036383524345E
:10206000B04638464437FFF7F1FB002100232046F5
:1020700006F8011B80222B608034E972283505F8B0
:102080001C1C1BF0FBFC4745EBD1BDE8F0810000B8
:1020900003292DE9F84F04460E462DED028B61D839
:1020A00000F5645800F5615500273835C146BE4239
:1020B0000DD004F568534FF0000A4046103303F882
:1020C00007A0FFF7C3FB002385F80BA02B600137A7
:1020D00008F144082835042FE9D104EB060B43F638
:1020E000102A9FED288A04F540551BF80A70002F2E
:1020F0003CD00123484643F6830985F8103A06F69A
:10210000846304EB83035A6805F614231A6044229F
:1021100002FB06F804EB080101F564511BF086FC94
:10212000282105F6780308F5645001FB0646204493
:1021300006F56157BA6B1A6016F80930FA6B85F824
:10214000833805F67C031A6043F68403F35C85F854
:10215000843800250BF80A50FFF778FB87ED0E8ACC
:1021600006F80950BDEC028BBDE8F88F484685F8AB
:10217000107AFFF76BFB05F6780383ED008A85F88C
:102180008378EFE700000000032970B4CCBF00257E
:102190000125032ACCBF0024012491421AD000F566
:1021A00040530126A54283F82C6D13D003290BDC84
:1021B000032A09DD00F568530021103313F8012BC1
:1021C0002AB901310429F9D170BCFFF73CBF70BCBA
:1021D000FFF75EBF70BC704700F54050B0F82E0DA1
:1021E000704700F54050A0F82E1D704700F5685369
:1021F00000201033884204DA13F8012B1AB10130A1
:10220000F8E74FF0FF30704738B500F540534FF016
:102210007E5503F6142203F6780482ED000A0122AB
:1022200083F8102A256011B183F8832838BD00F5A2
:10223000645083F88318FFF7C2FAF7E710B5DAB1F4
:1022400000F5685100F568520020143110329842B0
:102250002ADA12F8014B64B1D1ED007A9FED147ABD
:1022600077EEC07AF0EEE77AF4EEC77AF1EE10FA84
:1022700019D401300431EAE700F5405090F8103AE3
:1022800093B100F61420D0ED007A37EEC00ADFEDEE
:10229000087AB0EEC00AB4EEE70AF1EE10FA54BFC5
:1022A0004FF0FF30002010BD4FF0FF30FBE700BFC4
:1022B000CDCCCC3D2DE9F04F072B85B004461F4611
:1022C0009DF83880D8BF4FF00009DDF83CB0C8BF9A
:1022D0004FF00109DFF808A10025CDE90112019AAC
:1022E000029B42FA05F6BAEC010A2B4116F00106F0
:1022F00003F0010332D033BBB8F1000F29D05946A7
:102300002046FFF773FF411C1DD000F6846322189E
:10231000012104EB830383ED010A43F61023D1541A
:1023200028234FF07E5103FB004303F56152916374
:1023300043F6830203F80290442303FB004000F5B8
:102340006450FFF73CFA01350C2DC8D105B0BDE84B
:10235000F08F49462046FFF757FFF4E7002BF2D0F5
:10236000B8F1000F1CD05B46012239462046FFF72A
:1023700065FF421C0346E6D02118442043F6102294
:10238000039300FB03408E5400F56450FFF73FFABF
:102390002820039B43F6830200FB03439E54D2E7AD
:1023A00004F5405696F8103A002BCCD006F61423CC
:1023B0009FED0A7AD3ED007A77EEC07AF0EEE77AF5
:1023C000F4EEC77AF1EE10FABDD504F5645086F844
:1023D000108AFFF71CFA86F88388B4E7CDCCCC3D91
:1023E000E0F105900B29F0B5164689B02ED8184BB0
:1023F00000F540550127009603EB810105F61422F4
:102400008DF818700B6800F55F5113606A460193F0
:10241000002385F8107A02934FF07C5303930493C2
:1024200005930C4B1B680793FFF7D6FB05F6780363
:102430004FF07E52072E1A6085F8837806DC002361
:1024400000F5645085F80139FFF7B9F909B0F0BD1E
:10245000E0F10590C407002400F5685200F56853C8
:102460001032143312F8010B08B99A42FAD17047AE
:1024700010B5054C2046FFF7F3F92046034A0449FE
:10248000BDE810401BF04CBA2C0A002400000024C8
:10249000A717049008B5FEF7B3FEFEF701FF074B40
:1024A000B6EE007AD3ED007A054B67EE877AD3ED6E
:1024B000006AE6EE877AC3ED007A08BD5006002474
:1024C000E00800242DE9F0439846274B164685B0D6
:1024D0001B6804460D46DFF8A090032B0360CCBFB9
:1024E00000220122042B0A70B4BF042301233360AD
:1024F0001E4B1B7803F0FF074BB999F8003033B13E
:102500001B48FFF735FA39461948FFF76AFE88F885
:102510000070DFF868801648B8F8001089F800707D
:1025200089B203919FB1FFF757FE03990246114804
:10253000FFF7F8F820210F48FFF76FF8B8F8001000
:102540000B4889B205B0BDE8F043FFF74ABEFFF77C
:1025500043FE33680246039901932B7804480093A5
:102560002368FFF7A7FEE9E774470024EC06002480
:102570002C0A002494060024604700244C06002402
:1025800000B58DB08DF80C30104B00901B688DF8A5
:102590000410694604930E4B0E481B680292059383
:1025A0000D4B1B6806930D4B1B6807930C4B1B6868
:1025B00008930C4B1B68099300230A930A4B1B6872
:1025C0000B93FFF72BFD0DB05DF804FB040900240D
:1025D000C80700242C0A0024E00800242C09002449
:1025E000A0070024C40700245006002438B580B199
:1025F000D1ED007A9FED1C7AF0EEE77A1B4BD3ED1C
:10260000006A67EE877A9FED1A7AE6EE877AC3ED65
:10261000007A184C184D2378BFF35B8F13F0010F2D
:1026200015D120461BF083F988B1144B20469FED4D
:10263000147AD3ED007A67EE877AB0EE087A67EE07
:10264000877AFCEEE77AC5ED007A1BF07CF90D4A3B
:102650002968136801338B42136004D3002313608D
:102660000122094B1A7038BD0AD7233C08090024FF
:10267000A4707D3F5C4700247047002404000024C0
:102680000000003D6C470024280A00240346002275
:102690000846194630B4824201F1080117D25508A4
:1026A0000D4C9FED0E7A023204EB8504D4ED007AD6
:1026B00067EE877AB5EE007A67EE877A9FED087A43
:1026C00067EE877A41ED027A41ED017AE3E7194638
:1026D00030BCFFF78BBF00BF50460024000000381D
:1026E0003333333F2DE9F04385B016460D460BF0EA
:1026F00051FA364B1A68824202D01860FFF7CAFEC0
:10270000334F0BF049FA334C3B78A06083B1DFF8CC
:10271000CC90DFF8CC80D9F80020D8F800102E48F3
:10272000FFF732FDD9F80030C8F8003000233B70C5
:102730000DF1070303AA0DF1060102A8FFF7C2FE7F
:102740009DF80730039A9DF806100298FFF718FFCE
:1027500031462846FFF79AFF0BF01EFAA36894ED66
:10276000017AC31A07EE903A2378F8EE677A67EE9B
:10277000877A53B10023C4ED057AC4ED037AC4ED22
:10278000047A237005B0BDE8F08394ED047AD4EDAB
:10279000066AF4EEC77A94ED037A94ED056AF1EED9
:1027A00010FAF4EEC77AB7EE007AC8BFC4ED047A27
:1027B000F1EE10FA37EE667A48BFC4ED037A27EEE1
:1027C000067AA7EEA67A84ED057ADBE76447002453
:1027D00078470024400700242C0A00247447002472
:1027E0006847002410B5002386B00A4664218DF89E
:1027F000173001230446CDE901310DF11701009195
:10280000017909F06DFD6379002818BF43F00103D9
:102810009DF81700637106B010BD0C2903D81E3156
:10282000C9B2FFF7DFBF0020704710B50A4686B077
:10283000022364210446CDE9013105AB0093012355
:10284000017909F04DFD6379002818BF43F00103B9
:102850000CBFBDF814000020637106B010BD00214C
:10286000FFF7E3BF0C2905D80231490001F0FE0152
:10287000FFF7DBBF002070470B2970B506460D46F9
:102880000AD8FFF7EFFF044629463046FFF7C5FF99
:10289000C4EB800000B270BD0020FCE710B586B02C
:1028A000012304468DF814206422CDE9013205AAE3
:1028B00000920A46017909F039FD6379002818BFB2
:1028C00043F00103637106B010BDF8B541240F4613
:1028D00016465E2100220546FFF7E0FF21463A46F4
:1028E0002846FFF7DBFF611C02343246C9B2284696
:1028F000E4B2FFF7D3FF592CF0D128468F225E2196
:10290000BDE8F840FFF7CABF38B50B7D0446002587
:102910005B00037109F024FC63228021204665716D
:10292000FFF7BCFF01200BF03DF95D212046FFF7CA
:1029300059FF242803D001232846637138BD2A4655
:102940005E212046FFF7AAFF042208212046FFF758
:10295000BCFF01222B212046FFF7A0FF03222C21E0
:102960002046FFF79BFF10222D212046FFF796FF00
:1029700020222E212046FFF791FF01222F21204601
:10298000FFF78CFF032230212046FFF787FF10223C
:1029900031212046FFF782FF202232212046FFF717
:1029A0007DFF012233212046FFF778FF05223421E5
:1029B0002046FFF773FF2A4635212046FFF76EFFBA
:1029C00022225B212046FFF769FF3F225C2120463F
:1029D000FFF764FF2A465D212046FFF75FFF204690
:1029E0008F225E21FFF75AFF607980F00100A5E792
:1029F00040797047002343717047000038B5054C9B
:102A0000256825B904201AF0A1FF05602060206820
:102A100038BD00BF7C470024DFED0E7A0E4A30EE51
:102A2000270AFDEEC07AB8EEE77A17EE901A30EE7C
:102A3000470ABEEECC0A10EE103A02EB8302074BB7
:102A400003EB810392ED000AD3ED007A20EE270A12
:102A5000704700BF00000043082906900C2D069027
:102A600090ED007AF7EE006A30EE470A27EE076A2B
:102A700076EEC77AB5EEC00A26EE066A67EEA77A4A
:102A8000F1EE10FAD4BF76EEC65ADFED110A76EEFB
:102A9000E76AD8BFE5EE810ADFED0E5AE6EEA17ACD
:102AA000A0EE807A80ED007A80ED017A9FED0A7ABF
:102AB000A6EE257A9FED096AA1EE867A80ED027A6C
:102AC00027EEA17A67EE217AC0ED037A704700BF46
:102AD0009A99193F9A99993EA69B443B0AD7233D60
:102AE000064A00238260064A4360C2608361054A49
:102AF00043614FF07C5302610360704722BA003D8E
:102B00000AD7233CCAAA7F3FB5EEC00A70B5F1EEE2
:102B100010FA049C34D5F1EE405A26461546013E83
:102B2000B7EE000AB6F1FF3F2AD0D5ED007A90ED5E
:102B3000007A65EEA77A9FED4E6A9FED4E5AF0EE51
:102B4000E76A76EEC76AF5EEC06AF1EE10FA36FE75
:102B5000056AA6EE867AB4EEC07A80ED007AF1EED0
:102B600010FA88BFC0EE076A9FED437A98BFF0EE77
:102B7000406A67EEA67A67EE877AE5EC017ACEE7DF
:102B8000DFED3E7A059D20EE270A6D0000295ED11B
:102B900090ED016A07EE904AF0EE045AB0EE467AE4
:102BA000F8EE677AC0ED035A90EE207AC7EE273A26
:102BB0009FED337ADFED337A21EE077AE1EE077A83
:102BC000B7EE007A21EE271AF0EE477A80ED021A6E
:102BD000E1EE257AE1EE017AC7EE274AC0ED044A1C
:102BE000013C31D3D0ED056A36EE236AB2EC015ACE
:102BF00025EEE67AD0ED067AA5EE067AA1EE667AA3
:102C000037EE677A27EE247AE1EE076AE1EE267A5C
:102C1000B0EE664AA1EE074AB0EE677AA1EE267AD8
:102C200080ED054A80ED067AB0EE677A95EE067A79
:102C3000E1EE877AFDEEE77A17EE901A013101F3A3
:102C40000F0119802B44CBE780ED016A70BD013C78
:102C5000FCD3F2EC017A60EE277AFDEEE77A17EE0C
:102C6000901A013101F30F0119802B44EFE700BFE7
:102C7000CDCC4C3DACC5A737CDCC4C3F00FEFFC6FC
:102C8000D7573941DB0F49402DE9F04F044615462F
:102C900090690E46D4F8702C04F6344A94F8309CAF
:102CA0002DED088B8FB09FEDE1BAF7EE008ADFEDD6
:102CB000E0AA0293D4F86C3C02EB8301073303F0E3
:102CC00007030860591DC4F86C3C063301F0070186
:102CD00003F0070302EB810102EB8303D1ED007ADD
:102CE00093ED007A04F6284337EE677AE7EE0B7A25
:102CF000B9F1000F40F00B82F4EEEA7AF1EE10FA2F
:102D00000BDD012295F8241084F8302C09B984F8E1
:102D1000482C2A68CAED008A1A6095F823200AB95F
:102D20002A681A60D4F8EC1CB6EE009AD3ED006A5B
:102D30004A1ED4F8203C07EE902AB8EEE77AD6ED8A
:102D4000077AF8EEE77AE6EE877A07EE103AF5EEC4
:102D5000006AB8EEC77AF4EEC77ABDEE007AF1EEFB
:102D600010FA37FE267A77EE877A77EE897AFDEECB
:102D7000E77A17EE907A002FC0F2D481B942D8BF1B
:102D8000174604EB8703C4F8207CD3F8AC8CD4F846
:102D9000243CBB4204F67443039309D0D8F80030B6
:102DA00040465B689847039B83ED009AC4F8247CF7
:102DB00094F8303C0BB189F0010304F62C42D5EDB8
:102DC000017A95F8239092ED008AC2ED007A37EEF1
:102DD000888A28EE098AB9F1000F00F0A581DFED9D
:102DE000957AB0EE009A96ED080A8DF8203020EE24
:102DF000270AFFF711FEDFED900AF0EE685ADAEDD0
:102E0000007A60EE209A9FED8D7A95F82430E9EEF5
:102E1000C95AB1EE69AA65EEA75AD5ED077A27EE31
:102E2000877AF0EEE77ACAED005A77EEAA7AC7EE13
:102E300027AADFED837A95ED037AF5EEC0AAF1EECD
:102E400010FA48BFDFED79AA002B47FEAA7ACDED34
:102E50000D7AD6ED017A77EE877AF5EEC07AF1EE4B
:102E600010FA40F163818DED0CBA072F40F06781B5
:102E7000F1EE087ADDED0C6AB0EE497AA6EEE77A5B
:102E8000B5EEC07AF1EE10FA00F15C81B4EE687A2A
:102E9000F7EE007AF1EE10FA37FE877AD6ED046A83
:102EA00027EE257A9FED674AB0EEE66AD6ED007A06
:102EB000DFED653A95F8203078EE277A36EE446AF1
:102EC00095ED025AB4EE446AF1EE10FA48BFB0EE46
:102ED000446A26EE866A26EE236A4BB9B9F1000FE2
:102EE00000F0338127EE255ADFED586A25EE265A89
:102EF000E6EE057ADFED566AF4EEE67AF1EE10FAC8
:102F000000F12681DFED536AF4EE667AF1EE10FAF5
:102F100076FEA77A96ED056ADFED4A6AB0EEC65AEC
:102F200095F82130CDED097AD5ED044A35EE445AB5
:102F3000D6ED027AB4EE445AF1EE10FA48BFB0EE84
:102F4000665A26EE056A26EE236A2BB9B9F1000F00
:102F5000DFED364A44FEA54AE6EE247AF5EEC07A65
:102F6000F1EE10FA00F1F780F4EE687AF7EE006AFD
:102F7000F1EE10FA76FEA77AD6ED066A9FED315A89
:102F8000B0EEE66A95F82230CDED0A7AD5ED055A15
:102F900036EE446AD6ED037AB4EE446AF1EE10FAE6
:102FA00048BFB0EE456A66EE866A66EEA36A2BB944
:102FB000B9F1000FDFED1D5A45FE875AE6EEA57AFE
:102FC000F5EEC07AF1EE10FA00F1C880F4EE687AFE
:102FD000B7EE007AF1EE10FA77FE277A98F80C3007
:102FE0000DF11F0204F54F6904F5576A8DF81F3083
:102FF00008A9D8F8003040460192209ACDED0B7A0E
:1030000000924A469F685346B8479DF81FB004F6A1
:103010003847BBF1000F50D195F8243053BB95F8D9
:103020002320002A00F0E78024E000BF0000000019
:103030009A99993E0000C0C2CDCC4C3E6666A63F30
:10304000CDCC4C3FCDCC4C3D6666863F0000404227
:103050000000EEC20000F042000090C20AD7A33C7C
:10306000CDCCCC3D000000C30000FE425196963905
:1030700000000000B2EE080AD6ED091A5FED0A7AE8
:1030800096ED087A21EE800A0593CDED041AA7EE9D
:10309000270AFFF7C1FCB0EE4A1A5FED107A059BD4
:1030A000A0EE271ADDED041A002B5AD0F0EE690AC3
:1030B0003846B0EE6A0AFFF7D3FC0225209B4A4649
:1030C000594600930195029BD7ED031A97ED021A1A
:1030D000D7ED010A98ED010A0398FFF715FD209B33
:1030E0000195524600935946029B04F54960D7ED7D
:1030F000031A2B4497ED021AD7ED010A98ED020A44
:10310000FFF702FD0FB0BDEC088BBDE8F08F1FED9F
:103110002C7AF4EEC77AF1EE10FA44BF002284F85C
:10312000302CFAE500272CE6022358E6F4EEE87A84
:10313000F1EE10FA78FEA77ACDED0C7A95E6B7EEAF
:10314000007AABE61FED367AA8E6B7EE005ACFE676
:10315000F0EE667ADEE65FED3A7A0DE75FED3C7AF7
:103160003CE7B2EE020ADDED097A37EEC00A5FED08
:10317000437AB4EEE70AF1EE10FA2FD45FED467A07
:10318000B4EE670AF1EE10FA37FE800A94F8483C74
:103190000BB38DED051ACDED041AFFF73DFCDDED07
:1031A000207ADDED041AB8EE677A5FED507A9DED76
:1031B000051A20EE270A67EE007A97ED000AA7EEBF
:1031C000890AB4EEE80AF1EE10FA0ADB0023C7ED33
:1031D000008A84F8483C1FED5A0A04E0B0EE670A02
:1031E000D4E787ED000AF0EE690A38464FF0000B8D
:1031F000FFF736FC61E74FF0010B5EE7036C0F2B26
:1032000008DC40F8231001330A7381ED010AC1ED97
:10321000020A036470470000F8B5DFED640A00F6A7
:10322000AC4600250446B0EE600A0F462A4600F67A
:103230002831C0F8EC5C3046FFF7E0FFDFED5C0AB8
:103240009FED5C0A2A4604F6CC313046FFF7D6FFE4
:10325000DFED570A2A4604F50071B0EE600A3046E9
:10326000FFF7CCFFDFED520A9FED520A2A4604F524
:103270000E713046FFF7C2FFDFED4C0A2A462146A9
:10328000B0EE600A3046FFF7B9FFF7EE000AB8EE7D
:10329000080A2A4604F618113046FFF7AFFFFFEE82
:1032A000000A2A4604F5A9613046B0EE600AFFF72D
:1032B000A5FFF7EE000AB8EE000A2A4604F5B96148
:1032C0003046FFF79BFFBFEE000ADFED380A012210
:1032D00004F2CC713046FFF791FFBFEE000ADFED3C
:1032E000330A012204F204413046FFF787FFDFED85
:1032F0002F0A012204F5A471B0EE600A3046FFF7F0
:103300007DFFDFED2A0A012204F5D561B0EE600AE7
:103310003046FFF773FFDFED250A012204F52F7118
:10332000B0EE600A3046FFF769FFD4F8EC3C9D42EE
:103330000BDA7B68394656F8040B01353B60FB68B5
:10334000BB6003681B689847EFE74FF0FF33002529
:10335000002604F67440C4F8243C04F62843C4F85C
:10336000206C1D60FFF7BCFB04F54960FFF7B8FB5C
:1033700004F634434FF07E5204F64C401D6004F6D0
:10338000384331465A604FF07C521D609A602022CB
:10339000DD6004F62C4384F8306C1D60C4F8700CBA
:1033A0001AF06CFBC4F86C6CF8BD00BFCDCC4C3F80
:1033B0009A99193F3333333F704710B50446902232
:1033C0000021B8301AF05AFB04F11803C03400226F
:1033D0001846002143F8082C43F8042C30221AF038
:1033E0004DFB034638339C42F1D110BD60EE200AFC
:1033F000FDEEE07A17EE903AF8EEE77A00EB830004
:1034000070EEE70A90ED000A90ED017A37EE407A0F
:10341000A7EE200A7047FDEEC07AF8EEE77A30EEAC
:10342000670A60EE200AFDEEE07A17EE903AF8EEB9
:10343000E77A00EB830070EEE70A90ED000A90ED6A
:10344000017A37EE407AA7EE200A7047F8B52DEDE5
:10345000088BB7EE008ADFED369AB6EE009A0E467C
:10346000F0EE60AA1446C8EE207A1F46002571EEE1
:10347000086AB0EE41AAB0EE69BA77EEC87A87EE74
:10348000A67A07EE903AF8EE677A77EEC87A29EED8
:10349000479A77EE877AA7EE809ABD4232D007EE40
:1034A000905ADFED240A2448F8EEE77A77EEC97ADD
:1034B000F0EEE77A67EEAA7A38EE677AB0EEC70ADE
:1034C00030EE070A60EE008AB5EE000AAAEE270A7F
:1034D000FFF7A1FF54F8252030EE080A013506EB6E
:1034E000820220EE280AD2ED007AB0EE677A20EE52
:1034F000000A90EE007AE7EE0B7A79EEA79AC2ED19
:10350000007ACAE788EE297A224604EB8505AA42AA
:103510000AD052F8043B06EB8303D3ED007A67EE42
:10352000877AC3ED007AF2E7BDEC088BF8BD00BFE7
:103530006F12833A0000804404150690F0B52DED1B
:10354000048BF6EE008A07EE903A90ED018AA5B062
:10355000B8EE677A0446B4EE680A6D4617461E4612
:1035600008302B46F1EE10FA4FF0000228FE800AD8
:1035700070EE487AC7EE879A01321860B1EC016AA2
:103580000C3307EE902AF8EEE77AF6EE006AB7EE13
:10359000009A67EE807AF0EE005AF4EE687AF1EE67
:1035A00010FA66FEA77AF0EE496A0C2AE7EEE56AA1
:1035B000F0EC017A43ED027AD6EE267AC7EE876AFE
:1035C00043ED016AD8D1013E38D338EE298AD4EDD3
:1035D000007ADFED220A224878EE277AF4EEC97AE3
:1035E000F1EE10FAA8BF77EEC97AC4ED007A94ED37
:1035F000000AFFF7FBFE30EE000AB7EE006A2B462A
:103600000022DFED186A60EE287A93ED017A01322C
:10361000D3ED025A0C330C2A37EE257AE7EE276AEF
:1036200003ED027AB1EE467AB0EE676AA0EE277A31
:10363000F0EE477AE9D1E7EC016AC4E70C2384EDA8
:10364000018AD5F88420013BD5F88810A5F10C0536
:103650001160F6D125B0BDEC048BF0BD00008044B4
:103660000415069000000000B6EE007A07EE903ACE
:10367000F0B5B4EE470A0446F8EE676A17461E46F0
:103680000830F1EE10FA4FF00D022DED068B10ED23
:10369000018A27FE000AA5B070EE487A6D46C7EE93
:1036A000A6AA2B4607EE902A1860F1EC015A0132C7
:1036B0000C33F8EEE77AB6EE006AF7EE009A67EEA2
:1036C000807AB0EE005AF4EE477AF1EE10FA66FE18
:1036D000277AB0EE696A192AA7EEC56AF0EC017A7A
:1036E00043ED027AD5EE867A87EEA66A03ED016A8B
:1036F000D8D1013E50D338EE2A8AD4ED007ADFEDDE
:103700002E0A2E4878EE277AF4EEE97AF1EE10FAD6
:10371000A8BF77EEE97AC4ED007A94ED00AAB0EE86
:103720004A0AFFF763FEF2EE087A70EE008ADFEDD8
:10373000220AB5EE000A2148AAEE270AFFF76BFE1F
:10374000B0EE409AB2EE0A0ADFED1B0A1B482AEEE1
:10375000000AFFF760FE2B4600229FED197AD3ED99
:10376000017A0132D3ED026A0C330C2A77EEA67A85
:10377000A7EE807A43ED027AF1EE497AB0EE409AF4
:10378000E8EE807AB0EE670AE9D1F7EC017A77EEDD
:10379000877A47ED017AACE70C2384ED018AD5F8EE
:1037A0008420013BD5F88810A5F10C051160F6D1F5
:1037B00025B0BDEC068BF0BD0000804404150690DA
:1037C00000000000B2EE027AD1ED017AF0B577EE9A
:1037D000C77A9FED4A7A044615461E46F4EEC77A2C
:1037E0002DED028BF1EE10FA85B00C9F00F1828076
:1037F0009FED437AF4EE477AF1EE10FA77FE277ADE
:103800009FED407AB3EE001A3F4A77EE877ADFEDFC
:103810003F0AD1ED028ABDEEE77AB0EE680AF8EE13
:10382000C76A17EE100A9FED3A7A77EEE67AD1ED85
:10383000046A26EE811AFEEECC7A21EE261A17EEE5
:10384000903A02EB8302334B8DED031A03EB8003B6
:1038500092ED008A2046304AD3ED007A182328EEF4
:10386000278ADFED2E7A28EE278AF7EE007AE6EE39
:10387000C77A91ED037A04F1B801019167EE877A76
:103880009FED277A27EE877A27EE277AE7EE270A39
:10389000CDED020AFFF7DAFDB0EE480A3B462A46B4
:1038A000019904F11000FFF749FEB0EE480A3B46CB
:1038B0002A4604F1E80104F14800FFF7D5FE04F5BB
:1038C0008C71B0EE680A9DED031ADDED020A204608
:1038D0000823144A0191FFF7B9FDB0EE480A3B46B0
:1038E0003246019904F18000FFF728FE05B0BDECD7
:1038F000028BF0BDF0EE477A82E700BF000000C304
:103900000000FE4200000043082906900AD7233C2D
:103910009A99193F0C2D069030F2059051969639E0
:1039200052B8FE3F10F2059070470000A0EE810AE9
:10393000254BB6EE007AF7EE006AF1EE005AFDEE86
:10394000C07AF8EEE77A70EE677AF4EEC77ABFEEE7
:10395000007AF1EE10FA54BF36EEE76AB0EE676A0D
:10396000A6EE257A37EE076AB0EEC77A37EE267AEA
:1039700076EEC16A86EE070AB6EE087A77EE877AA7
:10398000BDEEE77AB8EEC77A77EEC77A9FED0F7A89
:1039900067EE877ABDEEE77A17EE102A06EE102A58
:1039A00003EB8201B8EEC66A91ED007A77EEC67A33
:1039B00091ED016A36EE476AA7EE867A37EE407AD5
:1039C000A6EE870A704700BF0415069000008044E9
:1039D000F8EE087AB4EEE70AF1EE10FA17D4F0EE3A
:1039E000087AB4EEE70AF1EE10FA13DCF3EE0B7A84
:1039F000F2EE026AB0EE677A60EE266AA0EE007A16
:103A0000E0EE267A20EE077A87EE270A7047BFEEAF
:103A1000000A7047B7EE000A70470000044B0360CD
:103A2000044B4360044B836000230361C360704711
:103A300022BA003D0AD7233CCAAA7F3F70B50025B1
:103A4000002604468561C561056245628562C562DE
:103A500005634563C0E904663830FFF7DFFF04F112
:103A60008C00E56425656565E5652566A565656683
:103A7000A5662567E566C4F88050E567C4F88450FC
:103A8000C4F88850C4E92A66FFF7C8FF094BC4F898
:103A9000A050C4F88C304FF07C53C4F8A450C4F844
:103AA0009030054BC4F8B050C4F89430C4F8B4500A
:103AB00070BD00BF6BDD083FC1D3243F2DE9F0414D
:103AC0002DED0E8BB0EE40AA9FEDBE0ADFEDBE7A63
:103AD000F0EE41CA21EE800A0446C7EEA09A0D46D8
:103AE00090461E46DFEDB9DA149FB0EE60CAF0EEE4
:103AF00061AAF0EE428AB0EE629AFEF78DFFDFED2A
:103B0000B47AB7EE00BA20EE278A9FEDB20A2CEE07
:103B1000800AFEF781FFF1EE007AB5EE001A6CEE36
:103B2000277A7CEE81CA67EE80BA6CEEADCAF4EEFD
:103B30004BBAF1EE10FA7BFE2BBAB8F1000F0DD0A4
:103B4000B1EE0C7AC023F0EE087A2022C4E90023FB
:103B5000EAEE077A0023E361C4ED037A94ED09DA13
:103B600007EE907AB0EE4D7AF8EE677A9AEE8A7A9E
:103B700087EE27EA013FC0F01F812268002A00F08B
:103B8000BD80013AD4ED037A22600AB977EECB7A90
:103B9000D4ED04AA002D9FED907AC4ED027A47FE81
:103BA000877AB5EE047A77EEEA6A9FED8C6AE6EEE4
:103BB00087AADFED8B6AC4ED04AA77EEEAAAE7EEE6
:103BC000A6AAF5EEC0AAF1EE10FA09DA7AEEAAAAD0
:103BD0006AEE866AF0EEEAAA7AEE8B7AC6EEA7AAB9
:103BE0006268002A00F09180013ADFED7E6ADFED25
:103BF0007A7A002A626046FEA77AF7EE006AC4ED80
:103C0000067A002DDFED747AD4ED075A46FEA76AD6
:103C1000D4ED057A76EEE76AE6EE877AF2EE046A8C
:103C2000BFEE007AA5EEA67AC4ED057AB5EEC07AAD
:103C3000F1EE10FA09DA37EE077A67EE065AB0EEBF
:103C4000C77A77EE0B6A85EEA67ADFED676A67EED4
:103C5000A66AF0EE4B7A37EE067AE6EEA87A27EE01
:103C60002D7AE7EE097A67EE8C7AF5EEC07AF1EEFE
:103C700010FA55D49FED5D7AF4EE477AF1EE10FA22
:103C800077FE277A002D4ED0B6EE007ADFED580A87
:103C90003DEE0EDA5748F4EE477AF1EE10FA67FE81
:103CA000277A94ED0F7A77EE877AF4EECB7AF1EEFD
:103CB00010FAA8BF77EECB7AC4ED0F7AD4ED0FEAF5
:103CC000B0EE6E0AFFF792FBDFED490A2DEE00AA77
:103CD0004948B0EE6E0AFFF789FB2DEE000A84ED2D
:103CE000070AACEEAAAAD4ED087A3AEE67AAEAEE81
:103CF0002B7AC4ED087AE6EC017A3BE7B6EE0B7A54
:103D0000D4ED027A67EE877A42E7D4ED067ADFEDEA
:103D10003B6A67EEA67ADFED306AC4ED067A70E79B
:103D2000DFED2D7AAEE7DFED366AB0EE4B6A9FED40
:103D3000357A67EEA66A94ED065AA7EE886ADFED3B
:103D4000325A94ED0DAAA7EEA67AF0EE4B6A67EE12
:103D5000877A8BEE067AC4ED0A7AE7EE276A84ED5D
:103D60000B7A27EE4A7AE7EEA76A8BEE266AF0EE28
:103D70006A6AE5EE656AA6EEA97AD4ED0E6A84ED6C
:103D80000C6AAAEE677A37EE667A27EE067AA7EE15
:103D900027AAB0EE4A6AA7EE276AB0EE667AAAEEC4
:103DA000277A84ED0D6AF0EE476A84ED077AEAEE31
:103DB000276AC4ED0E6A94E784ED09DABDEC0E8B38
:103DC000BDE8F0810000A0426F12833A0AD7A33DFC
:103DD0000080BB440000D842000000003333333F72
:103DE0005839343DCDCC4CBF9A99D93FCDCCCC3E3F
:103DF0000000804404150690041906900AD77F3FFE
:103E0000D7573941DB0F4940CDCC4C3E074A0848D3
:103E10001168084B00FB013307EE903A1360B8EECF
:103E2000670ADFED057A20EE270A70472400002498
:103E30000D6619005FF36E3C0000802F2DE9F04104
:103E40002DED108B82B090ED00FAF7EE00EA9FEDB9
:103E5000DCBA189DB2EE007A23EE033A044607EE70
:103E6000905AB1EE00DA21EEA1EA0F46F8EE67CAE9
:103E7000904670EECF7A1E46B0EE40CA9FEDD10A52
:103E8000B0EE609AC7EEACBAF0EE6E7A2EEE400A53
:103E9000F0EE6EDAE0EEC77A9FEDCB7AF0EE419A63
:103EA000F0EE62AA29EE0D9AF4EE4B7AF1EE10FADA
:103EB00048BFF0EE4B7A67EE828AF0EE6E7AE3EE60
:103EC0000D7A67EE877A9FEDC17A67EE877A8EEE7C
:103ED000A7AAFEF7A1FDDFEDBE7AE0EE67DA9FED5F
:103EE000BD0A29EE800AFEF797FD29EE008AB4EE9E
:103EF0006E8AF1EE10FA3EEECAAA3EFE888AB8F14A
:103F0000000F0FD09FEDB47A2022DFEDB47A292381
:103F1000C4ED03EAECEE077AC4E91423C4ED077A92
:103F2000C4ED057AD4ED09FAF0EE6F7ADEEE0C7A84
:103F300087EEACEA002D00F03981FFF767FFD4ED82
:103F4000020ADFEDA77A9FEDA5CAF6EE006A9FEDA3
:103F5000A5DAB0EE089AF0EE00CA30EE660A30EE4E
:103F6000600AE0EE270AC4ED020A97B33FEE2BFA8F
:103F7000D4ED017AB0EE681A7FEE8EFA7FEE277AE2
:103F8000F4EEEE7AF1EE10FAA8BF77EEEE7AC4ED19
:103F9000017A94ED010AFFF7C9FC30EE4DDA2DEEFF
:103FA0002FDA2DEE099AB0EECDDA7DEE2CCAC9EEED
:103FB0002C7AEFEE8C7A7BEE677A94ED0A7A013DEB
:103FC00077EEC77AA7EE887A84ED0A7AA6EC017AB2
:103FD000B0E7636D94ED047A002B00F0B280013BF2
:103FE00063654FF07A536360236D002B00F0CF8040
:103FF000013B2365D4ED067AB0EE681AD4ED056A6C
:104000009FED795A76EEE76A94ED010AE6EE857A3D
:10401000D4ED076AC4ED067AD4ED087A76EEE76A45
:10402000E6EE857AD4ED036A76EEC76AC4ED087AC7
:10403000F0EE477AE6EE857AC4ED047AFFF776FC77
:10404000236DF7EE007A9FED5E7A002BB6EE006AE4
:104050008DED010A07FE877AD4ED0B7A37EE677A89
:10406000B5EEC07AF1EE10FA36FE055AE7EE057AA3
:1040700094ED0C7A9FED5D6A94ED0D5A77EEC75A78
:10408000C4ED0B7AA5EE867A94ED106AD4ED0E5A43
:1040900077EEC77A84ED0C7A94ED117AE5EEC67A64
:1040A000D4ED0F5AE6EE457A77EEC77A67EEA57A39
:1040B000A5EE276AA5EE067AF0EE465AE5EE275AF7
:1040C000F0EE477A8DED007AE5EE067AC4ED105AEF
:1040D000C4ED117AFFF79AFED4ED127A9FED447A7F
:1040E00030EE670ADDED016A9FED426A36EECDDA09
:1040F000DDED005AE0EE077A94ED137AD4ED086A0C
:1041000037EEC75AC4ED127AA5EE067A94ED066A28
:104110002DEE06DA2DEE099AB0EECDDA84ED137AA3
:1041200077EEC77A7DEE2CCA37EEA57AC9EE2C7AE7
:1041300026EEC77AE6EE0C7A7BEE677AE7EE297A0E
:104140003BE7D4ED037AB0EE0C6A3FEE2BFA67EE54
:104150008A7A2AEE866AC4ED037AF0EE6E7AE6EE8B
:10416000077A67EE8F7AF4EE667AF1EE10FA76FE51
:10417000A77AD4ED016A77EEA67AF4EEEE7AF1EE44
:1041800010FAA8BF77EEEE7AC4ED017A2CE7D4EDF1
:10419000056AD4ED077A66EEAD6AC4ED056ADFED17
:1041A000166A67EEA67AC4ED077A23E7C4ED09FA2A
:1041B00084ED00FA02B0BDEC108BBDE8F08100BFC9
:1041C00000000000000070426F12033C0000FA463D
:1041D000CDCCCC3A0000D8423333333F9A99993E44
:1041E0006F12033B9A99193FCDCCCC3D0AD7233DA2
:1041F000CDCC4C3D0AD7A33B66667E3F60EE007A8D
:10420000B3EE087A70B52DED048B27EEA78A15461C
:1042100004460E4628EE008A28EE078AB6EE007A9B
:10422000A0EE478A28EE278AF0EE007AA0EE078AF1
:104230009FED1C7A77EEC07A67EE807A78EE476A57
:10424000A6EEA77AB0EE470AFFF7C2FBF7EE006AC8
:1042500007EE905AD4ED008AB8EE677AC6EE807AFF
:1042600038EE688AC8EE079A94ED018A77EEC87A2C
:1042700087EE879A013D0ED396ED000A78EEA98A63
:1042800038EE098A28EE800AFFF7A2FB20EE080A22
:10429000A6EC010AEEE784ED018AC4ED008ABDECCC
:1042A000048B70BDC3F5A83EF2EE027A91ED010ACF
:1042B0002DE9F04730EE670ADFED607A05460C46DF
:1042C00016461F46B4EEE70A2DED028BF1EE10FA0A
:1042D00088B0DDF8488000F1A480DFED597AB4EEB3
:1042E000670AF1EE10FA37FE800AFEF795FBDFED64
:1042F000557A94ED047AB7EE008A60EE270A00231F
:10430000F1EE007AD4ED031A8DED068AF0EE006A24
:10431000F0EE488A079367EE277A94ED021A334647
:1043200094ED050A05F11000CDED030AF4EEC87A0C
:10433000F1EE10FA38FE272A77EEC87AF4EEC87A42
:10434000CDED057AF1EE10FACCBF06AA05AAD2EDA2
:10435000007AF5EEC07AFFEE007AF1EE10FAE7EEA1
:10436000267AB3EE007A48BF07AAE0EEC78AD2EDFC
:10437000002A2278F5EEC07ACDF80080C2F3400919
:1043800002F0020A02F00102F1EE10FA4946F5EEDF
:10439000C08A48BFDFED2C7AF1EE10FA48BFDFED9E
:1043A0002A8A67EEA88AFFF789FBB6EE000A424622
:1043B00005F1B0003146A8EE800AFFF71FFF227812
:1043C00005F1580094ED050A02F0010294ED021A7D
:1043D000D4ED031A94ED043ADDED030ABAF1000FAF
:1043E00022D0B0EE432A33EE033A3B46F7EE002AE2
:1043F0004946CDF80080B4EEC83AF1EE10FA72FEEC
:10440000832A33EE483AB5EEC03AF1EE10FA48BFCF
:104410009FED0D3AFFF712FD08B0BDEC028BBDE831
:10442000F087B0EE670A60E7F5EE007A9FED072AA5
:1044300061EEA77AA1EEE72AD5E700BF000000C32E
:104440000000FE425196963900000000CDCCCC3ED3
:104450000023C0E904338361034BC361036200237B
:1044600043628362C36270475196963A7047000078
:10447000F2EE027A30EE670ADFED197AB4EEE70A5F
:10448000F1EE10FA28D4DFED177AB4EE670AF1EEF8
:1044900010FA37FE800ADFED147A144A30EE270A4C
:1044A000FDEEC07AB8EEE77A17EE901A30EE470AC2
:1044B000BEEECC0A10EE103A02EB83020C4B03EB7B
:1044C0008103D2ED007A93ED000A67EE807A9FEDCA
:1044D000090A27EE800A7047B0EE670ADBE700BFE3
:1044E000000000C30000FE420000004308290690BF
:1044F0000C2D069051969639F1EE007ADFED106A98
:1045000030EE270ADFED0F7A20EE270ABCEEC00A54
:1045100010EE103A01EBC3010B4B8A0D03EB820046
:104520008B0290ED000A07EE903A90ED017AF8EEDA
:10453000677A37EE407A67EEA67AA7EE270A7047C9
:104540000000802F0000004E04150690CB430D4A5A
:10455000D0ED007A01F0030103F0030302EB8101C7
:1045600002EB830393ED007AE7EE007A91ED007A97
:10457000C0ED007AD0ED017AE7EE007AC0ED017A65
:10458000704700BFB8F20590F3EE087A9FED9D7A70
:104590002DE9F04F2DED108B91ED019A90461F46BD
:1045A000994B39EE679AD1ED047A0D4687B067EEE4
:1045B000877A0446209E9FED95BABDEEE77A17EE06
:1045C000102AB8EEC77A03EB820177EEC77AD1EDF5
:1045D000008A91ED017A37EE687AE7EE878A79EE04
:1045E000288AB0EE680AFFF743FFB5EEC00AF1EE85
:1045F00010FA00F1EE80F6EE007AB4EE670AF1EE02
:1046000010FA37FE808AB7EE00CADFED817A9FED9F
:10461000817A78EEE78AF0EE4C7AE8EEC77AF5EE2A
:10462000C07AF1EE10FA00F1D780F4EE4C7AF1EE98
:1046300010FA7CFE277AB0EE490A67EEA78AFFF7E8
:1046400017FFD5ED026A07EE906A94ED099A2346AA
:1046500036EEA67A95ED036AF8EE677AD4ED08AAED
:1046600094ED07AA27EE267A53F8342FF0EE496A24
:104670008DED01BA38EE6A8A029330EE4A0A23467B
:10468000D7EE286A0092BFEE007A53F8302FC8EEBA
:1046900027EA94ED0A8A03928DED04BA059386EE1B
:1046A000A7FAF0EE006A80EE27EAA6EE267A37EE49
:1046B000487AC7EE27FA002E00F09180DFED567A97
:1046C000002538EE2F8A3AEE0EAA7AEEAEAAB5EEA3
:1046D000C08A6AEE27CA39EE0F9AF1EE10FAFCEEA4
:1046E000ECCA2AEEA7DA4CBFF6EE009ADFED479A45
:1046F0001CEE903A48BF68EE299A4FEA530A48BF29
:1047000069EE889AF0EE4C7AD4ED0B8AB5EEC08A49
:104710006369F5EE00DA1CEE902AE8EEA97A2046ED
:10472000F1EE10FACCBF28EE2D0A9FED380A6DEE9F
:10473000277AC8BF20EE080AFCEEE77A28EE800A46
:1047400017EE901A1944236902EB030BA369616108
:104750000AEB0309C4F810B0C4F81890FFF7CCFEB8
:104760005946204620EE090AFFF7C6FEF0EE40BA91
:1047700020EE090A4946204620EE2D0AFFF7BCFE2E
:104780003BEEE87ADFED257AF0EE40DA2946B0EE2E
:104790006B0AE7EE278A6846C4ED0B8AFFF7D6FE60
:1047A00029460135B0EE6D0A03A8FFF7CFFE042DB0
:1047B000A8D1009B013E019A48F8043B0092039B5C
:1047C000049A8DED01BA03928DED04BA47F8043BCB
:1047D00071E7B0EE4B8A16E7DFED0C7A2BE7039A10
:1047E000059B1A60009A029B1A6084ED0A8A84ED88
:1047F000099AC4ED08AA84ED07AA07B0BDEC108B96
:10480000BDE8F08F00000043F00A069000000000B1
:1048100000009042CDCCCC3C0000804FCDCC4C3D34
:104820007047000000230F490F4A03614361836111
:10483000C361036243628362C3620363436383634E
:10484000C363036443648364C3640365436583652E
:10485000C365036643668166C26603674167826714
:10486000C367704722BA003D2033783FF0EE087AE4
:10487000F6EE085A21EE271A08B5FDEEC17A2DEDA5
:10488000068B17EE903AF8EEE77AF7EE008AF0EE34
:10489000609A31EE671AB0EE619AB5EE00AA38EE72
:1048A000C11A93BB61EE017AB0EE687A27EE811AE5
:1048B000F2EE0E7AA1EE277A60EE077AF4EE687ACD
:1048C000F1EE10FA68FEA77A77EEA57AB0EE670AE5
:1048D000DFED2A0A2A48FEF79EFDB0EE408ADFEDA2
:1048E000270AB0EE690A264838EE288AFEF793FDBB
:1048F00039EE000A28EE0A8A28EE008A39EE280AE4
:1049000088EE000ABDEC068B08BD012BB6EE006AEE
:104910001ED1DFED1C7ADFED1C6A61EE277A67EEAF
:10492000817AE1EE276AB4EEE60AF1EE10FA5BBF97
:1049300070EE667A78EEE66A86EE267A27EE860ACA
:1049400056BFC0EE267A67EE007A77EE867ABBE72E
:1049500038EEC11A61EE017A27EE811AF2EE0D7A75
:10496000A1EE276AF0EE4A7AE0EE067AF4EE657A76
:10497000F1EE10FA65FEA77AA8E700BF00008044B8
:1049800004150690EE7CFF3E6F12833A08B52DEDBC
:104990000A8BF5EE00BA3F48F0EE607ADFED3E0A92
:1049A000B6EE00BAF0EE40AAB0EE6B0AB0EE429A54
:1049B000B0EE41CAA7EE8B0AF0EE618AFEF72BFD3E
:1049C000DFED367AB7EE008AB4EEE79A30EE080AE9
:1049D000F1EE10FA60EE0B9A32D5F7EE087AB0EEEF
:1049E0006BAAA9EE27AAB0EE489A3AEE0C0ADFEDC0
:1049F0002A0A2848FEF70FFDF4EECB8AB0EE40AA53
:104A0000F1EE10FA3AD5F4EECBAADFED230A78EEF8
:104A1000A88A20483AEEAB0AF1EE10FAA8BF69EE78
:104A2000A89AFEF7F8FC30EE480AA8EE808A39EE24
:104A30000AAA9AEE299A29EE080ABDEC0A8B08BD4B
:104A4000DFED177AB6EE087A9FED16AA79EE677A4F
:104A5000A7EEC7AADFED147AB4EEE79AF1EE10FAEA
:104A600009D5B0EE4A0ADFED0C0A0A48FEF7D3FC7E
:104A7000B1EE409AB9E79FED0D9AB6E7B0EE6A0A3B
:104A8000DFED050A0348A8EE8B0AFEF7C4FCB0EE82
:104A9000408ACCE70415069000008044FA7EAA3EC6
:104AA000C3F5A83E3BDF3F3FFA7E2A3F6F12833AB1
:104AB000F4EE007A70B5B4EE670A04460E46154669
:104AC000F1EE10FA2DED0E8B27FE800AF5EE007A3E
:104AD00090ED039AD0ED048AF4EE670AD0ED059AC2
:104AE00090ED06DA30EE490A31EE691A90ED02EAED
:104AF000F1EE10FA71EECD1A67FEA00A07EE902AC9
:104B000070EEE80AF8EE677AC0EE27AAC0EEA7BA00
:104B100081EE27CA81EEA7BA013D6DD3D4ED007AAC
:104B200039EE2A9AD4ED010AB7EE000A9FED398AD0
:104B300078EEAB8A79EE277A3BEE0DAA7CEE29CA95
:104B4000F4EEC07AC4ED007AF1EE10FA48DB77EEAD
:104B5000C07AB0EE691AF0EE4D1AC7EE89DAC4EDEC
:104B6000007A70EE6DEAEEEE8B1AAEEE8C1AEEEE77
:104B7000A80AFFF77BFEF0EE480AF0EE409AF0EE4E
:104B80004A1AB0EE480AB0EE6C1AFFF76FFEF6EE66
:104B9000007A30EE690A6DEEA77A67EEAD7A6DEEB7
:104BA000A8DAA0EE27EAFEEE007AC4ED01DA6EEE96
:104BB000A77A67EEAE7AA7EE808AD4ED010AF0EE0E
:104BC0004A1A94ED000AB0EE6C1AFFF74FFEF0EEB1
:104BD0006C9AA6EC01EAB0EE4ADA38EE00EA9BE7FE
:104BE00078EEA00AF4EEC00AF1EE10FAA8BF70EE5B
:104BF000C00AC4ED010AE0E784ED02EA84ED06DABA
:104C0000C4ED059AC4ED048A84ED039ABDEC0E8BC5
:104C100070BD00BF00000000F4EE007A70B5B4EE85
:104C2000670A04460E461546F1EE10FA2DED108B7C
:104C300027FE800AF5EE007A90ED04EA84B090ED4C
:104C400005FAF4EE670A90ED069AD0ED079A30EE79
:104C50004E0A31EE491AD0ED03FAF1EE10FA71EE78
:104C6000E91A67FEA00A07EE902A70EECF0AF8EE66
:104C7000677AC0EE27BAC0EEA7CA81EE27DA81EEC6
:104C8000A7CA013DC0F0A98094ED018A3EEE2BEA4F
:104C900094ED007AF7EE00EA94ED021A3FEE2CFA5A
:104CA000DFED558A7EEE0E7A3EEE077A7CEE29AA7B
:104CB00037EE888A3DEE09BA84ED007AB4EEEE8ACA
:104CC00084ED018AF1EE10FA7BDB38EE6E8A8DED11
:104CD000017AB4EEEE7AF6EE006A88EE27AA84ED49
:104CE000018ACDED036AF1EE10FAF0EE491AB0EE4A
:104CF000692AB5BFF0EE667AF0EE687AB0EE660A21
:104D0000B0EE6E0AF7EE000ACDED027A7EEECADA58
:104D1000ADEE8C2AEDEE8D1AADEE8F1AFFF736FE52
:104D2000DDED027A9FED341AB0EE409AB0EE6A2AB9
:104D3000B0EE670AF0EE4B1AF0EE410AFFF726FEDE
:104D4000DDED036A30EE490A9DED017A6AEE267ABE
:104D5000B4EEEE7A67EE8A7AF1EE10FA2AEE0FAA36
:104D6000E0EE27FAFEEE007A84ED02AA6DEEA77A55
:104D700067EEAD7AE7EE808A03DD28EE268A84EDC1
:104D8000008AD4ED007AB0EE6A2A94ED021AF0EEB1
:104D90004B1AF4EEEE7AD4ED010AB0EE4B9AF0EE37
:104DA0006A9AF1EE10FAA4BF77EEEE7AC4ED007ABB
:104DB00094ED000AFFF7EAFDE6EC01FA78EE80FADE
:104DC0005FE73FEE011AB4EEEE1AF1EE10FAA8BF5B
:104DD00031EE6E1A84ED021AD3E7C4ED03FAC4ED86
:104DE000079A84ED069A84ED05FA84ED04EA04B08E
:104DF000BDEC108B70BD00BF000000002DE9F0413C
:104E00002DED088B91ED019AB3EE08BA82B00F46F2
:104E1000B0EE490A044616461D46FFF729FBF0EEA0
:104E2000408AB0EE4B0A97ED027ADFED657AF7EE35
:104E3000009ADDF84080A7EE270AFFF719FBB0EED5
:104E4000408ABBEE080AD7ED04AADFED5E7AAAEE2F
:104E5000A70AFDF7E1FDF6EE007AF0EE001A97EDF5
:104E6000037A9FED591AB0EE40AAF4EEE7AA314654
:104E700037EE417A4246F0EE480A04F11000F1EEB6
:104E800010FAB0EE680A4ABFF0EE697ADFED4F7AA9
:104E9000EAEEE17A71EEE71A61EEA71AF0EE697AAE
:104EA000CDED011AE8EECB7AF5EEC07AF1EE10FA0C
:104EB00048BFDFED467AA7EE271A8DED001AFFF7FF
:104EC000F7FD68EE0A0A9FED428A42462946B0EE97
:104ED000680ADDED011A9DED001A04F12C00FFF7C0
:104EE000E7FD68EE887A9FED3B7A32469FED3A8A7D
:104EF0002B4627EE877A4FEA880602EB8801A7EE59
:104F0000878A27EE888A78EE297A84ED1A8A89EED4
:104F1000A7AA84ED1BAA914218D0B3EC017AD2ED76
:104F2000007AD4ED1C6A77EE877A94ED1A7A94EDC4
:104F30001B6AE7EE876AE6EEC67A27EE277AA6EEC8
:104F4000867A84ED1C7AE2EC017AE4E7B0EE490A55
:104F500097ED027ADFED217A2E44A7EE270AFFF7BC
:104F600087FA4246F0EE400A2946B0EE680AD7EDCD
:104F7000041A97ED031A04F14800FFF74DFE84ED83
:104F80001D8A84ED1EAAB54214D095ED007AD4EDA9
:104F90001D7AD4ED1F6A94ED1E6AE7EE276AA6EE2D
:104FA000C67A67EE877AE6EE867AC4ED1F7AA5ECBC
:104FB000017AE8E702B0BDEC088BBDE8F08100BFE4
:104FC0000000A84200004042C3F5A83E00000000D7
:104FD0009A99993ED7573941DB0F49400000C042AA
:104FE000704700009FED913AB4EEC30AF0B5F1EEC0
:104FF00010FA059C00F18E80F5EE007AB4EE670A97
:10500000F1EE10FA37FE800AF0EEC07AB6EE007AC2
:1050100077EEA77AF4EEC77AF1EE10FA0ADCF7EE33
:10502000006A76EEE77AF4EEC77AF1EE10FA58BF2E
:10503000F0EE477A06EE104AD0ED056AD0ED015A3F
:105040002546F8EE463A90ED066A30EE660A0E46C0
:1050500077EEC67A80EE232AC7EEA31A013D5CD311
:10506000D0ED007A76EE826A90F810C036EE216AB2
:105070009FED6F5AF7EE004A76EEA77AB4EEE76A34
:10508000C0ED007AF1EE10FA94BF01270027BC456D
:1050900010D077EEC62A077482EEA64A64EE072A7D
:1050A000E4EE225A34EEC44AFEEE002A64EE222ACE
:1050B000A4EE225AF4EEE47AF1EE10FA13DB77EE66
:1050C000E47A0027077487EEA64AC0ED007A64EE02
:1050D000077A74EEC44AE4EE675AFEEE007A64EE94
:1050E000A77AA4EEE75AD0ED007AF7EE004AB0EEC8
:1050F000004AB4EEE76ADFED4E7AF1EE10FA77FE81
:10510000A47AFFEE004AE5EE844A75EE275AE6ECF3
:10511000014AA3E7B0EE430A76E7F4EEC30AC0ED16
:10512000015A80ED066AC0ED056AF1EE10FA51D41D
:10513000F5EE007AF4EE670AF1EE10FA77FEA00AB7
:10514000F0EEE07A77EEA77AF4EEC77AF1EE10FA95
:105150000CDCF7EE006A76EEE77AF6EE006AF4EE23
:10516000C77AF1EE10FA58BFF0EE667AD0ED0C6A0D
:105170002546D0ED0D4A164670EEE60AD0ED085AE7
:1051800077EEE47AC0EEA32A87EEA33A013D39D345
:10519000D0ED077A76EEA26A9FED255AB7EE006A47
:1051A00074EE834A76EEA77AF4EEC67AF1EE10FA40
:1051B00013DAC0ED077AF0EE457AB0EE004A90EDD2
:1051C000075ABFEE006AA5EE846A77EE855AA6EC10
:1051D000016ADBE7DFED150AB2E777EEC67A87EE04
:1051E000A64AC0ED077A64EE077A36EE446AE4EE2A
:1051F000675ABEEE004AF0EE457A26EE044AE6EE25
:10520000447ADAE7C0ED085AC0ED0D4AC0ED0C6AE9
:10521000013C0AD3F1EC016AB2EC017AF3EC017AB9
:10522000E6EE877A43ED017AF2E7F0BDBD378635C9
:105230000000000070B50026044618220D460661E5
:1052400000214661203040F8086C40F8046C18F0EA
:1052500015FC04F13800FEF7E1FB04F14C00FEF709
:10526000DDFB234604F1A80126666666A666E666AF
:105270004FF07E504FF07C525E671C33D8650120A2
:105280005A6583F8640015481E669866DA66994286
:10529000EED104F58C70FEF7C1FB04F59670FEF7B5
:1052A000BDFBAB687F2B85BF2A68803B002202F1E3
:1052B000800188BFAB60AB6888BF29607F2BC4F8D2
:1052C000402185BF2A68803B002202F1800184BF13
:1052D000AB602960C4F8442170BD00BF6F12833AEF
:1052E00060EE007ADFED156A9FED157AA7EEA67ADB
:1052F000DFED146AE7EE876A9FED137AA7EEA67AD0
:10530000DFED126AE7EE876A9FED117AA7EEA67AC3
:1053100020EE070AB7EE007A80ED000AC7EE206A99
:10532000F0EE477AE6EE807AC0ED016AE0EE007AB0
:10533000C7EE276AC0ED026A704700BF23FE2E4504
:1053400090ECAC428F34214365482342A95D25414E
:10535000DB0F4940D0ED036A90ED047A013B1CD38A
:1053600090ED016AF1EC017AD0ED025AE6EE667A30
:1053700090ED006AE6EE667A77EEC77A67EEA57A78
:10538000E6EE276AF0EE665AE6EE276AA6EE257A82
:10539000E2EC015AA6EE257AE0E7C0ED036A80ED63
:1053A000047A7047D0ED036A90ED047A013B1CD378
:1053B00090ED016AF1EC017AD0ED025AE6EE667AE0
:1053C00090ED006AE6EE667A77EEC77A67EEA57A28
:1053D000E6EE276AE2EC017AF0EE665AE6EE276A1C
:1053E000A6EE257AA6EE257AE0E7C0ED036A80ED09
:1053F000047A70472DE9F04F2DED0A8BB7EE009A35
:10540000A1B0F0EE40AA9FEDD00AF1EE618A044609
:1054100021EEC00A1746B0EE49BA0D91B0EE60CA4F
:10542000B0EE418AB0EE61AAF0EE429AFDF7F4FACE
:10543000DFEDC67AF0EE49BAA0EE67BA9FEDC40A76
:1054400028EE800AFDF7E8FADFEDC27ADDE935657E
:10545000E0EE67BA9FB1F6EE006A39EE4A6AF7EEFF
:10546000087AE6EE267ADFEDBC6AB0EE677ADFED09
:10547000BB7AEAEEA67A67EE277AC4ED007ADFF807
:10548000FCC20EAF7CEE0C6ABCE80F000FC79CE8B4
:1054900003000EAA14AB87E803000627F2EC017A9A
:1054A0009FEDAF7A66EEA77AF4EE477AF1EE10FA46
:1054B00067FE277A9FEDAB7A013F67EE877AFCEEB5
:1054C000E77AE3EC017AE9D104F110030DF1680CFD
:1054D00004F1280E0B931868083353F8041C624635
:1054E000734503C29446F6D11A9BAB4616990393B3
:1054F000149B189A04931B9BDDF80C900893159B42
:10550000089800931C9B079602931D9B0A93179B78
:10551000DDF828A005931E9B01931F9B0C93199BFC
:10552000DDF830800693009B03EB000E029B03EB3B
:10553000010C019B9818002309930BF1FF3B069B7C
:10554000BBF1FF3F9844049B9944059B9A441FD0AC
:105550004FEADA73BFEE007ADFED836A03EBD973AB
:1055600003EBD87303EBDE7303EBDC738C4403EBC8
:10557000D073104407EE903A079BF8EEE77AA7EE57
:10558000A67AA3EC017A0793009B9E440123D3E7FC
:105590000C9B069800FB0539DDE9033000FB053C58
:1055A0000A9B059800FB053E029B009801FB053114
:1055B000089B00FB0538019B02FB0532099B2BB1C0
:1055C000CDE91AC8CDE91C1ECDE91E290DF1680CE4
:1055D0000B9B0DF1800E6246083303CA724543F8F7
:1055E000080C43F8041C9446F5D19FED600A28EEA0
:1055F000000AFDF711FADFED5E7A60EE278AF5EE1C
:10560000C08AF1EE10FA4CD4F6EE007AF4EE678A16
:10561000F1EE10FA77FEA88AF1EE087A04F128007C
:10562000F0EE080AB0EE680A0090E8EE270AFFF7ED
:1056300057FE2B46324631460098B3EE008AFFF7FC
:1056400089FE69EEA99A79EE697AA7EE888A28EE32
:105650000C8AB5EEC08AF1EE10FA25D4F6EE007A87
:10566000B4EE678AF1EE10FA37FE888AB046B1468A
:10567000AF4229D0D4ED017A78EE277AF4EEC97AD8
:10568000F1EE10FA13DAC4ED017AD9ED007A0137A0
:1056900094ED027A37EE677AE7EE297AE9EC017A3F
:1056A000E6E7DFED348AB7E79FED328ADEE777EE93
:1056B000C97AC4ED017AFEF7A9FBF6EE007A30EE66
:1056C000670A84ED020AE0E794ED038A07EE905A38
:1056D00006EB8503B0EE487AF8EEE77A9AEE2A7A7E
:1056E000C7EE275A43454BD0D4ED007AB6EE007A88
:1056F0000D9AF4EEC77AF1EE10FA3BFE2B7A67EEC4
:10570000877AC4ED007AD8ED006A1AB135EE888A3E
:10571000F0EE487AF5EEC06A9FED176AB2EE047AB1
:10572000F1EE10FA37FE067A66EE876AB0EEE66AA8
:1057300036EE096A86EE867A37EE097A67EE277AC0
:10574000E8EC017ACEE700BF0000A842A69B443BEC
:10575000000010420AD7233B3333333F9A99993ED6
:10576000EE7CFF3E0000804FC3F5A83E0000904253
:105770009A99993B00000000CDCCCC3D14F00590E7
:1057800004F13C00F6EE000AB0EE680A0090FFF764
:10579000A7FD2B46324631460098FFF703FE84ED05
:1057A000038A21B0BDEC0A8BBDE8F08F2DE9F04FE4
:1057B0002DED0A8BB7EE00BA85B0F0EE40BA9FED42
:1057C000960AF1EE618A044621EEC00A8A46B0EEDE
:1057D0004BAA9046B0EE60CA1F46B0EE418A1A9EB0
:1057E000F0EE619AB0EE429AFDF716F9DFED8B7A92
:1057F000F0EE4BAAA0EE67AA9FED890A28EE800A78
:10580000FDF70AF9DFED877ADDE918B5E0EE67AA62
:10581000B8F1000F13D0F6EE006A3BEE696AF7EEBE
:10582000087AE6EE267ADFED806AB0EE677ADFED81
:105830007F7AEBEEA67A67EE277AC4ED007A3CEE2B
:105840000C7ADFED7B7A4FEA860900212846A846CC
:1058500077EE277A4A46C7EE278A18F00FF9DFED70
:10586000750A2B469FED740A5A46394604F110001A
:10587000009668EEA00A28EE800AFFF7B3FBDFED82
:105880006F0A9FED6F0A2B4668EEA00A5A4628EE73
:10589000800A394604F148000096FFF7A3FBF5EEB5
:1058A000050A9FED680A2B465A46394668EEA00A5B
:1058B00004F1800028EE800A0096FFF793FB9FED2D
:1058C000620A28EE000AFDF7A7F8DFED607A60EEC5
:1058D000278AF5EEC08AF1EE10FA48D4F6EE007A87
:1058E000F4EE678AF1EE10FA77FEA88A04F1B800A8
:1058F000F7EE000AB0EE680A0390FFF7F1FC3346BA
:105900002A4629460398FFF725FD29EE099AB3EEAA
:10591000008A7BEE497AA7EE888A28EE0C8AB5EEDB
:10592000C08AF1EE10FA25D4F6EE007AB4EE678A5A
:10593000F1EE10FA37FE888AAB460027B74229D02D
:10594000D4ED017A78EE277AF4EECB7AF1EE10FA04
:1059500013DAC4ED017ADBED007A013794ED027AB7
:1059600037EE677AE7EE097AEBEC017AE6E7DFEDEE
:10597000388ABBE79FED368ADEE777EECB7AC4ED57
:10598000017AFEF743FAF6EE007A30EE670A84ED0C
:10599000020AE0E794ED038A07EE906AA944B0EEAC
:1059A000487AF8EEE77A99EEAB7AC7EE276AC145F6
:1059B0001BD0D4ED007AB6EE007AF4EEC77AF1EEA1
:1059C00010FA3AFE2A7A67EE877AC4ED007A98EDEB
:1059D000007ABAF1000F03D036EE888AF0EE487AEA
:1059E00067EE277AE8EC017AE1E704F1CC00F6EE05
:1059F000000AB0EE680A0390FFF772FC33462A46AD
:105A000029460398FFF7CEFC84ED038A05B0BDEC70
:105A10000A8BBDE8F08F00BF0000A842A69B443B64
:105A2000000010420AD7233B3333333F9A99993E03
:105A30000AD7233CC3F5703ECDCCCC3B3333813EFB
:105A40005C8F823C48E1BA3C000090429A99993BB5
:105A500000000000F2EE027A91ED010A2DE9F0411A
:105A600030EE670ADFED2A7A86B005460C46174607
:105A7000B4EEE70A1E46DDF83080F1EE10FA44D4A9
:105A8000DFED247AB4EE670AF1EE10FA37FE800AF1
:105A9000FCF7C2FFDFED200A217805F1100060EE6F
:105AA000200AD5F8443194ED042A01F00102D4ED26
:105AB000031AC1F3400194ED021A94ED050A009314
:105AC000D5F84031CDED050ACDE90178FFF792FC1C
:105AD0002178D5F8443105F1600001F0010294ED20
