:02000004900466
:1000000000000220090A0490FD090490BD5C0590DF
:10001000FD090490FD090490FD0904900000000012
:10002000000000000000000000000000FD09049036
:10003000FD09049000000000FD090490415C05905A
:10004000FD090490FD090490FD090490FD09049048
:10005000FD090490FD090490FD090490FD09049038
:10006000FD090490FD090490FD09049025580590B0
:1000700031580590513905903D58059049580590E3
:100080004534069011430590FD090490FD09049044
:10009000FD090490FD090490FD090490FD090490F8
:1000A000FD090490FD090490FD090490FD090490E8
:1000B000D1250690DD250690E9250690454305905B
:1000C000FD09049051430590FD090490191E069006
:1000D000251E069079320690A5320690D9320690F8
:1000E000FD090490FD09049000000000FD09049042
:1000F000FD090490FD090490FD090490FD09049098
:10010000FD090490FD090490F5250690311E069026
:100110000D33069041330690FD090490FD090490CB
:10012000FD090490FD090490551E0690891E069055
:1001300079340690FD090490FD090490FD090490AE
:1001400000000000000000000000000000000000AF
:10015000FD090490FD090490FD0904907533069093
:100160005D430590FD090490515C0590755C059018
:10017000FD090490995C0590FD090490FD09049027
:10018000FD090490FD090490A9330690DD33069023
:100190003D1E0690491E0690FD090490FD0904903D
:1001A000FD090490FD090490FD090490FD090490E7
:1001B00025550590FD090490FD090490FD09049062
:1001C000FD090490FD090490F9330590053405906C
:1001D000FD09049011340590FD090490FD09049077
:1001E000FD090490FD090490FD090490FD090490A7
:1001F000FD090490FD090490FD090490FD09049097
:10020000FD090490FD090490FD090490FD09049086
:10021000FD090490FD090490FD090490FD09049076
:10022000FD090490FD090490FD0904900000000000
:10023000FD090490FD09049000000000FD090490F0
:10024000FD090490FD090490FD090490FD09049046
:10025000FD090490FD090490FD090490FD09049036
:10026000FD090490FD090490FD090490FD09049026
:10027000FD090490FD09049011340690000000006F
:10028000FD090490FD090490FD09049000000000A0
:0802900000000000FD090490CC
:1002A00010B5054C237833B9044B13B10448AFF3B0
:1002B00000800123237010BD680B002400000000A3
:1002C0006003099008B5034B1BB103490348AFF322
:1002D000008008BD000000006C0B00246003099042
:1002E00001F0FF01102A2BDB10F0070F08D010F8E7
:1002F000013B013A8B422DD010F0070F42B3F6D1EB
:10030000F0B441EA012141EA014122F007047FF003
:1003100000070023F0E80256083C85EA010586EA5A
:10032000010685FA47F5A3FA87F586FA47F6A5FA96
:1003300087F68EB9EED1F0BC01F0FF0102F00702A2
:1003400032B110F8013B013A83EA010313B1F8D14D
:100350000020704701387047002D06BF354603382E
:10036000073815F0010F07D1013015F4807F02BF67
:10037000013015F4C03F0130F0BC0138704700BFB8
:1003800081F0004102E000BF83F0004330B54FEA46
:1003900041044FEA430594EA050F08BF90EA020FB3
:1003A0001FBF54EA000C55EA020C7FEA645C7FEA46
:1003B000655C00F0E2804FEA5454D4EB5555B8BF69
:1003C0006D420CDD2C4480EA020281EA030382EADA
:1003D000000083EA010180EA020281EA0303362D6C
:1003E00088BF30BD11F0004F4FEA01314FF4801C3F
:1003F0004CEA113102D0404261EB410113F0004F51
:100400004FEA03334CEA133302D0524263EB430307
:1004100094EA050F00F0A780A4F10104D5F1200EA5
:100420000DDB02FA0EFC22FA05F2801841F1000100
:1004300003FA0EF2801843FA05F359410EE0A5F1D4
:1004400020050EF1200E012A03FA0EFC28BF4CF005
:10045000020C43FA05F3C01851EBE37101F00045BB
:1004600007D54FF0000EDCF1000C7EEB00006EEBC8
:100470000101B1F5801F1BD3B1F5001F0CD3490852
:100480005FEA30004FEA3C0C04F101044FEA4452A9
:1004900012F5800F80F09A80BCF1004F08BF5FEA30
:1004A000500C50F1000041EB045141EA050130BD10
:1004B0005FEA4C0C404141EB0101013C28BFB1F522
:1004C000801FE9D291F0000F04BF01460020B1FA6D
:1004D00081F308BF2033A3F10B03B3F120020CDA40
:1004E0000C3208DD02F1140CC2F10C0201FA0CF01E
:1004F00021FA02F10CE002F11402D8BFC2F1200C83
:1005000001FA02F120FA0CFCDCBF41EA0C01904038
:10051000E41AA2BF01EB0451294330BD6FEA040481
:100520001F3C1CDA0C340EDC04F11404C4F120026C
:1005300020FA04F001FA02F340EA030021FA04F37E
:1005400045EA030130BDC4F10C04C4F1200220FAD5
:1005500002F001FA04F340EA0300294630BD21FA13
:1005600004F0294630BD94F0000F83F4801306BFD9
:1005700081F480110134013D4EE77FEA645C18BFCD
:100580007FEA655C29D094EA050F08BF90EA020F64
:1005900005D054EA000C04BF1946104630BD91EA5C
:1005A000030F1EBF0021002030BD5FEA545C05D15F
:1005B0004000494128BF41F0004130BD14F580049E
:1005C0003CBF01F5801130BD01F0004545F0FE4112
:1005D00041F470014FF0000030BD7FEA645C1ABF47
:1005E000194610467FEA655C1CBF0B46024650EA7E
:1005F000013406BF52EA033591EA030F41F40021AA
:1006000030BD00BF90F0000F04BF0021704730B52F
:100610004FF4806404F132044FF000054FF0000104
:1006200050E700BF90F0000F04BF0021704730B5C5
:100630004FF4806404F1320410F0004548BF40429A
:100640004FF000013EE700BF42004FEAE2014FEAEF
:1006500031014FEA02701FBF12F07F4393F07F4FCA
:1006600081F06051704732F07F4208BF704793F0CD
:100670007F4F04BF41F40021704730B54FF46074E0
:1006800001F0004521F000411CE700BF50EA0102E3
:1006900008BF704730B54FF000050AE050EA01028C
:1006A00008BF704730B511F0004502D5404261EBFC
:1006B00041014FF4806404F132045FEA915C3FF43D
:1006C000D8AE4FF003025FEADC0C18BF03325FEADA
:1006D000DC0C18BF033202EBDC02C2F1200300FA8B
:1006E00003FC20FA02F001FA03FE40EA0E0021FAB0
:1006F00002F11444BDE600BF53B94AB9002908BF4E
:1007000000281CBF4FF0FF314FF0FF3000F074B9EC
:10071000ADF1080C6DE904CE00F006F8DDF804E058
:10072000DDE9022304B070472DE9F047089D044637
:100730008E46002B4DD18A42944669D9B2FA82F294
:1007400052B101FA02F3C2F1200120FA01F10CFAD0
:1007500002FC41EA030E94404FEA1C48210CBEFB08
:10076000F8F61FFA8CF708FB16E341EA034306FB91
:1007700007F199420AD91CEB030306F1FF3080F020
:100780001F81994240F21C81023E63445B1AA4B26D
:10079000B3FBF8F008FB103344EA034400FB07F70F
:1007A000A7420AD91CEB040400F1FF3380F00A8150
:1007B000A74240F207816444023840EA0640E41B45
:1007C00000261DB1D4400023C5E900433146BDE8F1
:1007D000F0878B4209D9002D00F0EF800026C5E993
:1007E000000130463146BDE8F087B3FA83F6002EAB
:1007F0004AD18B4202D3824200F2F980841A61EB23
:10080000030301209E46002DE0D0C5E9004EDDE740
:1008100002B9FFDEB2FA82F2002A40F09280A1EB28
:100820000C014FEA1C471FFA8CFE0126200CB1FB7D
:10083000F7F307FB131140EA01410EFB03F0884276
:1008400008D91CEB010103F1FF3802D2884200F203
:10085000CB804346091AA4B2B1FBF7F007FB101195
:1008600044EA01440EFB00FEA64508D91CEB040433
:1008700000F1FF3102D2A64500F2BB800846A4EB8E
:100880000E0440EA03409CE7C6F12007B34022FA79
:1008900007FC4CEA030C20FA07F401FA06F31C43A8
:1008A000F9404FEA1C4900FA06F3B1FBF9F8200CB5
:1008B0001FFA8CFE09FB181140EA014108FB0EF0FB
:1008C000884202FA06F20BD91CEB010108F1FF3A4B
:1008D00080F08880884240F28580A8F10208614457
:1008E000091AA4B2B1FBF9F009FB101144EA014165
:1008F00000FB0EFE8E4508D91CEB010100F1FF3410
:100900006CD28E456AD90238614440EA0840A0FBA7
:100910000294A1EB0E01A142C846A64656D353D07D
:100920005DB1B3EB080261EB0E0101FA07F722FAA1
:1009300006F3F1401F43C5E9007100263146BDE8CA
:10094000F087C2F12003D8400CFA02FC21FA03F32D
:10095000914001434FEA1C471FFA8CFEB3FBF7F0AE
:1009600007FB10360B0C43EA064300FB0EF69E42D3
:1009700004FA02F408D91CEB030300F1FF382FD26C
:100980009E422DD9023863449B1B89B2B3FBF7F614
:1009900007FB163341EA034106FB0EF38B4208D9ED
:1009A0001CEB010106F1FF3816D28B4214D9023E2E
:1009B0006144C91A46EA004638E72E46284605E74C
:1009C0000646E3E61846F8E64B45A9D2B9EB02081D
:1009D00064EB0C0E0138A3E74646EAE7204694E7AD
:1009E0004046D1E7D0467BE7023B614432E73046E0
:1009F00009E76444023842E7704700BF684620F0C8
:100A000007018D46FEE700000848094A0949121A05
:100A100008B525F0EFFC0848084A0021121A25F015
:100A200011FD25F0B3FC00F05DF9FEE700000024A5
:100A3000680B00247C040990680B0024FCDD002472
:100A4000364A4FF40071DFED366A92ED057A27EEF3
:100A5000267A30B5FDEEC77AADF5037D082502A8EC
:100A600017EE903AD2ED047A67EEA67A642BA8BF0F
:100A70006423FDEEE77A23EAE37317EE902A642AF3
:100A8000A8BF642222EAE2720092264A25F05AFEAA
:100A9000254B264904461B68254A032BC8BF0A4636
:100AA000C0F5007102A800922044224A25F04AFEB7
:100AB00002AB0444204AC4F50071181925F042FE27
:100AC00004441E4B02A89FED1E7AC4F5007103EB8F
:100AD000850320441B4AD3ED007A2B4667EE877AC4
:100AE000FDEEE77ACDED007A25F02CFE0444B4F556
:100AF000F67F02DA01350C2DE3D102AB124AC4F5C0
:100B00000071181925F01EFE02A9104812F09EFB74
:100B10000F4B00221A700DF5037D30BD780C0024B8
:100B20000000C842427A0690487D00243D7A069033
:100B3000367A06904F7A0690607A06909C0B0024D5
:100B400000007A44747A06904C7B0690417B0690B4
:100B5000840F0024024B1B780BB1FFF771BF704765
:100B6000840F0024534B2DE9F04193F800802DEDC4
:100B7000028B86B0B8F1000F4FD04F4802F008FA50
:100B8000C0B14D4802F006FA00234C4A69464A4873
:100B9000CDE900320122CDE9022310238DF8103077
:100BA0005A238DF8143002F07FF9032206214248BF
:100BB00002F05BF940480B2402F021F9404B054656
:100BC000188015F0EBF806463E4800F0FCFE07469C
:100BD0003D4AC4F10B0352F824103C4A711A1268C2
:100BE00091422CBF002101212FB945FA03F313F0E4
:100BF000010F18BF4146364B142000FB043013F0A0
:100C00002FFA013CE4D26DB9324B9FED337AD3ED2C
:100C1000007A67EE877AC3ED007A06B0BDEC028BEE
:100C2000BDE8F081DFED2D8A0024B0EE688A26460B
:100C300045FA06F3DB070AD5F1B21F4802F0ECF8DB
:100C400007EE900A0134F8EEE77A78EEA78A0136CB
:100C50000C2EEDD15CB307EE904AF8EEE77AC8EEC1
:100C6000A76A9FED1F6A1B4B86EE867AD3ED006A5A
:100C70009FED196AF7EE007A87FEC77A88FE077A39
:100C800027EE077AF0EE005A77EE666AF0EEE66A33
:100C9000A6EEE56AF6EE006AC6FE866A77EEE67AAA
:100CA00093ED006A67EE877AE6EE867AB3E7DFEDCA
:100CB0000B6AD6E7080000247C0F00240108010914
:100CC000840B0024CC0B0024280C0024847B069089
:100CD0008C0E0024880B00243333733F0000000087
:100CE0000000164310B500F05FFA15F057F80446FF
:100CF00000F092FB00F038FBFFF72CFF15F04EF8E8
:100D0000001B042804D915F049F80446FFF72AFF10
:100D1000012015F04BF8EBE7704770477047000073
:100D200038B5054600240121084810F057FF3C2043
:100D300015F03CF801340021044810F04FFF3C202E
:100D400015F034F8A542EED138BD00BF480D00249F
:100D5000074B014610B504461A68064801F0BAFD73
:100D6000C4F10B0415F01AF8034B43F8240010BD2E
:100D7000487D0024880F0024280C0024012A08BF85
:100D80000160002070470868FFF7E2BF012A08BF32
:100D90000160002070470868FFF7DABF0B2202707D
:100DA000FF2242700022C0E90122C26070478368BE
:100DB00010B5044613B1032201469847204610BDE2
:100DC00010B504462C30FFF7F2FF606918B1E169F5
:100DD000091A24F0BEFE204610BD000008B50E48DA
:100DE00010F0A4FE00210C4810F0BAFF0BF030FA0E
:100DF0000221094810F0B6FE4FF014FB074B084AD9
:100E0000202105489A6010F0CDFE034810F0C6FE80
:100E1000044B83ED000A08BD480D002400ED00E0FE
:100E2000000004900400002470B5ADF5846D0C241E
:100E30000CAD2E462846FFF7B1FF05F11400FFF771
:100E4000ADFF05F12800FFF7A9FF05F13C00FFF712
:100E5000A5FF013C05F15405ECD10F20954D10F094
:100E600067FEADF8000000990222304612F0D6FA73
:100E7000102010F05DFEADF804000199022221A8B7
:100E800012F0CCFA112010F053FEADF808000299D0
:100E9000022236A812F0C2FA122010F049FEADF874
:100EA0000C00039902224BA812F0B8FA132010F09C
:100EB0003FFEADF810000499022260A812F0AEFACD
:100EC000142010F035FEADF814000599022275A823
:100ED00012F0A4FA152010F02BFEADF818000699B8
:100EE00002228AA812F09AFA162010F021FEADF81C
:100EF0001C00079902229FA812F090FA172010F008
:100F000017FEADF8200008990222B4A812F086FA64
:100F1000182010F00DFEADF8240009990222C9A88E
:100F200012F07CFA192010F003FEADF828000A999F
:100F30000222DEA812F072FA1C2010F0F9FDADF8C2
:100F40002C000B99F3A8022212F068FA04230C2259
:100F50003146594812F072FA574812F077FC214690
:100F6000554812F089FC2346224695ED000A0146B9
:100F7000DFED520A524812F099F802214E4812F061
:100F80007BFC2346224695ED000A0146DFED4B0A25
:100F90004C4812F08BF80321474812F06DFC2346B1
:100FA000224695ED000A0146DFED440A464812F05C
:100FB0007DF80421404812F05FFC2346224695ED5F
:100FC000000A0146DFED3D0A404812F06FF80521A6
:100FD000394812F051FC2346224695ED000A01469D
:100FE000DFED360A3A4812F061F80621324812F075
:100FF00043FC2346224695ED000A0146DFED2F0A09
:10100000344812F053F807212B4812F035FC2346E0
:10101000224695ED000A0146DFED280A2E4812F01F
:1010200045F80821244812F027FC2346224695ED76
:10103000000A0146DFED210A284812F037F809219D
:101040001D4812F019FC2346224695ED000A014680
:10105000DFED1A0A224812F029F80A21164812F088
:101060000BFC2346224695ED000A0146DFED130AEC
:101070001C4812F01BF80B210F4812F0FDFB234611
:10108000224695ED000A0146DFED0C0A164812F0E3
:101090000DF80121084812F0EFFBDFED080A0146C8
:1010A0002346224695ED000A104811F0FFFF0DF58A
:1010B000846D70BD04000024600D00246F12033B9A
:1010C000B80C0024000D0024DC0C0024680E002461
:1010D000280D00241C0E0024400E0024580C00246F
:1010E000FC0D0024DC0D0024BC0D0024940C002415
:1010F0007FB500230F4A69460F48CDE9003201222F
:10110000CDE9022310238DF810305A238DF81430C6
:1011100001F0CAFE38B9094B1870094812F096F868
:1011200007B05DF804FB03220621034801F09DFE91
:10113000F6E700BF010801097C0F00240800002425
:101140007E7A069070B58AB06846FFF727FE0023C6
:1011500001220393CDE90123114B04AA03F11805E1
:1011600016461868083353F8041C1446AB4203C4EF
:101170002246F6D10B4D002436F814302846694635
:101180000134ADF8003012F0B5FC2846012112F010
:1011900067FF0C2C05F11405EED10AB070BD00BF3D
:1011A000C47906908C0E002410B52DED028B92B000
:1011B000554CFFF713FE0120FFF7B2FD5349544889
:1011C00000F026FF0220FFF7ABFDFFF72DFE032006
:1011D000FFF7A6FDFFF78CFF0420FFF7A1FDFFF747
:1011E000B1FF0620FFF79CFD94ED008A14F0D6FFB6
:1011F0009FED487A484B0122C7EE087A07EE100AA5
:101200001A700720454ADA60B8EE477A1A615A61C7
:1012100027EE877AF7EE007AC7EE876A9FED407A6D
:1012200028EE078AC3ED016ADFED3E6A86EE887A12
:1012300077EE277AC7EE276AC3ED066AFFF770FDDF
:1012400094ED000A384800F0D1FB0820FFF768FD54
:10125000364B02A934480593354B049300F080FBCC
:1012600002A8FFF7A4FD02212F4800F0A7FB4FF6CC
:1012700080734FF4E8322F4900932F482F4B0BF027
:10128000B9FD2F4B0021002003F6981283F8A8091E
:10129000116011F0E9FF0920FFF742FD29491B48C1
:1012A00010F05CFC0A20FFF73BFD274811F0CEFF51
:1012B000D4ED007A20230422FDEEE77A234902A828
:1012C000CDED007A25F072FA02A811F0BFFF204B95
:1012D000204902A81C68224625F068FA02A811F0ED
:1012E000B5FF1D4B1D4A02A81D49032CC8BF1A4655
:1012F00025F05CFA02A811F0A9FF1A4811F0A6FF28
:1013000012B0BDEC028B10BD04000024480D002477
:10131000880F002400000042780C00240000C07FE9
:101320000000003DDB0FC940CC0B0024970D04905A
:101330008D0D049080FF04C0605C0024000004C098
:10134000606C0024612C0490D47A0690047B069093
:10135000A47B0690287B0690C77A0690BC7A0690FC
:101360003B7B0690447B069008B514F017FD41F2D4
:101370008733984242D9224B9FED227A1B68224A3A
:101380001B8807EE903AF8EE677AC7EE876AF6EEAA
:10139000007AF4EEE76AF1EE10FA2DDD1B4B1B68C4
:1013A0001B8806EE903AF8EE666A86EE876AB4EE1F
:1013B000E76AF1EE10FA1FDD154B1B681B8806EE7D
:1013C000903AF8EE666A86EE876AB4EEE76AF1EE66
:1013D00010FA11DD138801339BB2B3F5FA7F138045
:1013E0000CD30C4811F032FF642014F0DFFC032012
:1013F000BDE8084014F0DCBC0023138008BD00BF2A
:10140000580C002400FF7F479A0B0024FC0D002499
:10141000DC0D0024557B06900B4808B501F096FAC8
:10142000014660B914F0BAFC4FF47A71B0FBF1F3E5
:1014300003FB1100B0F5FA7F2CBF00210121034806
:10144000BDE8084010F0CABB880F0024480D0024F6
:101450001FB5204BD3ED037A1F4B1A786ABB9FED63
:101460001F7AF4EEC77AF1EE10FA2FDD01221A701E
:101470001B4B1A7882F001021A701B78BBB1194B12
:10148000194893ED000A00F0B1FA184B6946164866
:101490000393174B029300F063FA6846FFF787FC4B
:1014A0000221114805B05DF804EB00F087BA0E4840
:1014B00005B05DF804EB00F02FBB9FED0E7AF4EE63
:1014C000C77AF1EE10FA44BF00221A7005B05DF839
:1014D00004FB00BF580C0024980B00249A99993EF5
:1014E000240C002404000024CC0B0024870D04905D
:1014F0007D0D0490CDCC4C3E2B48F6EE007A2B4B64
:10150000D0ED036A1B68F4EEE76A591C284BF1EE34
:1015100010FA93ED037A274BF0B51A683CDD0132DF
:101520000A2AA8BF0A22B4EEE77A23481A600368A1
:10153000F1EE10FA34DD01330A2BA8BF0A23052A85
:1015400003601E48D4BF00250125052BD4BF00240D
:101550000124052A0CDD027852B9194E3268013295
:1015600092FBF1F701FB172232600126154A167033
:10157000052B154A0DDD13785BB9114E3368013B1D
:101580000B4493FBF1F701FB1733012133600D4B43
:10159000197005701470F0BD013A22EAE272C2E7D8
:1015A000013B23EAE373CAE7FC0D0024A47B069009
:1015B000DC0D0024940B0024900B00248D0B0024E0
:1015C000487D00244C7D00248C0B002410B51B4862
:1015D000002411F09DFD1A4811F09AFD194811F0F0
:1015E00097FD194811F094FD184811F091FD184825
:1015F00011F08EFD174811F08BFD174811F088FD92
:10160000164811F085FD164811F082FD154811F0BD
:101610007FFD154811F07CFDE1B2144812F036F957
:10162000134B03EB840301340C2C83ED000AF3D13C
:10163000FFF762FFBDE81040FFF70ABFB80C0024B7
:10164000000D0024DC0C0024680E0024280D00246A
:101650001C0E0024400E0024940C0024580C00247E
:10166000FC0D0024DC0D0024BC0D0024600D0024C2
:101670009C0B00242E4BB6EE007AF0B5DC682D4BA7
:101680001C602D4BD9682D4B19602D4BDA682D4B02
:101690001A602D4B2D4AD8682D4B18602D4BDD68F4
:1016A0002D4B1D602D4BDE682D4B1E602D4BD3ED59
:1016B000036A2D4BDF682D4B1F602D4BD3ED007A55
:1016C0002C4B67EE877AE6EE877AC3ED007A02F557
:1016D000805303F68C1CCCF8007003F69417C7ED0A
:1016E000007A03F51967DFED247A3E6003F684166D
:1016F000356003F688152C6003F6981400252160E8
:1017000002F5CD54256003F6A414216003F69C1164
:1017100008601A4991ED037AB4EEE77AF1EE10FA17
:10172000CCBF0121002183F8A81900231370F0BD5C
:10173000B80C0024D80C0024940C0024B40C002411
:10174000000D0024200D0024DC0C0024605C00242B
:10175000FC0C0024680E0024880E0024280D0024B0
:10176000240D00241C0E0024400E0024600E0024D2
:10177000880B00243C0E00249A99993EBC0D00244D
:1017800038B5384C6FF0F413002504F1280065617A
:101790002562C4E90053C4E90233FFF7FFFA04F1FC
:1017A0003C00FFF7FBFA04F15800FFF7F7FA256752
:1017B0002D4A20462D490C2424F0C6F92C482A4AEB
:1017C0002C490560858024F0BFF92B4D2B4800F093
:1017D000ABF8254A2A49294824F0B6F92846143599
:1017E000FFF7DCFA013CF9D11F4A2649264824F0CC
:1017F000ABF91D4A2349254824F0A6F91A4A214984
:10180000234824F0A1F9184A1E49224824F09CF9E3
:10181000154A1C49204824F097F9134A19491F48D2
:1018200024F092F9104A17491D4824F08DF90E4A08
:1018300014491C4824F088F90B4A12491A4824F02C
:1018400083F9094A0F49194824F07EF9064A0D49DF
:10185000174824F079F9044A0A491648BDE8384087
:1018600024F072B9480D0024000000241B0D0490E0
:101870007C0F00241D0D04908C0E0024CC0B002442
:10188000C10D0490190D0490B80C0024000D002423
:10189000DC0C0024680E0024280D00241C0E0024FB
:1018A000400E0024580C0024FC0D0024DC0D002404
:1018B000BC0D0024940C002470B50C1A2411002CCB
:1018C000034616DD15680668AE4203D04668B54289
:1018D00001D1043070BD8668B54201D10830F9E706
:1018E000C6681030B54202D103F10C00F2E7013CAA
:1018F000E5E70C1A082C0ED00C2C07D0042C03D1D1
:101900001868126890420AD00846E3E70568146830
:10191000A542DFD004331C681068844201D1184608
:10192000D8E70433ECE7000000220B49C0E90412B9
:10193000002142630265816201644164074980F8C5
:101940005420816410B54FF07E54C0E90622C0E9EE
:101950000822C463C46410BD7856341200803B472B
:1019600070B5002386B004460E46049302AD8B6822
:1019700033B1022228469847F3680593B36804936D
:101980006A4604F12C0395E8030082E8030093E81B
:10199000030085E8030092E80300049A83E803004B
:1019A000636BA16B6263059A04930591A2631BB1FB
:1019B000032229462846984706B070BD002380F8C8
:1019C000541003657047D0E90520101A18BF012094
:1019D0007047B7EE007AD0ED007AC7EE276A90ED37
:1019E0000F7AC6EE877AC0ED137A704710B5F0EE25
:1019F000400A80ED120AB7EE000A044624F082F88D
:101A00000023204623646364BDE81040FFF7E1BF74
:101A1000DFED087AB4EE670A10B5F1EE10FA04466D
:101A200048BFB0EE670A24F07FF82046BDE81040BA
:101A3000FFF7CFBFCDCCCC3D07B5F0EE400A01900B
:101A4000B3EE0E0A24F0E4F9019803B05DF804EB5C
:101A5000FFF7DEBF0369024683EA433383EA534359
:101A600083EA43101061704713B5D0E905130446AB
:101A70008B4218D090F85420012A16D1FFF7EAFFC4
:101A8000D4E905239B1A9B10B0FBF3F202FB130071
:101A9000636B43B1636901A953F8203004F12C0052
:101AA0000193A36B984702B010BD5B1A026D9B10A7
:101AB000B2FBF3F003FB102001322265E8E7D0E926
:101AC000053270B59A4204460E4624D0436B13B3D8
:101AD0000025B5421FD0F7EE006A94ED127AC6EEEB
:101AE000877A94ED117A77EE877A94ED107AF4EE96
:101AF000C77AC4ED117AF1EE10FA0ADB2046FFF73F
:101B0000B3FFD4ED107A94ED137A77EE877AC4EDB3
:101B1000107A0135DDE770BDD0E90532934218BF78
:101B200083610023036570472DE9F84FD0E90089F0
:101B300093466FF06043A9EB080207468A46B3EB71
:101B4000A20F4FEAA20402D11E4824F024F8012C6F
:101B50002246A1EB080538BF0122A4182ED27CB37F
:101B60009C4228BF1C46A00024F004F80646DBF87F
:101B70000030002D735104DD2A464146304624F0E2
:101B800047FCA9EB0A090435B9F1000F354404DD1F
:101B90004A465146284624F02DFC4D44B8F1000F2A
:101BA00005D0B9684046A1EB080123F0D2FF06EB4F
:101BB0008404C7E90065BC60BDE8F88F1C46D2E725
:101BC0002646D4E7887B06909142F7B504460E4638
:101BD00039D081EA020500230193019A0B2A32DCF5
:101BE000012393402B429AB210D0164201AAD4E9A5
:101BF000050114D0FFF760FEA169814206D1E369B7
:101C0000994206D0019A41F8042BA161019B01334E
:101C1000E2E701AA04F11400FFF786FFF6E7FFF7F9
:101C20004BFE81420AD0031D8B42019F06D053F820
:101C3000042BBA42F8D040F8042BF5E7A36983429D
:101C400018BFA061E2E703B0F0BD00F5804310B516
:101C50000446D3F8B40B10B1102123F07AFF2046CC
:101C600010BD037813B1032B04D070470122C36366
:101C700002707047B7EE007AD0ED015A90ED026A1B
:101C80000123D0ED0D7A76EE076A0370A5EE867A11
:101C9000F8EE677A67EEA57A67EEA67AF0EE476A05
:101CA00087EEA67AF8FE477AFCEEE77AC0ED0F7A67
:101CB00070470378012B02D0022B14D07047D0ED6F
:101CC0000F7A90ED0B7AF8EE677A90ED026A67EE84
:101CD000877AB7EE007A77EE676AA6EE267AC7EEC5
:101CE000876AC0ED016A0023C36303230370704752
:101CF00003782BB104230370436883620023C3631A
:101D00007047000000F58C4238B550320446034657
:101D1000394919603949C3F848113949C3F80012E3
:101D20003849C3F850133849C3F888133749C3F802
:101D30000C143749C3F854153649C3F89816364978
:101D4000C3F818173549C3F8F8173549C3F81C19F3
:101D50003449C3F82C1B3449C3F8781C3349C3F801
:101D6000881E3349C3F82C1F3249C3F8801F03F57E
:101D70008C5314339342CBD104F58F4304F5914235
:101D800010332032012100254FF07C50443303F8FA
:101D9000431C002103F8445C43F8401C43F83C0C0E
:101DA00043F8380C43F8085C43F8041C9342E9D12B
:101DB00004F5804304F5914029461022C3F8B45B32
:101DC0002430C3F8B85B83F8BC5BA3F8BE5B44F671
:101DD000A003E55024F036FB04F595402946802207
:101DE000343024F02FFB04F596408022294634300D
:101DF00024F028FB204638BD607C0690747C069059
:101E00000C7E0690307E0690447E0690587E0690AA
:101E10006C7E0690807E0690947E0690BC7E069036
:101E2000D07E0690E47E0690F87E0690207F069095
:101E3000347F0690487F0690F8B500F58F4700F58F
:101E4000914600F58E4500F591441037203608354F
:101E5000243438462835FFF74BFF0023002244374F
:101E600006F8013BA64245F8282C05F81D3C05F86C
:101E70001C3CEED1F8BD000070B500F5804604466C
:101E8000D6F8B43B5BB9102023F074FE0B4A4FF434
:101E90008023C6F8B40B4260C3600260836004F51F
:101EA0008C455035204604F58C54D6F8B41B1434B8
:101EB00001F086FCAC42F5D170BD00BF000000C04F
:101EC0004D4B2DE9F0412DED0C8BB2EE00AAD3ED78
:101ED000007ADFED4A9AB6EE088A9FED49BA00F51E
:101EE000914727EE8AAADFED47AA27EE8BBADFEDEE
:101EF00046BA67EEAAAA9FED459A6AEE298A00F5CE
:101F00008C452AEE088A00F5914627EE899A2437F7
:101F100068EEA98A00F58F44BCEEC88A00F59143AB
:101F200067EEABBA6C35FCEEE88A2036B8EE488A2C
:101F30001134F7EE007A3433F8EE688AB84638EE9A
:101F40002A8A87EE89DA78EE8B8ABCEEC88AFCEEA4
:101F5000E88AB8EE687AC7EE87CAB8EE487A87EEA4
:101F600087CA002104F10F02C5ED219A18462960A5
:101F70002835C5ED1D9A85F8801006F8011BE7ECA1
:101F8000019A82ED00AA04F1130282ED00BA04F175
:101F90001702C2ED00BA04F11B02C2ED00AA04F15F
:101FA0001F0282ED009A04F1230282ED00DAE21DA5
:101FB000C2ED009A04F10B02C2ED009A18EE902ACD
:101FC0002170C4F8332018EE102AC4F8372004F129
:101FD0002B02C2ED00CA04F12F02443482ED00CA84
:101FE000802224F02FFA4645034603F18003B8D13E
:101FF000BDEC0C8BBDE8F081040000240000000063
:1020000017B7513917B7D138CDCCCC3E6F12033C3E
:1020100000F5804310B50446C3F8B81BFFF72CFF4A
:102020002046BDE81040FFF74BBF000070B500F53B
:10203000954504460E46802234350021284624F07A
:1020400001FA04F59643002180223433184624F027
:10205000F9F9002E0346134814BF04210121C901D8
:10206000A1F501712A46B2EC017A145E9A4207EE9C
:10207000904A00F10204F8EEE77A145F77EE877A6F
:1020800042ED017A07EE904AB8EEE77AD2ED1F7A78
:1020900077EE877AC2ED1F7AE5D180308842E1D1B0
:1020A00070BD00BFFCFDFFFF1368D2ED017A92ED19
:1020B000027ACB61D36877EE877A4B601369C1ED02
:1020C000007A8B605369D269CB6000230A624B624D
:1020D0000B614B618B617047DFED7E6AB7EE007A72
:1020E00013B5C1ED006AC1ED016AC1ED026AC1ED2F
:1020F000036AC1ED046AC1ED056A002B40F0E1807E
:10210000DFED754A92ED045AB4EEE40AF1EE10FAEE
:102110004CD5B2EE026AD2ED055A25EE866A26EE5D
:10212000006AC6EE247A77EEA57AFCEEE77ADFED58
:102130006B5AB4EEE50AB8EE676AC2ED0D7AF1EEBD
:1021400010FA87EE064A82ED0B4A42D535EEC06A98
:10215000DFED635A36EE256AF6EE005A36EE656A12
:10216000DFED605A66EE255A25EE866A60EEA04ADB
:10217000D2ED075A107882ED026A64EEA00AC2ED31
:10218000036AE0EE855AFCEEE55A15EE903AC2ED90
:102190000E5AF8EE655A87EE255A82ED0C5A04283D
:1021A0001CD8DFE800F019375558780060EE007A47
:1021B0009FED4D6AF6EE005A25EE066A67EE807ACC
:1021C00065EE255A67EEA57AF4EE005AE6EE257A1A
:1021D000ABE79FED406AC9E7C2ED016AD2ED017A33
:1021E000CDED016AF5EEC07A8DED007AF1EE10FAD0
:1021F00054BF043201AAD2ED007AF4EEC77AF1EEB0
:1022000010FAC8BF6A461368CB61012381F82430F5
:1022100002B010BDD36BB0EE475A17EE900A05EE30
:10222000903A8342F8EE655A65EE845A77EE654A35
:10223000A6EE245A85EE856A82ED016A3FD3537873
:10224000002B0CBF0323022313700023D363C5E7C5
:1022500082ED017AC2E7D06B07EE900AF8EE677A5A
:1022600067EE857A08B95468146437EE676AD2ED70
:10227000105A984226EE256AF0EE475AE7EEA65A23
:10228000C6EE257AC2ED017A02D300231370DDE792
:102290000130D063A2E7D36BD2ED095A07EE903A32
:1022A000B8EE676AD2ED0A7AE6EE657AC2ED017A97
:1022B000D2ED087AB4EEE76AF1EE10FAE5DA01330E
:1022C000C4E7002381ED077A81F82430012381F8E7
:1022D00023309DE700000000CDCCCC3D9A99993E7B
:1022E0003333333F000000436F12033B0BB91378C5
:1022F0000BB900238B617047032908D800EBC1108C
:102300008022002100F59140343024F09BB87047C2
:102310000329F8B504460E4628D8421844F6A0030F
:10232000D35C1BB3282344F26C6203FB01039F5868
:10233000072F0BDC442505FB010505F58F451035FE
:102340002846FFF7D5FC2846FFF78BFC28214FF0E5
:102350007E52072F01FB064404F58E439A6003F179
:102360000803C2BF012244F21373E254F8BD000017
:102370000B68072BCCBF012300232DE9F04F054646
:102380000C462DED088B0BEE103A8BB000F38980D4
:1023900091ED080ADFED557AB4EEE70AD1ED097A3E
:1023A00067EEA78AF1EE10FA68EEA78A4ABFB6EE8A
:1023B000008A20EE008A20EE088A28EE008AF3EEDA
:1023C000087A94ED047ABAEE089A05F58C4605F57C
:1023D000914905F5914A05F58F48D4ED059AA7EE88
:1023E000279A94ED06AAD4ED07AA503609F13409CC
:1023F0000AF1240A08F110080027D4F808B0BB45F8
:1024000054DD236806F1A00B02AA31460293284648
:102410005AF8043BF0EE680AB0EE480A8DED049AD3
:102420000393237BCDED059A8DF82030CDED06AAE0
:102430008DED07AACDED098AFFF736FE1BEE103AA7
:1024400042465946FFF748FE237963B9237B53B9C7
:1024500005F5914205F580432846203293F8BC3BB0
:102460003A44FFF743FF202341F294105A46314685
:1024700000934B4600FB075000F0D6FE23794BB982
:10248000237B3BB9F369072B04DD1FB905F58E43A8
:1024900000229A600137283609F1800908F14408C2
:1024A000ABE7DFED138AB0EE688A88E75C46032C61
:1024B00005DC214628460134FFF71EFFF7E705F546
:1024C000804696F8BC3B5BB10024A34505DD214660
:1024D00028460134FFF71CFFF7E7002386F8BC3BD2
:1024E0000BB0BDEC088BBDE8F08F00BFCDCC4C3EEF
:1024F0000000000038B50D460446FFF739FF297982
:102500002046FFF793FD2B7B43B104F58044002266
:1025100004F5E1631A60002384F8133738BD2DE910
:10252000F04100F5914700F58F4600F58E4500F526
:1025300091442037103608353434B8463046443696
:10254000FFF7D6FB00210023204607F8011B80225D
:102550002B608034E972283505F81C1C23F072FFCB
:102560004645EBD1BDE8F08103292DE9F84F04463B
:102570000E462DED028B67D800F58F4700F58E458E
:102580004FF0000810370835BA4646450DD004F51F
:1025900091434FF000093846203303F80890FFF7C5
:1025A000A7FB002385F80B902B6008F10108443746
:1025B0002835B8F1040FE8D104EB060944F6A00869
:1025C0009FED298A04F5804519F80870002F3FD047
:1025D000012344F2907B05F5F26085F8A03806F5FA
:1025E0009153083304EB83035A6805F6A4031A6079
:1025F000442202FB06FA04EB0A01594423F0FAFED6
:10260000282105F5E1630AEB0B0001FB0646204497
:1026100006F58E47BA68F9681A6044F21372B35C23
:1026200085F8133705F20C73196044F21473F35CE8
:1026300085F81437002509F80850FFF759FB44F2D4
:10264000137287ED028AB554BDEC028BBDE8F88F9A
:10265000504685F8A078FFF74BFB05F5E16383ED65
:10266000008A85F81377EFE700000000032970B4B3
:10267000CCBF00250125032ACCBF002401249142B0
:102680001AD000F580430126A54283F8BC6B13D015
:1026900003290BDC032A09DD00F5914300212033D7
:1026A00013F8012B2AB901310429F9D170BCFFF7C5
:1026B00036BF70BCFFF758BF70BC704700F5804054
:1026C000B0F8BE0B704700F58040A0F8BE1B704705
:1026D00000F5914300202033884204DA13F8012BDF
:1026E0001AB10130F8E74FF0FF30704738B500F508
:1026F00080434FF07E5503F6A40203F5E16482EDBA
:10270000000A012283F8A028256011B183F813275D
:1027100038BD00F58F4083F813171030FFF7A1FA8A
:10272000F6E7000010B5DAB100F5914100F59142ED
:1027300000202431203298422ADA12F8014B64B189
:10274000D1ED007A9FED147A77EEC07AF0EEE77A59
:10275000F4EEC77AF1EE10FA19D401300431EAE749
:1027600000F5804090F8A03893B100F6A400D0EDB9
:10277000007A37EEC00ADFED087AB0EEC00AB4EE98
:10278000E70AF1EE10FA54BF4FF0FF30002010BD01
:102790004FF0FF30FBE700BFCDCCCC3D2DE9F04F33
:1027A000072B85B004461F469DF83880D8BF4FF0F0
:1027B0000009DDF83CB0C8BF4FF00109DFF810A1F7
:1027C0000025CDE90112019A029B42FA05F6BAEC06
:1027D000010A2B4116F0010603F0010334D043BB7C
:1027E000B8F1000F2BD059462046FFF771FF411C6E
:1027F0001FD000F5915322180121083304EB830305
:1028000083ED010A44F6A003D15428234FF07E51F2
:1028100003FB004303F58E42916044F2137203F808
:102820000290442303FB004000F58F401030FFF777
:1028300018FA01350C2DC6D105B0BDE8F08F494618
:102840002046FFF753FFF4E7002BF2D0B8F1000F5A
:102850001DD05B46012239462046FFF763FF421C2C
:102860000346E6D02118442044F6A002039300FB5F
:1028700003408E5400F58F401030FFF71AFA2820DD
:10288000039B44F2137200FB03439E54D1E704F50B
:10289000804696F8A038002BCBD006F6A4039FED17
:1028A0000B7AD3ED007A77EEC07AF0EEE77AF4EEA9
:1028B000C77AF1EE10FABCD504F58F4086F8A088EF
:1028C0001030FFF7F6F986F81387B2E7CDCCCC3D90
:1028D000A87B06900B29F0B5164689B030D8194B65
:1028E00000F580450127009603EB810105F6A4025F
:1028F0008DF818700B6800F58C411360503101930E
:1029000000236A4685F8A07802934FF07C53039326
:10291000049305930C4B1B680793FFF7C5FB05F564
:10292000E1634FF07E52072E1A6085F8137707DCBB
:10293000002300F58F4085F891371030FFF791F9AB
:1029400009B0F0BDA87B0690200D002400F591424F
:1029500000F591432032243312F8010B08B99A4252
:10296000FAD1704710B5054C2046FFF7CBF9204649
:10297000034A0449BDE8104023F0E6B8880F00245C
:10298000000000244B1C04907047000008B5FEF7BF
:102990001DFEFEF76FFE0C4B1B782BB10B4B0C484A
:1029A00093ED000AFFF748F80A4BB6EE007AD3ED34
:1029B000007A094B67EE877AD3ED006AE6EE877AF4
:1029C000C3ED007A08BD00BF240C0024D80C0024FD
:1029D000CC0B0024880B00243C0E00242DE9F0438E
:1029E0009846274B164685B01B6804460D46DFF80F
:1029F000A090032B0360CCBF00220122042B0A709D
:102A0000B4BF0423012333601E4B1B7803F0FF0780
:102A10004BB999F8003033B11B48FFF70DFA39462E
:102A20001948FFF750FE88F80070DFF868801648F4
:102A3000B8F8001089F8007089B203919FB1FFF7D0
:102A40003DFE039902461148FFF7BEF820210F48CA
:102A5000FFF735F8B8F800100B4889B205B0BDE8AB
:102A6000F043FFF730BEFFF729FE336802460399B3
:102A700001932B78044800932368FFF78FFEE9E762
:102A8000487D0024240C0024880F0024CC0B002453
:102A90004C5B0024840B002400B58DB08DF80C3005
:102AA000104B00901B688DF80410694604930E4B80
:102AB0000E481B68029205930D4B1B6806930D4B45
:102AC0001B6807930C4B1B6808930C4B1B680993FE
:102AD00000230A930A4B1B680B93FFF70BFD0DB005
:102AE0005DF804FB600E0024240D0024880F0024F0
:102AF0003C0E0024880E0024FC0C0024200D002431
:102B0000880B002438B580B1D1ED007A9FED1C7A96
:102B1000F0EEE77A1B4BD3ED006A67EE877A9FED04
:102B20001A7AE6EE877AC3ED007A184C184D2378AE
:102B3000BFF35B8F13F0010F15D1204623F00BF884
:102B400088B1144B20469FED147AD3ED007A67EEDE
:102B5000877AB0EE087A67EE877AFCEEE77AC5ED01
:102B6000007A23F004F80D4A2968136801338B4278
:102B7000136004D3002313600122094B1A7038BD7F
:102B80000AD7233C640E0024A4707D3F485B0024D8
:102B90005C5C0024040000240000003D585C00241C
:102BA000840F002438B505460C46264800232649E4
:102BB000B5EE007AF0EC017A67EE877A9FED237A22
:102BC000F4EEC77AF1EE10FA32DC9FED217AF4EEE2
:102BD000477AF1EE10FA48BFF0EE477AFDEEE77A59
:102BE00001330431202B17EE902A12B221F8042C65
:102BF00021F8022CDCD1174A134917480CF040FD8C
:102C00002A460023A34202F1080214D258081149AF
:102C10009FED127A023331F9201007EE901AFAEE86
:102C2000E87A67EE877A42ED027A42ED017AE9E7C7
:102C3000F0EE477AD2E729462046BDE83840FFF754
:102C400061BF00BF3C5A0024585B002400FEFF46D1
:102C5000000000C7D85B0024605C00243333333F9E
:102C60002DE9F04385B016460D4613F097F8384B22
:102C70001A68824202D01860FFF788FE354F13F0C1
:102C80008FF8354C3B78A06083B1DFF8D890DFF83F
:102C9000D880D9F80020D8F800103048FFF7E6FCBB
:102CA000D9F80030C8F8003000233B700DF107035D
:102CB00003AA0DF1060102A8FFF790FE9DF8073068
:102CC000039A9DF806100298FFF7E6FE3146284663
:102CD000FFF768FF22480DF015F913F061F8A368BB
:102CE00094ED017AC31A07EE903A2378F8EE677AEA
:102CF00067EE877A53B10023C4ED057AC4ED037AF9
:102D0000C4ED047A237005B0BDE8F08394ED047A35
:102D1000D4ED066AF4EEC77A94ED037A94ED056A71
:102D2000F1EE10FAF4EEC77AB7EE007AC8BFC4ED40
:102D3000047AF1EE10FA37EE667A48BFC4ED037AF2
:102D400027EE067AA7EEA67A84ED057ADBE700BFC8
:102D5000505B00244C7D0024780C0024880F002454
:102D6000605C0024487D0024545B0024024A03492F
:102D7000034822F0E9BE00BF000000248929049026
:102D8000605C002410B5002386B00A4664218DF8EB
:102D9000173001230446CDE901310DF117010091EF
:102DA000017911F0A1FB6379002818BF43F00103FA
:102DB0009DF81700637106B010BD0C2903D81E31B1
:102DC000C9B2FFF7DFBF0020704710B50A4686B0D2
:102DD000022364210446CDE9013105AB00930123B0
:102DE000017911F081FB6379002818BF43F00103DA
:102DF0000CBFBDF814000020637106B010BD0021A7
:102E0000FFF7E3BF0C2905D80231490001F0FE01AC
:102E1000FFF7DBBF002070470B2970B506460D4653
:102E20000AD8FFF7EFFF044629463046FFF7C5FFF3
:102E3000C4EB800000B270BD0020FCE710B586B086
:102E4000012304468DF814206422CDE9013205AA3D
:102E500000920A46017911F06DFB6379002818BFD2
:102E600043F00103637106B010BDF8B541240F466D
:102E700016465E2100220546FFF7E0FF21463A464E
:102E80002846FFF7DBFF611C02343246C9B22846F0
:102E9000E4B2FFF7D3FF592CF0D128468F225E21F0
:102EA000BDE8F840FFF7CABF38B50B7D04460025E2
:102EB0005B00037111F058FA63228021204665718E
:102EC000FFF7BCFF012012F071FF5D212046FFF7E4
:102ED00059FF242803D001232846637138BD2A46B0
:102EE0005E212046FFF7AAFF042208212046FFF7B3
:102EF000BCFF01222B212046FFF7A0FF03222C213B
:102F00002046FFF79BFF10222D212046FFF796FF5A
:102F100020222E212046FFF791FF01222F2120465B
:102F2000FFF78CFF032230212046FFF787FF102296
:102F300031212046FFF782FF202232212046FFF771
:102F40007DFF012233212046FFF778FF052234213F
:102F50002046FFF773FF2A4635212046FFF76EFF14
:102F600022225B212046FFF769FF3F225C21204699
:102F7000FFF764FF2A465D212046FFF75FFF2046EA
:102F80008F225E21FFF75AFF607980F00100A5E7EC
:102F900040797047002343717047000038B5054CF5
:102FA000256825B9042022F0E5FD05602060206831
:102FB00038BD00BF507D0024DFED0E7A0E4A30EEA2
:102FC000270AFDEEC07AB8EEE77A17EE901A30EED7
:102FD000470ABEEECC0A10EE103A02EB8302074B12
:102FE00003EB810392ED000AD3ED007A20EE270A6D
:102FF000704700BF0000004324560890285A0890EC
:1030000090ED007AF7EE006A30EE470A27EE076A85
:1030100076EEC77AB5EEC00A26EE066A67EEA77AA4
:10302000F1EE10FAD4BF76EEC65ADFED110A76EE55
:10303000E76AD8BFE5EE810ADFED0E5AE6EEA17A27
:10304000A0EE807A80ED007A80ED017A9FED0A7A19
:10305000A6EE257A9FED096AA1EE867A80ED027AC6
:1030600027EEA17A67EE217AC0ED037A704700BFA0
:103070009A99193F9A99993EA69B443B0AD7233DBA
:10308000064A00238260064A4360C2608361054AA3
:1030900043614FF07C5302610360704722BA003DE8
:1030A0000AD7233CCAAA7F3FB5EEC00A70B5F1EE3D
:1030B00010FA049C34D5F1EE405A26461546013EDE
:1030C000B7EE000AB6F1FF3F2AD0D5ED007A90EDB9
:1030D000007A65EEA77A9FED4E6A9FED4E5AF0EEAC
:1030E000E76A76EEC76AF5EEC06AF1EE10FA36FED0
:1030F000056AA6EE867AB4EEC07A80ED007AF1EE2B
:1031000010FA88BFC0EE076A9FED437A98BFF0EED1
:10311000406A67EEA67A67EE877AE5EC017ACEE739
:10312000DFED3E7A059D20EE270A6D0000295ED175
:1031300090ED016A07EE904AF0EE045AB0EE467A3E
:10314000F8EE677AC0ED035A90EE207AC7EE273A80
:103150009FED337ADFED337A21EE077AE1EE077ADD
:10316000B7EE007A21EE271AF0EE477A80ED021AC8
:10317000E1EE257AE1EE017AC7EE274AC0ED044A76
:10318000013C31D3D0ED056A36EE236AB2EC015A28
:1031900025EEE67AD0ED067AA5EE067AA1EE667AFD
:1031A00037EE677A27EE247AE1EE076AE1EE267AB7
:1031B000B0EE664AA1EE074AB0EE677AA1EE267A33
:1031C00080ED054A80ED067AB0EE677A95EE067AD4
:1031D000E1EE877AFDEEE77A17EE901A013101F3FE
:1031E0000F0119802B44CBE780ED016A70BD013CD3
:1031F000FCD3F2EC017A60EE277AFDEEE77A17EE67
:10320000901A013101F30F0119802B44EFE700BF41
:10321000CDCC4C3DACC5A737CDCC4C3F00FEFFC656
:10322000D7573941DB0F49402DE9F04F0446154689
:1032300090690E4604F5805994F8D4BF04F6D87A04
:103240002DED088B8FB09FEDE5BAF7EE008ADFED2C
:10325000E4AA0393D9E9043202EB8301073303F0B4
:1032600007030860591DC9F81030063301F0070143
:1032700003F0070302EB810102EB8303D1ED007A37
:1032800093ED007A04F6CC7337EE677AE7EE0B7AAB
:10329000BBF1000F40F00E82F4EEEA7AF1EE10FA84
:1032A0000BDD012195F8240084F8D41F08B984F8B7
:1032B000EC1F2968CAED008A196095F8231009B936
:1032C00029681960D9F89000B6EE009AD3ED006A2B
:1032D000411ED4F8C43F07EE901AB8EEE77AD6ED57
:1032E000077AF8EEE77AE6EE877A07EE103AF5EE1F
:1032F000006AB8EEC77AF4EEC77ABDEE007AF1EE56
:1033000010FA37FE267A77EE877A77EE897AFDEE25
:10331000E77A17EE907A002FC0F2D781B842D8BF73
:103320000F4609EB8703C4F8C47FD3F85080D4F864
:10333000C83FBB4208D0D8F8003040465B68984789
:1033400089ED069AC4F8C87F94F8D43F0BB18BF08E
:10335000010304F57D62D5ED017A95F8239092ED95
:10336000008AC2ED007A37EE888A28EE098AB9F120
:10337000000F00F0AC81DFED9B7AB0EE009A96ED85
:10338000080A8DF8203020EE270AFFF715FEDFED42
:10339000960AF0EE685ADAED007A60EE209A9FED18
:1033A000937A95F82430E9EEC95AB1EE69AA65EE30
:1033B000A75AD5ED077A27EE877AF0EEE77ACAEDBD
:1033C000005A77EEAA7AC7EE27AADFED897A95ED43
:1033D000037AF5EEC0AAF1EE10FA48BFDFED7FAA3E
:1033E000002B47FEAA7ACDED0D7AD6ED017A77EE65
:1033F000877AF5EEC07AF1EE10FA40F16A818DED30
:103400000CBA072F40F06E81F1EE087ADDED0C6A00
:10341000B0EE497AA6EEE77AB5EEC07AF1EE10FA90
:1034200000F16381B4EE687AF7EE007AF1EE10FAFB
:1034300037FE877AD6ED046A27EE257A9FED6D4A2E
:10344000B0EEE66AD6ED007ADFED6B3A95F8203003
:1034500078EE277A36EE446A95ED025AB4EE446A65
:10346000F1EE10FA48BFB0EE446A26EE866A26EE08
:10347000236A4BB9B9F1000F00F03A8127EE255AC3
:10348000DFED5E6A25EE265AE6EE057ADFED5C6A30
:10349000F4EEE67AF1EE10FA00F12D81DFED596AD3
:1034A000F4EE667AF1EE10FA76FEA77A96ED056AEA
:1034B000DFED506AB0EEC65A95F82130CDED097AAD
:1034C000D5ED044A35EE445AD6ED027AB4EE445AAC
:1034D000F1EE10FA48BFB0EE665A26EE056A26EE07
:1034E000236A2BB9B9F1000FDFED3C4A44FEA54A2F
:1034F000E6EE247AF5EEC07AF1EE10FA00F1FE80E5
:10350000F4EE687AF7EE006AF1EE10FA76FEA77A2A
:10351000D6ED066A9FED375AB0EEE66A95F822308E
:10352000CDED0A7AD5ED055A36EE446AD6ED037A2A
:10353000B4EE446AF1EE10FA48BFB0EE456A66EEAA
:10354000866A66EEA36A2BB9B9F1000FDFED235A44
:1035500045FE875AE6EEA57AF5EEC07AF1EE10FA4E
:1035600000F1CF80F4EE687AB7EE007AF1EE10FA4F
:1035700077FE277A98F80C300DF11F0204F5845974
:1035800004F5885A8DF81F3008A9D8F8003009F1E1
:10359000140901920AF1140A209A4046CDED0B7AE3
:1035A00000924A469F685346B8479DF81FB004F6FC
:1035B000DC77BBF1000F50D195F8243023B995F892
:1035C0002320002A00F0EA80B2EE080AD6ED091A9C
:1035D000DFED0D7A96ED087A24E000BF00000000D0
:1035E0009A99993E0000C0C2CDCC4C3E6666A63F7B
:1035F000CDCC4C3FCDCC4C3D6666863F0000404272
:103600000000EEC20000F042000090C20AD7A33CC6
:10361000CDCCCC3D000000C30000FE42519696394F
:103620000000000021EE800A0593CDED041AA7EEFC
:10363000270AFFF7C1FCB0EE4A1A5FED0C7A059B32
:10364000A0EE271ADDED041A002B5DD0F0EE690A1A
:103650003846B0EE6A0AFFF7D3FC0225209B04F53A
:1036600080504A460093594601951830039BD7ED88
:10367000031A97ED021AD7ED010A98ED010AFFF738
:1036800013FD209B04F58150019500935246039B46
:103690005946D7ED031A14302B4497ED021AD7ED93
:1036A000010A98ED020AFFF7FFFC0FB0BDEC088B92
:1036B000BDE8F08F1FED2A7AF4EEC77AF1EE10FA2A
:1036C00044BF002184F8D41FF7E5002729E6022330
:1036D00051E6F4EEE87AF1EE10FA78FEA77ACDED35
:1036E0000C7A8EE6B7EE007AA4E61FED337AA1E6F7
:1036F000B7EE005AC8E6F0EE667AD7E65FED387AA4
:1037000006E75FED397A35E7B2EE020ADDED097AB8
:1037100037EEC00A5FED417AB4EEE70AF1EE10FA37
:103720002FD45FED437AB4EE670AF1EE10FA37FE5C
:10373000800A94F8EC3F0BB38DED051ACDED041A19
:10374000FFF73AFCDDED207ADDED041AB8EE677A7A
:103750005FED4E7A9DED051A20EE270A67EE007A9E
:1037600097ED000AA7EE890AB4EEE80AF1EE10FA26
:103770000ADB0023C7ED008A84F8EC3F1FED580AEE
:1037800004E0B0EE670AD4E787ED000AF0EE690ABC
:1037900038464FF0000BFFF733FC5EE74FF0010BAC
:1037A0005BE700BF036C0F2B08DC40F823100133EC
:1037B0000A7381ED010AC1ED020A0364704700003B
:1037C0002DE9F04100F582550026DFED740A00F581
:1037D000805810350446B0EE600A32460F46C8F8ED
:1037E000906000F688612846FFF7DCFFDFED6C0A89
:1037F0009FED6C0A324604F62C712846FFF7D2FF83
:10380000DFED670A324604F55471B0EE600A2846CF
:10381000FFF7C8FFDFED620A9FED620A324604F54A
:1038200062712846FFF7BEFFDFED5C0A3246214693
:10383000B0EE600A2846FFF7B5FFDFED590A3246C1
:1038400004F57861B0EE600A2846FFF7ABFFDFEDC4
:10385000530A324604F50071B0EE600A2846FFF7BD
:10386000A1FFDFED4E0A9FED500A324604F61C110F
:103870002846FFF797FFF7EE000AB8EE080A32462F
:1038800004F678412846FFF78DFFFFEE000A324626
:1038900004F5D3612846B0EE600AFFF783FFF7EE28
:1038A000000AB8EE000A324604F5E3612846FFF745
:1038B00079FFBFEE000ADFED390A012204F62C3150
:1038C0002846FFF76FFFBFEE000ADFED340A012242
:1038D00004F254512846FFF765FFDFED300A01225C
:1038E00004F5A471B0EE600A2846FFF75BFFDFED38
:1038F0002B0A012204F5FF61B0EE600A2846FFF7AB
:1039000051FFDFED260A012204F20C41B0EE600AFD
:103910002846FFF747FFD8F890309E420BDA7B68C5
:10392000394655F8040B01363B60FB68BB60036801
:103930001B689847EFE74FF0FF330025002604F59A
:103940008050C4F8C83F04F6CC731830C4F8C46F74
:103950001D60FFF795FB04F581501430FFF790FBD5
:1039600004F6D8734FF07E5204F57F601D6004F6B4
:10397000DC7331465A604FF07C521D609A60202201
:10398000DD6004F57D6384F8D46F1D60C8F8140011
:1039900022F058FDC8F81060BDE8F081CDCC4C3F56
:1039A0009A99193F3333333F333333BF704710B5E0
:1039B000044690220021B83022F044FD04F118039F
:1039C000C03400221846002143F8082C43F8042C88
:1039D000302222F037FD034638339C42F1D110BD2E
:1039E00060EE200AFDEEE07A17EE903AF8EEE77A04
:1039F00000EB830070EEE70A90ED000A90ED017A8B
:103A000037EE407AA7EE200A7047FDEEC07AF8EE56
:103A1000E77A30EE670A60EE200AFDEEE07A17EEF4
:103A2000903AF8EEE77A00EB830070EEE70A90ED4B
:103A3000000A90ED017A37EE407AA7EE200A70472F
:103A4000F8B52DED088BB7EE008ADFED369AB6EEAD
:103A5000009A0E46F0EE60AA1446C8EE207A1F4681
:103A6000002571EE086AB0EE41AAB0EE69BA77EEB1
:103A7000C87A87EEA67A07EE903AF8EE677A77EE84
:103A8000C87A29EE479A77EE877AA7EE809ABD42E8
:103A900032D007EE905ADFED240A2448F8EEE77A98
:103AA00077EEC97AF0EEE77A67EEAA7A38EE677AAF
:103AB000B0EEC70A30EE070A60EE008AB5EE000AE3
:103AC000AAEE270AFFF7A1FF54F8252030EE080AD6
:103AD000013506EB820220EE280AD2ED007AB0EE24
:103AE000677A20EE000A90EE007AE7EE0B7A79EE24
:103AF000A79AC2ED007ACAE788EE297A224604EB3B
:103B00008505AA420AD052F8043B06EB8303D3EDA5
:103B1000007A67EE877AC3ED007AF2E7BDEC088B96
:103B2000F8BD00BF6F12833A000080442042089025
:103B3000F0B52DED048BF6EE008A07EE903A90ED8D
:103B4000018AA5B0B8EE677A0446B4EE680A6D46FD
:103B500017461E4608302B46F1EE10FA4FF00002D1
:103B600028FE800A70EE487AC7EE879A0132186004
:103B7000B1EC016A0C3307EE902AF8EEE77AF6EE24
:103B8000006AB7EE009A67EE807AF0EE005AF4EE23
:103B9000687AF1EE10FA66FEA77AF0EE496A0C2A0E
:103BA000E7EEE56AF0EC017A43ED027AD6EE267A8A
:103BB000C7EE876A43ED016AD8D1013E38D338EEAB
:103BC000298AD4ED007ADFED220A224878EE277A9E
:103BD000F4EEC97AF1EE10FAA8BF77EEC97AC4ED17
:103BE000007A94ED000AFFF7FBFE30EE000AB7EE14
:103BF000006A2B460022DFED186A60EE287A93ED0A
:103C0000017A0132D3ED025A0C330C2A37EE257AB1
:103C1000E7EE276A03ED027AB1EE467AB0EE676A04
:103C2000A0EE277AF0EE477AE9D1E7EC016AC4E723
:103C30000C2384ED018AD5F88420013BD5F8881047
:103C4000A5F10C051160F6D125B0BDEC048BF0BDDB
:103C5000000080442042089000000000B6EE007A88
:103C600007EE903AF0B5B4EE470A0446F8EE676AFC
:103C700017461E460830F1EE10FA4FF00D022DEDFA
:103C8000068B10ED018A27FE000AA5B070EE487A77
:103C90006D46C7EEA6AA2B4607EE902A1860F1ECF7
:103CA000015A01320C33F8EEE77AB6EE006AF7EE0D
:103CB000009A67EE807AB0EE005AF4EE477AF1EEA1
:103CC00010FA66FE277AB0EE696A192AA7EEC56A6D
:103CD000F0EC017A43ED027AD5EE867A87EEA66A99
:103CE00003ED016AD8D1013E50D338EE2A8AD4EDD3
:103CF000007ADFED2E0A2E4878EE277AF4EEE97A84
:103D0000F1EE10FAA8BF77EEE97AC4ED007A94EDEF
:103D100000AAB0EE4A0AFFF763FEF2EE087A70EEF0
:103D2000008ADFED220AB5EE000A2148AAEE270A32
:103D3000FFF76BFEB0EE409AB2EE0A0ADFED1B0A07
:103D40001B482AEE000AFFF760FE2B4600229FED7B
:103D5000197AD3ED017A0132D3ED026A0C330C2AC1
:103D600077EEA67AA7EE807A43ED027AF1EE497AF1
:103D7000B0EE409AE8EE807AB0EE670AE9D1F7EC4F
:103D8000017A77EE877A47ED017AACE70C2384ED70
:103D9000018AD5F88420013BD5F88810A5F10C05DF
:103DA0001160F6D125B0BDEC068BF0BD000080445B
:103DB0002042089000000000B2EE027AD1ED017AB4
:103DC000F0B577EEC77A9FED4A7A044615461E464F
:103DD000F4EEC77A2DED028BF1EE10FA85B00C9F50
:103DE00000F182809FED437AF4EE477AF1EE10FA0B
:103DF00077FE277A9FED407AB3EE001A3F4A77EEBE
:103E0000877ADFED3F0AD1ED028ABDEEE77AB0EEA8
:103E1000680AF8EEC76A17EE100A9FED3A7A77EE55
:103E2000E67AD1ED046A26EE811AFEEECC7A21EE16
:103E3000261A17EE903A02EB8302334B8DED031AEC
:103E400003EB800392ED008A2046304AD3ED007ADE
:103E5000182328EE278ADFED2E7A28EE278AF7EE40
:103E6000007AE6EEC77A91ED037A04F1B801019188
:103E700067EE877A9FED277A27EE877A27EE277AF3
:103E8000E7EE270ACDED020AFFF7DAFDB0EE480AA9
:103E90003B462A46019904F11000FFF749FEB0EEB7
:103EA000480A3B462A4604F1E80104F14800FFF7BE
:103EB000D5FE04F58C71B0EE680A9DED031ADDEDB8
:103EC000020A20460823144A0191FFF7B9FDB0EE1B
:103ED000480A3B463246019904F18000FFF728FE6C
:103EE00005B0BDEC028BF0BDF0EE477A82E700BF73
:103EF000000000C30000FE4200000043245608906A
:103F00000AD7233C9A99193F285A0890F87B0690C3
:103F10005196963952B8FE3FD87B06907047000004
:103F2000A0EE810A254BB6EE007AF7EE006AF1EEBC
:103F3000005AFDEEC07AF8EEE77A70EE677AF4EE9A
:103F4000C77ABFEE007AF1EE10FA54BF36EEE76A98
:103F5000B0EE676AA6EE257A37EE076AB0EEC77A4A
:103F600037EE267A76EEC16A86EE070AB6EE087A52
:103F700077EE877ABDEEE77AB8EEC77A77EEC77A42
:103F80009FED0F7A67EE877ABDEEE77A17EE102A7B
:103F900006EE102A03EB8201B8EEC66A91ED007AB4
:103FA00077EEC67A91ED016A36EE476AA7EE867A19
:103FB00037EE407AA6EE870A704700BF204208908D
:103FC00000008044F8EE087AB4EEE70AF1EE10FA49
:103FD00017D4F0EE087AB4EEE70AF1EE10FA13DC2B
:103FE000F3EE0B7AF2EE026AB0EE677A60EE266AC2
:103FF000A0EE007AE0EE267A20EE077A87EE270A16
:104000007047BFEE000A7047B7EE000A7047000025
:10401000044B0360044B4360044B83600023036143
:10402000C360704722BA003D0AD7233CCAAA7F3F2B
:1040300070B50025002604468561C56105624562AC
:104040008562C56205634563C0E904663830FFF7E1
:10405000DFFF04F18C00E56425656565E56525668F
:10406000A5656566A5662567E566C4F88050E567C1
:10407000C4F88450C4F88850C4E92A66FFF7C8FF22
:10408000094BC4F8A050C4F88C304FF07C53C4F8EE
:10409000A450C4F89030054BC4F8B050C4F8943024
:1040A000C4F8B45070BD00BF6BDD083FC1D3243FDE
:1040B0002DE9F0412DED0E8BB0EE40AA9FEDBE0A2A
:1040C000DFEDBE7AF0EE41CA21EE800A0446C7EE6B
:1040D000A09A0D4690461E46DFEDB9DA149FB0EE69
:1040E00060CAF0EE61AAF0EE428AB0EE629AFEF784
:1040F00063FFDFEDB47AB7EE00BA20EE278A9FEDBA
:10410000B20A2CEE800AFEF757FFF1EE007AB5EE08
:10411000001A6CEE277A7CEE81CA67EE80BA6CEEEC
:10412000ADCAF4EE4BBAF1EE10FA7BFE2BBAB8F141
:10413000000F0DD0B1EE0C7AC023F0EE087A2022E9
:10414000C4E90023EAEE077A0023E361C4ED037AB1
:1041500094ED09DA07EE907AB0EE4D7AF8EE677AD0
:104160009AEE8A7A87EE27EA013FC0F01F81226823
:10417000002A00F0BD80013AD4ED037A22600AB92A
:1041800077EECB7AD4ED04AA002D9FED907AC4EDA2
:10419000027A47FE877AB5EE047A77EEEA6A9FEDF7
:1041A0008C6AE6EE87AADFED8B6AC4ED04AA77EE8F
:1041B000EAAAE7EEA6AAF5EEC0AAF1EE10FA09DA2D
:1041C0007AEEAAAA6AEE866AF0EEEAAA7AEE8B7A0C
:1041D000C6EEA7AA6268002A00F09180013ADFEDDE
:1041E0007E6ADFED7A7A002A626046FEA77AF7EEF1
:1041F000006AC4ED067A002DDFED747AD4ED075A1B
:1042000046FEA76AD4ED057A76EEE76AE6EE877A8F
:10421000F2EE046ABFEE007AA5EEA67AC4ED057A46
:10422000B5EEC07AF1EE10FA09DA37EE077A67EEEA
:10423000065AB0EEC77A77EE0B6A85EEA67ADFED06
:10424000676A67EEA66AF0EE4B7A37EE067AE6EE1C
:10425000A87A27EE2D7AE7EE097A67EE8C7AF5EEEA
:10426000C07AF1EE10FA55D49FED5D7AF4EE477AFC
:10427000F1EE10FA77FE277A002D4ED0B6EE007AD6
:10428000DFED580A3DEE0EDA5748F4EE477AF1EECC
:1042900010FA67FE277A94ED0F7A77EE877AF4EEBC
:1042A000CB7AF1EE10FAA8BF77EECB7AC4ED0F7A95
:1042B000D4ED0FEAB0EE6E0AFFF792FBDFED490A8C
:1042C0002DEE00AA4948B0EE6E0AFFF789FB2DEEED
:1042D000000A84ED070AACEEAAAAD4ED087A3AEEF9
:1042E00067AAEAEE2B7AC4ED087AE6EC017A3BE79E
:1042F000B6EE0B7AD4ED027A67EE877A42E7D4ED18
:10430000067ADFED3B6A67EEA67ADFED306AC4ED30
:10431000067A70E7DFED2D7AAEE7DFED366AB0EEB4
:104320004B6A9FED357A67EEA66A94ED065AA7EEC2
:10433000886ADFED325A94ED0DAAA7EEA67AF0EE68
:104340004B6A67EE877A8BEE067AC4ED0A7AE7EE5F
:10435000276A84ED0B7A27EE4A7AE7EEA76A8BEE9E
:10436000266AF0EE6A6AE5EE656AA6EEA97AD4EDF1
:104370000E6A84ED0C6AAAEE677A37EE667A27EE4B
:10438000067AA7EE27AAB0EE4A6AA7EE276AB0EE31
:10439000667AAAEE277A84ED0D6AF0EE476A84ED1C
:1043A000077AEAEE276AC4ED0E6A94E784ED09DA2B
:1043B000BDEC0E8BBDE8F0810000A0426F12833A85
:1043C0000AD7A33D0080BB440000D8420000000093
:1043D0003333333F5839343DCDCC4CBF9A99D93F14
:1043E000CDCCCC3E0000804420420890204608906E
:1043F0000AD77F3FD7573941DB0F4940CDCC4C3EE0
:10440000074A08481168084B00FB013307EE903A51
:104410001360B8EE670ADFED057A20EE270A7047D1
:104420005C0300240D6619005FF36E3C0000802FD2
:104430002DE9F0412DED108B82B090ED00FAF7EEF2
:1044400000EA9FEDDCBA189DB2EE007A23EE033A43
:10445000044607EE905AB1EE00DA21EEA1EA0F46CB
:10446000F8EE67CA904670EECF7A1E46B0EE40CAAC
:104470009FEDD10AB0EE609AC7EEACBAF0EE6E7A5C
:104480002EEE400AF0EE6EDAE0EEC77A9FEDCB7AC0
:10449000F0EE419AF0EE62AA29EE0D9AF4EE4B7A14
:1044A000F1EE10FA48BFF0EE4B7A67EE828AF0EE3A
:1044B0006E7AE3EE0D7A67EE877A9FEDC17A67EE4A
:1044C000877A8EEEA7AAFEF777FDDFEDBE7AE0EEE3
:1044D00067DA9FEDBD0A29EE800AFEF76DFD29EE31
:1044E000008AB4EE6E8AF1EE10FA3EEECAAA3EFEE3
:1044F000888AB8F1000F0FD09FEDB47A2022DFED4B
:10450000B47A2923C4ED03EAECEE077AC4E9142354
:10451000C4ED077AC4ED057AD4ED09FAF0EE6F7AAE
:10452000DEEE0C7A87EEACEA002D00F03981FFF761
:1045300067FFD4ED020ADFEDA77A9FEDA5CAF6EE7C
:10454000006A9FEDA5DAB0EE089AF0EE00CA30EEF0
:10455000660A30EE600AE0EE270AC4ED020A97B35D
:104560003FEE2BFAD4ED017AB0EE681A7FEE8EFAA8
:104570007FEE277AF4EEEE7AF1EE10FAA8BF77EE2E
:10458000EE7AC4ED017A94ED010AFFF7C9FC30EE32
:104590004DDA2DEE2FDA2DEE099AB0EECDDA7DEE62
:1045A0002CCAC9EE2C7AEFEE8C7A7BEE677A94ED0A
:1045B0000A7A013D77EEC77AA7EE887A84ED0A7A07
:1045C000A6EC017AB0E7636D94ED047A002B00F05D
:1045D000B280013B63654FF07A536360236D002B1B
:1045E00000F0CF80013B2365D4ED067AB0EE681A67
:1045F000D4ED056A9FED795A76EEE76A94ED010AEB
:10460000E6EE857AD4ED076AC4ED067AD4ED087A31
:1046100076EEE76AE6EE857AD4ED036A76EEC76A4F
:10462000C4ED087AF0EE477AE6EE857AC4ED047AB6
:10463000FFF776FC236DF7EE007A9FED5E7A002B94
:10464000B6EE006A8DED010A07FE877AD4ED0B7A8B
:1046500037EE677AB5EEC07AF1EE10FA36FE055AFB
:10466000E7EE057A94ED0C7A9FED5D6A94ED0D5AB4
:1046700077EEC75AC4ED0B7AA5EE867A94ED106AF0
:10468000D4ED0E5A77EEC77A84ED0C7A94ED117A58
:10469000E5EEC67AD4ED0F5AE6EE457A77EEC77AA4
:1046A00067EEA57AA5EE276AA5EE067AF0EE465AE1
:1046B000E5EE275AF0EE477A8DED007AE5EE067AC0
:1046C000C4ED105AC4ED117AFFF79AFED4ED127AB8
:1046D0009FED447A30EE670ADDED016A9FED426A94
:1046E00036EECDDADDED005AE0EE077A94ED137A7E
:1046F000D4ED086A37EEC75AC4ED127AA5EE067AF1
:1047000094ED066A2DEE06DA2DEE099AB0EECDDABA
:1047100084ED137A77EEC77A7DEE2CCA37EEA57A50
:10472000C9EE2C7A26EEC77AE6EE0C7A7BEE677A33
:10473000E7EE297A3BE7D4ED037AB0EE0C6A3FEE60
:104740002BFA67EE8A7A2AEE866AC4ED037AF0EED7
:104750006E7AE6EE077A67EE8F7AF4EE667AF1EE1D
:1047600010FA76FEA77AD4ED016A77EEA67AF4EE17
:10477000EE7AF1EE10FAA8BF77EEEE7AC4ED017A88
:104780002CE7D4ED056AD4ED077A66EEAD6AC4ED88
:10479000056ADFED166A67EEA67AC4ED077A23E7AD
:1047A000C4ED09FA84ED00FA02B0BDEC108BBDE84F
:1047B000F08100BF00000000000070426F12033C57
:1047C0000000FA46CDCCCC3A0000D8423333333F18
:1047D0009A99993E6F12033B9A99193FCDCCCC3DE3
:1047E0000AD7233DCDCC4C3D0AD7A33B66667E3F1E
:1047F00060EE007AB3EE087A70B52DED048B27EEEB
:10480000A78A154604460E4628EE008A28EE078A37
:10481000B6EE007AA0EE478A28EE278AF0EE007AFC
:10482000A0EE078A9FED1C7A77EEC07A67EE807A59
:1048300078EE476AA6EEA77AB0EE470AFFF7C2FB0A
:10484000F7EE006A07EE905AD4ED008AB8EE677A68
:10485000C6EE807A38EE688AC8EE079A94ED018A2F
:1048600077EEC87A87EE879A013D0ED396ED000A5F
:1048700078EEA98A38EE098A28EE800AFFF7A2FBB3
:1048800020EE080AA6EC010AEEE784ED018AC4EDE9
:10489000008ABDEC048B70BDC3F5A83EF2EE027A2F
:1048A00091ED010A2DE9F04730EE670ADFED607AFD
:1048B00005460C4616461F46B4EEE70A2DED028B60
:1048C000F1EE10FA88B0DDF8488000F1A480DFED49
:1048D000597AB4EE670AF1EE10FA37FE800AFEF755
:1048E0006BFBDFED557A94ED047AB7EE008A60EE4B
:1048F000270A0023F1EE007AD4ED031A8DED068A23
:10490000F0EE006AF0EE488A079367EE277A94ED9E
:10491000021A334694ED050A05F11000CDED030AA5
:10492000F4EEC87AF1EE10FA38FE272A77EEC87A4C
:10493000F4EEC87ACDED057AF1EE10FACCBF06AAF6
:1049400005AAD2ED007AF5EEC07AFFEE007AF1EE1C
:1049500010FAE7EE267AB3EE007A48BF07AAE0EE37
:10496000C78AD2ED002A2278F5EEC07ACDF8008011
:10497000C2F3400902F0020A02F00102F1EE10FA5D
:104980004946F5EEC08A48BFDFED2C7AF1EE10FA09
:1049900048BFDFED2A8A67EEA88AFFF789FBB6EEEB
:1049A000000A424605F1B0003146A8EE800AFFF742
:1049B0001FFF227805F1580094ED050A02F001026C
:1049C00094ED021AD4ED031A94ED043ADDED030AD6
:1049D000BAF1000F22D0B0EE432A33EE033A3B4641
:1049E000F7EE002A4946CDF80080B4EEC83AF1EE61
:1049F00010FA72FE832A33EE483AB5EEC03AF1EE71
:104A000010FA48BF9FED0D3AFFF712FD08B0BDEC5C
:104A1000028BBDE8F087B0EE670A60E7F5EE007A3A
:104A20009FED072A61EEA77AA1EEE72AD5E700BF3E
:104A3000000000C30000FE425196963900000000BD
:104A4000CDCCCC3EF0B5024600F1A00604460023D2
:104A50000025184F203242F8103C1C3442F80C3C20
:104A600042F8085C42F8047C136053609360D360A2
:104A7000B242C4F89430C4F89830C4F89C30C4F8FA
:104A8000A030C4F8A430C4F8AC30C4F8A830DED1EB
:104A90008A68C0F83C51DB2AC0F84031C0F8443184
:104AA00005D90D68DC3A05F1DC048A600C60C0F8B9
:104AB0004C51F0BD6F12833A2DE9F0410B4E0025A9
:104AC000D0F84C713C46B046B8EC010AFEF774FAD7
:104AD00007F11403A4EC010A9C42F5D10535103608
:104AE000372D01D1BDE8F0812746EBE7547D0690D4
:104AF0002DE9F0432DED048BB2EE008A89B0F0EE83
:104B0000609A04468846174620EE089A1E460025FD
:104B1000F6EE008AB4EEE89AF1EE10FA03DD29EE23
:104B2000289A0235F4E7072D00F2F58001ABAA00C0
:104B3000002103EB8509C5F10705184621F082FC29
:104B4000AA0003D04146484621F054FCF0EE002A6A
:104B5000DDED024A9DED017A07EE906A94ED045A6C
:104B6000A4EEA27AD4ED035AF0EE456A9DED046AF4
:104B7000F8EE677A94ED064A39EE650AD4ED073A05
:104B800094ED013AA368D7EE296A80EE279A86EE63
:104B9000A70ADDED036A76EEE46AD4ED054AB0EECD
:104BA000647AE6EE226A96EEA97ADDED066A87EE71
:104BB000271A9DED057A37EE467AB0EE446AA6EEE6
:104BC000A27A97EE296A9DED077A37EE667AF0EEC3
:104BD000636AD7EE296A94ED007AC6EE271A86EE4C
:104BE000A72A013EC0F0888075EE895A35EE005A3A
:104BF00074EE814A37EE257A34EE214A73EE823A1A
:104C0000FDEEC77AF7EE000A17EE901ADFED447A50
:104C10008B4230D0082907D137EE487A002177EE51
:104C2000C56A76EEE46A03E08A07F0EE676AF8D0B8
:104C3000CB0758BF76EEC46A76EEE36AF5EE406ABB
:104C4000F1EE10FA55D006EE101AF8EEC69A77EE8D
:104C5000699A89EEA56A66EE289A69EE869A30EE20
:104C6000C66AA6EEA93AFEEE009A66EE299A29EEE9
:104C7000866AE6EE867AF1EE006A01F00403B4EE8D
:104C8000006A77EE666A66EE856AE6EE867A06EE7A
:104C9000103AF5EE006A01F00603B8EEC66A37EE88
:104CA000466A36EE626A26EE246AE6EE267A06EE5A
:104CB000903A01F00703B7EC016AF8EEE66AA3EE5A
:104CC000226A77EE666A76EEE06A07ED016A66EEC2
:104CD000846AE6EEA87A06EE903A0B46F8EEE66AAB
:104CE00077EE666A76EEE86AE6EEA37AB0EE673AA9
:104CF00077E7DFED0B7ABEE784ED013A84ED007AC9
:104D0000A360C4ED073A84ED064AC4ED054A84ED7C
:104D1000045AC4ED035A09B0BDEC048BBDE8F0831E
:104D20000000000030F9113000EB410007EE103AAE
:104D3000B0F9023007EE903AB8EEC77AF8EEE77AAB
:104D400077EEC77AA7EE807AB0EE470A7047000088
:104D5000DFED0E7A18220E4B20EE270AFDEEC07A08
:104D6000B8EEE77A17EE900A02FB00338A1830EEAD
:104D7000470AF3EC017A93ED057A37EE677AE7EEAE
:104D8000007AE1EC017A9142F3D17047CFF7DF402E
:104D9000947C0690F3EE047AD0F84C012DE9F047AC
:104DA00020EE270A0026FDEEC07A17EE907AF8EE84
:104DB000E77A07F1030907F0030E30EE670A37EAD6
:104DC000270828BFC8467C4204F003044FEAA8081D
:104DD00058BFC4F1000E142404FB01013046C8F191
:104DE00005050524B5EE007AF1EC016A354495FB22
:104DF000F4FC0CEB8C0CA5EB0C0505F1040CBCFBD6
:104E0000F4F404EB8404ACEB040CB9EB060448BFE7
:104E10000334B6454FEAA40A4FF0010404FA0AF439
:104E200007EE904AF8EEE77A67EE877A67EEA67AA1
:104E300029D102EB8504C4ED007A77EEA77A02EB64
:104E40008C04C4ED007A60EE077A03EB8C04C4EDA9
:104E5000007AF7EE007A03EB850477EEC07A27EE4E
:104E6000877A84ED007ABEF1000F17D1012404FA8D
:104E700005F5BC0740EA050010D1012404FA0CFC3A
:104E800040EA0C000AE00EDD02EB8C04C4ED007A6F
:104E900003EB8C0484ED007A002EEED00136042E54
:104EA0009DD1BDE8F08702EB8504C4ED007A03EBE9
:104EB000850484ED007A002EF0D1BEF1000FDCDC19
:104EC000D4E70000F5EE007A9FED5A6A2DE9F04133
:104ED000B4EE670A04460F4616461D46F1EE10FA78
:104EE0002DED0E8BB7EE00CA27FE800AF0EE007A99
:104EF00090ED01AA20EE066A90ED02BAB0EE4C7A6F
:104F0000D0ED03AA70EE4A6AD0ED04BAD0ED008A63
:104F1000A0EE677A07EE903AF8EE677A86EEA7EA97
:104F2000CCEE066A9FED446A36EE400A67EE200A30
:104F3000B0EE4B7A26EE800ADFED406A90EE207AE2
:104F4000C7EE27DAB0EE6A7A91EE267AC7EE27EA44
:104F5000013D60D39FED3A8A3AEE0EAAF7EE007A51
:104F60007AEEAEAA2AEE089A78EE8A8A3BEE2DBA3D
:104F7000B4EE4C9AF1EE10FAF4EECC8A37FE899A30
:104F8000FDEEEA7AF1EE10FA17EE903AF8EEE7CA83
:104F9000A8BF78EECC8A4FEA830857F823007AEE50
:104FA000ECCA28EE888AB844BDEEC8DAF8EECD7AAD
:104FB0001DEE101A38EE678AB0EE480AFFF7B2FE0F
:104FC000F0EE409AD8F80400B0EE480A1DEE101A30
:104FD000FFF7A8FE30EE690A94ED067AD4ED057A63
:104FE000E0EE2C9A39EEC77AC4ED069A37EE677A6E
:104FF000E9EE077AB6EE007A29EE079AC4ED057A53
:1050000077EEEB7AE9EE27BAF6EC017AEBEE8B7AE3
:1050100046ED017A9CE7C4ED04BAC4ED008AC4ED04
:1050200003AA84ED02BA84ED01AABDEC0E8BBDE8A3
:10503000F08100BF000000483333733F97FF5F41AA
:1050400000008043D1ED037AF2EE045A90ED507ADD
:105050009FEDA06A77EEC77AD1ED026A2DE9F04F95
:10506000A7EE867AD0ED517A0E46044676EEE76AD0
:1050700090461D46C246E6EE867ADFED976A91EDD0
:10508000046A2DED068BB7EE00AA9FED948A99B0C5
:1050900080ED507AC0ED517ADFED917AB0EE4A0A98
:1050A00026EE276AF0EE667AA7EE480AE6EE257A43
:1050B00090ED4F6AF5EE005AB8EEC66AF4EEC67A85
:1050C000BDEE006AF1EE10FAB4EE660A36FE256A0D
:1050D00077EE867AB6EE006A77EE867AFDEEE77AAC
:1050E00017EE901A0A29A8BF0A21F1EE10FA21EA58
:1050F000E17710A948BFB0EE660AC0F83C71FFF72F
:1051000027FE94ED510A394606AB0BAA2046CDED99
:10511000166AFFF73FFE289B0021049040464FEAA5
:10512000830B2F465A4621F08DF95A460021284616
:1051300021F088F9F2EE027A96ED010A30EE670A64
:10514000DFED687AB4EEE70AF1EE10FA00F1B38011
:10515000DFED657AB4EE670AF1EE10FA37FE800AE9
:10516000FDF72AFFD4ED508A9FED601A06AE9FED41
:10517000609A4FF0000978EEC18A5E4B20EE090A72
:105180009FED5D9A029304F1100368EE888A009304
:1051900004F1B00320EE099AF5EEC08A01930BAB3F
:1051A000F1EE10FA039348BFDFED4B8A029BD4ED7A
:1051B000507AF3EC010A77EEE07ADFED500A0293C1
:1051C00067EEA07AF5EEC07AF1EE10FA76D4F4EE3E
:1051D0004A7AB7EE007AF1EE10FA77FE277A049B4E
:1051E000B1EE007ADFED466A3AEE678A43FA09F3D8
:1051F00013F0010F039BF3EC019A14BF2A464246B9
:1052000069EE899A0393A9EEE67AB5EEC07AF1EEDB
:1052100010FA56D4B4EE4A7AF7EE006AF1EE10FABC
:1052200036FE877AF5EE407A27EE088AF1EE10FA1C
:1052300010D0D6ED000AB0EE681A9FED320A67EE84
:10524000A00A289B29EE800A2F4901980592FFF7B2
:1052500039FE059AB5EE408AF1EE10FA0AD0D6ED85
:10526000000AB0EE690A289B10A968EE200A00988F
:10527000FFF73EFC009B09F1010904362033B9F128
:10528000050F0093019B03F11C0301938ED15D4434
:10529000BD4219D097ED007ADAED007A77EE877A81
:1052A000B0EE087AEAEC017AF7EC017A67EE877AD9
:1052B00047ED017AECE7B0EE670A51E7DFED067AD9
:1052C0008DE79FED057AADE719B0BDEC068BBDE823
:1052D000F08F00BFCDCCCC3D000000009A99094072
:1052E0005C8F823F000000C30000FE42C3F5083F10
:1052F00051969639807C0690EE7C7F3F00004842B4
:10530000000000421283803F0C0000240023C0E90B
:1053100004338361034BC3610362002343628362EE
:10532000C36270475196963A70470000F2EE027AD7
:1053300030EE670ADFED197AB4EEE70AF1EE10FA03
:1053400028D4DFED177AB4EE670AF1EE10FA37FED3
:10535000800ADFED147A144A30EE270AFDEEC07A97
:10536000B8EEE77A17EE901A30EE470ABEEECC0A96
:1053700010EE103A02EB83020C4B03EB8103D2EDEB
:10538000007A93ED000A67EE807A9FED090A27EE16
:10539000800A7047B0EE670ADBE700BF000000C379
:1053A0000000FE420000004324560890285A08904E
:1053B00051969639F1EE007ADFED106A30EE270A49
:1053C000DFED0F7A20EE270ABCEEC00A10EE103A8D
:1053D00001EBC3010B4B8A0D03EB82008B0290EDB6
:1053E000000A07EE903A90ED017AF8EE677A37EE10
:1053F000407A67EEA67AA7EE270A70470000802F52
:105400000000004E20420890CB430D4AD0ED007AB8
:1054100001F0030103F0030302EB810102EB8303BC
:1054200093ED007AE7EE007A91ED007AC0ED007A14
:10543000D0ED017AE7EE007AC0ED017A704700BF47
:10544000187E0690F3EE087A9FED9D7A2DE9F04FD5
:105450002DED108B91ED019A90461F46994B39EE38
:10546000679AD1ED047A0D4687B067EE877A0446D5
:10547000209E9FED95BABDEEE77A17EE102AB8EEA2
:10548000C77A03EB820177EEC77AD1ED008A91EDFE
:10549000017A37EE687AE7EE878A79EE288AB0EEED
:1054A000680AFFF743FFB5EEC00AF1EE10FA00F10B
:1054B000EE80F6EE007AB4EE670AF1EE10FA37FEEF
:1054C000808AB7EE00CADFED817A9FED817A78EEAF
:1054D000E78AF0EE4C7AE8EEC77AF5EEC07AF1EEA4
:1054E00010FA00F1D780F4EE4C7AF1EE10FA7CFE5F
:1054F000277AB0EE490A67EEA78AFFF717FFD5EDC6
:10550000026A07EE906A94ED099A234636EEA67A6F
:1055100095ED036AF8EE677AD4ED08AA94ED07AA30
:1055200027EE267A53F8342FF0EE496A8DED01BA52
:1055300038EE6A8A029330EE4A0A2346D7EE286A8A
:105540000092BFEE007A53F8302FC8EE27EA94EDB0
:105550000A8A03928DED04BA059386EEA7FAF0EE5F
:10556000006A80EE27EAA6EE267A37EE487AC7EE82
:1055700027FA002E00F09180DFED567A002538EEF4
:105580002F8A3AEE0EAA7AEEAEAAB5EEC08A6AEE7D
:1055900027CA39EE0F9AF1EE10FAFCEEECCA2AEEA9
:1055A000A7DA4CBFF6EE009ADFED479A1CEE903A70
:1055B00048BF68EE299A4FEA530A48BF69EE889AB5
:1055C000F0EE4C7AD4ED0B8AB5EEC08A6369F5EE45
:1055D00000DA1CEE902AE8EEA97A2046F1EE10FAE5
:1055E000CCBF28EE2D0A9FED380A6DEE277AC8BF92
:1055F00020EE080AFCEEE77A28EE800A17EE901AF1
:105600001944236902EB030BA36961610AEB0309E7
:10561000C4F810B0C4F81890FFF7CCFE59462046E5
:1056200020EE090AFFF7C6FEF0EE40BA20EE090AA6
:105630004946204620EE2D0AFFF7BCFE3BEEE87AF5
:10564000DFED257AF0EE40DA2946B0EE6B0AE7EEA0
:10565000278A6846C4ED0B8AFFF7D6FE2946013536
:10566000B0EE6D0A03A8FFF7CFFE042DA8D1009B72
:10567000013E019A48F8043B0092039B049A8DED89
:1056800001BA03928DED04BA47F8043B71E7B0EE1E
:105690004B8A16E7DFED0C7A2BE7039A059B1A601D
:1056A000009A029B1A6084ED0A8A84ED099AC4ED7F
:1056B00008AA84ED07AA07B0BDEC108BBDE8F08FF7
:1056C000000000430CB20690000000000000904271
:1056D000CDCCCC3C0000804FCDCC4C3D7047000081
:1056E00000230F490F4A036143618361C361036271
:1056F00043628362C362036343638363C36303647C
:1057000043648364C364036543658365C36503665B
:1057100043668166C266036741678267C3677047F5
:1057200022BA003D2033783FF0EE087AF6EE085AB0
:1057300021EE271A08B5FDEEC17A2DED068B17EE86
:10574000903AF8EEE77AF7EE008AF0EE609A31EEE2
:10575000671AB0EE619AB5EE00AA38EEC11A93BB93
:1057600061EE017AB0EE687A27EE811AF2EE0E7AD7
:10577000A1EE277A60EE077AF4EE687AF1EE10FA7D
:1057800068FEA77A77EEA57AB0EE670ADFED2A0AFF
:105790002A48FEF73AF9B0EE408ADFED270AB0EE6C
:1057A000690A264838EE288AFEF72FF939EE000AF2
:1057B00028EE0A8A28EE008A39EE280A88EE000AC6
:1057C000BDEC068B08BD012BB6EE006A1ED1DFEDE5
:1057D0001C7ADFED1C6A61EE277A67EE817AE1EED2
:1057E000276AB4EEE60AF1EE10FA5BBF70EE667A55
:1057F00078EEE66A86EE267A27EE860A56BFC0EE77
:10580000267A67EE007A77EE867ABBE738EEC11A21
:1058100061EE017A27EE811AF2EE0D7AA1EE276A87
:10582000F0EE4A7AE0EE067AF4EE657AF1EE10FADE
:1058300065FEA77AA8E700BF0000804420420890D8
:10584000EE7CFF3E6F12833A08B52DED0A8BF5EE24
:1058500000BA3F48F0EE607ADFED3E0AB6EE00BADD
:10586000F0EE40AAB0EE6B0AB0EE429AB0EE41CA3A
:10587000A7EE8B0AF0EE618AFEF7C7F8DFED367A05
:10588000B7EE008AB4EEE79A30EE080AF1EE10FAAD
:1058900060EE0B9A32D5F7EE087AB0EE6BAAA9EE5D
:1058A00027AAB0EE489A3AEE0C0ADFED2A0A2848F9
:1058B000FEF7ABF8F4EECB8AB0EE40AAF1EE10FAA8
:1058C0003AD5F4EECBAADFED230A78EEA88A204879
:1058D0003AEEAB0AF1EE10FAA8BF69EEA89AFEF70D
:1058E00094F830EE480AA8EE808A39EE0AAA9AEEB9
:1058F000299A29EE080ABDEC0A8B08BDDFED177A5C
:10590000B6EE087A9FED16AA79EE677AA7EEC7AAD7
:10591000DFED147AB4EEE79AF1EE10FA09D5B0EEA5
:105920004A0ADFED0C0A0A48FEF76FF8B1EE409A1A
:10593000B9E79FED0D9AB6E7B0EE6A0ADFED050A0A
:105940000348A8EE8B0AFEF760F8B0EE408ACCE779
:105950002042089000008044FA7EAA3EC3F5A83E8B
:105960003BDF3F3FFA7E2A3F6F12833AF4EE007A24
:1059700070B5B4EE670A04460E461546F1EE10FA0D
:105980002DED0E8B27FE800AF5EE007A90ED039A3E
:10599000D0ED048AF4EE670AD0ED059A90ED06DAB0
:1059A00030EE490A31EE691A90ED02EAF1EE10FA92
:1059B00071EECD1A67FEA00A07EE902A70EEE80A93
:1059C000F8EE677AC0EE27AAC0EEA7BA81EE27CA22
:1059D00081EEA7BA013D6DD3D4ED007A39EE2A9A53
:1059E000D4ED010AB7EE000A9FED398A78EEAB8A52
:1059F00079EE277A3BEE0DAA7CEE29CAF4EEC07A46
:105A0000C4ED007AF1EE10FA48DB77EEC07AB0EE22
:105A1000691AF0EE4D1AC7EE89DAC4ED007A70EE1D
:105A20006DEAEEEE8B1AAEEE8C1AEEEEA80AFFF7D8
:105A30007BFEF0EE480AF0EE409AF0EE4A1AB0EE25
:105A4000480AB0EE6C1AFFF76FFEF6EE007A30EE01
:105A5000690A6DEEA77A67EEAD7A6DEEA8DAA0EE70
:105A600027EAFEEE007AC4ED01DA6EEEA77A67EE61
:105A7000AE7AA7EE808AD4ED010AF0EE4A1A94EDD0
:105A8000000AB0EE6C1AFFF74FFEF0EE6C9AA6EC2F
:105A900001EAB0EE4ADA38EE00EA9BE778EEA00AB7
:105AA000F4EEC00AF1EE10FAA8BF70EEC00AC4ED21
:105AB000010AE0E784ED02EA84ED06DAC4ED059A16
:105AC000C4ED048A84ED039ABDEC0E8B70BD00BF5B
:105AD00000000000F4EE007A70B5B4EE670A0446E8
