:020000040800F2
:1000000000000220A5030008A10300083DC6000867
:10001000A1030008A1030008A103000800000000DC
:10002000000000000000000000000000A103000824
:10003000A103000800000000A1030008C1C50008DA
:10004000A1030008A1030008A1030008A103000800
:10005000A1030008A1030008A1030008A1030008F0
:10006000A1030008A1030008A1030008C9C10008FA
:10007000D5C100088DB00008E1C10008EDC100083D
:10008000A103000861B60008A1030008A10300084D
:10009000A1030008A1030008A1030008A1030008B0
:1000A000A1030008A1030008A1030008A1030008A0
:1000B000A1030008A1030008A103000895B60008E9
:1000C000A1030008A1B60008A10300089D6601086D
:1000D000A1030008A1030008A1030008A103000870
:1000E000A1030008A103000800000000A10300080C
:1000F000A1030008A1030008A1030008A9660108E4
:10010000A1030008A1030008A1030008A10300083F
:10011000A1030008A1030008A1030008A10300082F
:10012000A1030008A1030008A1030008A10300081F
:10013000A1030008A1030008A1030008A10300080F
:1001400000000000000000000000000000000000AF
:10015000A1030008A1030008A1030008A1030008EF
:10016000ADB60008A1030008D1C50008F5C5000818
:10017000A103000819C60008A1030008A103000894
:10018000A1030008A1030008A1030008A1030008BF
:10019000A1030008A1030008A1030008A1030008AF
:1001A000A1030008A1030008A1030008A10300089F
:1001B000E9BE0008A1030008A1030008A10300088C
:1001C000A1030008A10300088DAB000899AB00084B
:1001D000A1030008A5AB0008A1030008A1030008C3
:1001E000A1030008A1030008A1030008A10300085F
:1001F000A1030008A1030008A1030008A10300084F
:10020000A1030008A1030008A1030008A10300083E
:10021000A1030008A1030008A1030008A10300082E
:10022000A1030008A1030008A103000800000000CA
:10023000A1030008A103000800000000A1030008BA
:10024000A1030008A1030008A1030008A1030008FE
:10025000A1030008A1030008A1030008A1030008EE
:10026000A1030008A1030008A1030008A1030008DE
:10027000A1030008A1030008A1030008000000007A
:10028000A1030008A1030008A1030008000000006A
:0802900000000000A1030008BA
:1002A00010B5054C237833B9044B13B10448AFF3B0
:1002B00000800123237010BD100400240000000002
:1002C000D8EF010808B5034B1BB103490348AFF34E
:1002D000008008BD0000000014040024D8EF0108CD
:1002E00010F8012B11F8013B012A28BF9A42F7D0E0
:1002F000D01A70470000000000000000000000005D
:1003000001F0FF01102A2BDB10F0070F08D010F8C6
:10031000013B013A8B422DD010F0070F42B3F6D1CA
:10032000F0B441EA012141EA014122F007047FF0E3
:1003300000070023F0E80256083C85EA010586EA3A
:10034000010685FA47F5A3FA87F586FA47F6A5FA76
:1003500087F68EB9EED1F0BC01F0FF0102F0070282
:1003600032B110F8013B013A83EA010313B1F8D12D
:100370000020704701387047002D06BF354603380E
:10038000073815F0010F07D1013015F4807F02BF47
:10039000013015F4C03F0130F0BC0138704700BF98
:1003A000FEE7000009480A4A0A49121A18F05AFDE5
:1003B00009480A4A0021121A18F062FD0CF018FBD5
:1003C00018F024FD00F01CF9FEE700BF0000002437
:1003D0000C04002400F0010810040024907603248B
:1003E00030B5314D2B782DED028B89B0002B57D0D5
:1003F0002E4B68469FED2E8A002493ED057A2D49F9
:1004000027EE087AFDEEC77A17EE902A642AA8BF75
:10041000642222EAE27218F06FFE68460AF0ACFA33
:10042000254B264968461A68254B032AD8BF0B4638
:10043000244918F061FE68460AF09EFA224B2349CF
:100440006846D3ED007A67EE887AFDEEE77A17EE1C
:10045000902A642AA8BF642222EAE27218F04CFEB5
:1004600068460AF089FA1A4B22469FED1A7A6846C6
:1004700003EB840318490134D3ED007A67EE877AE1
:10048000FDEEE77A17EE903A18F036FE68460AF06D
:1004900073FA0C2CE7D111480AF06EFA00232B7086
:1004A00009B0BDEC028B30BDB0F402242C2F032424
:1004B0000000C8426CA30108482F032460A3010870
:1004C00067A3010874A3010884F4022484A301082B
:1004D000FC2E032400007A4490A3010852A40108D2
:1004E00070B540482DED028B86B001F05FFFE8B19A
:1004F0003C4801F05DFF1023012269468DF8103061
:10050000002338480093CDE90223374B1A885B88D3
:10051000ADF80420ADF806305A238DF8143001F000
:10052000D7FE032206212F4801F0B3FE2D4801F02B
:100530007BFE2E4B0646188060B92D4B9FED2D7A21
:10054000D3ED007A67EE877AC3ED007A06B0BDEC92
:10055000028B70BDDFED288A0025B0EE688A2C463C
:1005600046FA05F3DB070AD5E9B21E4801F069FE39
:1005700007EE900A0134F8EEE77A78EEA78A0135A3
:100580000C2DEDD15CB307EE904AF8EEE77AC8EE99
:10059000A76A9FED1A6A164B86EE867AD3ED006A3B
:1005A0009FED146AF7EE007A87FEC77A88FE077A15
:1005B00027EE077AF0EE005A77EE666AF0EEE66A0A
:1005C000A6EEE56AF6EE006AC6FE866A77EEE67A81
:1005D00093ED006A67EE877AE6EE267AB4E7DFED00
:1005E000066AD6E7A8F4022420A3010830040024F8
:1005F000340400243333733F00000000000016432E
:1006000010B500F039FB00F04FFA0CF019F8044671
:1006100000F08EFA00F048FA0E4A13680133B3F581
:10062000FA7F10DA1360FFF7DBFE0CF009F8001B0D
:10063000042804D90CF004F80446FFF751FF012008
:100640000CF006F8E4E70023034813600AF094F97D
:10065000E9E700BF2C0400249CA301087047704701
:1006600070477047704700001AB1012A04D000207B
:100670007047024B0360FAE70160F8E75CA40108E9
:100680001E4B002209685A701D4A02EB8102116854
:100690001C4A116001221C490A70197869B10329AA
:1006A0000ED01A4B1B68072B06DD194B4FF07E52FC
:1006B0009A61012283F8232070471A70D963F0E70A
:1006C000B7EE007AD3ED015A93ED026AD3ED0D7ABD
:1006D00076EE076A1A70A5EE867AF8EE677A67EE0C
:1006E000A57A67EEA67AF0EE476A87EEA67AF8FE5C
:1006F000477AFCEEE77AC3ED0F7AD2E7F8F60224E8
:1007000098A4010808F80224F4F60224482F0324D0
:10071000B4F40224836810B5044613B103220146E1
:100720009847204610BD10B504462830FFF7F2FF69
:10073000204610BD10B50D4808F022FE00210B48E0
:1007400008F0E2FE1021094808F056FE084C074860
:1007500008F04EFE0321054884ED000A08F02CFE47
:10076000024808F045FE84ED000A10BDA8F30224FB
:100770000400002430B52DED028BC1B00F2008F02D
:1007800001FE9D4CADF800000DA800990AF010FA8A
:10079000102008F0F7FDADF8040001990DF14500B7
:1007A0000AF006FA112008F0EDFDADF808000299F4
:1007B0000DF156000AF0FCF9122008F0E3FDADF847
:1007C0000C0003990DF167000AF0F2F9132008F00C
:1007D000D9FDADF8100004991EA80AF0E9F914201B
:1007E00008F0D0FDADF8140005990DF189000AF06C
:1007F000DFF9152008F0C6FDADF8180006990DF1D7
:100800009A000AF0D5F9162008F0BCFDADF81C00DE
:1008100007990DF1AB000AF0CBF9172008F0B2FDF3
:10082000ADF8200008992FA80AF0C2F9182008F0A6
:10083000A9FDADF8240009990DF1CD000AF0B8F931
:10084000192008F09FFDADF828000A990DF1DE008F
:100850000AF0AEF91C2008F095FDADF82C000B99BC
:100860000DF1EF000AF0A4F904230C220DA9204693
:10087000624D0AF0ABF920460AF08CFB00212046BD
:100880009FED5F8A0AF09CFB0023F0EE480A95ED8D
:10089000000A1A4601465B4809F0B2FF01212046D2
:1008A0000AF08EFB0023F0EE480A95ED000A1A4686
:1008B0000146554809F0A4FF022120460AF080FBBA
:1008C0000023F0EE480A95ED000A1A4601464F480B
:1008D00009F096FF032120460AF072FB0023F0EE98
:1008E000480A95ED000A1A460146494809F088FF72
:1008F000042120460AF064FB0023F0EE480A95ED3F
:10090000000A1A460146434809F07AFF05212046AD
:100910000AF056FB0023F0EE480A95ED000A1A464D
:1009200001463D4809F06CFF062120460AF048FBCD
:100930000023F0EE480A95ED000A1A4601463748B2
:1009400009F05EFF072120460AF03AFB0023F0EE93
:10095000480A95ED000A1A460146314809F050FF51
:10096000082120460AF02CFB0023F0EE480A95ED02
:10097000000A1A4601462B4809F042FF0921204689
:100980000AF01EFB0023F0EE480A95ED000A1A4615
:100990000146254809F034FF0A2120460AF010FBE1
:1009A0000023F0EE480A95ED000A1A4601461F485A
:1009B00009F026FF0B2120460AF002FB0023F0EE8F
:1009C000480A01461A4695ED000A194809F018FF31
:1009D0001B2008F0D7FC95ED000ADFED167AADF884
:1009E000300080EE270A0C9913480AF005F841B050
:1009F000BDEC028B30BD00BFC0F302240400002414
:100A00006F12033B28F3022408F3022468F3022444
:100A100048F3022488F4022488F3022444F40224D4
:100A200064F402248C04002424F4022404F4022438
:100A3000E4F3022400004042AC0400247FB51023FC
:100A40000122694615488DF810300023CDE90223B4
:100A50000093134B1A885B88ADF80420ADF806307C
:100A60005A238DF8143001F033FC70B901210D4880
:100A700008F0DEFC32200BF0EBFD0021094808F005
:100A8000D7FC32200BF0E4FDF0E7032206210348F7
:100A900001F0FFFB07B05DF804FB00BFA8F40224DF
:100AA00024A30108A8F3022408B51C4B9FED1C7A6F
:100AB0001B681B8807EE903AF8EE677AC7EE876AE4
:100AC000F6EE007AF4EEE76AF1EE10FA25DD154B4A
:100AD0001B681B8806EE903AF8EE666A86EE876A17
:100AE000B4EEE76AF1EE10FA17DD0F4B1B681B88B6
:100AF00006EE903AF8EE666A86EE876AB4EEE76A2A
:100B0000F1EE10FA09DD094809F036FF64200BF018
:100B10009FFDBDE808400BF09DBD08BD8C0400247E
:100B200000FF7F4724F4022404F402249FA3010859
:100B300008B50D4A002312F8011B79B90133042BC3
:100B4000F9D10BF07DFD4FF47A71B0FBF1F303FBAB
:100B50001101B1F5FA7F2CBF002101210348BDE846
:100B6000084008F065BC00BFF4F60224A8F3022494
:100B700070B58AB090ED021AD0ED010A04466D46B8
:100B800090ED000A0221684601F016FC05AE0C3417
:100B90000FCD0FC62E6805AD0FCD0FC426600AB06D
:100BA00070BD0000F8B52C4C00212C4B20462C4A7F
:100BB0002DED028B93ED008A2030F6EE008A84ED55
:100BC000008A18F05DF900220123F5EE007AC4E9ED
:100BD000062304F5383303F5626703F6246603F64B
:100BE0002865204B87ED008A28EE278A38462B603F
:100BF00086ED008AB7EE008AFFF7BAFF97ED007A1C
:100C0000DFED197A384627EE287AC7FE887AC7FEC4
:100C1000C77AC6ED007ADFED157AC8FE277AC5EDF2
:100C2000007AFFF7A5FFD4ED007AF5EEC07AF1EE79
:100C300010FA07D99FED0E7A67EE877A88EE277A49
:100C400087FE488A0B4B84ED038AC4ED048AA360B7
:100C50006360BDEC028BF8BDB804002404000024DE
:100C600000EE0200F304353F00004844CDCCCC3DFB
:100C70000AD7A33C9A99993E10B5414C2DED028BB1
:100C800092B0FFF757FD00F085FAFFF773FDFFF70D
:100C9000D5FEFFF787FF94ED008A0BF059FEB3EE07
:100CA000007A384B012294ED000AC7EE087A07EE6D
:100CB000100A1A70344A3548DA60B8EE477A1A6179
:100CC0005A6127EE877AF7EE007AC7EE876A9FEDC2
:100CD000307A28EE078AC3ED016ADFED2E6A86EED0
:100CE000887A77EE277AC7EE276AC3ED066A00F0A6
:100CF0006FF9B2EE000A254800F07CF9264B02A9F4
:100D000022480593254B049300F027F902A8FFF72A
:100D100001FD2349234808F04BFB002009F03AFE6F
:100D2000214809F029FED4ED007A10230422FDEEBB
:100D3000E77A1E4902A8CDED007A18F0DDF902A885
:100D400009F01AFE1A4B1B4902A81C68224618F02B
:100D5000D3F902A809F010FE174B184A02A8184947
:100D6000032CC8BF1A4618F0C7F902A809F004FE00
:100D7000144809F001FE12B0BDEC028B10BD00BF9B
:100D8000040000242C2F03240000C07F380400241A
:100D90000000803DDB0FC94081060008690600089D
:100DA000D11E0008A8F30224DAA301080AA401084E
:100DB00094A401082EA40108CDA30108C2A3010830
:100DC00041A401084AA40108F8B53C4800263C4C5F
:100DD0003C4F22463C49066007F5383546610662BD
:100DE00016F0CCFE3948224639490660868016F056
:100DF000C5FE3146142205F62C6018F041F8002398
:100E000005F5646233493846136005F644621360A1
:100E100005F6486205F64C65136022462B602E4DA0
:100E200016F0ACFE284600F079F822462B492846F9
:100E30002B4D16F0A3FE22462A492B4816F09EFEA3
:100E400022462946294816F099FE22462946284876
:100E500016F094FE22462946264816F08FFE2246BA
:100E60002946254816F08AFE22462946234816F0D0
:100E700085FE22462946224816F080FE2246294653
:100E8000204816F07BFE224629461F4816F076FEC3
:100E9000224629461D4816F071FE224629461C4866
:100EA00016F06CFE224629461A4816F067FE2246C6
:100EB00029461948BDE8F84016F060BEA8F30224A0
:100EC00000000024B804002461060008A8F40224ED
:100ED0006306000865060008380400242707000898
:100EE0005F0600085D060008AC04002428F3022415
:100EF00008F3022468F3022448F3022488F402244D
:100F000088F3022444F4022464F402248C040024B0
:100F100024F4022404F40224E4F3022400220B4902
:100F2000C0E904120021026202634162C1630164EC
:100F30000749C264416480F8502010B54FF07E54D8
:100F4000C0E906228463846410BD00BF7856341261
:100F500000803B47C0E90512704770B5002386B09A
:100F600004460E46049302AD8B6833B10222284634
:100F70009847F3680593B36804936A4604F128031D
:100F800095E8030082E8030093E8030085E8030086
:100F900092E80300049A83E80300236B616B2263E9
:100FA000059A0493059162631BB1032229462846E2
:100FB000984706B070BDB7EE007AD0ED007AC7EE64
:100FC000276A90ED0E7AC6EE877AC0ED127A7047E6
:100FD00010B5F0EE400A80ED110AB7EE000A0446A3
:100FE00016F0AAFD00232046E3632364BDE8104009
:100FF000FFF7E1BFDFED087AB4EE670A10B5F1EE56
:1010000010FA044648BFB0EE670A16F0A7FD204666
:10101000BDE81040FFF7CFBFCDCCCC3DB5EEC00A48
:10102000F1EE10FA98BFB7EE000A80ED0E0AFFF756
:10103000C2BF0369024683EA433383EA534383EA28
:101040004310106170470000836910B5044688B0F2
:10105000F3B1C26C6846144918F04EF8684609F0BE
:101060008BFC94F85030012B14D12046FFF7E1FFA0
:10107000A369B0FBF3F202FB1300236B43B1636976
:10108000694653F8203004F128000093636B9847B9
:1010900008B010BDE36CA26993FBF2F002FB1030C4
:1010A0000133E364E9E700BF7FA401088369002BF3
:1010B00070B504460E4624DD036B13B30025B5421C
:1010C0001FD0F7EE006A94ED117AC6EE877A94EDA0
:1010D000107A77EE877A94ED0F7AF4EEC77AC4ED42
:1010E000107AF1EE10FA0ADB2046FFF7ADFFD4EDDF
:1010F0000F7A94ED127A77EE877AC4ED0F7A013584
:10110000DDE770BD7047000002460E4B0E4900201F
:1011100010B5904212DA11F8014B64B1D3ED007AA8
:101120009FED0A7A77EEC07AF0EEE77AF4EEC77AAE
:10113000F1EE10FA04D401300433EAE74FF0FF3047
:1011400010BD00BF08F80224F4F60224CDCCCC3D3B
:101150000346064A0020984204DA12F8011B19B12E
:101160000130F8E74FF0FF30704700BFF4F602247B
:10117000054B012283ED000A044B1A704FF07E529A
:10118000034B9A61704700BF08F80224F4F602246A
:10119000B4F402242DE9FF47264A4FF48023264F5A
:1011A0000025264EDFF8C4A0DFF8C490244CDFF8F9
:1011B000C4800192039300920293224B4FF45B6030
:1011C0006946283700FB0530013501F047FD002254
:1011D0000921002347F80C2C042D0AF8012B06F1F5
:1011E0002806194AA3602261184AE3606261184A1E
:1011F00046F8283CA261174A46F8103CE261164ABC
:1012000049F8043B2262154A48F8043B62624FF0F9
:1012100001026270124AC4E90D12124A04F1440438
:1012200044F8182C104A44F8142CC6D104B0BDE878
:10123000F08700BF000000C054F60224B4F402247A
:10124000F8F6022428F802240080BB489999194135
:10125000000096460000F0430100C043AAAA2A3BC2
:10126000E0660400398EE33D12A16836F4F60224EC
:1012700008F8022418F80224244B042010B5244A4C
:1012800001381A60234AC3F84821234AC3F80022D0
:10129000224AC3F83822224AC3F8BC22214AC3F8A2
:1012A0000424214AC3F84825204AC3F8C825204A07
:1012B000C3F8A8261F4AC3F8CC271F4AC3F8182929
:1012C0001E4AC3F8282B1E4AC3F8CC2B03F55B63D8
:1012D000D5D11C4A1C4916F051FC1C4B042201219B
:1012E00000204FF07C54013A59704FF00001187003
:1012F00003F1440343F8401C43F83C4C43F8384C9A
:1013000043F8080C43F8041CE9D110BD28F8022466
:10131000B0A50108ECA5010830A6010868A60108DF
:10132000A0A60108D8A6010810A701084CA701082B
:101330009CA70108D4A701080CA8010860A801080F
:10134000A0A801080000002405110008F8F60224F6
:101350009FED286AB4EEC60AF1EE10FA31D5B2EE6E
:10136000027AD0ED056A26EE877A27EE007AC7EE7C
:10137000067A77EEA67AFCEEE77AF7EE006AC0ED21
:101380000D7AF8EE677A86EEA77A80ED0B7A9FEDFC
:101390001A7AB4EEC70AF1EE10FA27D577EE407A42
:1013A0009FED167A77EE877AB6EE007A77EEC77AF7
:1013B0009FED137A27EE877A67EE277AC0ED027ADF
:1013C000704760EE007A90ED047AB6EE006ADFEDC9
:1013D0000D6A67EE807A67EE266A27EE067A67EE78
:1013E000877AB4EE007AE6EE877AC4E7DFED067A14
:1013F000E4E700BFCDCCCC3D9A99993E3333333FDF
:10140000000000436F12033B0000000060EE007A12
:1014100090ED047AF7EE006A002327EE800AD0ED03
:10142000077AC360E7EE007AFCEEE77AC0ED0E7A49
:10143000F8EE677A86EEA77A80ED0C7A704703782B
:1014400013B1032B04D070470122C36302707047AD
:10145000B7EE007AD0ED015A90ED026A0123D0ED8B
:101460000D7A76EE076A0370A5EE867AF8EE677A53
:1014700067EEA57A67EEA67AF0EE476A87EEA67A5F
:10148000F8FE477AFCEEE77AC0ED0F7A70470378F2
:10149000012B02D0022B14D07047D0ED0F7A90EDC3
:1014A0000B7AF8EE677A90ED026A67EE877AB7EE0C
:1014B000007A77EE676AA6EE267AC7EE876AC0EDF5
:1014C000016A0023C3630323037070470378F7EEB8
:1014D000007A82B00022042B05D8DFE803F0031C59
:1014E0003D406200426090ED017A0092B5EEC07A14
:1014F000CDED017AF1EE10FA54BF0430684690ED5C
:10150000007AB4EEE77AF1EE10FAC8BF01A890EDC8
:10151000000A02B07047C36BB0EE676AD0ED0B6A89
:1015200007EE103AD0ED025A416BB8EE477A8B4283
:1015300027EE267A77EEC76AA5EEA66AC7EE066A98
:10154000C0ED016A41D34378002B0CBF0323022373
:1015500003700023C363C6E7C0ED017AC3E7C36B22
:10156000D0ED0C6A07EE103AB8EE477A27EE267AED
:101570000BB94168016477EEC76A90ED106AD0ED4F
:10158000035A816B66EE866AB0EE676A8B42A5EEFF
:10159000876A86EE867A80ED017A16D3002303707F
:1015A000D8E7C36B90ED096A07EE103AF8EE476A88
:1015B00090ED0A7AA6EEC67A80ED017A90ED087A6F
:1015C000F4EEC76AF1EE10FAE8DA0133C2E7037805
:1015D0002BB104230370436883620023C363704705
:1015E000F8B55B48002409F01BFA5A4809F026F9BF
:1015F000594809F023F9594809F020F9584809F0E9
:101600001DF9584809F01AF9574809F017F95748D1
:1016100009F014F9564809F011F9564809F00EF985
:10162000554809F00BF9554809F008F9544809F0F4
:1016300005F9E1B2534809F0CDFC534B03EB8403A9
:1016400001340C2C83ED000AF3D14B4BF6EE007AFB
:101650004E48D3ED036A494BF4EEE76A4C4D93EDE7
:10166000037A4C4BF1EE10FAB4EEE77A1B68CCBF6C
:1016700001260026F1EE10FA03F10102F4EEE76A0A
:10168000CCBF01240024F1EE10FA0BDD03784BB936
:101690002B68013393FBF2F102FB113301212B6024
:1016A0003D4B1970B4EEE77A3C49F1EE10FA0CDDCF
:1016B0000B7853B92B68013B134493FBF2F702FB01
:1016C000173301222B60344B1A700670344E2A688F
:1016D00033680C709A4217D0032B2A68CCBF0020C5
:1016E0000120032ACCBF0021012188420AD0032B0C
:1016F0004FF000012B4B01DC032A06DC19705970F6
:101700009970D9702B683360F8BD1A4612F8010B36
:1017100020B901310429F9D14FF0FF3100221A70AC
:101720005A709A70DA704A1CECD001221E481A7066
:101730001E4B03EB810212681A60442202FB010473
:10174000214617F08FFB2046FFF741FFDAE700BF85
:10175000AC04002428F3022408F3022468F30224D2
:1017600048F3022488F4022488F3022444F4022477
:1017700064F402248C04002424F4022404F40224DB
:10178000E4F30224C0F30224FC2E0324F12E0324EC
:10179000482F032494A401085C2F0324F02E032473
:1017A000F42E0324F4F60224F8F6022408F80224A6
:1017B000124BDA68124B1A60124B134ADB68136043
:1017C000124AD168124A1160124AD168124A116055
:1017D000124AD168124A1160124AD168124A116045
:1017E000124AD168124A1160124AD168124A116035
:1017F000124A1360124A1360704700BF28F3022494
:10180000582F032408F30224502F032468F30224E2
:10181000642F032448F30224602F032488F4022455
:10182000F42F032488F30224682F032444F40224B1
:10183000EC2F032464F40224F02F0324542F0324F8
:101840004C2F0324F8B50B4E00240B4F0B4D3046A4
:101850000134FFF7BCFE0023042C06F1440607F810
:10186000013B4FF0000305F1280545F8103CEED18F
:10187000F8BD00BFF8F60224F4F60224B4F4022402
:101880002DE9F84F3D4B07460D4690461E88002433
:10189000DFF800A1B6B22DED028BDFF8FC9046FA1E
:1018A00004F2BAEC018AB9F8003012F0010B43FAE5
:1018B00004F303F0010338D003BB45B34046FFF700
:1018C00047FC421C034619D02D4A0121072F02EB89
:1018D000800282ED008A2B4A11544FF028002A4AD8
:1018E00000FB03224FF07E50C8BF82F823109061A6
:1018F0004420264A00FB0320FFF7A1FD01340C2CF5
:10190000CBD1BDEC028BA9F80060BDE8F88FB0EE3A
:10191000480AFFF72DFC1D48FFF791FD072FEDDD6D
:10192000194B012283F82320E8E7002BE6D085B18C
:10193000B0EE480A4046FFF7E7FB431CDED0114BF0
:10194000442203F800B0114B02FB0030FFF79FFD6B
:10195000D4E70C4B1A78002AD0D0094A9FED0C7AB4
:10196000D2ED007A77EEC87AF0EEE77AF4EEC77A35
:10197000F1EE10FAC2D505481D70E7E730040024E7
:1019800008F80224F4F60224B4F40224F8F602243F
:10199000CDCCCC3D98A40108B2F402240A4A9FEDB4
:1019A0000B7AD2ED007A0A4B67EE877A094A9FEDEF
:1019B0000A7AD2ED006AC3ED047ADFED087AE6EE2A
:1019C000877AC3ED027A70474C2F032448E17A3FAF
:1019D000B8040024582F0324A4707D3F0AD7233C69
:1019E0002DE9F04F9046714AF3EE087A8A4692ED5F
:1019F000007A07466E4A99466E496F4D2DED048B6D
:101A0000BAEE088AD2ED008A6C4A83B0A7EE278A24
:101A100092ED009A0BB1072843DC664D0026664C18
:101A2000DFF8B0B1464500F39B80654BFBEC017AD3
:101A30001B6877EE887AEF61AB600023C5ED018A01
:101A4000C5ED007A85ED039A6B62B9F1000F5ED0A7
:101A50005C4A1268F7EE007A2A622B616B61AB6117
:101A600023606360A360E36023616361C4ED077A70
:101A7000B9F1000F62D15449544A0878B25C002889
:101A800048D0002A4ED0A361BAF1000F56D1097890
:101A900000294AD0002A50D1DFED4D7AC4ED067AF4
:101AA0004CE04C4B0024C8612A46D3ED007A444BED
:101AB00037EE888AC1ED018A1B6881ED039A8B603D
:101AC000404B81ED008A1B684C620B6210230C6155
:101AD0004C618C6140480093404B00F0FDFD40227A
:101AE00000213F4817F0CCF9402200213D4817F073
:101AF000C7F9402200213C4817F0C2F90023AC612D
:101B000085F8233003B0BDEC048BBDE8F08F4FF0B7
:101B10007C529FE7002A9FED2E7A47FE277AC4ED7C
:101B2000067AB1E7DFED2A7AF9E7B7EE007A002A04
:101B3000DFED277A47FE877AB0E7A36110234FF4E1
:101B40005B6C2548224600932946244B0CFB06007B
:101B50002835283403EB8613013600F0BDFD61E71C
:101B600008F10104042C08D01C484022002100EB9D
:101B70008410013417F084F9F4E7134E3378002B06
:101B8000C0D01A4C0025114F45450BDC17F8013B1E
:101B90002BB12046FFF71BFD2046FFF750FC013517
:101BA0004434F1E700233370ACE700BFF02F032487
:101BB000682F032454F60224B4F40224EC2F0324E7
:101BC000F42F0324642F03245C2F0324F4F602244F
:101BD0000000000008F8022428F8022454F502242A
:101BE00094F50224D4F5022414F60224F8F6022413
:101BF000374B40220021F0B5044636481E68364D6A
:101C00002DED028B83B017F03BF9402200213348C1
:101C100017F036F9324BDFED337A93ED000A324B91
:101C2000B4EEE70AD3ED007AF1EE10FA67EEA78A78
:101C30004CBFB6EE008A20EE008A68EEA78A48BF45
:101C400020EE088A002C4FF0000414BF042701275F
:101C500028EE008A072E38DC44232448B0EE480AD8
:101C600003FB04000190FFF773FB0198B0EE680AD4
:101C7000FFF7CCFB0198FFF729FC16482B461749C4
:101C80000022B3F900C00132D0ED007A043307EE30
:101C900010CA33F902CC102AB8EEC77AE7EE007A00
:101CA00007EE10CAB8EEC77AE0EC017AD1ED007AFF
:101CB000E7EE007AE1EC017AE3D101344035A74246
:101CC000C8D103B0BDEC028BF0BDB7EE000AD4E77B
:101CD000482F0324AC2F032454F502246C2F032433
:101CE000602F0324CDCC4C3E642F0324F8F602244D
:101CF000B7EE005A5C4BF0B5002435EE405AD3E9FC
:101D0000062527468F4280F0AA80584D7C08DFEDDB
:101D1000587A4BF6803C05EB8404D3ED026A93EDD0
:101D2000036A4BF67F3594ED007A27EE277AF5EEBD
:101D3000007A27EE277AD3ED017A76EEE76AE6EEAF
:101D4000267AD3ED006AC3ED017A67EEA67AFDEE3E
:101D5000E76A16EE904AB8EEE66AAC4277EEC67ACB
:101D600028BF2C4625461419C3ED057AB4FBFCF6B2
:101D70000CFB1646013403EB8606D6ED086AB4FB6D
:101D8000FCF60CFB164403EB840494ED086A394C12
:101D900036EE666AD4ED015AE6EE276A94ED006AE3
:101DA000D4ED057AE6EE267A94ED076AA6EEA56AEA
:101DB000D4ED035AA5EEE76AD4ED025A84ED056A24
:101DC00094ED046A26EE676AA6EEA56AF8EE086A44
:101DD000F4EEE67A84ED076AF1EE10FA39D4F0EE0B
:101DE000086AF4EEE67AF1EE10FA35DCF3EE0B6AEF
:101DF000F2EE025AB0EE666A67EEA55AA7EEA76A3F
:101E0000E5EEA76A26EE276AC6EE267A93ED046A07
:101E100003EB820402F53B42023708307F32F0EEDA
:101E2000476AE6EE276A65EE277AE0EE077A9FEDCD
:101E3000127AC4ED086A4BF68034B2FBF4F667EE12
:101E4000877A04FB1622012440ED027A40ED017AE4
:101E500058E7FFEE007AD9E7F7EE007AD6E70CB143
:101E6000C3E90625F0BD00BFB8040024AC2F03244D
:101E700000000038E4F202243333333F80B1D1ED67
:101E8000007A9FED0E7AF0EEE77A0D4BD3ED006A03
:101E900067EE877A9FED0B7AE6EE877AC3ED007ADC
:101EA000094A13680133632B01D81360704700237C
:101EB00013600122054B1A70704700BF0AD7233CFC
:101EC00084F40224A4707D3FF82E0324B0F402248D
:101ED0002DE9F04F9C4C884616462DED028B8DB0B7
:101EE000B6EE008A0AF0AEFBA060FFF779FBFFF7C1
:101EF0005FFC964BD3ED007A954B67EE887AD3ED75
:101F0000006AB0EE677AA6EE887A83ED007A914B8C
:101F100093ED007AE7EE087AC3ED007A8E4B5B7999
:101F20007F2B40F0C4800AF08BFB8C4B18608C4BED
:101F30008C4A1F688C4B032F8C4DD3ED037ACCBF9A
:101F40004FF000094FF001091378042FB4BF4FF090
:101F5000040A4FF0010A002B40F0C2809FED847A02
:101F6000F4EEC77AF1EE10FA13DD2B7801218148E7
:101F70004B401170804A2B70002B08BF104608F0B0
:101F8000FBFC2B782BB17D4B7D4893ED000AFFF7CE
:101F90001FF82D78DFF808B2ADB99BF8003093B187
:101FA000FFF750FC774B002283F823509A611A64A4
:101FB00083F84B509A6683F87350C3F8902083F8E7
:101FC0009B50714B1D808BF80050002D00F09280CB
:101FD0006E4B1988002389B21A4641FA03F0C007F4
:101FE00041BF0CA800EB8200013240F8303C0133C5
:101FF0000C2BF2D169466248FEF7ACFF644BB3EE9E
:102000000E0AD3ED000A15F01FFF5D48FEF7F2FF40
:10201000604BF7EE087A5A48B0EE480A93ED037A1F
:10202000A7EE270AFEF7FAFF55487108FFF73EF8BA
:10203000FFF7B4FC002D63D000220123114638467F
:10204000B7EE008AFFF7CCFC4846FFF7D1FD524BB4
:102050003146404693ED000A38EE400AFFF748FE4D
:102060002DB1484B00229A61002283F823200AF008
:10207000E9FAA36894ED017AC31A07EE903A23783F
:10208000F8EE677A67EE877A002B3ED00023C4ED26
:10209000057AC4ED037AC4ED047A237041463046D4
:1020A0000DB0BDEC028BBDE8F04FFFF7E7BEFF2B94
:1020B0007FF43DAF294D2B68002B3FF438AF0AF079
:1020C000BFFA2B686FF47A77C01A40F2CE733844A7
:1020D00098423FF62CAFFFF7B5FB00232B6026E7B5
:1020E0009FED2E7AF4EEC77AF1EE10FA44BF00238A
:1020F00013704EE7524649463846FFF7C1FB97E753
:102100002B460AF1FF32494699E794ED047AD4ED63
:10211000056AF4EEC77A94ED037AF1EE10FAF4EE64
:10212000C77A94ED067A38EE478AC8BFC4ED047AC0
:10213000F1EE10FA28EE268A48BFC4ED037AA7EE26
:10214000878A84ED058AA9E72C2F03243404002410
:10215000EC2F03244C2F0324AC040024EC2E032486
:10216000482F0324EA2E03248C040024E92E0324A0
:102170009A99993EC8A40108D7A401080400002434
:1021800038040024B4F40224B2F4022430040024FD
:10219000582F0324E4F30224542F0324CDCC4C3EC7
:1021A000E82E032410B5002386B00A4664218DF87A
:1021B000173001230446CDE901310DF117010091DB
:1021C000017909F037FB6379002818BF43F0010358
:1021D0009DF81700637106B010BD0B2908B506D82D
:1021E0001E31C9B2FFF7DEFF8000C0B208BD00207B
:1021F000FCE710B5002386B00A466421ADF8143020
:1022000002230446CDE9013105AB00930123017996
:1022100009F010FB6379002818BF43F00103BDF8F3
:102220001400637106B010BD0021FFF7E2BF0B2957
:1022300005D80231490001F0FE01FFF7DABF0020A6
:1022400070470B2970B506460D4609D8FFF7C5FF44
:10225000044629463046FFF7EAFF201A00B270BD57
:102260000020FCE710B586B0012304468DF8142049
:102270006422CDE9013205AA00920A46017909F0EB
:10228000FFFA6379002818BF43F00103637106B0B9
:1022900010BDF8B541240F4616465E2100220546C2
:1022A000FFF7E0FF21463A462846FFF7DBFF611CB7
:1022B00002343246C9B22846E4B2FFF7D3FF592CA4
:1022C000F0D128468F225E21BDE8F840FFF7CABF53
:1022D00010B50B7D04465B00037109F0EDF9632234
:1022E00080212046FFF7BEFF01200AF0B1F95D21F1
:1022F0002046FFF757FF242856D100225E212046B2
:10230000FFF7B0FF042208212046FFF7C2FF012299
:102310002B212046FFF7A6FF03222C212046FFF7A2
:10232000A1FF10222D212046FFF79CFF20222E2105
:102330002046FFF797FF01222F212046FFF792FF4B
:10234000032230212046FFF78DFF10223121204645
:10235000FFF788FF202232212046FFF783FF01226A
:1023600033212046FFF77EFF052234212046FFF768
:1023700079FF002235212046FFF774FF22225B21DE
:102380002046FFF76FFF3F225C212046FFF76AFFE0
:1023900000225D212046FFF765FF20468F225E2147
:1023A000FFF760FF012010BD0020FCE74079704777
:1023B000002343717047000038B52DED028BB7EE56
:1023C000008ADFED287AF0EE418A0D4660EEA70A1A
:1023D0000446C8EE007A20EEA70A15F0C9FEC0EE4A
:1023E000286A012D60EE007A36EE887A37EE277A79
:1023F00088EE076A37EEC87A38EE668A37EE077AD3
:1024000038EE278A27EE067A28EE068A0CD0022DAF
:102410001CD067EE867A77EEA76AC4ED007AC4ED29
:10242000027AC4ED016A09E0F8EE007A84ED006AF0
:1024300084ED026A66EE277AC4ED017A84ED048A9F
:10244000204684ED037ABDEC028B38BD66EE866AC9
:1024500000236360C4ED006AF1EE666AC4ED026AAF
:10246000ECE700BFDB0F4940DFED0E7A0E4A30EE9D
:10247000270AFDEEC07AB8EEE77A17EE901A30EE32
:10248000470ABEEECC0A10EE103A02EB8302074B6D
:1024900003EB810392ED000AD3ED007A20EE270AC8
:1024A000704700BF00000043E8DD0108ECE10108CF
:1024B00090ED007AF7EE006A30EE470A27EE076AE1
:1024C00076EEC77AB5EEC00A26EE066A67EEA77A00
:1024D000F1EE10FAD4BF76EEC65ADFED110A76EEB1
:1024E000E76AD8BFE5EE810ADFED0E5AE6EEA17A83
:1024F000A0EE807A80ED007A80ED017A9FED0A7A75
:10250000A6EE257A9FED096AA1EE867A80ED027A21
:1025100027EEA17A67EE217AC0ED037A704700BFFB
:102520009A99193F9A99993EA69B443B0AD7233D15
:10253000064A00238260064A4360C2608361054AFE
:1025400043614FF07C5302610360704722BA003D43
:102550000AD7233CCAAA7F3FB5EEC00A70B5F1EE98
:1025600010FA049C34D5F1EE405A26461546013E39
:10257000B7EE000AB6F1FF3F2AD0D5ED007A90ED14
:10258000007A65EEA77A9FED4E6A9FED4E5AF0EE07
:10259000E76A76EEC76AF5EEC06AF1EE10FA36FE2B
:1025A000056AA6EE867AB4EEC07A80ED007AF1EE86
:1025B00010FA88BFC0EE076A9FED437A98BFF0EE2D
:1025C000406A67EEA67A67EE877AE5EC017ACEE795
:1025D000DFED3E7A059D20EE270A6D0000295ED1D1
:1025E00090ED016A07EE904AF0EE045AB0EE467A9A
:1025F000F8EE677AC0ED035A90EE207AC7EE273ADC
:102600009FED337ADFED337A21EE077AE1EE077A38
:10261000B7EE007A21EE271AF0EE477A80ED021A23
:10262000E1EE257AE1EE017AC7EE274AC0ED044AD1
:10263000013C31D3D0ED056A36EE236AB2EC015A83
:1026400025EEE67AD0ED067AA5EE067AA1EE667A58
:1026500037EE677A27EE247AE1EE076AE1EE267A12
:10266000B0EE664AA1EE074AB0EE677AA1EE267A8E
:1026700080ED054A80ED067AB0EE677A95EE067A2F
:10268000E1EE877AFDEEE77A17EE901A013101F359
:102690000F0119802B44CBE780ED016A70BD013C2E
:1026A000FCD3F2EC017A60EE277AFDEEE77A17EEC2
:1026B000901A013101F30F0119802B44EFE700BF9D
:1026C000CDCC4C3DACC5A737CDCC4C3F00FEFFC6B2
:1026D000D7573941DB0F49402DE9F04F04461546E5
:1026E00090690E46D4F8702C04F6344A94F8309C65
:1026F0002DED088B8FB09FEDE1BAF7EE008ADFED8C
:10270000E0AA0293D4F86C3C02EB8301073303F098
:1027100007030860591DC4F86C3C063301F007013B
:1027200003F0070302EB810102EB8303D1ED007A92
:1027300093ED007A04F6284337EE677AE7EE0B7ADA
:10274000B9F1000F40F00982F4EEEA7AF1EE10FAE6
:102750000BDD012295F8241084F8302C09B984F897
:10276000482C2A68CAED008A1A6095F823200AB915
:102770002A681A60D4F8EC1CB6EE009AD3ED006A11
:102780004A1ED4F8203C07EE902AB8EEE77AD6ED40
:10279000077AF8EEE77AE6EE877A07EE103AF5EE7A
:1027A000006AB8EEC77AF4EEC77ABDEE007AF1EEB1
:1027B00010FA37FE267A77EE877A77EE897AFDEE81
:1027C000E77A17EE907A002FC0F2D281B942D8BFD3
:1027D000174604EB8703C4F8207CD3F8AC8CD4F8FC
:1027E000243CBB4204F67443039309D0D8F800306C
:1027F00040465B689847039B83ED009AC4F8247CAD
:1028000094F8303C0BB189F0010304F62C42D5ED6D
:10281000017A95F8239092ED008AC2ED007A37EEA6
:10282000888A28EE098AB9F1000F00F0A381DFED54
:10283000957AB0EE009A96ED080A8DF8203020EED9
:10284000270AFFF711FEDFED906AB0EE685ADAED65
:10285000007A20EE26AA9FED8D7A95F82430AAEE14
:10286000495AF1EE4A9A25EE275AD5ED077A27EE16
:10287000877AF0EEE77A8AED005A77EEAA7AC7EE09
:1028800027AADFED837A95ED037AF5EEC0AAF1EE83
:1028900010FA48BFDFED79AA002B47FEAA7ACDEDEA
:1028A0000D7AD6ED017A77EE877AF5EEC07AF1EE01
:1028B00010FA40F161818DED0CBA072F40F065816F
:1028C000F1EE087A9DED0C6AB0EE497AA6EE677AD1
:1028D000B5EEC07AF1EE10FA00F15A81B4EE687AE2
:1028E000F7EE007AF1EE10FA37FE877A96ED046A79
:1028F00027EE057A9FED644AF0EEC65AD6ED007ACF
:10290000DFED643A95F8203078EE277A75EEE65AD6
:10291000D5ED024AF4EE665AF1EE10FA48BFF0EE39
:10292000445A66EE255A65EEA35A4BB9B9F1000F29
:1029300000F0318167EE054A9FED576A64EE864AE2
:10294000E5EEA47A9FED556AF4EEC67AF1EE10FA40
:1029500000F124819FED526AF4EE467AF1EE10FA0E
:1029600076FE277AD6ED055A9FED476AF0EEE54AE6
:1029700095F82130CDED097A95ED044A74EEE64ADA
:10298000D6ED027AF4EE664AF1EE10FA48BFF0EEA8
:10299000464A65EEA45A65EEA35A2BB9B9F1000F69
:1029A0009FED364A04FE054AE5EE847AF5EEC07ADC
:1029B000F1EE10FA00F1F580F4EE687AB7EE006AF5
:1029C000F1EE10FA76FE277A96ED066A95F8223037
:1029D000F0EEC65ACDED0A7A95ED055AD6ED037A9A
:1029E00075EEE65AF4EE665ADFED276AF1EE10FA5C
:1029F00048BFF0EE665A26EE256A26EE236A2BB90A
:102A0000B9F1000F9FED1D5A05FE075AE6EE057A53
:102A1000F5EEC07AF1EE10FA00F1C680F4EE687AB5
:102A2000B7EE007AF1EE10FA77FE277A98F80C30BC
:102A30000DF11F0204F54F6904F5556A8DF81F303A
:102A400008A9D8F8003040460192209ACDED0B7AC3
:102A500000924A469F685346B8479DF81FB004F657
:102A60003847BBF1000F4ED195F8243043BB95F8A1
:102A70002320002A00F0E18022E000BF00000000D7
:102A80009A99993E0000C0C2CDCC4C3D6666A63FE7
:102A9000CDCC4C3F6666863F000040420000EEC24F
:102AA0000000F042000090C20AD7A33BCDCCCC3D41
:102AB000000000C30000FE4251969639000000005D
:102AC000B2EE088AD6ED091A5FED0A7A96ED087A19
:102AD00021EE880A0593CDED041AA7EE270AFFF729
:102AE000C3FCB0EE691A5FED107A059BA0EE271AC1
:102AF000DDED041A002B5AD0F0EE4A0A3846B0EE4B
:102B00006A0AFFF7D5FC0225209B4A4659460093E6
:102B10000195029BD7ED031A97ED021AD7ED010A32
:102B200098ED010A0398FFF717FD209B0195524687
:102B300000935946029B04F54960D7ED031A2B44D4
:102B400097ED021AD7ED010A98ED020AFFF704FD8E
:102B50000FB0BDEC088BBDE8F08F1FED2C7AF4EEC2
:102B6000C77AF1EE10FA44BF002284F8302CFCE55D
:102B700000272EE602235AE6F4EEE87AF1EE10FA88
:102B800078FEA77ACDED0C7A97E6B7EE007AADE63F
:102B90001FED367AAAE6F7EE004AD1E6F0EE467A65
:102BA000E0E65FED3A7A0FE75FED3C7A3EE7B2EEA2
:102BB000020ADDED097A37EEC00A5FED437AB4EE22
:102BC000E70AF1EE10FA2BD45FED467AB4EE670A0D
:102BD000F1EE10FA37FE800A94F8483CEBB18DED27
:102BE000051ACDED041AFFF73FFC5FED4D7ADDEDE0
:102BF000041A20EE270A9DED051A60EE087A97ED7B
:102C0000000AA7EE890AB4EEE80AF1EE10FA0ADB30
:102C10000023C7ED008A84F8483C1FED580A04E001
:102C2000B0EE670AD8E787ED000AF0EE4A0A3846A8
:102C30004FF0000BFFF73CFC65E74FF0010B62E73C
:102C4000036C0F2B08DC40F8231001330A7381ED6D
:102C5000010AC1ED020A036470470000F8B5DFED18
:102C6000640A00F6AC4600250446B0EE600A0F4642
:102C70002A4600F62831C0F8EC5C3046FFF7E0FF4A
:102C8000DFED5C0A9FED5C0A2A4604F6CC31304643
:102C9000FFF7D6FFDFED570A2A4604F50071B0EEC4
:102CA000600A3046FFF7CCFFDFED520A9FED520A73
:102CB0002A4604F50E713046FFF7C2FFDFED4C0ADD
:102CC0002A462146B0EE600A3046FFF7B9FFF7EE1C
:102CD000000AB8EE080A2A4604F618113046FFF733
:102CE000AFFFFFEE000A2A4604F5A9613046B0EEB8
:102CF000600AFFF7A5FFF7EE000AB8EE000A2A46C1
:102D000004F5B9613046FFF79BFFBFEE000ADFED27
:102D1000380A012204F2CC713046FFF791FFBFEE72
:102D2000000ADFED330A012204F204413046FFF7C6
:102D300087FFDFED2F0A012204F5A471B0EE600ACF
:102D40003046FFF77DFFDFED2A0A012204F5D56149
:102D5000B0EE600A3046FFF773FFDFED250A01226F
:102D600004F52F71B0EE600A3046FFF769FFD4F822
:102D7000EC3C9D420BDA7B68394656F8040B013572
:102D80003B60FB68BB6003681B689847EFE74FF048
:102D9000FF330025002604F67440C4F8243C04F6F2
:102DA0002843C4F8206C1D60FFF7C2FB04F549609E
:102DB000FFF7BEFB04F634434FF07E5204F64C405E
:102DC0001D6004F6384331465A604FF07C521D6056
:102DD0009A602022DD6004F62C4384F8306C1D607C
:102DE000C4F8700C16F04CF8C4F86C6CF8BD00BF59
:102DF000CDCC4C3F9A99193F3333333F704710B5D0
:102E0000044690220021B83016F03AF804F1180375
:102E1000C03400221846002143F8082C43F8042C43
:102E2000302216F02DF8034638339C42F1D110BD04
:102E300060EE200AFDEEE07A17EE903AF8EEE77ABF
:102E400000EB830070EEE70A90ED000A90ED017A46
:102E500037EE407AA7EE200A7047FDEEC07AF8EE12
:102E6000E77A30EE670A60EE200AFDEEE07A17EEB0
:102E7000903AF8EEE77A00EB830070EEE70A90ED07
:102E8000000A90ED017A37EE407AA7EE200A7047EB
:102E9000F8B52DED088BB7EE008ADFED369AB6EE69
:102EA000009A0E46F0EE60AA1446C8EE207A1F463D
:102EB000002571EE086AB0EE41AAB0EE69BA77EE6D
:102EC000C87A87EEA67A07EE903AF8EE677A77EE40
:102ED000C87A29EE479A77EE877AA7EE809ABD42A4
:102EE00032D007EE905ADFED240A2448F8EEE77A54
:102EF00077EEC97AF0EEE77A67EEAA7A38EE677A6B
:102F0000B0EEC70A30EE070A60EE008AB5EE000A9E
:102F1000AAEE270AFFF7A1FF54F8252030EE080A91
:102F2000013506EB820220EE280AD2ED007AB0EEDF
:102F3000677A20EE000A90EE007AE7EE0B7A79EEDF
:102F4000A79AC2ED007ACAE788EE297A224604EBF6
:102F50008505AA420AD052F8043B06EB8303D3ED61
:102F6000007A67EE877AC3ED007AF2E7BDEC088B52
:102F7000F8BD00BF6F12833A00008044E4C9010825
:102F8000F0B52DED048BF6EE008A07EE903A90ED49
:102F9000018AA5B0B8EE677A0446B4EE680A6D46B9
:102FA00017461E4608302B46F1EE10FA4FF000028D
:102FB00028FE800A70EE487AC7EE879A01321860C0
:102FC000B1EC016A0C3307EE902AF8EEE77AF6EEE0
:102FD000006AB7EE009A67EE807AF0EE005AF4EEDF
:102FE000687AF1EE10FA66FEA77AF0EE496A0C2ACA
:102FF000E7EEE56AF0EC017A43ED027AD6EE267A46
:10300000C7EE876A43ED016AD8D1013E38D338EE66
:10301000298AD4ED007ADFED220A224878EE277A59
:10302000F4EEC97AF1EE10FAA8BF77EEC97AC4EDD2
:10303000007A94ED000AFFF7FBFE30EE000AB7EECF
:10304000006A2B460022DFED186A60EE287A93EDC5
:10305000017A0132D3ED025A0C330C2A37EE257A6D
:10306000E7EE276A03ED027AB1EE467AB0EE676AC0
:10307000A0EE277AF0EE477AE9D1E7EC016AC4E7DF
:103080000C2384ED018AD5F88420013BD5F8881003
:10309000A5F10C051160F6D125B0BDEC048BF0BD97
:1030A00000008044E4C9010800000000B6EE007A88
:1030B00007EE903AF0B5B4EE470A0446F8EE676AB8
:1030C00017461E460830F1EE10FA4FF00D022DEDB6
:1030D000068B10ED018A27FE000AA5B070EE487A33
:1030E0006D46C7EEA6AA2B4607EE902A1860F1ECB3
:1030F000015A01320C33F8EEE77AB6EE006AF7EEC9
:10310000009A67EE807AB0EE005AF4EE477AF1EE5C
:1031100010FA66FE277AB0EE696A192AA7EEC56A28
:10312000F0EC017A43ED027AD5EE867A87EEA66A54
:1031300003ED016AD8D1013E50D338EE2A8AD4ED8E
:10314000007ADFED2E0A2E4878EE277AF4EEE97A3F
:10315000F1EE10FAA8BF77EEE97AC4ED007A94EDAB
:1031600000AAB0EE4A0AFFF763FEF2EE087A70EEAC
:10317000008ADFED220AB5EE000A2148AAEE270AEE
:10318000FFF76BFEB0EE409AB2EE0A0ADFED1B0AC3
:103190001B482AEE000AFFF760FE2B4600229FED37
:1031A000197AD3ED017A0132D3ED026A0C330C2A7D
:1031B00077EEA67AA7EE807A43ED027AF1EE497AAD
:1031C000B0EE409AE8EE807AB0EE670AE9D1F7EC0B
:1031D000017A77EE877A47ED017AACE70C2384ED2C
:1031E000018AD5F88420013BD5F88810A5F10C059B
:1031F0001160F6D125B0BDEC068BF0BD0000804417
:10320000E4C9010800000000B2EE027AD1ED017AB3
:10321000F0B577EEC77A9FED4A7A044615461E460A
:10322000F4EEC77A2DED028BF1EE10FA85B00C9F0B
:1032300000F182809FED437AF4EE477AF1EE10FAC6
:1032400077FE277A9FED407AB3EE001A3F4A77EE79
:10325000877ADFED3F0AD1ED028ABDEEE77AB0EE64
:10326000680AF8EEC76A17EE100A9FED3A7A77EE11
:10327000E67AD1ED046A26EE811AFEEECC7A21EED2
:10328000261A17EE903A02EB8302334B8DED031AA8
:1032900003EB800392ED008A2046304AD3ED007A9A
:1032A000182328EE278ADFED2E7A28EE278AF7EEFC
:1032B000007AE6EEC77A91ED037A04F1B801019144
:1032C00067EE877A9FED277A27EE877A27EE277AAF
:1032D000E7EE270ACDED020AFFF7DAFDB0EE480A65
:1032E0003B462A46019904F11000FFF749FEB0EE73
:1032F000480A3B462A4604F1E80104F14800FFF77A
:10330000D5FE04F58C71B0EE680A9DED031ADDED73
:10331000020A20460823144A0191FFF7B9FDB0EED6
:10332000480A3B463246019904F18000FFF728FE27
:1033300005B0BDEC028BF0BDF0EE477A82E700BF2E
:10334000000000C30000FE4200000043E8DD010869
:103350000AD7233C9A99193FECE1010820A50108FE
:103360005196963952B8FE3F00A5010870470000FB
:10337000A0EE810A254BB6EE007AF7EE006AF1EE78
:10338000005AFDEEC07AF8EEE77A70EE677AF4EE56
:10339000C77ABFEE007AF1EE10FA54BF36EEE76A54
:1033A000B0EE676AA6EE257A37EE076AB0EEC77A06
:1033B00037EE267A76EEC16A86EE070AB6EE087A0E
:1033C00077EE877ABDEEE77AB8EEC77A77EEC77AFE
:1033D0009FED0F7A67EE877ABDEEE77A17EE102A37
:1033E00006EE102A03EB8201B8EEC66A91ED007A70
:1033F00077EEC67A91ED016A36EE476AA7EE867AD5
:1034000037EE407AA6EE870A704700BFE4C901088C
:1034100000008044F8EE087AB4EEE70AF1EE10FA04
:1034200017D4F0EE087AB4EEE70AF1EE10FA13DCE6
:10343000F3EE0B7AF2EE026AB0EE677A60EE266A7D
:10344000A0EE007AE0EE267A20EE077A87EE270AD1
:103450007047BFEE000A7047B7EE000A70470000E1
:10346000044B0360044B4360044B836000230361FF
:10347000C360704722BA003D0AD7233CCAAA7F3FE7
:1034800070B50025002604468561C5610562456268
:103490008562C56205634563C0E904663830FFF79D
:1034A000DFFF04F18C00E56425656565E56525664B
:1034B000A5656566A5662567E566C4F88050E5677D
:1034C000C4F88450C4F88850C4E92A66FFF7C8FFDE
:1034D000094BC4F8A050C4F88C304FF07C53C4F8AA
:1034E000A450C4F89030054BC4F8B050C4F89430E0
:1034F000C4F8B45070BD00BF61C0AD3E013F473F4E
:103500002DE9F0412DED0E8BB0EE40AA9FEDBF0AE4
:10351000DFEDBF7AF0EE41CA21EE800A0446C7EE25
:10352000A09A0D4690461E46DFEDBADA149FB0EE23
:1035300060CAF0EE61AAF0EE428AB0EE629AFEF73F
:1035400093FFDFEDB57AB7EE00BA20EE278A9FED44
:10355000B30A2CEE800AFEF787FFF1EE007AB5EE93
:10356000001A6CEE277A7CEE81CA67EE80BA6CEEA8
:10357000ADCAF4EE4BBAF1EE10FA7BFE2BBAB8F1FD
:10358000000F0ED0B1EE0C7A4FF49073F0EE087A83
:103590003022C4E90023EAEE077A0023E361C4ED98
:1035A000037A94ED09DA07EE907AB0EE4D7AF8EEF0
:1035B000677A9AEE8A7A87EE27EA013FC0F01F8188
:1035C0002268002A00F0BD80013AD4ED037A22601F
:1035D0000AB977EECB7AD4ED04AA002D9FED907A4C
:1035E000C4ED027A47FE877A77EEEA6A9FED8D7A1C
:1035F0009FED8D6AE6EE87AADFED8C6AC4ED04AA22
:1036000077EEEAAAE7EEA6AAF5EEC0AAF1EE10FA66
:1036100009DA7AEEAAAA6AEE866AF0EEEAAA7AEEE9
:103620008B7AC6EEA7AA6268002A00F09180013A60
:10363000DFED7F6ADFED7A7A002A626046FEA77AC4
:10364000F7EE006AC4ED067A002DDFED757AD4ED51
:10365000075A46FEA76AD4ED057A76EEE76AE6EEEB
:10366000877AF2EE046ABFEE007AA5EEA67AC4ED80
:10367000057AB5EEC07AF1EE10FA09DA37EE077A7C
:1036800067EE065AB0EEC77A77EE0B6A85EEA67A39
:10369000DFED686A67EEA66AF0EE4B7A37EE067ADF
:1036A000E6EEA87A27EE2D7AE7EE097A67EE8C7AB5
:1036B000F5EEC07AF1EE10FA55D49FED5F7AF4EE94
:1036C000477AF1EE10FA77FE277A002D4ED0B6EE4B
:1036D000007ADFED5A0A3DEE0EDA5948F4EE477AE9
:1036E000F1EE10FA67FE277A94ED0F7A77EE877A7B
:1036F000F4EECB7AF1EE10FAA8BF77EECB7AC4EDF8
:103700000F7AD4ED0FEAB0EE6E0AFFF791FBDFED12
:103710004B0A2DEE00AA4B48B0EE6E0AFFF788FB6D
:103720002DEE000A84ED070AACEEAAAAD4ED087AC1
:103730003AEE67AAEAEE2B7AC4ED087AE6EC017A53
:103740003BE7D4ED027A9FED407A67EE877A42E755
:10375000D4ED067ADFED3D6A67EEA67ADFED306ADA
:10376000C4ED067A70E7DFED2E7AAEE7DFED386A5A
:10377000B0EE4B6A9FED377A67EEA66A94ED065A73
:10378000A7EE886ADFED345A94ED0DAAA7EEA67A6B
:10379000F0EE4B6A67EE877A8BEE067AC4ED0A7A12
:1037A000E7EE276A84ED0B7A27EE4A7AE7EEA76AFE
:1037B0008BEE266AF0EE6A6AE5EE656AA6EEA97AF5
:1037C000D4ED0E6A84ED0C6AAAEE677A37EE667A5B
:1037D00027EE067AA7EE27AAB0EE4A6AA7EE276A76
:1037E000B0EE667AAAEE277A84ED0D6AF0EE476AAB
:1037F00084ED077AEAEE276AC4ED0E6A94E784ED59
:1038000009DABDEC0E8BBDE8F08100BF0000A042DC
:103810006F12833A0AD7A33D0080BB440000D84210
:10382000000000005555553E3333333F5839343D81
:10383000CDCC4CBF9A99D93FCDCCCC3E0000804432
:10384000E4C90108E4CD01085555653FB1E47F3F67
:10385000D7573941DB0F4940CDCC4C3E074A084889
:103860001168084B00FB013307EE903A1360B8EE85
:10387000670ADFED057A20EE270A70472000002452
:103880000D6619005FF36E3C0000802F2DE9F041BA
:103890002DED108B82B090ED00FAF7EE00EA9FED6F
:1038A000DCBA189DB2EE007A23EE033A044607EE26
:1038B000905AB1EE00DA21EEA1EA0F46F8EE67CA9F
:1038C000904670EECF7A1E46B0EE40CA9FEDD10A08
:1038D000B0EE609AC7EEACBAF0EE6E7A2EEE400A09
:1038E000F0EE6EDAE0EEC77A9FEDCB7AF0EE419A19
:1038F000F0EE62AA29EE0D9AF4EE4B7AF1EE10FA90
:1039000048BFF0EE4B7A67EE828AF0EE6E7AE3EE15
:103910000D7A67EE877A9FEDC17A67EE877A8EEE31
:10392000A7AAFEF7A1FDDFEDBE7AE0EE67DA9FED14
:10393000BD0A29EE800AFEF797FD29EE008AB4EE53
:103940006E8AF1EE10FA3EEECAAA3EFE888AB8F1FF
:10395000000F0FD09FEDB47A3022DFEDB47A3E2312
:10396000C4ED03EAECEE077AC4E91423C4ED077A48
:10397000C4ED057AD4ED09FAF0EE6F7ADEEE0C7A3A
:1039800087EEACEA002D00F03981FFF767FFD4ED38
:10399000020ADFEDA77A9FEDA5CAF6EE006A9FED59
:1039A000A5DAB0EE089AF0EE00CA30EE660A30EE04
:1039B000600AE0EE270AC4ED020A97B33FEE2BFA45
:1039C000D4ED017AB0EE681A7FEE8EFA7FEE277A98
:1039D000F4EEEE7AF1EE10FAA8BF77EEEE7AC4EDCF
:1039E000017A94ED010AFFF7C3FC30EE4DDA2DEEBB
:1039F0002FDA2DEE099AB0EECDDA7DEE2CCAC9EEA3
:103A00002C7AEFEE8C7A7BEE677A94ED0A7A013DA0
:103A100077EEC77AA7EE887A84ED0A7AA6EC017A67
:103A2000B0E7636D94ED047A002B00F0B280013BA7
:103A300063654FF07A536360236D002B00F0CF80F5
:103A4000013B2365D4ED067AB0EE681AD4ED056A21
:103A50009FED795A76EEE76A94ED010AE6EE857AF3
:103A6000D4ED076AC4ED067AD4ED087A76EEE76AFB
:103A7000E6EE857AD4ED036A76EEC76AC4ED087A7D
:103A8000F0EE477AE6EE857AC4ED047AFFF770FC33
:103A9000236DF7EE007A9FED5E7A002BB6EE006A9A
:103AA0008DED010A07FE877AD4ED0B7A37EE677A3F
:103AB000B5EEC07AF1EE10FA36FE055AE7EE057A59
:103AC00094ED0C7A9FED5D6A94ED0D5A77EEC75A2E
:103AD000C4ED0B7AA5EE867A94ED106AD4ED0E5AF9
:103AE00077EEC77A84ED0C7A94ED117AE5EEC67A1A
:103AF000D4ED0F5AE6EE457A77EEC77A67EEA57AEF
:103B0000A5EE276AA5EE067AF0EE465AE5EE275AAC
:103B1000F0EE477A8DED007AE5EE067AC4ED105AA4
:103B2000C4ED117AFFF79AFED4ED127A9FED447A34
:103B300030EE670ADDED016A9FED426A36EECDDABE
:103B4000DDED005AE0EE077A94ED137AD4ED086AC1
:103B500037EEC75AC4ED127AA5EE067A94ED066ADE
:103B60002DEE06DA2DEE099AB0EECDDA84ED137A59
:103B700077EEC77A7DEE2CCA37EEA57AC9EE2C7A9D
:103B800026EEC77AE6EE0C7A7BEE677AE7EE297AC4
:103B90003BE7D4ED037AB0EE0C6A3FEE2BFA67EE0A
:103BA0008A7A2AEE866AC4ED037AF0EE6E7AE6EE41
:103BB000077A67EE8F7AF4EE667AF1EE10FA76FE07
:103BC000A77AD4ED016A77EEA67AF4EEEE7AF1EEFA
:103BD00010FAA8BF77EEEE7AC4ED017A2CE7D4EDA7
:103BE000056AD4ED077A66EEAD6AC4ED056ADFEDCD
:103BF000166A67EEA67AC4ED077A23E7C4ED09FAE0
:103C000084ED00FA02B0BDEC108BBDE8F08100BF7E
:103C100000000000000070426F12033C00803B4730
:103C20008988883A0000D8423333333F9A99993EC5
:103C30006F12033B9A99193FCDCCCC3D0AD7233D57
:103C4000CDCC4C3D0AD7A33BEFEE7E3F60EE007A31
:103C5000B3EE087A70B52DED048B27EEA78A1546D2
:103C600004460E4628EE008A28EE078AB6EE007A51
:103C7000A0EE478A28EE278AF0EE007AA0EE078AA7
:103C80009FED1C7A77EEC07A67EE807A78EE476A0D
:103C9000A6EEA77AB0EE470AFFF7BCFBF7EE006A84
:103CA00007EE905AD4ED008AB8EE677AC6EE807AB5
:103CB00038EE688AC8EE079A94ED018A77EEC87AE2
:103CC00087EE879A013D0ED396ED000A78EEA98A19
:103CD00038EE098A28EE800AFFF79CFB20EE080ADE
:103CE000A6EC010AEEE784ED018AC4ED008ABDEC82
:103CF000048B70BDC3F5A83EF2EE027A91ED010A85
:103D00002DE9F04730EE670ADFED607A05460C4694
:103D100016461F46B4EEE70A2DED028BF1EE10FABF
:103D200088B0DDF8488000F1A480DFED597AB4EE68
:103D3000670AF1EE10FA37FE800AFEF795FBDFED19
:103D4000557A94ED047AB7EE008A60EE270A0023D4
:103D5000F1EE007AD4ED031A8DED068AF0EE006ADA
:103D6000F0EE488A079367EE277A94ED021A3346FD
:103D700094ED050A05F11000CDED030AF4EEC87AC2
:103D8000F1EE10FA38FE272A77EEC87AF4EEC87AF8
:103D9000CDED057AF1EE10FACCBF06AA05AAD2ED58
:103DA000007AF5EEC07AFFEE007AF1EE10FAE7EE57
:103DB000267AB3EE007A48BF07AAE0EEC78AD2EDB2
:103DC000002A2278F5EEC07ACDF80080C2F34009CF
:103DD00002F0020A02F00102F1EE10FA4946F5EE95
:103DE000C08A48BFDFED2C7AF1EE10FA48BFDFED54
:103DF0002A8A67EEA88AFFF783FBB6EE000A4246DE
:103E000005F1B0003146A8EE800AFFF71FFF2278C7
:103E100005F1580094ED050A02F0010294ED021A32
:103E2000D4ED031A94ED043ADDED030ABAF1000F64
:103E300022D0B0EE432A33EE033A3B46F7EE002A97
:103E40004946CDF80080B4EEC83AF1EE10FA72FEA1
:103E5000832A33EE483AB5EEC03AF1EE10FA48BF85
:103E60009FED0D3AFFF712FD08B0BDEC028BBDE8E7
:103E7000F087B0EE670A60E7F5EE007A9FED072A5B
:103E800061EEA77AA1EEE72AD5E700BF000000C3E4
:103E90000000FE425196963900000000CDCCCC3E89
:103EA0000023C0E904338361034BC3610362002331
:103EB00043628362C36270475196963A704700002E
:103EC000F2EE027A30EE670ADFED197AB4EEE70A15
:103ED000F1EE10FA28D4DFED177AB4EE670AF1EEAE
:103EE00010FA37FE800ADFED147A144A30EE270A02
:103EF000FDEEC07AB8EEE77A17EE901A30EE470A78
:103F0000BEEECC0A10EE103A02EB83020C4B03EB30
:103F10008103D2ED007A93ED000A67EE807A9FED7F
:103F2000090A27EE800A7047B0EE670ADBE700BF98
:103F3000000000C30000FE4200000043E8DD01086D
:103F4000ECE1010851969639F1EE007ADFED106A46
:103F500030EE270ADFED0F7A20EE270ABCEEC00A0A
:103F600010EE103A01EBC3010B4B8A0D03EB8200FC
:103F70008B0290ED000A07EE903A90ED017AF8EE90
:103F8000677A37EE407A67EEA67AA7EE270A70477F
:103F90000000802F0000004EE4C90108CB430D4A09
:103FA000D0ED007A01F0030103F0030302EB81017D
:103FB00002EB830393ED007AE7EE007A91ED007A4D
:103FC000C0ED007AD0ED017AE7EE007AC0ED017A1B
:103FD000704700BFF8A50108F3EE087A9FED9D7ABF
:103FE0002DE9F04F2DED108B91ED019A90461F4673
:103FF000994B39EE679AD1ED047A0D4687B067EE9A
:10400000877A0446209E9FED95BABDEEE77A17EEBB
:10401000102AB8EEC77A03EB820177EEC77AD1EDAA
:10402000008A91ED017A37EE687AE7EE878A79EEB9
:10403000288AB0EE680AFFF743FFB5EEC00AF1EE3A
:1040400010FA00F1EE80F6EE007AB4EE670AF1EEB7
:1040500010FA37FE808AB7EE00CADFED817A9FED55
:10406000817A78EEE78AF0EE4C7AE8EEC77AF5EEE0
:10407000C07AF1EE10FA00F1D780F4EE4C7AF1EE4E
:1040800010FA7CFE277AB0EE490A67EEA78AFFF79E
:1040900017FFD5ED026A07EE906A94ED099A234660
:1040A00036EEA67A95ED036AF8EE677AD4ED08AAA3
:1040B00094ED07AA27EE267A53F8342FF0EE496ADA
:1040C0008DED01BA38EE6A8A029330EE4A0A234631
:1040D000D7EE286A0092BFEE007A53F8302FC8EE70
:1040E00027EA94ED0A8A03928DED04BA059386EED1
:1040F000A7FAF0EE006A80EE27EAA6EE267A37EEFF
:10410000487AC7EE27FA002E00F09180DFED567A4C
:10411000002538EE2F8A3AEE0EAA7AEEAEAAB5EE58
:10412000C08A6AEE27CA39EE0F9AF1EE10FAFCEE59
:10413000ECCA2AEEA7DA4CBFF6EE009ADFED479AFA
:104140001CEE903A48BF68EE299A4FEA530A48BFDE
:1041500069EE889AF0EE4C7AD4ED0B8AB5EEC08AFF
:104160006369F5EE00DA1CEE902AE8EEA97A2046A3
:10417000F1EE10FACCBF28EE2D0A9FED380A6DEE55
:10418000277AC8BF20EE080AFCEEE77A28EE800AFC
:1041900017EE901A1944236902EB030BA3696161BE
:1041A0000AEB0309C4F810B0C4F81890FFF7CCFE6E
:1041B0005946204620EE090AFFF7C6FEF0EE40BA47
:1041C00020EE090A4946204620EE2D0AFFF7BCFEE4
:1041D0003BEEE87ADFED257AF0EE40DA2946B0EEE4
:1041E0006B0AE7EE278A6846C4ED0B8AFFF7D6FE16
:1041F00029460135B0EE6D0A03A8FFF7CFFE042D66
:10420000A8D1009B013E019A48F8043B0092039B11
:10421000049A8DED01BA03928DED04BA47F8043B80
:1042200071E7B0EE4B8A16E7DFED0C7A2BE7039AC5
:10423000059B1A60009A029B1A6084ED0A8A84ED3D
:10424000099AC4ED08AA84ED07AA07B0BDEC108B4B
:10425000BDE8F08F00000043D0BF0108000000005F
:1042600000009042CDCCCC3C0000804FCDCC4C3DEA
:104270007047000000230F490F4A036143618361C7
:10428000C361036243628362C36203634363836304
:10429000C363036443648364C364036543658365E4
:1042A000C365036643668166C266036741678267CA
:1042B000C367704722BA003D2033783FF0EE087A9A
:1042C000F6EE085A21EE271A08B5FDEEC17A2DED5B
:1042D000068B17EE903AF8EEE77AF7EE008AF0EEEA
:1042E000609A31EE671AB0EE619AB5EE00AA38EE28
:1042F000C11A93BB61EE017AB0EE687A27EE811A9B
:10430000F2EE0E7AA1EE277A60EE077AF4EE687A82
:10431000F1EE10FA68FEA77A77EEA57AB0EE670A9A
:10432000DFED2A0A2A48FEF798FDB0EE408ADFED5D
:10433000270AB0EE690A264838EE288AFEF78DFD76
:1043400039EE000A28EE0A8A28EE008A39EE280A99
:1043500088EE000ABDEC068B08BD012BB6EE006AA4
:104360001ED1DFED1C7ADFED1C6A61EE277A67EE65
:10437000817AE1EE276AB4EEE60AF1EE10FA5BBF4D
:1043800070EE667A78EEE66A86EE267A27EE860A80
:1043900056BFC0EE267A67EE007A77EE867ABBE7E4
:1043A00038EEC11A61EE017A27EE811AF2EE0D7A2B
:1043B000A1EE276AF0EE4A7AE0EE067AF4EE657A2C
:1043C000F1EE10FA65FEA77AA8E700BF000080446E
:1043D000E4C90108EE7CFF3E6F12833A08B52DED6B
:1043E0000A8BF5EE00BA3F48F0EE607ADFED3E0A48
:1043F000B6EE00BAF0EE40AAB0EE6B0AB0EE429A0A
:10440000B0EE41CAA7EE8B0AF0EE618AFEF725FDF9
:10441000DFED367AB7EE008AB4EEE79A30EE080A9E
:10442000F1EE10FA60EE0B9A32D5F7EE087AB0EEA4
:104430006BAAA9EE27AAB0EE489A3AEE0C0ADFED75
:104440002A0A2848FEF709FDF4EECB8AB0EE40AA0E
:10445000F1EE10FA3AD5F4EECBAADFED230A78EEAE
:10446000A88A20483AEEAB0AF1EE10FAA8BF69EE2E
:10447000A89AFEF7F2FC30EE480AA8EE808A39EEE0
:104480000AAA9AEE299A29EE080ABDEC0A8B08BD01
:10449000DFED177AB6EE087A9FED16AA79EE677A05
:1044A000A7EEC7AADFED147AB4EEE79AF1EE10FAA0
:1044B00009D5B0EE4A0ADFED0C0A0A48FEF7CDFC3A
:1044C000B1EE409AB9E79FED0D9AB6E7B0EE6A0AF1
:1044D000DFED050A0348A8EE8B0AFEF7BEFCB0EE3E
:1044E000408ACCE7E4C9010800008044FA7EAA3E75
:1044F000C3F5A83E3BDF3F3FFA7E2A3F6F12833A67
:10450000F4EE007A70B5B4EE670A04460E4615461E
:10451000F1EE10FA2DED0E8B27FE800AF5EE007AF3
:1045200090ED039AD0ED048AF4EE670AD0ED059A77
:1045300090ED06DA30EE490A31EE691A90ED02EAA2
:10454000F1EE10FA71EECD1A67FEA00A07EE902A7E
:1045500070EEE80AF8EE677AC0EE27AAC0EEA7BAB6
:1045600081EE27CA81EEA7BA013D6DD3D4ED007A62
:1045700039EE2A9AD4ED010AB7EE000A9FED398A86
:1045800078EEAB8A79EE277A3BEE0DAA7CEE29CA4B
:10459000F4EEC07AC4ED007AF1EE10FA48DB77EE63
:1045A000C07AB0EE691AF0EE4D1AC7EE89DAC4EDA2
:1045B000007A70EE6DEAEEEE8B1AAEEE8C1AEEEE2D
:1045C000A80AFFF77BFEF0EE480AF0EE409AF0EE04
:1045D0004A1AB0EE480AB0EE6C1AFFF76FFEF6EE1C
:1045E000007A30EE690A6DEEA77A67EEAD7A6DEE6D
:1045F000A8DAA0EE27EAFEEE007AC4ED01DA6EEE4C
:10460000A77A67EEAE7AA7EE808AD4ED010AF0EEC3
:104610004A1A94ED000AB0EE6C1AFFF74FFEF0EE66
:104620006C9AA6EC01EAB0EE4ADA38EE00EA9BE7B3
:1046300078EEA00AF4EEC00AF1EE10FAA8BF70EE10
:10464000C00AC4ED010AE0E784ED02EA84ED06DA6F
:10465000C4ED059AC4ED048A84ED039ABDEC0E8B7B
:1046600070BD00BF00000000F4EE007A70B5B4EE3B
:10467000670A04460E461546F1EE10FA2DED108B32
:1046800027FE800AF5EE007A90ED04EA84B090ED02
:1046900005FAF4EE670A90ED069AD0ED079A30EE2F
:1046A0004E0A31EE491AD0ED03FAF1EE10FA71EE2E
:1046B000E91A67FEA00A07EE902A70EECF0AF8EE1C
:1046C000677AC0EE27BAC0EEA7CA81EE27DA81EE7C
:1046D000A7CA013DC0F0A98094ED018A3EEE2BEA05
:1046E00094ED007AF7EE00EA94ED021A3FEE2CFA10
:1046F000DFED558A7EEE0E7A3EEE077A7CEE29AA31
:1047000037EE888A3DEE09BA84ED007AB4EEEE8A7F
:1047100084ED018AF1EE10FA7BDB38EE6E8A8DEDC6
:10472000017AB4EEEE7AF6EE006A88EE27AA84EDFE
:10473000018ACDED036AF1EE10FAF0EE491AB0EEFF
:10474000692AB5BFF0EE667AF0EE687AB0EE660AD6
:10475000B0EE6E0AF7EE000ACDED027A7EEECADA0E
:10476000ADEE8C2AEDEE8D1AADEE8F1AFFF736FE08
:10477000DDED027A9FED341AB0EE409AB0EE6A2A6F
:10478000B0EE670AF0EE4B1AF0EE410AFFF726FE94
:10479000DDED036A30EE490A9DED017A6AEE267A74
:1047A000B4EEEE7A67EE8A7AF1EE10FA2AEE0FAAEC
:1047B000E0EE27FAFEEE007A84ED02AA6DEEA77A0B
:1047C00067EEAD7AE7EE808A03DD28EE268A84ED77
:1047D000008AD4ED007AB0EE6A2A94ED021AF0EE67
:1047E0004B1AF4EEEE7AD4ED010AB0EE4B9AF0EEED
:1047F0006A9AF1EE10FAA4BF77EEEE7AC4ED007A71
:1048000094ED000AFFF7EAFDE6EC01FA78EE80FA93
:104810005FE73FEE011AB4EEEE1AF1EE10FAA8BF10
:1048200031EE6E1A84ED021AD3E7C4ED03FAC4ED3B
:10483000079A84ED069A84ED05FA84ED04EA04B043
:10484000BDEC108B70BD00BF000000002DE9F041F1
:104850002DED088B91ED019AB3EE08BA82B00F46A8
:10486000B0EE490A044616461D46FFF729FBF0EE56
:10487000408AB0EE4B0A97ED027ADFED657AF7EEEB
:10488000009ADDF84080A7EE270AFFF719FBB0EE8B
:10489000408ABBEE080AD7ED04AADFED5E7AAAEEE5
:1048A000A70AFDF7E1FDF6EE007AF0EE001A97EDAB
:1048B000037A9FED591AB0EE40AAF4EEE7AA31460A
:1048C00037EE417A4246F0EE480A04F11000F1EE6C
:1048D00010FAB0EE680A4ABFF0EE697ADFED4F7A5F
:1048E000EAEEE17A71EEE71A61EEA71AF0EE697A64
:1048F000CDED011AE8EECB7AF5EEC07AF1EE10FAC2
:1049000048BFDFED467AA7EE271A8DED001AFFF7B4
:10491000F7FD68EE0A0A9FED428A42462946B0EE4C
:10492000680ADDED011A9DED001A04F12C00FFF775
:10493000E7FD68EE887A9FED3B7A32469FED3A8A32
:104940002B4627EE877A4FEA880602EB8801A7EE0E
:10495000878A27EE888A78EE297A84ED1A8A89EE8A
:10496000A7AA84ED1BAA914218D0B3EC017AD2ED2C
:10497000007AD4ED1C6A77EE877A94ED1A7A94ED7A
:104980001B6AE7EE876AE6EEC67A27EE277AA6EE7E
:10499000867A84ED1C7AE2EC017AE4E7B0EE490A0B
:1049A00097ED027ADFED217A2E44A7EE270AFFF772
:1049B00087FA4246F0EE400A2946B0EE680AD7ED83
:1049C000041A97ED031A04F14800FFF74DFE84ED39
:1049D0001D8A84ED1EAAB54214D095ED007AD4ED5F
:1049E0001D7AD4ED1F6A94ED1E6AE7EE276AA6EEE3
:1049F000C67A67EE877AE6EE867AC4ED1F7AA5EC72
:104A0000017AE8E702B0BDEC088BBDE8F08100BF99
:104A10000000A84200004042C3F5A83E000000008C
:104A20009A99993ED7573941DB0F49400000C0425F
:104A3000704700009FED913AB4EEC30AF0B5F1EE75
:104A400010FA059C00F18E80F5EE007AB4EE670A4C
:104A5000F1EE10FA37FE800AF0EEC07AB6EE007A78
:104A600077EEA77AF4EEC77AF1EE10FA0ADCF7EEE9
:104A7000006A76EEE77AF4EEC77AF1EE10FA58BFE4
:104A8000F0EE477A06EE104AD0ED056AD0ED015AF5
:104A90002546F8EE463A90ED066A30EE660A0E4676
:104AA00077EEC67A80EE232AC7EEA31A013D5CD3C7
:104AB000D0ED007A76EE826A90F810C036EE216A68
:104AC0009FED6F5AF7EE004A76EEA77AB4EEE76AEA
:104AD000C0ED007AF1EE10FA94BF01270027BC4523
:104AE00010D077EEC62A077482EEA64A64EE072A33
:104AF000E4EE225A34EEC44AFEEE002A64EE222A84
:104B0000A4EE225AF4EEE47AF1EE10FA13DB77EE1B
:104B1000E47A0027077487EEA64AC0ED007A64EEB7
:104B2000077A74EEC44AE4EE675AFEEE007A64EE49
:104B3000A77AA4EEE75AD0ED007AF7EE004AB0EE7D
:104B4000004AB4EEE76ADFED4E7AF1EE10FA77FE36
:104B5000A47AFFEE004AE5EE844A75EE275AE6ECA9
:104B6000014AA3E7B0EE430A76E7F4EEC30AC0EDCC
:104B7000015A80ED066AC0ED056AF1EE10FA51D4D3
:104B8000F5EE007AF4EE670AF1EE10FA77FEA00A6D
:104B9000F0EEE07A77EEA77AF4EEC77AF1EE10FA4B
:104BA0000CDCF7EE006A76EEE77AF6EE006AF4EED9
:104BB000C77AF1EE10FA58BFF0EE667AD0ED0C6AC3
:104BC0002546D0ED0D4A164670EEE60AD0ED085A9D
:104BD00077EEE47AC0EEA32A87EEA33A013D39D3FB
:104BE000D0ED077A76EEA26A9FED255AB7EE006AFD
:104BF00074EE834A76EEA77AF4EEC67AF1EE10FAF6
:104C000013DAC0ED077AF0EE457AB0EE004A90ED87
:104C1000075ABFEE006AA5EE846A77EE855AA6ECC5
:104C2000016ADBE7DFED150AB2E777EEC67A87EEB9
:104C3000A64AC0ED077A64EE077A36EE446AE4EEDF
:104C4000675ABEEE004AF0EE457A26EE044AE6EEDA
:104C5000447ADAE7C0ED085AC0ED0D4AC0ED0C6A9F
:104C6000013C0AD3F1EC016AB2EC017AF3EC017A6F
:104C7000E6EE877A43ED017AF2E7F0BDBD3786357F
:104C80000000000070B50026044618220D4606619B
:104C900000214661203040F8086C40F8046C14F0A4
:104CA000EFF804F13800FEF7DBFB04F14C00FEF7EF
:104CB000D7FB234604F1A80126666666A666E6666B
:104CC0004FF07E504FF07C525E671C33D865012058
:104CD0005A6583F8640015481E669866DA6699423C
:104CE000EED104F58C70FEF7BBFB04F59670FEF771
:104CF000B7FBAB685F2B85BF2A68603B002202F1DF
:104D0000600188BFAB60AB6888BF29605F2BC4F8C7
:104D1000402185BF2A68603B002202F1600184BF08
:104D2000AB602960C4F8442170BD00BF6F12833AA4
:104D300060EE007ADFED156A9FED157AA7EEA67A90
:104D4000DFED146AE7EE876A9FED137AA7EEA67A85
:104D5000DFED126AE7EE876A9FED117AA7EEA67A79
:104D600020EE070AB7EE007A80ED000AC7EE206A4F
:104D7000F0EE477AE6EE807AC0ED016AE0EE007A66
:104D8000C7EE276AC0ED026A704700BF23FE2E45BA
:104D900090ECAC428F34214365482342A95D254104
:104DA000DB0F4940D0ED036A90ED047A013B1CD340
:104DB00090ED016AF1EC017AD0ED025AE6EE667AE6
:104DC00090ED006AE6EE667A77EEC77A67EEA57A2E
:104DD000E6EE276AF0EE665AE6EE276AA6EE257A38
:104DE000E2EC015AA6EE257AE0E7C0ED036A80ED19
:104DF000047A7047D0ED036A90ED047A013B1CD32E
:104E000090ED016AF1EC017AD0ED025AE6EE667A95
:104E100090ED006AE6EE667A77EEC77A67EEA57ADD
:104E2000E6EE276AE2EC017AF0EE665AE6EE276AD1
:104E3000A6EE257AA6EE257AE0E7C0ED036A80EDBE
:104E4000047A70472DE9F04F2DED0A8BB7EE009AEA
:104E5000A1B0F0EE40AA9FEDD00AF1EE618A0446BF
:104E600021EEC00A1746B0EE49BA0D91B0EE60CA05
:104E7000B0EE418AB0EE61AAF0EE429AFDF7F4FA84
:104E8000DFEDC67AF0EE49BAA0EE67BA9FEDC40A2C
:104E900028EE800AFDF7E8FADFEDC27ADDE9356534
:104EA000E0EE67BA9FB1F6EE006A39EE4A6AF7EEB5
:104EB000087AE6EE267ADFEDBC6AB0EE677ADFEDBF
:104EC000BB7AEAEEA67A67EE277AC4ED007ADFF8BD
:104ED00000C30EAF7CEE0C6ABCE80F000FC79CE865
:104EE00003000EAA14AB87E803000627F2EC017A50
:104EF0009FEDAF7A66EEA77AF4EE477AF1EE10FAFC
:104F000067FE277A9FEDAB7A013F67EE877AFCEE6A
:104F1000E77AE3EC017AE9D104F110030DF1680CB2
:104F200004F1280E0B931868083353F8041C6246EA
:104F3000734503C29446F6D11A9BAB461699039368
:104F4000149B189A04931B9BDDF80C900893159BF7
:104F5000089800931C9B079602931D9B0A93179B2E
:104F6000DDF828A005931E9B01931F9B0C93199BB2
:104F7000DDF830800693009B03EB000E029B03EBF1
:104F8000010C019B9818002309930BF1FF3B069B32
:104F9000BBF1FF3F9844049B9944059B9A441FD062
:104FA0004FEADA73BFEE007ADFED836A03EBD97361
:104FB00003EBD87303EBDE7303EBDC738C4403EB7E
:104FC000D073104407EE903A079BF8EEE77AA7EE0D
:104FD000A67AA3EC017A0793009B9E440123D3E7B2
:104FE0000C9B069800FB0539DDE9033000FB053C0E
:104FF0000A9B059800FB053E029B009801FB0531CA
:10500000089B00FB0538019B02FB0532099B2BB175
:10501000CDE91AC8CDE91C1ECDE91E290DF1680C99
:105020000B9B0DF1800E6246083303CA724543F8AC
:10503000080C43F8041C9446F5D19FED600A28EE55
:10504000000AFDF711FADFED5E7A60EE278AF5EED1
:10505000C08AF1EE10FA4CD4DFED5A7AF4EE678A8A
:10506000F1EE10FA77FEA88AF1EE087A04F1280032
:10507000F0EE080AB0EE680A0090E8EE270AFFF7A3
:1050800057FE2B46324631460098B3EE008AFFF7B2
:1050900089FE69EEA99A79EE697AA7EE888A28EEE8
:1050A0000C8AB5EEC08AF1EE10FA25D4F6EE007A3D
:1050B000B4EE678AF1EE10FA37FE888AB046B14640
:1050C000AF4229D0D4ED017A78EE277AF4EEC97A8E
:1050D000F1EE10FA13DAC4ED017AD9ED007A013756
:1050E00094ED027A37EE677AE7EE297AE9EC017AF5
:1050F000E6E7DFED358AB7E79FED338ADEE777EE47
:10510000C97AC4ED017AFEF7A9FBF6EE007A30EE1B
:10511000670A84ED020AE0E794ED038A07EE905AED
:1051200006EB8503B0EE487AF8EEE77A9AEE2A7A33
:10513000C7EE275A43454DD0D4ED007AB6EE007A3B
:105140000D9AF4EEC77AF1EE10FA3BFE2B7A67EE79
:10515000877AC4ED007AD8ED006A1AB135EE888AF4
:10516000F0EE487AF5EEC06A9FED186AB2EE047A66
:10517000F1EE10FA37FE067A66EE876AB0EEE66A5E
:1051800036EE096A86EE867A37EE097A67EE277A76
:10519000E8EC017ACEE700BF0000A842A69B443BA2
:1051A000000010420AD7233B3333333F9A99993E8C
:1051B000EE7CFF3E0000804FC3F5A83E0000904209
:1051C000CDCC4C3BABAAAA3E00000000CDCCCC3DE0
:1051D00028A3010804F13C00F6EE000AB0EE680ACC
:1051E0000090FFF7A5FD2B46324631460098FFF7A9
:1051F00001FE84ED038A21B0BDEC0A8BBDE8F08F7F
:105200002DE9F04F2DED0A8BB7EE00BA85B0F0EE28
:1052100040BA9FED960AF1EE618A044621EEC00A7B
:105220008A46B0EE4BAA9046B0EE60CA1F46B0EE7A
:10523000418A1A9EF0EE619AB0EE429AFDF714F997
:10524000DFED8B7AF0EE4BAAA0EE67AA9FED890AFC
:1052500028EE800AFDF708F9DFED877ADDE918B559
:10526000E0EE67AAB8F1000F13D0F6EE006A3BEE4D
:10527000696AF7EE087AE6EE267ADFED806AB0EE2C
:10528000677ADFED7F7AEBEEA67A67EE277AC4EDD8
:10529000007A3CEE0C7ADFED7B7A4FEA860900213A
:1052A0002846A84677EE277A4A46C7EE278A13F0A3
:1052B000E7FDDFED750A2B469FED740A5A46394625
:1052C00004F11000009668EEA00A28EE800AFFF7AD
:1052D000B1FBDFED6F0A9FED6F0A2B4668EEA00A67
:1052E0005A4628EE800A394604F148000096FFF736
:1052F000A1FBF4EE0C0A9FED680A2B465A4639468C
:1053000068EEA00A04F1800028EE800A0096FFF7FC
:1053100091FB9FED620A28EE000AFDF7A5F8DFED8C
:10532000607A60EE278AF5EEC08AF1EE10FA48D472
:10533000DFED5C7AF4EE678AF1EE10FA77FEA88A68
:1053400004F1B800F7EE000AB0EE680A0390FFF728
:10535000EFFC33462A4629460398FFF723FD29EE42
:10536000099AB3EE008A7BEE497AA7EE888A28EE86
:105370000C8AB5EEC08AF1EE10FA25D4F6EE007A6A
:10538000B4EE678AF1EE10FA37FE888AAB46002742
:10539000B74229D0D4ED017A78EE277AF4EECB7AB1
:1053A000F1EE10FA13DAC4ED017ADBED007A013781
:1053B00094ED027A37EE677AE7EE097AEBEC017A40
:1053C000E6E7DFED398ABBE79FED378ADEE777EE68
:1053D000CB7AC4ED017AFEF741FAF6EE007A30EEB0
:1053E000670A84ED020AE0E794ED038A07EE906A0B
:1053F000A944B0EE487AF8EEE77A99EEAB7AC7EEB8
:10540000276AC1451BD0D4ED007AB6EE007AF4EEDF
:10541000C77AF1EE10FA3AFE2A7A67EE877AC4ED7F
:10542000007A98ED007ABAF1000F03D036EE888A40
:10543000F0EE487A67EE277AE8EC017AE1E704F1CA
:10544000CC00F6EE000AB0EE680A0390FFF770FC9D
:1054500033462A4629460398FFF7CCFC84ED038A9D
:1054600005B0BDEC0A8BBDE8F08F00BF0000A8427C
:10547000A69B443B000010420AD7233B3333333F03
:105480009A99993E0AD7233CD7A3203E8988883B26
:1054900044442C3E7B142E3C602C793C000090420E
:1054A000CDCC4C3BABAAAA3E00000000F2EE027A43
:1054B00091ED010A2DE9F04130EE670ADFED2A7A1D
:1054C00086B005460C461746B4EEE70A1E46DDF8E0
:1054D0003080F1EE10FA44D4DFED247AB4EE670A9E
:1054E000F1EE10FA37FE800AFCF7BEFFDFED200A6E
:1054F000217805F1100060EE200AD5F8443194EDD2
:10550000042A01F00102D4ED031AC1F3400194ED25
:10551000021A94ED050A0093D5F84031CDED050A45
:10552000CDE90178FFF78EFC2178D5F8443105F1FB
:10553000600001F0010294ED042A0093C1F34001E0
:10554000D5F84031D4ED031A94ED021ADDED050AC9
:1055500094ED050ACDE90168FFF752FE06B0BDE8FB
:10556000F081B0EE670ABFE7000000C30000FE4212
:10557000519696398B685F2B85BF0A68603B002285
:105580008B604FF0000310B484BF02F160040C6024
:10559000C0F8403103685DF8044B5B68C0F83C21FB
:1055A0001847103002F038BE2DE9F04387B0174697
:1055B00098460C46DDF838900546002138464FEAFB
:1055C0008902059213F05CFC059A0021404613F015
:1055D00057FC95ED501AD4ED047A05F110009FEDBB
:1055E0002A7A77EEC17A267894ED050AC6F340014F
:1055F00006F00102A7EE871AD4ED017AB2EE027A24
:1056000077EEC77A9FED217A85ED501AF4EEC77ACE
:10561000F1EE10FA35D49FED1E7AF4EE477AF1EEF2
:1056200010FA77FE277A9FED1B7A1B4E77EE877A6A
:1056300094ED032AD4ED021A0097BDEEE77ACDE986
:105640000189F8EEC76A17EE10CA77EEE67AFEEE29
:10565000CC7A17EE903A06EB8306104B03EB8C03E3
:10566000D6ED007AD3ED000AD5F83C3167EEA07A8A
:10567000DFED0B0A67EEA00A02F0DAFD07B0BDE825
:10568000F083F0EE477ACEE70AD7233C000000C350
:105690000000FE4200000043E8DD0108ECE10108E3
:1056A000519696397047000070B5184B0025044696
:1056B000303040F8143C0E4640F8043C40F8205C82
:1056C00040F81C5C40F8185C40F8105C40F80C5C3A
:1056D00040F8085CFDF7C4FE04F14400FDF7C0FE8D
:1056E00004F15800FDF7BCFEB368E5665F2B256743
:1056F000656786BF3268603B0022A56782BF02F102
:105700006001B3603160E26770BD00BF6F12833A21
:10571000B5EEC00ADFED493A70B5F1EE10FA5ED48D
:10572000F7EE007AB4EE670AF1EE10FA37FE800A5F
:10573000D0ED035A07EE903A90ED027A30EE650A0A
:1057400090ED015AF8EE677A80EE273A11B14FF0EA
:105750007E5101603A4C00252168013B64D3394EEB
:10576000FFEE004A384D75EE835ADFED386A06FBCE
:10577000015107EE901AF8EE677A67EEA67AF0EE1E
:10578000006AE7EEA64AF5EE007AF1EE006A75EEE1
:10579000E77A67EEA67AF7EE006AF5EEC07AF1EEE8
:1057A00010FA1FD4F4EE667AF1EE10FA76FEA77ABC
:1057B00090ED006A35EE866AB4EEE66AF1EE10FA14
:1057C00013DA80ED006A9FED1D6A74EEC74A012569
:1057D000A4EEA77AA2EC017A36EE057ABDE7B0EE28
:1057E000630AA5E7DFED157AE2E736EE666A34EE86
:1057F000C55A86EE254A80ED006AB6EE006A24EEB0
:10580000066A76EEC46A26EE046AA5EE067ABEEE55
:10581000006A26EE866A66EE266AB0EE636AA5EE38
:10582000266AB0EE645AD0E705B1216080ED027AB5
:1058300080ED015AC0ED035A70BD00BF00000000AA
:10584000200000240D6619005FF36E3C0000802FDD
:1058500090ED037AD0ED017A90ED006AA7EEC70AC9
:10586000D0ED046AD0ED025AA7EE460A70EE667AD1
:1058700067EEA57AA6EE277AB0EE470AA6EE277A5B
:10588000E6EE006A80ED037AE6EE006AC0ED046A97
:10589000704700002DE9F0472DED0C8B91ED018A4A
:1058A0000D4682B00446B0EE480A1E469146FEF709
:1058B00007FB95ED047AB0EE409ADFED867AB3EE01
:1058C000080A169FF6EE00CAA7EE278A38EE400AAD
:1058D000FEF7F6FA95F80080FBEE087A95ED027A6D
:1058E00018F0020FF0EE408A9FED7B0A07FE800A57
:1058F000DFED7A7A77EEC07AA7EE270AFEF7E0FAB4
:10590000DFED777AB0EE408A95ED030A20EE270AA4
:10591000FCF7AAFD08F00101F0EE409A3B46B0EE1C
:10592000480A324604F110000191FFF7F1FE28EE1B
:10593000888A3B46E26F019904F1200088EE090A4B
:10594000C846FFF7E5FE94ED1D8A07EE907A94EDC8
:105950001BBA94ED1CCAD4ED1EBAB0EE487AD4F846
:105960007CA0F8EE677A39EE4B9A99EEAC7A78EE35
:10597000CC8AC9EE27AAC7EE279A95ED047A354658
:1059800037EE6B7A88EEA7AA87EE279A002F00F0F1
:1059900094809FED547A04F1440904F1300004F13D
:1059A0005806013F38EE298AF7EE008A3BEE2ABA04
:1059B00078EE2C7A3CEE0ACAF0EE480A67EE877A57
:1059C000B0EE4B0A67EE8B7AF1EEE77A88EEA7DA53
:1059D000FFF7AEF94846F0EE480AB0EE4B0AFFF783
:1059E000A7F9F0EE480AB0EE4C0A3046FFF7A0F9EE
:1059F0007BEE89BA95ED000AB0EE685AFAEC017AAE
:105A0000F0EE686A7BEEEC5A94ED0F7AF1EE6B4A99
:105A100094ED106A4846F0EEE55A2DEE000A2DEEA0
:105A200027DAF0EE007AABEEE75AE4EEA78AD4ED7F
:105A30000E4AE5EEE76AD4ED0D5AF0EE407AE7EE55
:105A4000657AD4ED0C5AB5EEC05AF1EE10FAF5EEC7
:105A5000C08AE7EE657AC8BF9FED1F5AF1EE10FAD3
:105A600048BFDFED1D8A77EEC67A67EEA47AA5EE11
:105A7000A77AA5EE876AB0EE474AA5EEA74AF0EEF0
:105A8000464AE5EE874A26EE877AA5EE277AA8EE03
:105A9000867AA8EC017A84ED0F4AC4ED104AFFF72C
:105AA000D7FEF0EE408A3046B0EE4D0AFFF7D0FE4A
:105AB00038EE800AA5EC010A68E7C4ED1EBA84ED51
:105AC0001D8A84ED1CCA84ED1BBA02B0BDEC0C8BA0
:105AD000BDE8F087000040420000000000000043E5
